:020000040000FA
:0100000000FF
:0100010018E6
:0100020010ED
:0100030008F4
:0100040000FB
:0100050018E2
:0100060010E9
:0100070008F0
:0100080000F7
:0100090018DE
:01000A0010E5
:01000B0008EC
:01000C0000F3
:01000D0018DA
:01000E0010E1
:01000F0008E8
:0100100000EF
:0100110019D5
:0100120011DC
:0100130009E3
:0100140001EA
:0100150019D1
:0100160011D8
:010017000ADE
:0100180002E5
:010019001ACC
:01001A0012D3
:01001B000ADA
:01001C0003E0
:01001D001BC7
:01001E0013CE
:01001F000BD5
:0100200003DC
:010021001CC2
:0100220014C9
:010023000CD0
:0100240004D7
:010025001DBD
:0100260015C4
:010027000DCB
:0100280006D1
:010029001EB8
:01002A0016BF
:01002B000FC5
:01002C0007CC
:01002D001FB3
:01002E0018B9
:01002F0010C0
:0100300008C7
:0100310001CD
:0100320019B4
:0100330011BB
:010034000AC1
:0100350002C8
:010036001BAE
:0100370013B5
:010038000BBC
:0100390004C2
:01003A001CA9
:01003B0015AF
:01003C000DB6
:01003D0006BC
:01003E001EA3
:01003F0017A9
:010040000FB0
:0100410007B7
:0100420000BD
:0100430018A4
:0100440011AA
:0100450009B1
:0100460002B7
:010047001B9D
:0100480013A4
:010049000CAA
:01004A0004B1
:01004B001D97
:01004C00159E
:01004D000EA4
:01004E0006AB
:01004F001F91
:010050001897
:01005100109E
:0100520009A4
:0100530001AB
:010054001A91
:010055001397
:010056000B9E
:0100570004A4
:010058001D8A
:010059001591
:01005A000E97
:01005B00069E
:01005C001F84
:01005D00188A
:01005E001190
:01005F000997
:01006000029D
:010061001B83
:01006200138A
:010063000C90
:010064000596
:010065001D7D
:010066001683
:010067000F89
:01006800088F
:010069000096
:01006A00197C
:01006B001282
:01006C000B88
:01006D00048E
:01006E001C75
:01006F00157B
:010070000E81
:010071000787
:01007200008D
:010073001874
:01007400117A
:010075000A80
:010076000386
:010077001C6C
:010078001572
:010079000E78
:01007A00067F
:01007B001F65
:01007C00186B
:01007D001171
:01007E000A77
:01007F00037D
:010080001C63
:010081001569
:010082000E6F
:010083000775
:010084001F5C
:010085001862
:010086001168
:010087000A6E
:010088000374
:010089001C5A
:01008A001560
:01008B000E66
:01008C00076C
:01008D000072
:01008E001958
:01008F00125E
:010090000B64
:01009100046A
:010092001D50
:010093001656
:010094000F5C
:010095000862
:010096000168
:010097001A4E
:010098001453
:010099000D59
:01009A00065F
:01009B001F45
:01009C00184B
:01009D001151
:01009E000A57
:01009F00035D
:0100A0001C43
:0100A1001549
:0100A2000F4E
:0100A3000854
:0100A400015A
:0100A5001A40
:0100A6001346
:0100A7000C4C
:0100A8000552
:0100A9001F37
:0100AA00183D
:0100AB001143
:0100AC000A49
:0100AD00034F
:0100AE001D34
:0100AF00163A
:0100B0000F40
:0100B1000846
:0100B200014C
:0100B3001B31
:0100B4001437
:0100B5000D3D
:0100B6000643
:0100B7000048
:0100B800192E
:0100B9001234
:0100BA000B3A
:0100BB00053F
:0100BC001E25
:0100BD00172B
:0100BE001130
:0100BF000A36
:0100C000033C
:0100C1001C22
:0100C2001627
:0100C3000F2D
:0100C4000833
:0100C5000238
:0100C6001B1E
:0100C7001424
:0100C8000E29
:0100C900072F
:0100CA000134
:0100CB001A1A
:0100CC001320
:0100CD000D25
:0100CE00062B
:0100CF000030
:0100D0001916
:0100D100121C
:0100D2000C21
:0100D3000527
:0100D4001F0C
:0100D5001812
:0100D6001118
:0100D7000B1D
:0100D8000423
:0100D9001E08
:0100DA00170E
:0100DB001113
:0100DC000A19
:0100DD00041E
:0100DE001D04
:0100DF001709
:0100E000100F
:0100E1000A14
:0100E200031A
:0100E3001DFF
:0100E4001605
:0100E500100A
:0100E6000910
:0100E7000315
:0100E8001CFB
:0100E9001600
:0100EA000F06
:0100EB00090B
:0100EC000310
:0100ED001CF6
:0100EE0016FB
:0100EF000F01
:0100F0000906
:0100F100020C
:0100F2001CF1
:0100F30016F6
:0100F4000FFC
:0100F5000901
:0100F6000306
:0100F7001CEC
:0100F80016F1
:0100F9000FF7
:0100FA0009FC
:0100FB000301
:0100FC001CE7
:0100FD0016EC
:0100FE0010F1
:0100FF0009F7
:0101000003FB
:010101001DE0
:0101020016E6
:0101030010EB
:010104000AF0
:0101050004F5
:010106001DDB
:0101070017E0
:0101080011E5
:010109000AEB
:01010A0004F0
:01010B001ED5
:01010C0018DA
:01010D0011E0
:01010E000BE5
:01010F0005EA
:010110001FCF
:0101110018D5
:0101120012DA
:010113000CDF
:0101140006E4
:0101150000E9
:0101160019CF
:0101170013D4
:010118000DD9
:0101190007DE
:01011A0001E3
:01011B001AC9
:01011C0014CE
:01011D000ED3
:01011E0008D8
:01011F0002DD
:010120001CC2
:0101210015C8
:010122000FCD
:0101230009D2
:0101240003D7
:010125001DBC
:0101260017C1
:0101270011C6
:010128000BCB
:0101290004D1
:01012A001EB6
:01012B0018BB
:01012C0012C0
:01012D000CC5
:01012E0006CA
:01012F0000CF
:010130001AB4
:0101310014B9
:010132000EBE
:0101330008C3
:0101340002C8
:010135001CAD
:0101360016B2
:0101370010B7
:0101380009BD
:0101390003C2
:01013A001DA7
:01013B0017AC
:01013C0011B1
:01013D000BB6
:01013E0005BB
:01013F001FA0
:0101400019A5
:0101410013AA
:010142000DAF
:0101430008B3
:0101440002B8
:010145001C9D
:0101460016A2
:0101470010A7
:010148000AAC
:0101490004B1
:01014A001E96
:01014B00189B
:01014C0012A0
:01014D000CA5
:01014E0006AA
:01014F0000AF
:010150001A94
:010151001499
:010152000F9D
:0101530009A2
:0101540003A7
:010155001D8C
:010156001791
:010157001196
:010158000B9B
:0101590005A0
:01015A0000A4
:01015B001A89
:01015C00148E
:01015D000E93
:01015E000898
:01015F00029D
:010160001D81
:010161001786
:01016200118B
:010163000B90
:010164000595
:010165001F7A
:010166001A7E
:010167001483
:010168000E88
:01016900088D
:01016A000391
:01016B001D76
:01016C00177B
:01016D001180
:01016E000B85
:01016F000689
:01017000008E
:010171001A73
:010172001478
:010173000F7C
:010174000981
:010175000386
:010176001E6A
:01017700186F
:010178001274
:010179000C79
:01017A00077D
:01017B000182
:01017C001B67
:01017D00166B
:01017E001070
:01017F000A75
:010180000579
:010181001F5E
:010182001963
:010183001467
:010184000E6C
:010185000871
:010186000375
:010187001D5A
:01018800175F
:010189001263
:01018A000C68
:01018B00066D
:01018C000171
:01018D001B56
:01018E00165A
:01018F00105F
:010190000A64
:010191000568
:010192001F4D
:010193001A51
:010194001456
:010195000E5B
:01019600095F
:010197000364
:010198001E48
:01019900184D
:01019A001351
:01019B000D56
:01019C00085A
:01019D00025F
:01019E001C44
:01019F001748
:0101A000114D
:0101A1000C51
:0101A2000656
:0101A300015A
:0101A4001B3F
:0101A5001643
:0101A6001048
:0101A7000B4C
:0101A8000551
:0101A9000055
:0101AA001A3A
:0101AB00153E
:0101AC000F43
:0101AD000A47
:0101AE00044C
:0101AF001F30
:0101B0001A34
:0101B1001439
:0101B2000F3D
:0101B3000942
:0101B4000446
:0101B5001E2B
:0101B600192F
:0101B7001334
:0101B8000E38
:0101B900093C
:0101BA000341
:0101BB001E25
:0101BC00182A
:0101BD00132E
:0101BE000E32
:0101BF000837
:0101C000033B
:0101C1001D20
:0101C2001824
:0101C3001328
:0101C4000D2D
:0101C5000831
:0101C6000335
:0101C7001D1A
:0101C800181E
:0101C9001223
:0101CA000D27
:0101CB00082B
:0101CC000230
:0101CD001D14
:0101CE001818
:0101CF00121D
:0101D0000D21
:0101D1000825
:0101D2000329
:0101D3001D0E
:0101D4001812
:0101D5001316
:0101D6000D1B
:0101D700081F
:0101D8000323
:0101D9001D08
:0101DA00180C
:0101DB001310
:0101DC000E14
:0101DD000819
:0101DE00031D
:0101DF001E01
:0101E0001905
:0101E100130A
:0101E2000E0E
:0101E3000912
:0101E4000416
:0101E5001EFB
:0101E60019FF
:0101E7001403
:0101E8000F07
:0101E9000A0B
:0101EA000410
:0101EB001FF4
:0101EC001AF8
:0101ED0015FC
:0101EE001000
:0101EF000A05
:0101F0000509
:0101F100000D
:0101F2001BF1
:0101F30016F5
:0101F40010FA
:0101F5000BFE
:0101F6000602
:0101F7000106
:0101F8001CEA
:0101F90017EE
:0101FA0011F3
:0101FB000CF7
:0101FC0007FB
:0101FD0002FF
:0101FE001DE3
:0101FF0018E7
:0102000013EA
:010201000EEE
:0102020008F3
:0102030003F7
:010204001EDB
:0102050019DF
:0102060014E3
:010207000FE7
:010208000AEB
:0102090005EF
:01020A0000F3
:01020B001BD7
:01020C0016DB
:01020D0010E0
:01020E000BE4
:01020F0006E8
:0102100001EC
:010211001CD0
:0102120017D4
:0102130012D8
:010214000DDC
:0102150008E0
:0102160003E4
:010217001EC8
:0102180019CC
:0102190014D0
:01021A000FD4
:01021B000AD8
:01021C0005DC
:01021D0000E0
:01021E001BC4
:01021F0016C8
:0102200011CC
:010221000CD0
:0102220007D4
:0102230002D8
:010224001DBC
:0102250018C0
:0102260013C4
:010227000EC8
:0102280009CC
:0102290004D0
:01022A001FB4
:01022B001AB8
:01022C0015BC
:01022D0010C0
:01022E000BC4
:01022F0006C8
:0102300001CC
:010231001DAF
:0102320018B3
:0102330013B7
:010234000EBB
:0102350009BF
:0102360004C3
:010237001FA7
:010238001AAB
:0102390015AF
:01023A0010B3
:01023B000BB7
:01023C0007BA
:01023D0002BE
:01023E001DA2
:01023F0018A6
:0102400013AA
:010241000EAE
:0102420009B2
:0102430004B6
:0102440000B9
:010245001B9D
:0102460016A1
:0102470011A5
:010248000CA9
:0102490007AD
:01024A0002B1
:01024B001E94
:01024C001998
:01024D00149C
:01024E000FA0
:01024F000AA4
:0102500006A7
:0102510001AB
:010252001C8F
:010253001793
:010254001297
:010255000D9B
:01025600099E
:0102570004A2
:010258001F86
:010259001A8A
:01025A00168D
:01025B001191
:01025C000C95
:01025D000799
:01025E00029D
:01025F001E80
:010260001984
:010261001488
:010262000F8C
:010263000B8F
:010264000693
:010265000197
:010266001C7B
:01026700187E
:010268001382
:010269000E86
:01026A000A89
:01026B00058D
:01026C000091
:01026D001B75
:01026E001778
:01026F00127C
:010270000D80
:010271000983
:010272000487
:010273001F6B
:010274001B6E
:010275001672
:010276001176
:010277000C7A
:01027800087D
:010279000381
:01027A001E65
:01027B001A68
:01027C00156C
:01027D001070
:01027E000C73
:01027F000777
:01028000037A
:010281001E5E
:010282001962
:010283001565
:010284001069
:010285000B6D
:010286000770
:010287000274
:010288001E57
:01028900195B
:01028A00145F
:01028B001062
:01028C000B66
:01028D00066A
:01028E00026D
:01028F001D51
:010290001954
:010291001458
:01029200105B
:010293000B5F
:010294000663
:010295000266
:010296001D4A
:01029700194D
:010298001451
:010299001054
:01029A000B58
:01029B00065C
:01029C00025F
:01029D001D43
:01029E001946
:01029F00144A
:0102A000104D
:0102A1000B51
:0102A2000754
:0102A3000258
:0102A4001E3B
:0102A500193F
:0102A6001542
:0102A7001046
:0102A8000C49
:0102A900074D
:0102AA000350
:0102AB001E34
:0102AC001A37
:0102AD00153B
:0102AE00113E
:0102AF000C42
:0102B0000845
:0102B1000349
:0102B2001F2C
:0102B3001A30
:0102B4001633
:0102B5001137
:0102B6000D3A
:0102B700083E
:0102B8000441
:0102B9001F25
:0102BA001B28
:0102BB00162C
:0102BC00122F
:0102BD000E32
:0102BE000936
:0102BF000539
:0102C000003D
:0102C1001C20
:0102C2001724
:0102C3001327
:0102C4000F2A
:0102C5000A2E
:0102C6000631
:0102C7000135
:0102C8001D18
:0102C900181C
:0102CA00141F
:0102CB001022
:0102CC000B26
:0102CD000729
:0102CE00032C
:0102CF001E10
:0102D0001A13
:0102D1001517
:0102D200111A
:0102D3000D1D
:0102D4000821
:0102D5000424
:0102D6000027
:0102D7001B0B
:0102D800170E
:0102D9001212
:0102DA000E15
:0102DB000A18
:0102DC00051C
:0102DD00011F
:0102DE001D02
:0102DF001806
:0102E0001409
:0102E100100C
:0102E2000B10
:0102E3000713
:0102E4000316
:0102E5001EFA
:0102E6001AFD
:0102E7001600
:0102E8001203
:0102E9000D07
:0102EA00090A
:0102EB00050D
:0102EC000011
:0102ED001CF4
:0102EE0018F7
:0102EF0014FA
:0102F0000FFE
:0102F1000B01
:0102F2000704
:0102F3000208
:0102F4001EEB
:0102F5001AEE
:0102F60016F1
:0102F70011F5
:0102F8000DF8
:0102F90009FB
:0102FA0005FE
:0102FB000002
:0102FC001CE5
:0102FD0018E8
:0102FE0014EB
:0102FF000FEF
:010300000BF1
:0103010007F4
:0103020003F7
:010303001EDB
:010304001ADE
:0103050016E1
:0103060012E4
:010307000EE7
:0103080009EB
:0103090005EE
:01030A0001F1
:01030B001DD4
:01030C0019D7
:01030D0014DB
:01030E0010DE
:01030F000CE1
:0103100008E4
:0103110004E7
:010312001FCB
:010313001BCE
:0103140017D1
:0103150013D4
:010316000FD7
:010317000BDA
:0103180006DE
:0103190002E1
:01031A001EC4
:01031B001AC7
:01031C0016CA
:01031D0012CD
:01031E000ED0
:01031F0009D4
:0103200005D7
:0103210001DA
:010322001DBD
:0103230019C0
:0103240015C3
:0103250011C6
:010326000CCA
:0103270008CD
:0103280004D0
:0103290000D3
:01032A001CB6
:01032B0018B9
:01032C0014BC
:01032D0010BF
:01032E000CC2
:01032F0008C5
:0103300003C9
:010331001FAC
:010332001BAF
:0103330017B2
:0103340013B5
:010335000FB8
:010336000BBB
:0103370007BE
:0103380003C1
:010339001FA4
:01033A001BA7
:01033B0017AA
:01033C0013AD
:01033D000EB1
:01033E000AB4
:01033F0006B7
:0103400002BA
:010341001E9D
:010342001AA0
:0103430016A3
:0103440012A6
:010345000EA9
:010346000AAC
:0103470006AF
:0103480002B2
:010349001E95
:01034A001A98
:01034B00169B
:01034C00129E
:01034D000EA1
:01034E000AA4
:01034F0006A7
:0103500002AA
:010351001E8D
:010352001A90
:010353001693
:010354001296
:010355000E99
:010356000A9C
:01035700069F
:0103580002A2
:010359001E85
:01035A001A88
:01035B00168B
:01035C00128E
:01035D000E91
:01035E000A94
:01035F000697
:01036000029A
:010361001E7D
:010362001A80
:010363001683
:010364001385
:010365000F88
:010366000B8B
:01036700078E
:010368000391
:010369001F74
:01036A001B77
:01036B00177A
:01036C00137D
:01036D000F80
:01036E000B83
:01036F000786
:010370000389
:010371001F6C
:010372001C6E
:010373001871
:010374001474
:010375001077
:010376000C7A
:01037700087D
:010378000480
:010379000083
:01037A001C66
:01037B001869
:01037C00156B
:01037D00116E
:01037E000D71
:01037F000974
:010380000577
:01038100017A
:010382001D5D
:010383001960
:010384001662
:010385001265
:010386000E68
:010387000A6B
:01038800066E
:010389000271
:01038A001E54
:01038B001B56
:01038C001759
:01038D00135C
:01038E000F5F
:01038F000B62
:010390000765
:010391000467
:01039200006A
:010393001C4D
:010394001850
:010395001453
:010396001155
:010397000D58
:01039800095B
:01039900055E
:01039A000161
:01039B001D44
:01039C001A46
:01039D001649
:01039E00124C
:01039F000E4F
:0103A0000B51
:0103A1000754
:0103A2000357
:0103A3001F3A
:0103A4001B3D
:0103A500183F
:0103A6001442
:0103A7001045
:0103A8000C48
:0103A900094A
:0103AA00054D
:0103AB000150
:0103AC001D33
:0103AD001936
:0103AE001638
:0103AF00123B
:0103B0000E3E
:0103B1000A41
:0103B2000743
:0103B3000346
:0103B4001F29
:0103B5001C2B
:0103B600182E
:0103B7001431
:0103B8001034
:0103B9000D36
:0103BA000939
:0103BB00053C
:0103BC00013F
:0103BD001E21
:0103BE001A24
:0103BF001627
:0103C0001329
:0103C1000F2C
:0103C2000B2F
:0103C3000732
:0103C4000434
:0103C5000037
:0103C6001C1A
:0103C700191C
:0103C800151F
:0103C9001122
:0103CA000E24
:0103CB000A27
:0103CC00062A
:0103CD00032C
:0103CE001F0F
:0103CF001B12
:0103D0001814
:0103D1001417
:0103D200101A
:0103D3000D1C
:0103D400091F
:0103D5000522
:0103D6000224
:0103D7001E07
:0103D8001A0A
:0103D900170C
:0103DA00130F
:0103DB000F12
:0103DC000C14
:0103DD000817
:0103DE00041A
:0103DF00011C
:0103E0001DFF
:0103E1001A01
:0103E2001604
:0103E3001207
:0103E4000F09
:0103E5000B0C
:0103E600070F
:0103E7000411
:0103E8000014
:0103E9001DF6
:0103EA0019F9
:0103EB0015FC
:0103EC0012FE
:0103ED000E01
:0103EE000B03
:0103EF000706
:0103F0000309
:0103F100000B
:0103F2001CEE
:0103F30019F0
:0103F40015F3
:0103F50011F6
:0103F6000EF8
:0103F7000AFB
:0103F80007FD
:0103F9000300
:0103FA000002
:0103FB001CE5
:0103FC0018E8
:0103FD0015EA
:0103FE0011ED
:0103FF000EEF
:010400000AF1
:0104010007F3
:0104020003F6
:0104030000F8
:010404001CDB
:0104050018DE
:0104060015E0
:0104070011E3
:010408000EE5
:010409000AE8
:01040A0007EA
:01040B0003ED
:01040C0000EF
:01040D001CD2
:01040E0019D4
:01040F0015D7
:0104100012D9
:010411000EDC
:010412000BDE
:0104130007E1
:0104140004E3
:0104150000E6
:010416001DC8
:0104170019CB
:0104180015CE
:0104190012D0
:01041A000ED3
:01041B000BD5
:01041C0008D7
:01041D0004DA
:01041E0001DC
:01041F001DBF
:010420001AC1
:0104210016C4
:0104220013C6
:010423000FC9
:010424000CCB
:0104250008CE
:0104260005D0
:0104270001D3
:010428001EB5
:010429001AB8
:01042A0017BA
:01042B0013BD
:01042C0010BF
:01042D000CC2
:01042E0009C4
:01042F0006C6
:0104300002C9
:010431001FAB
:010432001BAE
:0104330018B0
:0104340014B3
:0104350011B5
:010436000DB8
:010437000ABA
:0104380007BC
:0104390003BF
:01043A0000C1
:01043B001CA4
:01043C0019A6
:01043D0016A8
:01043E0012AB
:01043F000FAD
:010440000BB0
:0104410008B2
:0104420004B5
:0104430001B7
:010444001E99
:010445001A9C
:01044600179E
:0104470013A1
:0104480010A3
:010449000DA5
:01044A0009A8
:01044B0006AA
:01044C0002AD
:01044D001F8F
:01044E001C91
:01044F001894
:010450001596
:010451001298
:010452000E9B
:010453000B9D
:0104540007A0
:0104550004A2
:0104560001A4
:010457001D87
:010458001A89
:01045900178B
:01045A00138E
:01045B001090
:01045C000D92
:01045D000995
:01045E000697
:01045F000399
:010460001F7C
:010461001C7E
:010462001881
:010463001583
:010464001285
:010465000E88
:010466000B8A
:01046700088C
:01046800048F
:010469000191
:01046A001E73
:01046B001B75
:01046C001778
:01046D00147A
:01046E00117C
:01046F000D7F
:010470000A81
:010471000783
:010472000386
:010473000088
:010474001D6A
:01047500196D
:01047600166F
:010477001371
:010478001073
:010479000C76
:01047A000978
:01047B00067A
:01047C00027D
:01047D001F5F
:01047E001C61
:01047F001963
:010480001566
:010481001268
:010482000F6A
:010483000B6D
:01048400086F
:010485000571
:010486000273
:010487001E56
:010488001B58
:01048900185A
:01048A00155C
:01048B00115F
:01048C000E61
:01048D000B63
:01048E000865
:01048F000468
:01049000016A
:010491001E4C
:010492001B4E
:010493001751
:010494001453
:010495001155
:010496000E57
:010497000A5A
:01049800075C
:01049900045E
:01049A000160
:01049B001E42
:01049C001A45
:01049D001747
:01049E001449
:01049F00114B
:0104A0000D4E
:0104A1000A50
:0104A2000752
:0104A3000454
:0104A4000156
:0104A5001D39
:0104A6001A3B
:0104A700173D
:0104A800143F
:0104A9001141
:0104AA000D44
:0104AB000A46
:0104AC000748
:0104AD00044A
:0104AE00014C
:0104AF001D2F
:0104B0001A31
:0104B1001733
:0104B2001435
:0104B3001137
:0104B4000E39
:0104B5000A3C
:0104B600073E
:0104B7000440
:0104B8000142
:0104B9001E24
:0104BA001B26
:0104BB001729
:0104BC00142B
:0104BD00112D
:0104BE000E2F
:0104BF000B31
:0104C0000833
:0104C1000535
:0104C2000138
:0104C3001E1A
:0104C4001B1C
:0104C500181E
:0104C6001520
:0104C7001222
:0104C8000F24
:0104C9000B27
:0104CA000829
:0104CB00052B
:0104CC00022D
:0104CD001F0F
:0104CE001C11
:0104CF001913
:0104D0001615
:0104D1001218
:0104D2000F1A
:0104D3000C1C
:0104D400091E
:0104D5000620
:0104D6000322
:0104D7000024
:0104D8001D06
:0104D9001A08
:0104DA00160B
:0104DB00130D
:0104DC00100F
:0104DD000D11
:0104DE000A13
:0104DF000715
:0104E0000417
:0104E1000119
:0104E2001EFB
:0104E3001BFD
:0104E40018FF
:0104E5001402
:0104E6001104
:0104E7000E06
:0104E8000B08
:0104E900080A
:0104EA00050C
:0104EB00020E
:0104EC001FF0
:0104ED001CF2
:0104EE0019F4
:0104EF0016F6
:0104F00013F8
:0104F10010FA
:0104F2000DFC
:0104F3000AFE
:0104F4000601
:0104F5000303
:0104F6000005
:0104F7001DE7
:0104F8001AE9
:0104F90017EB
:0104FA0014ED
:0104FB0011EF
:0104FC000EF1
:0104FD000BF3
:0104FE0008F5
:0104FF0005F7
:0105000002F8
:010501001FDA
:010502001CDC
:0105030019DE
:0105040016E0
:0105050013E2
:0105060010E4
:010507000DE6
:010508000AE8
:0105090007EA
:01050A0004EC
:01050B0001EE
:01050C001ED0
:01050D001BD2
:01050E0018D4
:01050F0015D6
:0105100012D8
:010511000FDA
:010512000CDC
:0105130009DE
:0105140006E0
:0105150003E2
:0105160000E4
:010517001DC6
:010518001AC8
:0105190017CA
:01051A0014CC
:01051B0011CE
:01051C000ED0
:01051D000BD2
:01051E0008D4
:01051F0005D6
:0105200002D8
:010521001FBA
:010522001CBC
:0105230019BE
:0105240016C0
:0105250013C2
:0105260010C4
:010527000DC6
:010528000AC8
:0105290007CA
:01052A0004CC
:01052B0001CE
:01052C001EB0
:01052D001BB2
:01052E0019B3
:01052F0016B5
:0105300013B7
:0105310010B9
:010532000DBB
:010533000ABD
:0105340007BF
:0105350004C1
:0105360001C3
:010537001EA5
:010538001BA7
:0105390018A9
:01053A0015AB
:01053B0012AD
:01053C000FAF
:01053D000CB1
:01053E000AB2
:01053F0007B4
:0105400004B6
:0105410001B8
:010542001E9A
:010543001B9C
:01054400189E
:0105450015A0
:0105460012A2
:010547000FA4
:010548000CA6
:010549000AA7
:01054A0007A9
:01054B0004AB
:01054C0001AD
:01054D001E8F
:01054E001B91
:01054F001893
:010550001595
:010551001297
:010552001098
:010553000D9A
:010554000A9C
:01055500079E
:0105560004A0
:0105570001A2
:010558001E84
:010559001B86
:01055A001888
:01055B001689
:01055C00138B
:01055D00108D
:01055E000D8F
:01055F000A91
:010560000793
:010561000495
:010562000296
:010563001F78
:010564001C7A
:01056500197C
:01056600167E
:010567001380
:010568001082
:010569000E83
:01056A000B85
:01056B000887
:01056C000589
:01056D00028B
:01056E001F6D
:01056F001D6E
:010570001A70
:010571001772
:010572001474
:010573001176
:010574000E78
:010575000C79
:01057600097B
:01057700067D
:01057800037F
:010579000081
:01057A001D63
:01057B001B64
:01057C001866
:01057D001568
:01057E00126A
:01057F000F6C
:010580000D6D
:010581000A6F
:010582000771
:010583000473
:010584000175
:010585001F56
:010586001C58
:01058700195A
:01058800165C
:01058900135E
:01058A00115F
:01058B000E61
:01058C000B63
:01058D000865
:01058E000567
:01058F000368
:01059000006A
:010591001D4C
:010592001A4E
:010593001750
:010594001551
:010595001253
:010596000F55
:010597000C57
:010598000A58
:01059900075A
:01059A00045C
:01059B00015E
:01059C001F3F
:01059D001C41
:01059E001943
:01059F001645
:0105A0001347
:0105A1001148
:0105A2000E4A
:0105A3000B4C
:0105A400084E
:0105A500064F
:0105A6000351
:0105A7000053
:0105A8001D35
:0105A9001B36
:0105AA001838
:0105AB00153A
:0105AC00123C
:0105AD00103D
:0105AE000D3F
:0105AF000A41
:0105B0000842
:0105B1000544
:0105B2000246
:0105B3001F28
:0105B4001D29
:0105B5001A2B
:0105B600172D
:0105B700142F
:0105B8001230
:0105B9000F32
:0105BA000C34
:0105BB000A35
:0105BC000737
:0105BD000439
:0105BE00013B
:0105BF001F1C
:0105C0001C1E
:0105C1001920
:0105C2001721
:0105C3001423
:0105C4001125
:0105C5000E27
:0105C6000C28
:0105C700092A
:0105C800062C
:0105C900042D
:0105CA00012F
:0105CB001E11
:0105CC001C12
:0105CD001914
:0105CE001616
:0105CF001417
:0105D0001119
:0105D1000E1B
:0105D2000C1C
:0105D300091E
:0105D4000620
:0105D5000322
:0105D6000123
:0105D7001E05
:0105D8001B07
:0105D9001908
:0105DA00160A
:0105DB00130C
:0105DC00110D
:0105DD000E0F
:0105DE000B11
:0105DF000912
:0105E0000614
:0105E1000316
:0105E2000117
:0105E3001EF9
:0105E4001CFA
:0105E50019FC
:0105E60016FE
:0105E70014FF
:0105E8001101
:0105E9000E03
:0105EA000C04
:0105EB000906
:0105EC000608
:0105ED000409
:0105EE00010B
:0105EF001EED
:0105F0001CEE
:0105F10019F0
:0105F20017F1
:0105F30014F3
:0105F40011F5
:0105F5000FF6
:0105F6000CF8
:0105F70009FA
:0105F80007FB
:0105F90004FD
:0105FA0001FF
:0105FB001FE0
:0105FC001CE2
:0105FD001AE3
:0105FE0017E5
:0105FF0014E7
:0106000012E7
:010601000FE9
:010602000DEA
:010603000AEC
:0106040007EE
:0106050005EF
:0106060002F1
:0106070000F2
:010608001DD4
:010609001AD6
:01060A0018D7
:01060B0015D9
:01060C0013DA
:01060D0010DC
:01060E000DDE
:01060F000BDF
:0106100008E1
:0106110006E2
:0106120003E4
:0106130000E6
:010614001EC7
:010615001BC9
:0106160019CA
:0106170016CC
:0106180014CD
:0106190011CF
:01061A000ED1
:01061B000CD2
:01061C0009D4
:01061D0007D5
:01061E0004D7
:01061F0002D8
:010620001FBA
:010621001CBC
:010622001ABD
:0106230017BF
:0106240015C0
:0106250012C2
:0106260010C3
:010627000DC5
:010628000AC7
:0106290008C8
:01062A0005CA
:01062B0003CB
:01062C0000CD
:01062D001EAE
:01062E001BB0
:01062F0019B1
:0106300016B3
:0106310014B4
:0106320011B6
:010633000EB8
:010634000CB9
:0106350009BB
:0106360007BC
:0106370004BE
:0106380002BF
:010639001FA1
:01063A001DA2
:01063B001AA4
:01063C0018A5
:01063D0015A7
:01063E0013A8
:01063F0010AA
:010640000EAB
:010641000BAD
:0106420008AF
:0106430006B0
:0106440003B2
:0106450001B3
:010646001E95
:010647001C96
:010648001998
:010649001799
:01064A00149B
:01064B00129C
:01064C000F9E
:01064D000D9F
:01064E000AA1
:01064F0008A2
:0106500005A4
:0106510003A5
:0106520000A7
:010653001E88
:010654001B8A
:01065500198B
:01065600168D
:01065700148E
:010658001190
:010659000F91
:01065A000C93
:01065B000A94
:01065C000796
:01065D000597
:01065E000398
:01065F00009A
:010660001E7B
:010661001B7D
:01066200197E
:010663001680
:010664001481
:010665001183
:010666000F84
:010667000C86
:010668000A87
:010669000789
:01066A00058A
:01066B00028C
:01066C00008D
:01066D001D6F
:01066E001B70
:01066F001971
:010670001673
:010671001474
:010672001176
:010673000F77
:010674000C79
:010675000A7A
:01067600077C
:01067700057D
:01067800027F
:010679000080
:01067A001E61
:01067B001B63
:01067C001964
:01067D001666
:01067E001467
:01067F001169
:010680000F6A
:010681000D6B
:010682000A6D
:01068300086E
:010684000570
:010685000371
:010686000073
:010687001E54
:010688001C55
:010689001957
:01068A001758
:01068B00145A
:01068C00125B
:01068D000F5D
:01068E000D5E
:01068F000B5F
:010690000861
:010691000662
:010692000364
:010693000165
:010694001F46
:010695001C48
:010696001A49
:01069700174B
:01069800154C
:01069900124E
:01069A00104F
:01069B000E50
:01069C000B52
:01069D000953
:01069E000655
:01069F000456
:0106A0000257
:0106A1001F39
:0106A2001D3A
:0106A3001B3B
:0106A400183D
:0106A500163E
:0106A6001340
:0106A7001141
:0106A8000F42
:0106A9000C44
:0106AA000A45
:0106AB000747
:0106AC000548
:0106AD000349
:0106AE00004B
:0106AF001E2C
:0106B0001C2D
:0106B100192F
:0106B2001730
:0106B3001432
:0106B4001233
:0106B5001034
:0106B6000D36
:0106B7000B37
:0106B8000938
:0106B900063A
:0106BA00043B
:0106BB00023C
:0106BC001F1E
:0106BD001D1F
:0106BE001A21
:0106BF001822
:0106C0001623
:0106C1001325
:0106C2001126
:0106C3000F27
:0106C4000C29
:0106C5000A2A
:0106C600082B
:0106C700052D
:0106C800032E
:0106C900012F
:0106CA001E11
:0106CB001C12
:0106CC001A13
:0106CD001715
:0106CE001516
:0106CF001317
:0106D0001019
:0106D1000E1A
:0106D2000C1B
:0106D300091D
:0106D400071E
:0106D500051F
:0106D6000221
:0106D7000022
:0106D8001E03
:0106D9001B05
:0106DA001906
:0106DB001707
:0106DC001409
:0106DD00120A
:0106DE00100B
:0106DF000D0D
:0106E0000B0E
:0106E100090F
:0106E2000611
:0106E3000412
:0106E4000213
:0106E5000014
:0106E6001DF6
:0106E7001BF7
:0106E80019F8
:0106E90016FA
:0106EA0014FB
:0106EB0012FC
:0106EC000FFE
:0106ED000DFF
:0106EE000B00
:0106EF000802
:0106F0000603
:0106F1000404
:0106F2000205
:0106F3001FE7
:0106F4001DE8
:0106F5001BE9
:0106F60018EB
:0106F70016EC
:0106F80014ED
:0106F90012EE
:0106FA000FF0
:0106FB000DF1
:0106FC000BF2
:0106FD0008F4
:0106FE0006F5
:0106FF0004F6
:0107000002F6
:010701001FD8
:010702001DD9
:010703001BDA
:0107040019DB
:0107050016DD
:0107060014DE
:0107070012DF
:010708000FE1
:010709000DE2
:01070A000BE3
:01070B0009E4
:01070C0006E6
:01070D0004E7
:01070E0002E8
:01070F0000E9
:010710001DCB
:010711001BCC
:0107120019CD
:0107130017CE
:0107140014D0
:0107150012D1
:0107160010D2
:010717000ED3
:010718000BD5
:0107190009D6
:01071A0007D7
:01071B0005D8
:01071C0002DA
:01071D0000DB
:01071E001EBC
:01071F001CBD
:0107200019BF
:0107210017C0
:0107220015C1
:0107230013C2
:0107240010C4
:010725000EC5
:010726000CC6
:010727000AC7
:0107280008C8
:0107290005CA
:01072A0003CB
:01072B0001CC
:01072C001FAD
:01072D001CAF
:01072E001AB0
:01072F0018B1
:0107300016B2
:0107310014B3
:0107320011B5
:010733000FB6
:010734000DB7
:010735000BB8
:0107360008BA
:0107370006BB
:0107380004BC
:0107390002BD
:01073A0000BE
:01073B001DA0
:01073C001BA1
:01073D0019A2
:01073E0017A3
:01073F0015A4
:0107400012A6
:0107410010A7
:010742000EA8
:010743000CA9
:010744000AAA
:0107450007AC
:0107460005AD
:0107470003AE
:0107480001AF
:010749001F90
:01074A001C92
:01074B001A93
:01074C001894
:01074D001695
:01074E001496
:01074F001198
:010750000F99
:010751000D9A
:010752000B9B
:01075300099C
:01075400079D
:01075500049F
:0107560002A0
:0107570000A1
:010758001E82
:010759001C83
:01075A001A84
:01075B001786
:01075C001587
:01075D001388
:01075E001189
:01075F000F8A
:010760000D8B
:010761000A8D
:01076200088E
:01076300068F
:010764000490
:010765000291
:010766000092
:010767001D74
:010768001B75
:010769001976
:01076A001777
:01076B001578
:01076C001379
:01076D00107B
:01076E000E7C
:01076F000C7D
:010770000A7E
:01077100087F
:010772000680
:010773000481
:010774000183
:010775001F64
:010776001D65
:010777001B66
:010778001967
:010779001768
:01077A001569
:01077B00126B
:01077C00106C
:01077D000E6D
:01077E000C6E
:01077F000A6F
:010780000870
:010781000671
:010782000373
:010783000174
:010784001F55
:010785001D56
:010786001B57
:010787001958
:010788001759
:01078900155A
:01078A00135B
:01078B00105D
:01078C000E5E
:01078D000C5F
:01078E000A60
:01078F000861
:010790000662
:010791000463
:010792000264
:010793001F46
:010794001D47
:010795001B48
:010796001949
:01079700174A
:01079800154B
:01079900134C
:01079A00114D
:01079B000F4E
:01079C000D4F
:01079D000A51
:01079E000852
:01079F000653
:0107A0000454
:0107A1000255
:0107A2000056
:0107A3001E37
:0107A4001C38
:0107A5001A39
:0107A600183A
:0107A700153C
:0107A800133D
:0107A900113E
:0107AA000F3F
:0107AB000D40
:0107AC000B41
:0107AD000942
:0107AE000743
:0107AF000544
:0107B0000345
:0107B1000146
:0107B2001F27
:0107B3001C29
:0107B4001A2A
:0107B500182B
:0107B600162C
:0107B700142D
:0107B800122E
:0107B900102F
:0107BA000E30
:0107BB000C31
:0107BC000A32
:0107BD000833
:0107BE000634
:0107BF000435
:0107C0000236
:0107C1001F18
:0107C2001D19
:0107C3001B1A
:0107C400191B
:0107C500171C
:0107C600151D
:0107C700131E
:0107C800111F
:0107C9000F20
:0107CA000D21
:0107CB000B22
:0107CC000923
:0107CD000724
:0107CE000525
:0107CF000326
:0107D0000127
:0107D1001F08
:0107D2001D09
:0107D3001A0B
:0107D400180C
:0107D500160D
:0107D600140E
:0107D700120F
:0107D8001010
:0107D9000E11
:0107DA000C12
:0107DB000A13
:0107DC000814
:0107DD000615
:0107DE000416
:0107DF000217
:0107E0000018
:0107E1001EF9
:0107E2001CFA
:0107E3001AFB
:0107E40018FC
:0107E50016FD
:0107E60014FE
:0107E70012FF
:0107E8001000
:0107E9000E01
:0107EA000C02
:0107EB000A03
:0107EC000804
:0107ED000605
:0107EE000406
:0107EF000207
:0107F0000008
:0107F1001EE9
:0107F2001CEA
:0107F3001AEB
:0107F40018EC
:0107F50016ED
:0107F60014EE
:0107F70012EF
:0107F80010F0
:0107F9000EF1
:0107FA000CF2
:0107FB000AF3
:0107FC0008F4
:0107FD0006F5
:0107FE0004F6
:0107FF0002F7
:00000001ff
