:020000040000FA
:010000001FE0
:0100010000FE
:0100020000FD
:0100030001FB
:0100040002F9
:0100050004F6
:0100060006F3
:0100070009EF
:010008000BEC
:010009000FE7
:01000A0012E3
:01000B0016DE
:01000C001AD9
:01000D001FD3
:01000E0004ED
:01000F0009E7
:010010000FE0
:0100110015D9
:010012001BD2
:0100130002EA
:0100140009E2
:0100150011D9
:0100160019D0
:0100170001E7
:0100180009DE
:0100190012D4
:01001A001CC9
:01001B0005DF
:01001C000FD4
:01001D001AC8
:01001E0004DD
:01001F000FD1
:010020001BC4
:0100210006D8
:0100220012CB
:010023001FBD
:010024000CCF
:0100250019C1
:0100260006D3
:0100270014C4
:0100280002D5
:0100290010C6
:01002A001FB6
:01002B000EC6
:01002C001EB5
:01002D000EC4
:01002E001EB3
:01002F000EC2
:010030001FB0
:0100310010BE
:0100320002CB
:0100330014B8
:0100340006C5
:0100350018B2
:010036000BBE
:010037001EAA
:0100380012B5
:0100390006C0
:01003A001AAB
:01003B000EB6
:01003C0003C0
:01003D0018AA
:01003E000DB4
:01003F0003BD
:0100400019A6
:0100410010AE
:0100420006B7
:010043001D9F
:0100440015A6
:010045000CAE
:0100460004B5
:010047001D9B
:0100480015A2
:010049000EA8
:01004A0008AD
:01004B0001B3
:01004C001B98
:01004D00159D
:01004E0010A1
:01004F000BA5
:0100500006A9
:0100510001AD
:010052001D90
:010053001993
:010054001596
:010055001298
:010056000F9A
:010057000C9C
:010058000A9D
:01005900089E
:01005A00069F
:01005B0004A0
:01005C0003A0
:01005D0002A0
:01005E00029F
:01005F00019F
:01006000019E
:01006100029C
:01006200029B
:010063000399
:010064000497
:010065000694
:010066000891
:010067000A8E
:010068000C8B
:010069000F87
:01006A001283
:01006B00157F
:01006C00187B
:01006D001C76
:01006E000091
:01006F00058B
:010070000986
:010071000E80
:010072001479
:010073001973
:010074001F6C
:010075000585
:010076000C7D
:010077001276
:01007800196E
:010079000086
:01007A00087D
:01007B001074
:01007C00186B
:01007D000082
:01007E000978
:01007F00126E
:010080001B64
:010081000579
:010082000E6F
:010083001864
:010084000378
:010085000D6D
:010086001861
:010087000375
:010088000F68
:010089001A5C
:01008A00066F
:01008B001262
:01008C001F54
:01008D000C66
:01008E001958
:01008F00066A
:01009000145B
:01009100016D
:01009200105D
:010093001E4E
:010094000D5E
:010095001B4F
:010096000B5E
:010097001A4E
:010098000A5D
:010099001A4C
:01009A000A5B
:01009B001A4A
:01009C000B58
:01009D001C46
:01009E000D54
:01009F001F41
:0100A000104F
:0100A100035B
:0100A2001548
:0100A3000755
:0100A4001A41
:0100A5000D4D
:0100A6000059
:0100A7001444
:0100A800084F
:0100A9001C3A
:0100AA001045
:0100AB00054F
:0100AC001A39
:0100AD000F43
:0100AE00044D
:0100AF001937
:0100B0000F40
:0100B1000549
:0100B2001C31
:0100B300123A
:0100B4000942
:0100B500004A
:0100B6001732
:0100B7000F39
:0100B8000740
:0100B9001F27
:0100BA00172E
:0100BB000F35
:0100BC00083B
:0100BD000141
:0100BE001A27
:0100BF00142C
:0100C0000E31
:0100C1000836
:0100C200023B
:0100C3001C20
:0100C4001724
:0100C5001228
:0100C6000D2C
:0100C7000830
:0100C8000433
:0100C9000036
:0100CA001C19
:0100CB00181C
:0100CC00151E
:0100CD001220
:0100CE000F22
:0100CF000C24
:0100D0000926
:0100D1000727
:0100D2000528
:0100D3000329
:0100D4000229
:0100D500002A
:0100D6001F0A
:0100D7001E0A
:0100D8001E09
:0100D9001D09
:0100DA001D08
:0100DB001D07
:0100DC001D06
:0100DD001E04
:0100DE001E03
:0100DF001F01
:0100E000001F
:0100E100021C
:0100E200031A
:0100E3000517
:0100E4000714
:0100E5000911
:0100E6000C0D
:0100E7000E0A
:0100E8001106
:0100E9001402
:0100EA0018FD
:0100EB001BF9
:0100EC001FF4
:0100ED00030F
:0100EE00070A
:0100EF000C04
:0100F00010FF
:0100F10015F9
:0100F2001AF3
:0100F300000C
:0100F4000506
:0100F5000BFF
:0100F60011F8
:0100F70017F1
:0100F8001DEA
:0100F9000402
:0100FA000BFA
:0100FB0011F3
:0100FC0019EA
:0100FD000002
:0100FE0008F9
:0100FF0010F0
:0101000018E6
:0101010000FD
:0101020008F4
:0101030011EA
:010104001AE0
:0101050003F6
:010106000CEC
:0101070016E1
:010108001FD7
:0101090009EC
:01010A0013E1
:01010B001ED5
:01010C0008EA
:01010D0013DE
:01010E001ED2
:01010F0009E6
:0101100014DA
:0101110000ED
:010112000BE1
:0101130017D4
:0101140003E7
:0101150010D9
:010116001CCC
:0101170009DE
:0101180016D0
:0101190003E2
:01011A0010D4
:01011B001EC5
:01011C000BD7
:01011D0019C8
:01011E0007D9
:01011F0016C9
:0101200004DA
:0101210013CA
:0101220002DA
:0101230011CA
:0101240000DA
:010125000FCA
:010126001FB9
:010127000FC8
:010128001FB7
:010129000FC6
:01012A001FB5
:01012B0010C3
:01012C0001D1
:01012D0012BF
:01012E0003CD
:01012F0014BB
:0101300006C8
:0101310017B6
:0101320009C3
:010133001BB0
:010134000EBC
:0101350000C9
:0101360013B5
:0101370006C1
:0101380019AD
:010139000CB9
:01013A001FA5
:01013B0013B0
:01013C0007BB
:01013D001BA6
:01013E000FB1
:01013F0003BC
:0101400017A7
:010141000CB1
:0101420001BB
:0101430016A5
:010144000BAF
:0101450001B8
:0101460016A2
:010147000CAB
:0101480002B4
:01014900189D
:01014A000EA6
:01014B0005AE
:01014C001B97
:01014D00129F
:01014E0009A7
:01014F0000AF
:010150001896
:010151000F9E
:0101520007A5
:010153001F8C
:010154001793
:010155000F9A
:0101560007A1
:0101570000A7
:01015800198D
:010159001293
:01015A000B99
:01015B00049F
:01015C001D85
:01015D00178A
:01015E00118F
:01015F000B94
:010160000599
:010161001F7E
:010162001A82
:010163001487
:010164000F8B
:010165000A8F
:010166000593
:010167000097
:010168001C7A
:01016900177E
:01016A001381
:01016B000F84
:01016C000B87
:01016D000889
:01016E00048C
:01016F00018E
:010170001D71
:010171001A73
:010172001775
:010173001576
:010174001278
:010175001079
:010176000E7A
:010177000B7C
:010178000A7C
:01017900087D
:01017A00067E
:01017B00057E
:01017C00037F
:01017D00027F
:01017E00017F
:01017F00017E
:01018000007E
:01018100007D
:010182001F5D
:010183001F5C
:010184001F5B
:010185001F5A
:010186000078
:010187000077
:010188000175
:010189000174
:01018A000272
:01018B000370
:01018C00056D
:01018D00066B
:01018E000868
:01018F000966
:010190000B63
:010191000D60
:010192000F5D
:010193001259
:010194001456
:010195001752
:010196001A4E
:010197001D4A
:010198000066
:010199000362
:01019A00065E
:01019B000A59
:01019C000E54
:01019D001150
:01019E00154B
:01019F001A45
:0101A0001E40
:0101A100025B
:0101A2000755
:0101A3000C4F
:0101A400104A
:0101A5001643
:0101A6001B3D
:0101A7000057
:0101A8000551
:0101A9000B4A
:0101AA001143
:0101AB00173C
:0101AC001D35
:0101AD00034E
:0101AE000947
:0101AF00103F
:0101B0001737
:0101B1001D30
:0101B2000448
:0101B3000B40
:0101B4001238
:0101B5001A2F
:0101B6000147
:0101B700093E
:0101B8001135
:0101B900192C
:0101BA000143
:0101BB00093A
:0101BC001131
:0101BD001A27
:0101BE00023E
:0101BF000B34
:0101C000142A
:0101C1001D20
:0101C2000636
:0101C300102B
:0101C4001921
:0101C5000336
:0101C6000C2C
:0101C7001621
:0101C8000036
:0101C9000A2B
:0101CA00151F
:0101CB001F14
:0101CC000A28
:0101CD00141D
:0101CE001F11
:0101CF000A25
:0101D0001519
:0101D100012C
:0101D2000C20
:0101D3001714
:0101D4000327
:0101D5000F1A
:0101D6001B0D
:0101D7000720
:0101D8001313
:0101D9001F06
:0101DA000C18
:0101DB00180B
:0101DC00051D
:0101DD00120F
:0101DE001F01
:0101DF000C13
:0101E0001905
:0101E1000716
:0101E2001408
:0101E3000219
:0101E4000F0B
:0101E5001DFC
:0101E6000B0D
:0101E70019FE
:0101E800080E
:0101E90016FF
:0101EA00050F
:0101EB001300
:0101EC000210
:0101ED001100
:0101EE000010
:0101EF000F00
:0101F0001FEF
:0101F1000EFF
:0101F2001EEE
:0101F3000DFE
:0101F4001DED
:0101F5000DFC
:0101F6001DEB
:0101F7000DFA
:0101F8001DE9
:0101F9000EF7
:0101FA001EE6
:0101FB000FF4
:0101FC000002
:0101FD0011F0
:0101FE0002FE
:0101FF0013EC
:0102000004F9
:0102010016E6
:0102020007F4
:0102030019E1
:010204000BEE
:010205001DDB
:010206000FE8
:0102070001F5
:0102080013E2
:0102090006EE
:01020A0018DB
:01020B000BE7
:01020C001DD4
:01020D0010E0
:01020E0003EC
:01020F0016D8
:010210000AE3
:010211001DCF
:0102120010DB
:0102130004E6
:0102140018D1
:010215000CDC
:0102160000E7
:0102170014D2
:0102180008DD
:010219001CC8
:01021A0010D3
:01021B0005DD
:01021C001AC7
:01021D000ED2
:01021E0003DC
:01021F0018C6
:010220000DD0
:0102210003D9
:0102220018C3
:010223000DCD
:0102240003D6
:0102250019BF
:010226000EC9
:0102270004D2
:010228001ABB
:0102290011C3
:01022A0007CC
:01022B001DB5
:01022C0014BD
:01022D000AC6
:01022E0001CE
:01022F0018B6
:010230000FBE
:0102310006C6
:010232001DAE
:0102330014B6
:010234000CBD
:0102350003C5
:010236001BAC
:0102370012B4
:010238000ABB
:0102390002C2
:01023A001AA9
:01023B0012B0
:01023C000BB6
:01023D0003BD
:01023E001BA4
:01023F0014AA
:010240000DB0
:0102410006B6
:010242001E9D
:0102430017A3
:0102440011A8
:010245000AAE
:0102460003B4
:010247001D99
:01024800169F
:0102490010A4
:01024A000AA9
:01024B0004AE
:01024C001E93
:01024D001898
:01024E00129D
:01024F000CA2
:0102500007A6
:0102510001AB
:010252001C8F
:010253001694
:010254001198
:010255000C9C
:0102560007A0
:0102570002A4
:010258001E87
:01025900198B
:01025A00148F
:01025B001092
:01025C000C95
:01025D000799
:01025E00039C
:01025F001F7F
:010260001B82
:010261001884
:010262001487
:01026300108A
:010264000D8C
:01026500098F
:010266000691
:010267000393
:010268000095
:010269001D77
:01026A001A79
:01026B00177B
:01026C00147D
:01026D00127E
:01026E000F80
:01026F000D81
:010270000A83
:010271000884
:010272000685
:010273000486
:010274000287
:010275000088
:010276001F68
:010277001D69
:010278001B6A
:010279001A6A
:01027A00196A
:01027B00176B
:01027C00166B
:01027D00156B
:01027E00146B
:01027F00136B
:01028000136A
:01028100126A
:01028200116A
:010283001169
:010284001168
:010285001068
:010286001067
:010287001066
:010288001065
:010289001064
:01028A001063
:01028B001161
:01028C001160
:01028D00125E
:01028E00125D
:01028F00135B
:010290001459
:010291001557
:010292001556
:010293001753
:010294001851
:01029500194F
:010296001A4D
:010297001C4A
:010298001D48
:010299001F45
:01029A000063
:01029B000260
:01029C00045D
:01029D00065A
:01029E000857
:01029F000A54
:0102A0000D50
:0102A1000F4D
:0102A200114A
:0102A3001446
:0102A4001643
:0102A500193F
:0102A6001C3B
:0102A7001F37
:0102A8000253
:0102A900054F
:0102AA00084B
:0102AB000B47
:0102AC000F42
:0102AD00123E
:0102AE00153A
:0102AF001935
:0102B0001D30
:0102B100014B
:0102B2000447
:0102B3000842
:0102B4000C3D
:0102B5001038
:0102B6001532
:0102B700192D
:0102B8001D28
:0102B9000242
:0102BA00063D
:0102BB000B37
:0102BC001031
:0102BD00152B
:0102BE001926
:0102BF001E20
:0102C000033A
:0102C1000933
:0102C2000E2D
:0102C3001327
:0102C4001920
:0102C5001E1A
:0102C6000433
:0102C700092D
:0102C8000F26
:0102C900151F
:0102CA001B18
:0102CB000131
:0102CC00072A
:0102CD000D23
:0102CE00131C
:0102CF001A14
:0102D000002D
:0102D1000725
:0102D2000D1E
:0102D3001416
:0102D4001B0E
:0102D5000127
:0102D600081F
:0102D7000F17
:0102D800160F
:0102D9001E06
:0102DA00051E
:0102DB000C16
:0102DC00140D
:0102DD001B05
:0102DE00031C
:0102DF000A14
:0102E000120B
:0102E1001A02
:0102E2000219
:0102E3000A10
:0102E4001207
:0102E5001AFE
:0102E6000215
:0102E7000A0C
:0102E8001302
:0102E9001BF9
:0102EA00040F
:0102EB000C06
:0102EC0015FC
:0102ED001EF2
:0102EE000708
:0102EF0010FE
:0102F00019F4
:0102F100020A
:0102F2000B00
:0102F30014F6
:0102F4001DEC
:0102F5000701
:0102F60010F7
:0102F7001AEC
:0102F8000401
:0102F9000DF7
:0102FA0017EC
:0102FB000101
:0102FC000BF6
:0102FD0015EB
:0102FE001FE0
:0102FF0009F5
:0103000013E9
:010301001EDD
:0103020008F2
:0103030013E6
:010304001DDB
:0103050008EF
:0103060012E4
:010307001DD8
:0103080008EC
:0103090013E0
:01030A001ED4
:01030B0009E8
:01030C0014DC
:01030D001FD0
:01030E000BE3
:01030F0016D7
:0103100002EA
:010311000DDE
:0103120019D1
:0103130004E5
:0103140010D8
:010315001CCB
:0103160008DE
:0103170014D1
:0103180000E4
:010319000CD7
:01031A0018CA
:01031B0004DD
:01031C0011CF
:01031D001DC2
:01031E000AD4
:01031F0016C7
:0103200003D9
:0103210010CB
:010322001CBE
:0103230009D0
:0103240016C2
:0103250003D4
:0103260010C6
:010327001DB8
:010328000ACA
:0103290018BB
:01032A0005CD
:01032B0012BF
:01032C0000D0
:01032D000DC2
:01032E001BB3
:01032F0009C4
:0103300017B5
:0103310004C7
:0103320012B8
:0103330000C9
:010334000EBA
:010335001CAB
:010336000BBB
:0103370019AC
:0103380007BD
:0103390016AD
:01033A0004BE
:01033B0013AE
:01033C0001BF
:01033D0010AF
:01033E001F9F
:01033F000DB0
:010340001CA0
:010341000BB0
:010342001AA0
:0103430009B0
:0103440018A0
:0103450008AF
:01034600179F
:0103470006AF
:01034800169E
:0103490005AE
:01034A00159D
:01034B0004AD
:01034C00149C
:01034D0004AB
:01034E00139B
:01034F0003AA
:010350001399
:0103510003A8
:010352001397
:0103530004A5
:010354001494
:0103550004A3
:010356001492
:0103570005A0
:01035800158F
:01035900069D
:01035A00168C
:01035B00079A
:01035C001888
:01035D000996
:01035E001985
:01035F000A93
:010360001B81
:010361000C8F
:010362001E7C
:010363000F8A
:010364000098
:010365001186
:010366000393
:010367001481
:01036800068E
:01036900177C
:01036A000989
:01036B001B76
:01036C000C84
:01036D001E71
:01036E00107E
:01036F00028B
:010370001478
:010371000685
:010372001872
:010373000A7F
:010374001D6B
:010375000F78
:010376000185
:010377001471
:01037800067E
:01037900196A
:01037A000C76
:01037B001E63
:01037C00116F
:01037D00047B
:01037E001767
:01037F000A73
:010380001D5F
:01038100106B
:010382000377
:010383001663
:01038400096F
:010385001D5A
:010386001066
:010387000372
:01038800175D
:010389000A69
:01038A001E54
:01038B00125F
:01038C00056B
:01038D001956
:01038E000D61
:01038F00016C
:010390001557
:010391000962
:010392001D4D
:010393001158
:010394000563
:010395001A4D
:010396000E58
:010397000263
:01039800174D
:010399000B58
:01039A000062
:01039B00154C
:01039C000957
:01039D001E41
:01039E00134B
:01039F000855
:0103A0001D3F
:0103A100114A
:0103A2000753
:0103A3001C3D
:0103A4001147
:0103A5000651
:0103A6001B3B
:0103A7001144
:0103A800064E
:0103A9001B38
:0103AA001141
:0103AB00064B
:0103AC001C34
:0103AD00123D
:0103AE000747
:0103AF001D30
:0103B0001339
:0103B1000942
:0103B2001F2B
:0103B3001534
:0103B4000B3D
:0103B5000146
:0103B600172F
:0103B7000D38
:0103B8000341
:0103B9001A29
:0103BA001032
:0103BB00073A
:0103BC001D23
:0103BD00142B
:0103BE000A34
:0103BF00013C
:0103C0001824
:0103C1000E2D
:0103C2000535
:0103C3001C1D
:0103C4001325
:0103C5000A2D
:0103C6000135
:0103C700181D
:0103C8000F25
:0103C900072C
:0103CA001E14
:0103CB00151C
:0103CC000C24
:0103CD00042B
:0103CE001B13
:0103CF00131A
:0103D0000A22
:0103D1000229
:0103D2001A10
:0103D3001217
:0103D400091F
:0103D5000126
:0103D600190D
:0103D7001114
:0103D800091B
:0103D9000122
:0103DA001909
:0103DB001110
:0103DC000A16
:0103DD00021D
:0103DE001A04
:0103DF00130A
:0103E0000B11
:0103E1000318
:0103E2001CFE
:0103E3001504
:0103E4000D0B
:0103E5000611
:0103E6001FF7
:0103E70017FE
:0103E8001004
:0103E900090A
:0103EA000210
:0103EB001BF6
:0103EC0014FC
:0103ED000D02
:0103EE000608
:0103EF00000D
:0103F00019F3
:0103F10012F9
:0103F2000BFF
:0103F3000504
:0103F4001EEA
:0103F50018EF
:0103F60011F5
:0103F7000BFA
:0103F80005FF
:0103F9001EE5
:0103FA0018EA
:0103FB0012EF
:0103FC000CF4
:0103FD0006F9
:0103FE0000FE
:0103FF001AE3
:0104000014E7
:010401000EEC
:0104020008F1
:0104030002F6
:010404001CDB
:0104050017DF
:0104060011E4
:010407000BE9
:0104080006ED
:0104090000F2
:01040A001BD6
:01040B0015DB
:01040C0010DF
:01040D000BE3
:01040E0005E8
:01040F0000EC
:010410001BD0
:0104110016D4
:0104120011D8
:010413000CDC
:0104140007E0
:0104150002E4
:010416001DC8
:0104170018CC
:0104180013D0
:010419000FD3
:01041A000AD7
:01041B0005DB
:01041C0001DE
:01041D001CC2
:01041E0018C5
:01041F0013C9
:010420000FCC
:010421000BCF
:0104220006D3
:0104230002D6
:010424001EB9
:010425001ABC
:0104260015C0
:0104270011C3
:010428000DC6
:0104290009C9
:01042A0005CC
:01042B0001CF
:01042C001EB1
:01042D001AB4
:01042E0016B7
:01042F0012BA
:010430000FBC
:010431000BBF
:0104320007C2
:0104330004C4
:0104340000C7
:010435001DA9
:010436001AAB
:0104370016AE
:0104380013B0
:0104390010B2
:01043A000CB5
:01043B0009B7
:01043C0006B9
:01043D0003BB
:01043E0000BD
:01043F001D9F
:010440001AA1
:0104410017A3
:0104420014A5
:0104430012A6
:010444000FA8
:010445000CAA
:0104460009AC
:0104470007AD
:0104480004AF
:0104490002B0
:01044A001F92
:01044B001D93
:01044C001A95
:01044D001896
:01044E001697
:01044F001399
:01045000119A
:010451000F9B
:010452000D9C
:010453000B9D
:01045400089F
:0104550006A0
:0104560004A1
:0104570003A1
:0104580001A2
:010459001F83
:01045A001D84
:01045B001B85
:01045C001986
:01045D001886
:01045E001687
:01045F001587
:010460001388
:010461001189
:010462001089
:010463000F89
:010464000D8A
:010465000C8A
:010466000B8A
:01046700098B
:01046800088B
:01046900078B
:01046A00068B
:01046B00058B
:01046C00048B
:01046D00038B
:01046E00028B
:01046F00018B
:01047000008B
:010471001F6B
:010472001E6B
:010473001D6B
:010474001D6A
:010475001C6A
:010476001B6A
:010477001B69
:010478001A69
:010479001A68
:01047A001968
:01047B001967
:01047C001867
:01047D001866
:01047E001865
:01047F001765
:010480001764
:010481001763
:010482001762
:010483001761
:010484001760
:01048500175F
:01048600175E
:01048700175D
:01048800175C
:01048900175B
:01048A00175A
:01048B001759
:01048C001857
:01048D001856
:01048E001855
:01048F001953
:010490001952
:010491001951
:010492001A4F
:010493001A4E
:010494001B4C
:010495001C4A
:010496001C49
:010497001D47
:010498001E45
:010499001E44
:01049A001F42
:01049B000060
:01049C00015E
:01049D00025C
:01049E00035A
:01049F000458
:0104A0000556
:0104A1000654
:0104A2000752
:0104A3000850
:0104A400094E
:0104A5000A4C
:0104A6000C49
:0104A7000D47
:0104A8000E45
:0104A9001042
:0104AA001140
:0104AB00133D
:0104AC00143B
:0104AD001638
:0104AE001736
:0104AF001933
:0104B0001A31
:0104B1001C2E
:0104B2001E2B
:0104B3001F29
:0104B4000146
:0104B5000343
:0104B6000540
:0104B700073D
:0104B800093A
:0104B9000B37
:0104BA000D34
:0104BB000F31
:0104BC00112E
:0104BD00132B
:0104BE001528
:0104BF001725
:0104C0001922
:0104C1001C1E
:0104C2001E1B
:0104C3000038
:0104C4000334
:0104C5000531
:0104C600082D
:0104C7000A2A
:0104C8000D26
:0104C9000F23
:0104CA00121F
:0104CB00141C
:0104CC001718
:0104CD001A14
:0104CE001C11
:0104CF001F0D
:0104D0000229
:0104D1000525
:0104D2000821
:0104D3000B1D
:0104D4000D1A
:0104D5001016
:0104D6001312
:0104D700170D
:0104D8001A09
:0104D9001D05
:0104DA000021
:0104DB00031D
:0104DC000619
:0104DD000A14
:0104DE000D10
:0104DF00100C
:0104E0001407
:0104E1001703
:0104E2001AFF
:0104E3001EFA
:0104E4000116
:0104E5000511
:0104E600080D
:0104E7000C08
:0104E8001003
:0104E90013FF
:0104EA0017FA
:0104EB001BF5
:0104EC001FF0
:0104ED00020C
:0104EE000607
:0104EF000A02
:0104F0000EFD
:0104F10012F8
:0104F20016F3
:0104F3001AEE
:0104F4001EE9
:0104F5000204
:0104F60006FF
:0104F7000AFA
:0104F8000FF4
:0104F90013EF
:0104FA0017EA
:0104FB001BE5
:0104FC0000FF
:0104FD0004FA
:0104FE0008F5
:0104FF000DEF
:0105000011E9
:0105010016E3
:010502001ADE
:010503001FD8
:0105040003F3
:0105050008ED
:010506000DE7
:0105070011E2
:0105080016DC
:010509001BD6
:01050A001FD1
:01050B0004EB
:01050C0009E5
:01050D000EDF
:01050E0013D9
:01050F0018D3
:010510001DCD
:0105110002E7
:0105120007E1
:010513000CDB
:0105140011D5
:0105150016CF
:010516001BC9
:0105170001E2
:0105180006DC
:010519000BD6
:01051A0010D0
:01051B0016C9
:01051C001BC3
:01051D0000DD
:01051E0006D6
:01051F000BD0
:0105200011C9
:0105210016C3
:010522001CBC
:0105230001D6
:0105240007CF
:010525000DC8
:0105260012C2
:0105270018BB
:010528001EB4
:0105290003CE
:01052A0009C7
:01052B000FC0
:01052C0015B9
:01052D001BB2
:01052E0001CB
:01052F0007C4
:010530000DBD
:0105310013B6
:0105320019AF
:010533001FA8
:0105340005C1
:010535000BBA
:0105360011B3
:0105370017AC
:010538001EA4
:0105390004BD
:01053A000AB6
:01053B0011AE
:01053C0017A7
:01053D001DA0
:01053E0004B8
:01053F000AB1
:0105400011A9
:0105410017A2
:010542001E9A
:0105430004B3
:010544000BAB
:0105450011A4
:01054600189C
:010547001F94
:0105480005AD
:010549000CA5
:01054A00139D
:01054B001A95
:01054C0001AD
:01054D0007A6
:01054E000E9E
:01054F001596
:010550001C8E
:0105510003A6
:010552000A9E
:010553001196
:01055400188E
:010555001F86
:01055600069E
:010557000E95
:01055800158D
:010559001C85
:01055A00039D
:01055B000B94
:01055C00128C
:01055D001984
:01055E00009C
:01055F000893
:010560000F8B
:010561001782
:010562001E7A
:010563000691
:010564000D89
:010565001580
:010566001C78
:01056700048F
:010568000C86
:01056900137E
:01056A001B75
:01056B00038C
:01056C000A84
:01056D00127B
:01056E001A72
:01056F000289
:010570000A80
:010571001277
:010572001A6E
:010573000186
:01057400097D
:010575001174
:010576001A6A
:010577000281
:010578000A78
:01057900126F
:01057A001A66
:01057B00027D
:01057C000A74
:01057D00136A
:01057E001B61
:01057F000378
:010580000B6F
:010581001465
:010582001C5C
:010583000473
:010584000D69
:010585001560
:010586001E56
:01058700066D
:010588000F63
:01058900175A
:01058A000070
:01058B000966
:01058C00115D
:01058D001A53
:01058E000369
:01058F000B60
:010590001456
:010591001D4C
:010592000662
:010593000E59
:01059400174F
:010595000065
:01059600095B
:010597001251
:010598001B47
:01059900045D
:01059A000D53
:01059B001649
:01059C001F3F
:01059D000855
:01059E00114B
:01059F001A41
:0105A0000456
:0105A1000D4C
:0105A2001642
:0105A3001F38
:0105A400084E
:0105A5001243
:0105A6001B39
:0105A700044F
:0105A8000E44
:0105A900173A
:0105AA00014F
:0105AB000A45
:0105AC00143A
:0105AD001D30
:0105AE000745
:0105AF00103B
:0105B0001A30
:0105B1000346
:0105B2000D3B
:0105B3001730
:0105B4000046
:0105B5000A3B
:0105B6001430
:0105B7001E25
:0105B800073B
:0105B9001130
:0105BA001B25
:0105BB00053A
:0105BC000F2F
:0105BD001924
:0105BE000339
:0105BF000C2F
:0105C0001624
:0105C1000039
:0105C2000B2D
:0105C3001522
:0105C4001F17
:0105C500092C
:0105C6001321
:0105C7001D16
:0105C800072B
:0105C9001120
:0105CA001C14
:0105CB000629
:0105CC00101E
:0105CD001B12
:0105CE000527
:0105CF000F1C
:0105D0001A10
:0105D1000425
:0105D2000E1A
:0105D300190E
:0105D4000323
:0105D5000E17
:0105D600180C
:0105D7000320
:0105D8000E14
:0105D9001809
:0105DA00031D
:0105DB000D12
:0105DC001806
:0105DD00031A
:0105DE000E0E
:0105DF001803
:0105E0000317
:0105E1000E0B
:0105E20019FF
:0105E3000314
:0105E4000E08
:0105E50019FC
:0105E6000410
:0105E7000F04
:0105E8001AF8
:0105E900050C
:0105EA001000
:0105EB001BF4
:0105EC000608
:0105ED0011FC
:0105EE001CF0
:0105EF000704
:0105F00013F7
:0105F1001EEB
:0105F20009FF
:0105F30014F3
:0105F4001FE7
:0105F5000BFA
:0105F60016EE
:0105F7000102
:0105F8000DF5
:0105F90018E9
:0105FA0003FD
:0105FB000FF0
:0105FC001AE4
:0105FD0006F7
:0105FE0011EB
:0105FF001DDE
:0106000008F1
:0106010014E4
:010602001FD8
:010603000BEB
:0106040016DF
:0106050002F2
:010606000EE5
:0106070019D9
:0106080005EC
:0106090011DF
:01060A001DD2
:01060B0008E6
:01060C0014D9
:01060D0000EC
:01060E000CDF
:01060F0018D2
:0106100003E6
:010611000FD9
:010612001BCC
:0106130007DF
:0106140013D2
:010615001FC5
:010616000BD8
:0106170017CB
:0106180003DE
:010619000FD1
:01061A001BC4
:01061B0008D6
:01061C0014C9
:01061D0000DC
:01061E000CCF
:01061F0018C2
:0106200005D4
:0106210011C7
:010622001DBA
:0106230009CD
:0106240016BF
:0106250002D2
:010626000EC5
:010627001BB7
:0106280007CA
:0106290014BC
:01062A0000CF
:01062B000DC1
:01062C0019B4
:01062D0006C6
:01062E0012B9
:01062F001FAB
:010630000BBE
:0106310018B0
:0106320004C3
:0106330011B5
:010634001EA7
:010635000ABA
:0106360017AC
:0106370004BE
:0106380011B0
:010639001DA3
:01063A000AB5
:01063B0017A7
:01063C0004B9
:01063D0011AB
:01063E001E9D
:01063F000AB0
:0106400017A2
:0106410004B4
:0106420011A6
:010643001E98
:010644000BAA
:01064500189C
:0106460005AE
:0106470012A0
:010648001F92
:010649000DA3
:01064A001A95
:01064B0007A7
:01064C001499
:01064D0001AB
:01064E000E9D
:01064F001C8E
:0106500009A0
:010651001692
:0106520003A4
:010653001195
:010654001E87
:010655000B99
:01065600198A
:01065700069C
:01065800148D
:01065900019F
:01065A000E91
:01065B001C82
:01065C000994
:01065D001785
:01065E000497
:01065F001288
:010660000099
:010661000D8B
:010662001B7C
:01066300088E
:01066400167F
:010665000490
:010666001182
:010667001F73
:010668000D84
:010669001B75
:01066A000887
:01066B001678
:01066C000489
:01066D00127A
:01066E00008B
:01066F000E7C
:010670001B6E
:01067100097F
:010672001770
:010673000581
:010674001372
:010675000183
:010676000F74
:010677001D65
:010678000B76
:010679001967
:01067A000778
:01067B001668
:01067C000479
:01067D00126A
:01067E00007B
:01067F000E6C
:010680001C5D
:010681000B6D
:01068200195E
:01068300076F
:010684001560
:010685000470
:010686001261
:010687000072
:010688000F62
:010689001D53
:01068A000B64
:01068B001A54
:01068C000865
:01068D001755
:01068E000566
:01068F001456
:010690000267
:010691001157
:010692001F48
:010693000E58
:010694001C49
:010695000B59
:010696001A49
:01069700085A
:01069800174A
:01069900055B
:01069A00144B
:01069B00035B
:01069C00124B
:01069D00005C
:01069E000F4C
:01069F001E3C
:0106A0000D4C
:0106A1001C3C
:0106A2000A4D
:0106A300193D
:0106A400084D
:0106A500173D
:0106A600064D
:0106A700153D
:0106A800044D
:0106A900133D
:0106AA00024D
:0106AB00113D
:0106AC00004D
:0106AD000F3D
:0106AE001E2D
:0106AF000D3D
:0106B0001C2D
:0106B1000B3D
:0106B2001A2D
:0106B300093D
:0106B400192C
:0106B500083C
:0106B600172C
:0106B700063C
:0106B800152C
:0106B900053B
:0106BA00142B
:0106BB00033B
:0106BC00122B
:0106BD00023A
:0106BE00112A
:0106BF000139
:0106C0001029
:0106C1001F19
:0106C2000F28
:0106C3001E18
:0106C4000E27
:0106C5001D17
:0106C6000D26
:0106C7001C16
:0106C8000C25
:0106C9001B15
:0106CA000B24
:0106CB001A14
:0106CC000A23
:0106CD001913
:0106CE000922
:0106CF001911
:0106D0000821
:0106D1001810
:0106D200081F
:0106D300170F
:0106D400071E
:0106D500170D
:0106D600071C
:0106D700160C
:0106D800061B
:0106D900160A
:0106DA000619
:0106DB001608
:0106DC000617
:0106DD001507
:0106DE000516
:0106DF001505
:0106E0000514
:0106E1001503
:0106E2000512
:0106E3001501
:0106E4000510
:0106E50015FF
:0106E600050E
:0106E70015FD
:0106E800050C
:0106E90015FB
:0106EA00050A
:0106EB0015F9
:0106EC000607
:0106ED0016F6
:0106EE000605
:0106EF0016F4
:0106F0000603
:0106F10016F2
:0106F2000700
:0106F30017EF
:0106F40007FE
:0106F50017ED
:0106F60008FB
:0106F70018EA
:0106F80008F9
:0106F90019E7
:0106FA0009F6
:0106FB0019E5
:0106FC000AF3
:0106FD001AE2
:0106FE000BF0
:0106FF001BDF
:010700000CEC
:010701001CDB
:010702000DE9
:010703001DD8
:010704000EE6
:010705001ED5
:010706000FE3
:010707001FD2
:0107080010E0
:0107090000EF
:01070A0011DD
:01070B0002EB
:01070C0012DA
:01070D0003E8
:01070E0014D6
:01070F0004E5
:0107100015D3
:0107110006E1
:0107120017CF
:0107130007DE
:0107140018CC
:0107150009DA
:010716001AC8
:010717000BD6
:010718001BC5
:010719000CD3
:01071A001DC1
:01071B000ECF
:01071C001FBD
:01071D0010CB
:01071E0001D9
:01071F0012C7
:0107200003D5
:0107210014C3
:0107220005D1
:0107230016BF
:0107240007CD
:0107250018BB
:0107260009C9
:010727001AB7
:010728000BC5
:010729001CB3
:01072A000DC1
:01072B001EAF
:01072C000FBD
:01072D0001CA
:01072E0012B8
:01072F0003C6
:0107300014B4
:0107310005C2
:0107320017AF
:0107330008BD
:0107340019AB
:010735000AB9
:010736001CA6
:010737000DB4
:010738001EA2
:0107390010AF
:01073A0001BD
:01073B0013AA
:01073C0004B8
:01073D0015A6
:01073E0007B3
:01073F0018A1
:010740000AAE
:010741001B9C
:010742000DA9
:010743001E97
:0107440010A4
:0107450001B2
:01074600139F
:0107470004AD
:01074800169A
:0107490007A8
:01074A001995
:01074B000BA2
:01074C001C90
:01074D000E9D
:01074E0000AA
:01074F001198
:0107500003A5
:010751001592
:0107520006A0
:01075300188D
:010754000A9A
:010755001C87
:010756000D95
:010757001F82
:01075800118F
:01075900039C
:01075A001589
:01075B000697
:01075C001884
:01075D000A91
:01075E001C7E
:01075F000E8B
:010760000098
:010761001285
:010762000492
:01076300167F
:01076400088C
:010765001A79
:010766000C86
:010767001E73
:010768001080
:01076900028D
:01076A00147A
:01076B000687
:01076C001874
:01076D000A81
:01076E001C6E
:01076F000E7B
:010770000187
:010771001374
:010772000581
:01077300176E
:01077400097B
:010775001B68
:010776000E74
:010777000081
:01077800126E
:01077900047B
:01077A001767
:01077B000974
:01077C001B61
:01077D000E6D
:01077E00007A
:01077F001267
:010780000573
:010781001760
:010782000A6C
:010783001C59
:010784000E66
:010785000172
:01078600135F
:01078700066B
:010788001858
:010789000B64
:01078A001D51
:01078B00105D
:01078C00026A
:01078D001556
:01078E000763
:01078F001A4F
:010790000C5C
:010791001F48
:010792001254
:010793000461
:01079400174D
:010795000A59
:010796001C46
:010797000F52
:01079800025E
:01079900144B
:01079A000757
:01079B001A43
:01079C000D4F
:01079D001F3C
:01079E001248
:01079F000554
:0107A0001840
:0107A1000A4D
:0107A2001D39
:0107A3001045
:0107A4000351
:0107A500163D
:0107A6000949
:0107A7001C35
:0107A8000F41
:0107A900014E
:0107AA00143A
:0107AB000746
:0107AC001A32
:0107AD000D3E
:0107AE00004A
:0107AF001336
:0107B0000642
:0107B100192E
:0107B2000C3A
:0107B3001F26
:0107B4001232
:0107B500053E
:0107B6001929
:0107B7000C35
:0107B8001F21
:0107B900122D
:0107BA000539
:0107BB001825
:0107BC000B31
:0107BD001F1C
:0107BE001228
:0107BF000534
:0107C0001820
:0107C1000B2C
:0107C2001F17
:0107C3001223
:0107C400052F
:0107C500181B
:0107C6000C26
:0107C7001F12
:0107C800121E
:0107C9000629
:0107CA001915
:0107CB000C21
:0107CC00002C
:0107CD001318
:0107CE000624
:0107CF001A0F
:0107D0000D1B
:0107D1000126
:0107D2001412
:0107D300081D
:0107D4001B09
:0107D5000F14
:0107D6000220
:0107D700160B
:0107D8000917
:0107D9001D02
:0107DA00100E
:0107DB000419
:0107DC001705
:0107DD000B10
:0107DE001EFC
:0107DF001207
:0107E0000612
:0107E10019FE
:0107E2000D09
:0107E3000015
:0107E4001400
:0107E500080B
:0107E6001CF6
:0107E7000F02
:0107E800030D
:0107E90017F8
:0107EA000A04
:0107EB001EEF
:0107EC0012FA
:0107ED000605
:0107EE0019F1
:0107EF000DFC
:0107F0000107
:0107F10015F2
:0107F20009FD
:0107F3001CE9
:0107F40010F4
:0107F50004FF
:0107F60018EA
:0107F7000CF5
:0107F8000000
:0107F90014EB
:0107FA0008F6
:0107FB001CE1
:0107FC0010EC
:0107FD0004F7
:0107FE0018E2
:0107FF000CED
:00000001ff
