:020000040000FA
:0100000000FF
:010001001DE1
:0100020018E5
:0100030015E7
:0100040001FA
:010005000AF0
:0100060003F6
:0100070006F2
:010008000FE8
:0100090003F3
:01000A0009EC
:01000B0010E4
:01000C000AE9
:01000D0011E1
:01000E0005EC
:01000F000CE4
:0100100012DD
:0100110009E5
:010012000CE1
:0100130019D3
:010014001AD1
:010015001DCD
:0100160018D1
:0100170007E1
:0100180012D5
:0100190005E1
:01001A0016CF
:01001B0001E3
:01001C000ED5
:01001D000AD8
:01001E000DD4
:01001F0016CA
:010020000FD0
:010021000AD4
:0100220002DB
:010023001DBF
:0100240009D2
:010025001DBD
:010026001EBB
:0100270018C0
:0100280000D7
:0100290019BD
:01002A000EC7
:01002B0016BE
:01002C0012C1
:01002D000FC3
:01002E0003CE
:01002F0013BD
:010030000CC3
:0100310009C5
:010032000FBE
:0100330010BC
:010034000BC0
:0100350008C2
:0100360000C9
:0100370014B4
:0100380014B3
:010039001DA9
:01003A0019AC
:01003B001EA6
:01003C000FB4
:01003D001FA3
:01003E000BB6
:01003F0001BF
:010040001AA5
:010041001F9F
:0100420007B6
:0100430015A7
:010044001D9E
:0100450002B8
:0100460011A8
:010047000CAC
:0100480000B7
:010049000AAC
:01004A00169F
:01004B0001B3
:01004C00159E
:01004D000DA5
:01004E00159C
:01004F0006AA
:010050000CA3
:0100510000AE
:01005200109D
:010053001597
:010054001C8F
:0100550002A8
:010056001693
:010057001593
:010058000F98
:0100590006A0
:01005A000D98
:01005B00079D
:01005C000A99
:01005D001E84
:01005E001C85
:01005F000F91
:010060001689
:010061001F7F
:010062000D90
:010063001686
:01006400009B
:010065000694
:010066001584
:010067000E8A
:010068000394
:010069001C7A
:01006A001481
:01006B00177D
:01006C00078C
:01006D001979
:01006E00177A
:01006F001D73
:010070001E71
:010071001E70
:010072001875
:010073001B71
:010074000883
:010075001A70
:010076001C6D
:010077001078
:010078000D7A
:010079000086
:01007A000B7A
:01007B000381
:01007C00176C
:01007D00087A
:01007E000F72
:01007F001A66
:010080000D72
:01008100037B
:010082000D70
:01008300116B
:010084000D6E
:010085001664
:010086001663
:010087001068
:010088001E59
:010089000D69
:01008A00066F
:01008B00086C
:01008C00086B
:01008D00145E
:01008E001160
:01008F001C54
:010090000966
:010091000767
:010092001855
:010093001B51
:010094000467
:010095000268
:010096001B4E
:010097000E5A
:010098001255
:01009900184E
:01009A00095C
:01009B00095B
:01009C001152
:01009D001949
:01009E000D54
:01009F00164A
:0100A0001649
:0100A1000658
:0100A2001D40
:0100A3000854
:0100A4001249
:0100A5001C3E
:0100A6000356
:0100A7000058
:0100A8000354
:0100A9001A3C
:0100AA000B4A
:0100AB00173D
:0100AC001C37
:0100AD001141
:0100AE00074A
:0100AF000E42
:0100B0000C43
:0100B1000747
:0100B2001D30
:0100B3000B41
:0100B4000546
:0100B5001F2B
:0100B6000841
:0100B7000840
:0100B8000542
:0100B9000343
:0100BA001E27
:0100BB001232
:0100BC00162D
:0100BD001D25
:0100BE00172A
:0100BF001030
:0100C000142B
:0100C1000638
:0100C2000C31
:0100C3000438
:0100C4000D2E
:0100C5000238
:0100C6001A1F
:0100C7000B2D
:0100C8000730
:0100C9000036
:0100CA000233
:0100CB001C18
:0100CC00161D
:0100CD00181A
:0100CE000928
:0100CF000C24
:0100D000032C
:0100D100101E
:0100D200111C
:0100D3000527
:0100D4000625
:0100D500101A
:0100D6001E0B
:0100D7000622
:0100D8000126
:0100D9000521
:0100DA00081D
:0100DB001E06
:0100DC001C07
:0100DD00150D
:0100DE001C05
:0100DF00041C
:0100E0001F00
:0100E1001FFF
:0100E2001409
:0100E3001309
:0100E4000B10
:0100E5000E0C
:0100E6000E0B
:0100E7001EFA
:0100E8000F08
:0100E9001402
:0100EA000213
:0100EB000A0A
:0100EC000310
:0100ED000111
:0100EE0019F8
:0100EF00040C
:0100F00019F6
:0100F10010FE
:0100F2000508
:0100F30012FA
:0100F40014F7
:0100F5000901
:0100F6000FFA
:0100F7000AFE
:0100F8001BEC
:0100F9000501
:0100FA0010F5
:0100FB000400
:0100FC000AF9
:0100FD000EF4
:0100FE001EE3
:0100FF000AF6
:0101000005F9
:0101010004F9
:010102001DDF
:010103000BF0
:0101040009F1
:0101050017E2
:0101060015E3
:0101070008EF
:0101080019DD
:010109000FE6
:01010A0019DB
:01010B0007EC
:01010C000CE6
:01010D001FD2
:01010E001AD6
:01010F001AD5
:0101100000EE
:0101110010DD
:0101120012DA
:0101130012D9
:010114001FCB
:010115000DDC
:0101160012D6
:0101170009DE
:0101180012D4
:010119000FD6
:01011A000ADA
:01011B000BD8
:01011C0004DE
:01011D000AD7
:01011E0015CB
:01011F0002DD
:0101200014CA
:0101210011CC
:0101220005D7
:0101230000DB
:0101240018C2
:0101250005D4
:0101260008D0
:0101270005D2
:0101280005D1
:0101290017BE
:01012A000FC5
:01012B0006CD
:01012C001CB6
:01012D0014BD
:01012E0018B8
:01012F0019B6
:010130000AC4
:0101310008C5
:0101320014B8
:0101330013B8
:0101340013B7
:0101350007C2
:0101360007C1
:0101370013B4
:0101380010B6
:010139000ABB
:01013A0013B1
:01013B0004BF
:01013C001AA8
:01013D001DA4
:01013E0018A8
:01013F001EA1
:0101400009B5
:010141001AA3
:0101420016A6
:010143000EAD
:0101440017A3
:010145000CAD
:0101460012A6
:0101470013A4
:0101480001B5
:01014900179E
:01014A0013A1
:01014B001F94
:01014C000BA7
:01014D000EA3
:01014E0006AA
:01014F001B94
:010150001B93
:010151001C91
:010152001D8F
:0101530003A8
:010154001C8E
:0101550000A9
:010156000B9D
:0101570005A2
:010158001C8A
:01015900079E
:01015A00079D
:01015B0001A2
:01015C00089A
:01015D00138E
:01015E00049C
:01015F00059A
:010160000A94
:010161000D90
:010162001389
:010163000992
:010164000694
:010165000990
:010166001A7E
:010167000B8C
:010168001680
:010169000095
:01016A00157F
:01016B000C87
:01016C00058D
:01016D000988
:01016E000A86
:01016F000788
:010170000589
:01017100127B
:010172000A82
:010173000E7D
:010174000E7C
:010175001F6A
:010176000286
:010177000384
:010178001670
:010179001B6A
:01017A001B69
:01017B000B78
:01017C00077B
:01017D001869
:01017E00116F
:01017F000F70
:010180001965
:01018100017C
:010182000577
:010183000B70
:010184000773
:010185001366
:01018600195F
:010187000B6C
:010188000670
:010189001263
:01018A000470
:01018B00195A
:01018C001C56
:01018D000071
:01018E000769
:01018F001B54
:01019000145A
:01019100125B
:010192000468
:010193000269
:010194001159
:010195000267
:010196000F59
:010197000067
:01019800085E
:01019900065F
:01019A00055F
:01019B001B48
:01019C000B57
:01019D00035E
:01019E001D43
:01019F00015E
:0101A000005E
:0101A1001A43
:0101A2001A42
:0101A3001744
:0101A4001446
:0101A5000356
:0101A6001E3A
:0101A7001047
:0101A8000D49
:0101A900173E
:0101AA001D37
:0101AB001A39
:0101AC00163C
:0101AD00054C
:0101AE000947
:0101AF00103F
:0101B0001539
:0101B100004D
:0101B2000745
:0101B3000A41
:0101B4001A30
:0101B5001237
:0101B6001C2C
:0101B7000E39
:0101B8000C3A
:0101B900073E
:0101BA001D27
:0101BB001B28
:0101BC001929
:0101BD001F22
:0101BE001F21
:0101BF001D22
:0101C0000737
:0101C1001A23
:0101C200023A
:0101C3001625
:0101C4001D1D
:0101C5000A2F
:0101C6000038
:0101C7000E29
:0101C8001323
:0101C900191C
:0101CA001B19
:0101CB000132
:0101CC000032
:0101CD001D14
:0101CE000A26
:0101CF000728
:0101D0000529
:0101D1001F0E
:0101D200012B
:0101D3000724
:0101D4001713
:0101D5000920
:0101D6000325
:0101D700190E
:0101D8000E18
:0101D9001213
:0101DA00071D
:0101DB001B08
:0101DC000C16
:0101DD00061B
:0101DE00061A
:0101DF00150A
:0101E0000C12
:0101E1001508
:0101E2000517
:0101E3000417
:0101E4000812
:0101E5001405
:0101E6001DFB
:0101E7000611
:0101E8000214
:0101E9001203
:0101EA00060E
:0101EB000112
:0101EC001200
:0101ED0017FA
:0101EE000010
:0101EF000C03
:0101F0000806
:0101F10012FB
:0101F20018F4
:0101F30016F5
:0101F4001AF0
:0101F5000009
:0101F60014F4
:0101F70013F4
:0101F80008FE
:0101F90011F4
:0101FA0018EC
:0101FB001BE8
:0101FC0004FE
:0101FD0012EF
:0101FE000FF1
:0101FF0018E7
:010200001BE2
:0102010013E9
:010202000EED
:010203000AF0
:0102040015E4
:010205000CEC
:010206001FD8
:010207000CEA
:0102080004F1
:0102090005EF
:01020A0002F1
:01020B001BD7
:01020C0002EF
:01020D001AD6
:01020E0016D9
:01020F001AD4
:010210001CD1
:0102110000EC
:010212001CCF
:010213001AD0
:0102140010D9
:0102150009DF
:010216001DCA
:0102170019CD
:0102180019CC
:010219000ADA
:01021A000BD8
:01021B000BD7
:01021C000DD4
:01021D0000E0
:01021E0009D6
:01021F001DC1
:0102200001DC
:010221000DCF
:010222000BD0
:0102230013C7
:0102240012C7
:0102250005D3
:010226001ABD
:0102270013C3
:0102280001D4
:0102290007CD
:01022A001AB9
:01022B0002D0
:01022C0017BA
:01022D0004CC
:01022E0004CB
:01022F0007C7
:010230000BC2
:0102310003C9
:0102320012B9
:010233000EBC
:010234001FAA
:010235001EAA
:0102360017B0
:0102370009BD
:0102380003C2
:0102390006BE
:01023A0009BA
:01023B0010B2
:01023C0015AC
:01023D0004BC
:01023E0019A6
:01023F0004BA
:0102400007B6
:0102410017A5
:010242001BA0
:010243000CAE
:0102440016A3
:0102450018A0
:0102460002B5
:01024700199D
:0102480012A3
:01024900169E
:01024A0001B2
:01024B0002B0
:01024C001998
:01024D001997
:01024E000AA5
:01024F0005A9
:010250001796
:010251001E8E
:010252000D9E
:0102530008A2
:0102540008A1
:010255001890
:010256001691
:010257001294
:010258001392
:010259000E96
:01025A000E95
:01025B001191
:01025C000899
:01025D001888
:01025E001788
:01025F00118D
:01026000039A
:01026100009C
:010262000B90
:010263001E7C
:010264000495
:010265001B7D
:01026600187F
:010267000096
:010268000C89
:010269000B89
:01026A001E75
:01026B00177B
:01026C00028F
:01026D001878
:01026E000B84
:01026F001D71
:010270000588
:010271000F7D
:010272001A71
:010273001872
:010274001178
:010275001E6A
:010276000E79
:010277000482
:010278001570
:010279000E76
:01027A000B78
:01027B000181
:01027C00156C
:01027D00027E
:01027E001867
:01027F001A64
:010280001E5F
:01028100126A
:010282001467
:010283001961
:010284000970
:010285000276
:010286001463
:010287000571
:010288001065
:010289000272
:01028A001F54
:01028B001E54
:01028C000B66
:01028D000769
:01028E000768
:01028F00135B
:010290000D60
:010291000468
:010292000269
:010293000268
:010294001752
:010295000563
:010296000760
:010297000D59
:010298001A4B
:01029900095B
:01029A00065D
:01029B00154D
:01029C000D54
:01029D001B45
:01029E00025D
:01029F001648
:0102A0000459
:0102A1000E4E
:0102A2000853
:0102A3001D3D
:0102A4000E4B
:0102A5000F49
:0102A6000C4B
:0102A7000353
:0102A800094C
:0102A900084C
:0102AA000053
:0102AB00044E
:0102AC001E33
:0102AD000E42
:0102AE000847
:0102AF001737
:0102B0001835
:0102B100024A
:0102B2001D2E
:0102B3000A40
:0102B4001D2C
:0102B5000147
:0102B6001730
:0102B7001432
:0102B8000342
:0102B900053F
:0102BA001132
:0102BB001230
:0102BC000B36
:0102BD00132D
:0102BE001827
:0102BF001C22
:0102C0001825
:0102C1001A22
:0102C2000833
:0102C3001A20
:0102C4000237
:0102C5000533
:0102C6001E19
:0102C7000036
:0102C8001322
:0102C9001321
:0102CA00151E
:0102CB000230
:0102CC001918
:0102CD001020
:0102CE00141B
:0102CF000628
:0102D0001E0F
:0102D1000923
:0102D2000E1D
:0102D3000426
:0102D4001E0B
:0102D5000325
:0102D6000E19
:0102D7001511
:0102D8001F06
:0102D9000E16
:0102DA00170C
:0102DB00081A
:0102DC00021F
:0102DD00011F
:0102DE00120D
:0102DF001D01
:0102E0001EFF
:0102E1000814
:0102E2000516
:0102E3001604
:0102E4001009
:0102E5000117
:0102E6000D0A
:0102E7000E08
:0102E80016FF
:0102E9000A0A
:0102EA000C07
:0102EB000E04
:0102EC001DF4
:0102ED001BF5
:0102EE00010E
:0102EF001FEF
:0102F0001CF1
:0102F10015F7
:0102F2001EED
:0102F3000307
:0102F4000504
:0102F5001DEB
:0102F6001BEC
:0102F7000501
:0102F8001AEB
:0102F9000DF7
:0102FA0009FA
:0102FB0012F0
:0102FC000100
:0102FD0006FA
:0102FE0009F6
:0102FF0007F7
:0103000019E3
:0103010008F3
:010302001AE0
:010303000AEF
:010304000AEE
:0103050003F4
:0103060015E1
:0103070019DC
:010308001ED6
:0103090009EA
:01030A0019D9
:01030B0001F0
:01030C000FE1
:01030D0006E9
:01030E0000EE
:01030F0010DD
:0103100000EC
:010311000FDC
:0103120017D3
:0103130007E2
:0103140007E1
:0103150016D1
:0103160009DD
:010317000ED7
:010318000BD9
:010319001CC7
:01031A0016CC
:01031B0004DD
:01031C000BD5
:01031D0005DA
:01031E0005D9
:01031F0017C6
:010320001AC2
:010321000BD0
:0103220019C1
:010323000ECB
:010324000CCC
:010325000ACD
:010326001ABC
:0103270004D1
:0103280007CD
:010329001DB6
:01032A0013BF
:01032B0013BE
:01032C001BB5
:01032D0003CC
:01032E001BB3
:01032F0008C5
:010330000CC0
:010331001CAF
:0103320008C2
:0103330017B2
:0103340007C1
:0103350012B5
:0103360004C2
:0103370006BF
:0103380017AD
:010339000EB5
:01033A001BA7
:01033B0006BB
:01033C000EB2
:01033D000BB4
:01033E000EB0
:01033F001E9F
:010340001D9F
:0103410002B9
:0103420000BA
:010343001F9A
:0103440001B7
:010345001F98
:010346000CAA
:0103470013A2
:01034800159F
:010349000FA4
:01034A00139F
:01034B000EA3
:01034C0004AC
:01034D00119E
:01034E000BA3
:01034F0000AD
:010350001597
:0103510008A3
:010352001298
:0103530001A8
:010354001F89
:010355000A9D
:010356001C8A
:01035700089D
:01035800178D
:010359000C97
:01035A00049E
:01035B001190
:01035C00029E
:01035D001B84
:01035E001B83
:01035F001885
:01036000029A
:010361000299
:010362001882
:010363001F7A
:010364000890
:010365000097
:010366000A8C
:010367000392
:010368000193
:01036900147F
:01036A000191
:01036B000A87
:01036C000789
:01036D000C83
:01036E00038B
:01036F00107D
:01037000107C
:010371001972
:010372001A70
:010373001A6F
:010374001B6D
:010375001770
:010376000086
:010377000283
:010378000381
:010379000083
:01037A001171
:01037B00067B
:01037C000878
:01037D001A65
:01037E001767
:01037F001667
:01038000027A
:010381000477
:010382001D5D
:010383000475
:010384000F69
:01038500086F
:010386001561
:010387001461
:010388001E56
:010389000370
:01038A000F63
:01038B00046D
:01038C000070
:01038D001B54
:01038E00026C
:01038F00006D
:010390001854
:010391000566
:010392001C4E
:010393000E5B
:010394000167
:01039500194E
:010396000F57
:010397001A4B
:01039800065E
:010399001C47
:01039A001E44
:01039B00065B
:01039C000759
:01039D00124D
:01039E000C52
:01039F001647
:0103A0000D4F
:0103A1000358
:0103A2000654
:0103A3000059
:0103A4001048
:0103A5001146
:0103A600193D
:0103A7001441
:0103A8000D47
:0103A9000350
:0103AA001240
:0103AB001041
:0103AC000B45
:0103AD000D42
:0103AE001737
:0103AF000647
:0103B0000F3D
:0103B1000447
:0103B2000D3D
:0103B3000E3B
:0103B4000444
:0103B5000740
:0103B600073F
:0103B7001035
:0103B800073D
:0103B9000B38
:0103BA00132F
:0103BB00142D
:0103BC001A26
:0103BD000A35
:0103BE000737
:0103BF000A33
:0103C0000735
:0103C1000F2C
:0103C2000931
:0103C3001821
:0103C4001820
:0103C5000136
:0103C6000333
:0103C700092C
:0103C800191B
:0103C9001023
:0103CA000929
:0103CB00161B
:0103CC000729
:0103CD00012E
:0103CE000628
:0103CF001419
:0103D0001F0D
:0103D1001912
:0103D2000C1E
:0103D3001D0C
:0103D4000A1E
:0103D5000D1A
:0103D6001B0B
:0103D7001F06
:0103D8000321
:0103D900091A
:0103DA000E14
:0103DB000819
:0103DC000917
:0103DD001D02
:0103DE000A14
:0103DF000F0E
:0103E0000814
:0103E1000A11
:0103E2000416
:0103E3000118
:0103E4000414
:0103E5000C0B
:0103E6001204
:0103E7000B0A
:0103E8000410
:0103E900050E
:0103EA0013FF
:0103EB000908
:0103EC00010F
:0103ED000C03
:0103EE0019F5
:0103EF000EFF
:0103F0000DFF
:0103F10013F8
:0103F20018F2
:0103F3000EFB
:0103F4001FE9
:0103F50015F2
:0103F60010F6
:0103F7000CF9
:0103F8000103
:0103F9000003
:0103FA0014EE
:0103FB0006FB
:0103FC0015EB
:0103FD0000FF
:0103FE001BE3
:0103FF0019E4
:0104000007F4
:010401000AF0
:0104020005F4
:0104030015E3
:0104040010E7
:0104050008EE
:010406000BEA
:010407001FD5
:0104080008EB
:0104090001F1
:01040A0004ED
:01040B0002EE
:01040C000AE5
:01040D0004EA
:01040E0013DA
:01040F0016D6
:0104100004E7
:0104110014D6
:0104120012D7
:010413000ADE
:010414001EC9
:0104150010D6
:010416001ACB
:0104170010D4
:0104180004DF
:0104190001E1
:01041A000CD5
:01041B0008D8
:01041C0011CE
:01041D001EC0
:01041E0001DC
:01041F0007D5
:010420001AC1
:010421001CBE
:010422000CCD
:0104230003D5
:0104240016C1
:0104250015C1
:010426000ACB
:010427001BB9
:010428000AC9
:0104290011C1
:01042A000AC7
:01042B0005CB
:01042C0010BF
:01042D0014BA
:01042E0014B9
:01042F0011BB
:0104300003C8
:0104310000CA
:0104320019B0
:010433001AAE
:0104340008BF
:0104350008BE
:0104360015B0
:0104370009BB
:0104380018AB
:0104390011B1
:01043A001EA3
:01043B0005BB
:01043C0007B8
:01043D0000BE
:01043E0009B4
:01043F0014A8
:0104400010AB
:0104410005B5
:0104420019A0
:010443000DAB
:010444001D9A
:010445001E98
:0104460003B2
:010447001C98
:0104480010A3
:0104490004AE
:01044A001998
:01044B000AA6
:01044C000DA2
:01044D001797
:01044E00139A
:01044F000BA1
:0104500005A6
:0104510000AA
:010452001792
:0104530004A4
:010454001790
:010455001F87
:01045600079E
:010457001292
:0104580002A1
:01045900148E
:01045A001F82
:01045B001789
:01045C000B94
:01045D000599
:01045E000B92
:01045F00009C
:01046000019A
:010461000694
:010462000594
:010463000D8B
:010464000C8B
:01046500078F
:010466000293
:010467001D77
:010468001182
:01046900167C
:01046A001C75
:01046B00117F
:01046C00008F
:01046D000C82
:01046E001677
:01046F001B71
:010470001477
:010471001377
:010472000980
:010473000187
:010474000384
:010475001076
:01047600097C
:01047700077D
:010478000182
:010479000A78
:01047A000E73
:01047B001967
:01047C000E71
:01047D00116D
:01047E001E5F
:01047F000E6E
:010480001764
:010481000971
:010482001267
:010483001860
:010484000374
:010485001165
:010486001F56
:01048700056F
:01048800195A
:01048900086A
:01048A000170
:01048B000A66
:01048C000867
:01048D001A54
:01048E001D50
:01048F000963
:01049000105B
:010491000466
:010492001059
:010493001B4D
:010494000A5D
:010495001C4A
:010496000E57
:01049700174D
:010498000B58
:010499001B47
:01049A00124F
:01049B001848
:01049C00134C
:01049D00015D
:01049E00015C
:01049F000854
:0104A0000E4D
:0104A1000258
:0104A2001148
:0104A3000454
:0104A4000057
:0104A5000650
:0104A6001441
:0104A7000351
:0104A8000A49
:0104A900183A
:0104AA001E33
:0104AB00034D
:0104AC00113E
:0104AD000846
:0104AE000746
:0104AF000A42
:0104B0000744
:0104B1001337
:0104B2001C2D
:0104B3000F39
:0104B4001433
:0104B5000E38
:0104B6000045
:0104B700053F
:0104B800162D
:0104B9000A38
:0104BA001130
:0104BB001A26
:0104BC00102F
:0104BD001826
:0104BE001627
:0104BF000933
:0104C0000D2E
:0104C1001921
:0104C2000138
:0104C3001721
:0104C4000730
:0104C5001A1C
:0104C600171E
:0104C7001F15
:0104C8001023
:0104C900062C
:0104CA00171A
:0104CB001818
:0104CC001817
:0104CD00032B
:0104CE00022B
:0104CF001B11
:0104D000101B
:0104D1001E0C
:0104D2000029
:0104D3000D1B
:0104D400180F
:0104D5001214
:0104D600071E
:0104D7001F05
:0104D8000122
:0104D9000D15
:0104DA00021F
:0104DB001C04
:0104DC00110E
:0104DD001608
:0104DE001A03
:0104DF000C10
:0104E0001308
:0104E1001604
:0104E2001900
:0104E30019FF
:0104E4001205
:0104E5001EF8
:0104E6000F06
:0104E70019FB
:0104E800090A
:0104E9000909
:0104EA000011
:0104EB0013FD
:0104EC00020D
:0104ED000905
:0104EE00030A
:0104EF000507
:0104F0000209
:0104F1000BFF
:0104F2000AFF
:0104F30009FF
:0104F4000DFA
:0104F50019ED
:0104F6000BFA
:0104F7001FE5
:0104F8000CF7
:0104F90008FA
:0104FA0005FC
:0104FB000FF1
:0104FC0013EC
:0104FD0018E6
:0104FE0002FB
:0104FF0013E9
:0105000008F2
:010501001CDD
:0105020005F3
:0105030019DE
:0105040008EE
:0105050000F5
:0105060009EB
:010507000EE5
:0105080010E2
:0105090010E1
:01050A000CE4
:01050B001FD0
:01050C001ED0
:01050D001ECF
:01050E0011DB
:01050F0001EA
:010510001CCE
:0105110007E2
:0105120006E2
:010513001BCC
:0105140002E4
:0105150016CF
:0105160010D4
:0105170002E1
:010518001EC4
:0105190013CE
:01051A0009D7
:01051B000BD4
:01051C001BC3
:01051D001BC2
:01051E000BD1
:01051F0005D6
:0105200001D9
:0105210015C4
:0105220013C5
:0105230009CE
:0105240003D3
:010525000BCA
:0105260006CE
:0105270017BC
:010528001DB5
:0105290016BB
:01052A001BB5
:01052B0002CD
:01052C001FAF
:01052D0003CA
:01052E001CB0
:01052F0012B9
:0105300010BA
:0105310018B1
:010532000DBB
:010533000DBA
:0105340013B3
:0105350019AC
:0105360013B1
:0105370016AD
:0105380010B2
:010539000DB4
:01053A0019A7
:01053B0019A6
:01053C0012AC
:01053D0006B7
:01053E0011AB
:01053F000FAC
:0105400018A2
:0105410002B7
:010542001F99
:010543001F98
:010544000EA8
:01054500169F
:010546001E96
:010547000AA9
:010548001B97
:010549000FA2
:01054A0001AF
:01054B000BA4
:01054C0001AD
:01054D001796
:01054E001C90
:01054F001E8D
:0105500006A4
:010551001D8C
:0105520007A1
:0105530005A2
:01055400178F
:01055500198C
:0105560004A0
:010557000F94
:010558000E94
:010559001190
:01055A00069A
:01055B001A85
:01055C00148A
:01055D001B82
:01055E00128A
:01055F001982
:010560000E8C
:010561000B8E
:010562000890
:010563001B7C
:01056400177F
:010565000B8A
:010566000490
:010567000E85
:010568000E84
:010569000B86
:01056A000888
:01056B00028D
:01056C001777
:01056D00028B
:01056E001A72
:01056F001477
:010570000189
:010571001178
:010572001276
:010573000C7B
:01057400087E
:010575000A7B
:01057600156F
:01057700077C
:010578001E64
:01057900146D
:01057A000080
:01057B001867
:01057C000E70
:01057D00106D
:01057E000D6F
:01057F000F6C
:010580001E5C
:010581001F5A
:010582001464
:010583001E59
:010584001B5B
:010585000372
:010586001262
:010587001B58
:01058800135F
:010589000968
:01058A000C64
:01058B000768
:01058C00036B
:01058D000766
:01058E001656
:01058F001259
:010590001951
:010591000762
:010592001751
:010593001F48
:010594001452
:01059500085D
:010596000A5A
:01059700095A
:010598000E54
:010599000160
:01059A000957
:01059B000857
:01059C001E40
:01059D000B52
:01059E000A52
:01059F001447
:0105A0001F3B
:0105A1000059
:0105A2000A4E
:0105A3000A4D
:0105A4000F47
:0105A5000253
:0105A6000C48
:0105A7001241
:0105A800183A
:0105A9001D34
:0105AA00024E
:0105AB00004F
:0105AC00133B
:0105AD00103D
:0105AE000D3F
:0105AF001C2F
:0105B0000C3E
:0105B1000C3D
:0105B2000543
:0105B3000245
:0105B400083E
:0105B5001B2A
:0105B6001C28
:0105B7000B38
:0105B800053D
:0105B900033E
:0105BA001F21
:0105BB000D32
:0105BC00023C
:0105BD000D30
:0105BE001F1D
:0105BF000338
:0105C0000337
:0105C1000633
:0105C2001325
:0105C3000C2B
:0105C4001224
:0105C5000332
:0105C6001C18
:0105C700161D
:0105C800082A
:0105C9000829
:0105CA000828
:0105CB001A15
:0105CC000C22
:0105CD000825
:0105CE001A12
:0105CF000823
:0105D0001911
:0105D1000D1C
:0105D2000820
:0105D3000522
:0105D4000422
:0105D5001B0A
:0105D6000321
:0105D7001310
:0105D8001C06
:0105D9001011
:0105DA001D03
:0105DB00100F
:0105DC00130B
:0105DD000E0F
:0105DE000715
:0105DF00011A
:0105E0001DFD
:0105E1001BFE
:0105E2001800
:0105E3000D0A
:0105E4001501
:0105E5000510
:0105E6001103
:0105E7000C07
:0105E800040E
:0105E9000809
:0105EA00030D
:0105EB001EF1
:0105EC00000E
:0105ED000FFE
:0105EE000DFF
:0105EF001AF1
:0105F00015F5
:0105F1001BEE
:0105F2000503
:0105F3000BFC
:0105F4000402
:0105F5000203
:0105F60019EB
:0105F70016ED
:0105F80008FA
:0105F9001AE7
:0105FA0014EC
:0105FB001EE1
:0105FC001DE1
:0105FD0013EA
:0105FE0002FA
:0105FF0007F4
:010600001FDA
:0106010005F3
:0106020010E7
:0106030018DE
:0106040010E5
:010605000AEA
:0106060016DD
:0106070003EF
:010608001BD6
:0106090009E7
:01060A0015DA
:01060B0004EA
:01060C0019D4
:01060D0017D5
:01060E001CCF
:01060F0007E3
:0106100012D7
:0106110018D0
:010612000ED9
:010613000CDA
:0106140003E2
:0106150005DF
:0106160002E1
:0106170007DB
:010618001FC2
:0106190012CE
:01061A0009D6
:01061B0009D5
:01061C0014C9
:01061D000DCF
:01061E0011CA
:01061F001FBB
:0106200010C9
:0106210001D7
:0106220006D1
:0106230015C1
:0106240002D3
:010625001EB6
:0106260018BB
:010627001EB4
:010628001BB6
:0106290018B8
:01062A001EB1
:01062B0012BC
:01062C0018B5
:01062D0010BC
:01062E001BB0
:01062F0017B3
:0106300000C9
:010631000FB9
:010632001CAB
:010633001EA8
:010634000ABB
:010635000FB5
:0106360001C2
:010637000CB6
:010638001EA3
:0106390000C0
:01063A001CA3
:01063B0018A6
:01063C001AA3
:01063D0004B8
:01063E0017A4
:01063F0013A7
:0106400015A4
:01064100199F
:01064200189F
:0106430009AD
:0106440003B2
:010645001A9A
:010646001F94
:0106470004AE
:01064800159C
:0106490000B0
:01064A00109F
:01064B000DA1
:01064C001F8E
:01064D0009A3
:01064E00119A
:01064F001694
:010650001A8F
:01065100198F
:010652000F98
:01065300178F
:01065400099C
:010655001C88
:0106560003A0
:010657001290
:010658001A87
:010659000A96
:01065A00108F
:01065B001787
:01065C000994
:01065D000D8F
:01065E000B90
:01065F000793
:010660000297
:010661001F79
:010662001D7A
:01066300177F
:010664000A8B
:010665001183
:010666000291
:01066700147E
:010668001B76
:010669000B85
:01066A00137C
:01066B00038B
:01066C000984
:01066D00107C
:01066E000289
:01066F000882
:010670000782
:010671000484
:010672000384
:010673000482
:01067400077E
:010675000A7A
:01067600097A
:010677001D65
:010678000180
:010679000A76
:01067A000D72
:01067B001F5F
:01067C00106D
:01067D00116B
:01067E00116A
:01067F001B5F
:010680001B5E
:01068100195F
:010682001E59
:010683001066
:010684001263
:01068500076D
:010686001063
:010687000B67
:01068800175A
:010689000F61
:01068A000D62
:01068B000A64
:01068C001C51
:01068D001854
:01068E001259
:01068F001C4E
:010690000663
:010691001E4A
:010692001156
:010693000A5C
:010694001352
:010695001450
:010696001350
:01069700144E
:010698001B46
:010699000858
:01069A001D42
:01069B001648
:01069C00104D
:01069D000755
:01069E001249
:01069F000B4F
:0106A0000653
:0106A100193F
:0106A2001641
:0106A3000F47
:0106A4001243
:0106A5000E46
:0106A6001043
:0106A7000250
:0106A8000D44
:0106A9001937
:0106AA000C43
:0106AB000A44
:0106AC001637
:0106AD00123A
:0106AE001E2D
:0106AF001634
:0106B0001930
:0106B1000147
:0106B2000740
:0106B3000343
:0106B4000C39
:0106B500162E
:0106B600142F
:0106B7001929
:0106B800132E
:0106B900132D
:0106BA00043B
:0106BB00122C
:0106BC000736
:0106BD000C30
:0106BE000635
:0106BF001C1E
:0106C0001227
:0106C1000830
:0106C2000136
:0106C3001B1B
:0106C4001421
:0106C500082C
:0106C6001221
:0106C7000A28
:0106C8000928
:0106C900042C
:0106CA00101F
:0106CB00002E
:0106CC000528
:0106CD00111B
:0106CE00101B
:0106CF001119
:0106D0001E0B
:0106D1000226
:0106D2000621
:0106D3001016
:0106D400071E
:0106D5000D17
:0106D600071C
:0106D700140E
:0106D800160B
:0106D9000917
:0106DA000B14
:0106DB001707
:0106DC000716
:0106DD001408
:0106DE001308
:0106DF001CFE
:0106E0000019
:0106E1001404
:0106E200080F
:0106E3000B0B
:0106E4000C09
:0106E50019FB
:0106E6001BF8
:0106E7001DF5
:0106E800070A
:0106E9000010
:0106EA000E01
:0106EB0015F9
:0106EC0018F5
:0106ED0017F5
:0106EE0012F9
:0106EF000901
:0106F00018F1
:0106F1001AEE
:0106F2000AFD
:0106F3000105
:0106F40015F0
:0106F5001DE7
:0106F6000DF6
:0106F70019E9
:0106F80011F0
:0106F90007F9
:0106FA0009F6
:0106FB0004FA
:0106FC0006F7
:0106FD0018E4
:0106FE0004F7
:0106FF0012E8
:0107000008F0
:010701000CEB
:0107020001F5
:010703000AEB
:0107040007ED
:0107050019DA
:010706001ED4
:0107070013DE
:0107080013DD
:0107090018D7
:01070A001CD2
:01070B0015D8
:01070C001AD2
:01070D0000EB
:01070E001AD0
:01070F001ACF
:0107100010D8
:010711000DDA
:010712001DC9
:010713000FD6
:010714000CD8
:010715001FC4
:0107160011D1
:0107170008D9
:010718000CD4
:0107190000DF
:01071A0008D6
:01071B0005D8
:01071C0019C3
:01071D0003D8
:01071E0000DA
:01071F000DCC
:0107200006D2
:0107210006D1
:0107220003D3
:0107230016BF
:0107240016BE
:0107250015BE
:010726000AC8
:0107270005CC
:0107280017B9
:0107290010BF
:01072A001EB0
:01072B000FBE
:01072C000DBF
:01072D0004C7
:01072E001CAE
:01072F001DAC
:010730000FB9
:0107310015B2
:0107320014B2
:010733000FB6
:0107340008BC
:010735001DA6
:010736000FB3
:010737001BA6
:010738001CA4
:010739000FB0
:01073A000DB1
:01073B000EAF
:01073C000BB1
:01073D0018A3
:01073E000AB0
:01073F0016A3
:010740000DAB
:0107410000B7
:010742001F97
:01074300199C
:010744001A9A
:0107450010A3
:0107460004AE
:0107470000B1
:010748000CA4
:010749000FA0
:01074A00109E
:01074B00129B
:01074C001A92
:01074D0008A3
:01074E001F8B
:01074F001E8B
:0107500002A6
:010751000A9D
:010752001195
:010753001392
:01075400089C
:01075500099A
:010756000D95
:010757000A97
:01075800168A
:01075900029D
:01075A00029C
:01075B000796
:01075C00009C
:01075D001C7F
:01075E000A90
:01075F001485
:010760000791
:010761000B8C
:010762000A8C
:010763000C89
:01076400167E
:010765000E85
:01076600187A
:01076700167B
:010768000B85
:010769001679
:01076A001777
:01076B000C81
:01076C00127A
:01076D000586
:01076E001F6B
:01076F001970
:010770000D7B
:010771001077
:01077200196D
:010773001D68
:010774000E76
:010775000182
:01077600057D
:010777000B76
:01077800037D
:010779001966
:01077A001B63
:01077B001469
:01077C000E6E
:01077D001368
:01077E000A70
:01077F001C5D
:010780000D6B
:010781000275
:010782001F57
:01078300076E
:010784001A5A
:01078500185B
:010786000270
:01078700145D
:010788000C64
:01078900056A
:01078A001955
:01078B00026B
:01078C001953
:01078D001556
:01078E000B5F
:01078F001158
:010790001A4E
:010791001A4D
:010792000165
:010793000164
:01079400095B
:01079500075C
:01079600085A
:010797001948
:01079800055B
:01079900154A
:01079A00124C
:01079B000558
:01079C001349
:01079D000358
:01079E001941
:01079F001742
:0107A0000256
:0107A100193E
:0107A2001D39
:0107A3000D48
:0107A400074D
:0107A500084B
:0107A6000C46
:0107A7000D44
:0107A800054B
:0107A9000E41
:0107AA001E30
:0107AB000B42
:0107AC000C40
:0107AD001536
:0107AE001931
:0107AF000A3F
:0107B0001A2E
:0107B100182F
:0107B2001432
:0107B3001B2A
:0107B4001B29
:0107B5000043
:0107B600142E
:0107B7000140
:0107B800112F
:0107B9000A35
:0107BA00142A
:0107BB00132A
:0107BC000E2E
:0107BD000734
:0107BE000139
:0107BF001D1C
:0107C0001C1C
:0107C1001C1B
:0107C2001E18
:0107C3001E17
:0107C400181C
:0107C500082B
:0107C600072B
:0107C7001021
:0107C8001B15
:0107C9001E11
:0107CA00101E
:0107CB000627
:0107CC001517
:0107CD000F1C
:0107CE000723
:0107CF000E1B
:0107D0001315
:0107D1000720
:0107D200170F
:0107D3001015
:0107D4001E06
:0107D5000D16
:0107D600071B
:0107D700150C
:0107D8001E02
:0107D9000B14
:0107DA00001E
:0107DB000419
:0107DC001B01
:0107DD000615
:0107DE000A10
:0107DF000712
:0107E0001CFC
:0107E1000A0D
:0107E2000E08
:0107E300070E
:0107E4000F05
:0107E5000310
:0107E6001CF6
:0107E70014FD
:0107E800040C
:0107E900020D
:0107EA000509
:0107EB000409
:0107EC0011FB
:0107ED00000B
:0107EE000505
:0107EF0011F8
:0107F00013F5
:0107F1001DEA
:0107F2001DE9
:0107F3001FE6
:0107F40013F1
:0107F5000201
:0107F60018EA
:0107F7001EE3
:0107F8001FE1
:0107F90002FD
:0107FA000DF1
:0107FB0007F6
:0107FC0016E6
:0107FD001CDF
:0107FE001FDB
:0107FF0000F9
:00000001ff
