:020000040000FA
:020000000000FE
:0200010000FFFE
:0200020003FEFB
:0200030000F902
:0200040003F007
:0200050000E019
:0200060003CA2B
:0200070000AA4D
:02000800038073
:02000900004BAA
:02000A000308E9
:02000B0003B63A
:02000C0002559B
:02000D0002E10E
:02000E00015B94
:02000F0001C02E
:02001000000FDF
:020011000047A6
:02001200026783
:02001300026C7D
:02001400005694
:020015000023C6
:0200160001D116
:02001700016185
:0200180002CF15
:02001900021AC9
:02001A0003429F
:02001B0002459C
:02001C000322BD
:02001D0001D60A
:02001E0002627C
:02001F0000C31C
:0200200000F8E6
:020021000300DA
:0200220002D901
:02002300008358
:0200240003FCDB
:02002500014296
:02002600005484
:020027000132A4
:0200280003D9FA
:0200290000498C
:02002A00027F53
:02002B00027C55
:02002C00003D95
:02002D0003C10D
:02002E000108C7
:02002F00000FC0
:0200300000D5F9
:02003100035A70
:02003200039C2D
:02003300019A30
:02003400015277
:0200350002C403
:0200360001EDDA
:0200370002CEF7
:02003800016461
:0200390001AF15
:02003A0003AC15
:02003B00035C64
:02003C0000BC06
:02003D0003CDF1
:02003E00008B35
:02003F0002F7C6
:02004000030FAC
:0200410000D1EC
:02004200003E7E
:02004300015268
:02004400000FAB
:02004500007148
:0200460002783E
:02004700022491
:02004800037142
:02004900026152
:02004A0002F1C1
:02004B00012092
:02004C0000EEC4
:02004D00025857
:02004E00015F50
:02004F000200AD
:02005000003B73
:02005100000E9F
:02005200017932
:02005300007B30
:02005400011198
:02005500033C6A
:0200560002FAAC
:0200570000495E
:02005800032A79
:02005900039A08
:02005A0001990A
:02005B0001267C
:02005C00024060
:02005D0000E5BC
:02005E0001148B
:02005F0002CDD0
:02006000020E8E
:0200610002D7C4
:02006200012576
:0200630000F9A2
:02006400025147
:02006500012D6B
:02006600018A0D
:0200670003692B
:0200680002C7CD
:0200690003A5ED
:02006A00020092
:02006B0001D9B9
:02006C00032E61
:02006D0001FD93
:02006E00024747
:02006F00000986
:02007000034447
:0200710003F694
:02007200021D6D
:0200730001BAD0
:0200740002CBBD
:02007500014E3A
:02007600014443
:0200770002ABDA
:02007800018203
:0200790001C8BC
:02007A00037D04
:02007B00029FE2
:02007C00032D52
:02007D0001265A
:02007E00008AF6
:02007F00015826
:02008000038EED
:02008100032B4F
:02008200002F4D
:020083000299E0
:02008400026810
:02008500039BDB
:02008600023046
:0200870002284D
:020088000380F3
:0200890002393A
:02008A00025121
:02008B0003C8A8
:02008C00029CD4
:02008D0002CDA2
:02008E00005917
:02008F0003402C
:020090000381EA
:02009100011B51
:02009200000E5E
:02009300005714
:0200940001F772
:0200950000EC7D
:02009600013631
:0200970002D491
:0200980001C4A1
:0200990002075C
:02009A00039BC6
:02009B00027FE2
:02009C0002B2AE
:02009D0000342D
:02009E00030459
:02009F0003213B
:0200A000008AD4
:0200A100033E1C
:0200A200033C1D
:0200A3000084D7
:0200A400031542
:0200A50002EE69
:0200A600000D4B
:0200A7000273E2
:0200A800021E36
:0200A900030E44
:0200AA00014211
:0200AB0000B99A
:0200AC000171E0
:0200AD00036CE2
:0200AE0002A6A8
:0200AF0003212B
:0200B00000DA74
:0200B10003D179
:0200B200000646
:0200B3000178D2
:0200B400002525
:0200B500000D3C
:0200B600012F18
:0200B700038BB9
:0200B800032023
:0200B90003EC56
:0200BA0001EF54
:0200BB00012919
:0200BC000198A9
:0200BD00033C02
:0200BE00021529
:0200BF0002201D
:0200C000035EDD
:0200C10001CD6F
:0200C200016ECD
:0200C300023FFA
:0200C400003FFB
:0200C500036EC8
:0200C60003CC69
:0200C7000156E0
:0200C800000D29
:0200C90003F042
:0200CA0000FD37
:0200CB000336FA
:0200CC00029799
:0200CD0003220C
:0200CE0000D55B
:0200CF0003AF7D
:0200D00003B07B
:0200D10000D756
:0200D200032306
:0200D300029495
:0200D4000328FF
:0200D50000E049
:0200D60003BA6B
:0200D70003B66E
:0200D80000D353
:0200D900031012
:0200DA00026DB5
:0200DB0002E938
:0200DC0000839F
:0200DD00033BE3
:0200DE0003100D
:0200DF0000001F
:0200E000020D0F
:0200E1000134E8
:0200E2000175A6
:0200E30002D049
:0200E4000143D6
:0200E50000CF4A
:0200E6000172A5
:0200E700032CE8
:0200E80001FC19
:0200E90001E232
:0200EA0002DC36
:0200EB0000EB28
:0200EC00000D05
:0200ED000041D0
:0200EE00018887
:0200EF0003E12B
:0200F000034AC1
:0200F10003C446
:0200F200014DBE
:0200F30003E523
:0200F400038B7C
:0200F500003FCA
:0200F600020006
:0200F70000CE39
:0200F80000A75F
:0200F900018B79
:0200FA00037A87
:0200FB0002738E
:0200FC0002758B
:0200FD00037F7F
:0200FE0001926D
:0200FF0000AC53
:0201000000CC31
:0201010001F308
:02010200001FDC
:020103000351A6
:02010400038670
:0201050000C038
:0201060002FCF9
:02010700023BB9
:02010800027C77
:0201090003BE33
:02010A000200F1
:02010B000143AE
:02010C0001856B
:02010D0002C727
:02010E000106E8
:02010F000044AA
:02011000007E6F
:0201110001B536
:0201120003E800
:020113000316D1
:02011400033FA7
:02011500006385
:02011600028065
:0201170001964F
:0201180001A440
:0201190002AB37
:02011A0000A93A
:02011B00039E41
:02011C00038955
:02011D00006977
:02011E00023F9E
:02011F000109D4
:0201200000C716
:02012100017962
:02012200031EBA
:0201230001B425
:02012400013D9B
:0201250001B720
:020126000321B3
:02012700017C59
:0201280000C60F
:0201290000FFD5
:02012A000227AA
:02012B00003D95
:02012C0003408E
:02012D0003309D
:02012E00000CC3
:02012F0001D4F9
:02013000008746
:020131000025A7
:0201320000AE1D
:02013300021FA9
:02013400007B4E
:0201350003BE07
:0201360003EADA
:0201370000FDC9
:0201380002F8CB
:0201390001D9EA
:02013A0001A022
:02013B00024C74
:02013C0003DEE0
:02013D0002546A
:02013E0001AE10
:02013F0001EBD2
:02014000030CAE
:02014100010FAC
:0201420003F3C5
:0201430003BAFD
:02014400006158
:0201450001E8CF
:02014600005067
:0201470003971C
:0201480003BDF5
:0201490000C1F3
:02014A0002A40D
:02014B0001634E
:02014C000100B0
:02014D00017A35
:02014E0002CFDE
:02014F000100AD
:02015000000CA1
:0201510003F2B7
:0201520000B2F9
:02015300024D5B
:0201540000C0E9
:02015500000C9C
:02015600002F78
:02015700012B7A
:0201580002FEA5
:0201590001A8FB
:02015A0001277B
:02015B00017D24
:02015C0002A8F7
:02015D0000A8F8
:02015E00037C20
:02015F00032576
:0201600003A0FA
:0201610000EFAD
:02016200031088
:02016300020494
:0201640001C9CF
:02016500025F37
:0201660003C6CE
:0201670001FD98
:02016800010490
:0201690000DABA
:02016A00018012
:02016B0002F49C
:02016C0001355B
:02016D0000454B
:02016E0000216E
:02016F0000CBC3
:0201700002404B
:0201710000820A
:02017200038EFA
:02017300036621
:02017400000881
:02017500017512
:0201760003ABD9
:0201770002AADA
:02017800027211
:0201790003027F
:02017A00005A29
:02017B00027A06
:02017C0001611F
:02017D00010E71
:02017E000182FC
:02017F0002BBC1
:0201800000BAC3
:02018100037DFC
:02018200030672
:02018300035225
:02018400006217
:02018500023541
:0201860000CCAB
:02018700002452
:02018800003F36
:02018900011C57
:02018A0002B9B8
:02018B0001175A
:02018C0000363B
:02018D0000155B
:02018E0000B4BB
:02018F0002115B
:02019000002E3F
:02019100030861
:0201920002A1C8
:0201930002F771
:02019400000B5E
:0201950001DB8C
:020196000068FF
:0201970003B1B2
:0201980003B5AD
:020199000075EF
:02019A0001EF73
:02019B0000243E
:02019C0003134B
:02019D0002BBA3
:02019E00031D3F
:02019F00003826
:0201A000020B50
:0201A1000096C6
:0201A20003D97F
:0201A30003D483
:0201A4000085D4
:0201A50001ED6A
:0201A600000B4C
:0201A70002DF75
:0201A8000268EB
:0201A90002A7AB
:0201AA00039AB6
:0201AB00014110
:0201AC00039DB1
:0201AD0002ACA2
:0201AE00026EDF
:0201AF0002E369
:0201B000000B42
:0201B10001E467
:0201B2000070DB
:0201B30003AD9A
:0201B400039BAB
:0201B50000390F
:0201B6000188BE
:0201B7000386BD
:0201B80002350E
:0201B9000192B1
:0201BA00019EA4
:0201BB000259E7
:0201BC0003C27C
:0201BD0001D966
:0201BE00009DA2
:0201BF00000E30
:0201C000002C11
:0201C10000F646
:0201C200026DCC
:0201C300008FAB
:0201C400035CDA
:0201C50002D462
:0201C60002F73E
:0201C70003C46F
:0201C800013BF9
:0201C900035CD5
:0201CA0002260B
:0201CB00019899
:0201CC0001B47C
:0201CD000277B7
:0201CE0003E349
:0201CF0001F637
:0201D00000B07D
:0201D10000111B
:0201D200001813
:0201D30000C664
:0201D400021A0D
:0201D500001315
:0201D60002B174
:0201D70001F431
:0201D80001DC48
:0201D9000268BA
:0201DA00039888
:0201DB00016BB6
:0201DC0003E13D
:0201DD0002FB23
:0201DE0002B766
:0201DF00031506
:0201E000001508
:0201E10001B764
:0201E20003FA1E
:0201E30002DE3A
:0201E4000263B4
:0201E50002888E
:0201E600034CC8
:0201E70000B165
:0201E80002B55E
:0201E9000158BB
:0201EA00009A79
:0201EB00007A98
:0201EC0000F819
:0201ED000214FA
:0201EE0003CE3E
:0201EF000224E8
:0201F0000118F4
:0201F10000A864
:0201F20000D437
:0201F300019C6D
:0201F400030006
:0201F50000FF09
:0201F600039A6A
:0201F70002CE36
:0201F800029E65
:0201F9000307FA
:0201FA00000AF9
:0201FB0001A75A
:0201FC0003DD21
:0201FD0002AC52
:0201FE000213EA
:0201FF000213E9
:0202000002AA50
:0202010003DA1E
:0202020001A059
:0202030003FEF8
:0202040002F303
:02020500027E77
:0202060002A054
:0202070003579B
:0202080000A450
:0202090002866B
:02020A0000FEF4
:02020B00000AE7
:02020C0003AB42
:02020D0003E00C
:02020E0000A945
:02020F000205E6
:0202100003F5F4
:02021100027871
:02021200018E5B
:020213000136B2
:02021400017077
:02021500023CA9
:02021600039A49
:02021700018A5A
:02021800000ADA
:02021900031BC5
:02021A0002BD23
:02021B0002EFF0
:02021C0003B12C
:02021D000103DB
:02021E0002E4F8
:02021F00015488
:02022000005389
:0202210003E1F7
:0202220003FDDA
:0202230000A732
:0202240001DFF8
:0202250003A430
:0202260001F7DE
:0202270000D7FE
:02022800004391
:02022900003C97
:02022A0000C111
:02022B0001D2FE
:02022C00036E5F
:02022D00019638
:02022E00004985
:02022F00038743
:02023000035079
:0202310003A226
:02023200007F4B
:0202330001E6E2
:0202340003D6EF
:02023500025075
:02023600015273
:0202370000DEE7
:0202380000F1D3
:02023900018D35
:02023A0002B10F
:02023B00005D64
:02023C0002912D
:02023D00014B73
:02023E00008C32
:02023F00005568
:0202400000A319
:02024100017842
:0202420002D3E5
:0202430000B405
:02024400031A9B
:020245000205B0
:02024600017540
:02024700016A4A
:0202480001E3D0
:0202490002E1D0
:02024A0000634F
:02024B00026847
:02024C0000F1BF
:02024D0003FDAF
:02024E00038C1F
:02024F00039E0C
:0202500000327A
:02025100014961
:0202520002E1C7
:0202530000FCAD
:0202540003980D
:0202550002B5F0
:02025600025351
:02025700027330
:0202580003128F
:02025900003370
:02025A0001D3CE
:02025B0003F3AB
:02025C0002930B
:02025D0001B2EC
:02025E0001504D
:02025F00016E2E
:02026000020A90
:02026100032474
:0202620000BDDD
:0202630002D4C3
:0202640001682F
:02026500007A1D
:02026600000A8C
:0202670000167F
:02026800009FF5
:0202690001A5ED
:02026A00032867
:02026B0001266A
:02026C0003A1EC
:02026D000297F6
:02026E00020983
:02026F0001F696
:02027000025E2C
:02027100034147
:02027200009EEC
:02027300027611
:0202740000C8C0
:020275000394F0
:0202760002DAAA
:020277000299EA
:0202780002D2B0
:020279000383FD
:02027A0000AED4
:02027B0002512E
:02027C00006C14
:02027D0003007C
:02027E00020B71
:02027F00018FED
:020280000189F2
:0202810001FC7E
:0202820002E593
:02028300004534
:02028400021C5A
:0202850000690E
:02028600032D46
:0202870002660D
:0202880002165C
:02028900023B36
:02028A0002D59B
:02028B0003E589
:02028C00016906
:02028D00036309
:02028E0001D19C
:02028F0000B3BA
:02029000000963
:0202910003D494
:02029200001258
:0202930000C3A6
:0202940001E87F
:020295000380E4
:02029600018BDA
:0202970000095C
:0202980002F969
:02029900025C05
:02029A0002312F
:02029B000277E8
:02029C00032F2E
:02029D00005906
:02029E0001F469
:02029F0000005D
:0202A000027DDD
:0202A100016BEF
:0202A20000C991
:0202A3000097C2
:0202A40000D682
:0202A5000184D2
:0202A60002A3B1
:0202A700003025
:0202A800022D25
:0202A9000099BA
:0202AA000374DB
:0202AB0002BE91
:0202AC000276D8
:0202AD00029DB0
:0202AE00033219
:0202AF00003419
:0202B00001A5A6
:0202B1000383C5
:0202B20001CE7B
:0202B3000086C3
:0202B40003AC99
:0202B500033E06
:0202B600033D06
:0202B70003A999
:0202B8000080C4
:0202B90001C47E
:0202BA000373CC
:0202BB00018EB2
:0202BC0000152B
:0202BD00030735
:0202BE000264D8
:0202BF00022C0F
:0202C000025EDC
:0202C10002FC3D
:0202C200000337
:0202C3000175C3
:0202C4000350E5
:0202C5000196A0
:0202C6000045F1
:0202C700035ED4
:0202C80002E052
:0202C90002CB66
:0202CA00031E11
:0202CB0003DB53
:0202CC0001002F
:0202CD00028E9F
:0202CE000083AB
:0202CF0002E14A
:0202D00001A685
:0202D10000D358
:0202D2000068C2
:0202D3000064C5
:0202D40000C761
:0202D500019195
:0202D60002C163
:0202D7000058CD
:0202D8000256CC
:0202D90000BA69
:0202DA0003849B
:0202DB0002B46B
:0202DC000249D5
:0202DD000244D9
:0202DE0002A478
:0202DF00036AB0
:0202E000009488
:0202E1000224F5
:0202E200001802
:0202E3000270A7
:0202E400012DEA
:0202E500004EC9
:0202E60003D340
:0202E70003BC56
:0202E80000090B
:0202E90000B95A
:0202EA0001CC45
:0202EB000342CC
:0202EC00011CF3
:0202ED000358B4
:0202EE0001F716
:0202EF0000F815
:0202F000005CB0
:0202F1000021EA
:0202F2000049C1
:0202F30000D336
:0202F40001BE49
:0202F500030BF9
:0202F60000B94D
:0202F70002C83B
:0202F8000138CB
:0202F9000009FA
:0202FA00033AC5
:0202FB0002CC33
:0202FC0002BF3F
:0202FD000311EB
:0202FE0003C437
:0202FF0000D627
:020300000249B0
:02030100001AE0
:02030200024BAC
:0203030000DC1C
:0203040003CB29
:020305000319DA
:0203060002C62D
:0203070002D220
:02030800033CB4
:020309000004EE
:02030A00012AC6
:02030B0002AF3F
:02030C0000915E
:02030D0002D11B
:02030E00016E7E
:02030F00006884
:0203100003C028
:02031100037572
:02031200038660
:0203130003F5F0
:0203140000C027
:0203150001E7FE
:02031600036A78
:02031700014A99
:0203180003865A
:02031900021DC3
:02031A000110D0
:02031B00005F81
:02031C000009D6
:02031D00000ED0
:02031E00006E6F
:02031F000129B2
:02032000023E9B
:0203210003AF28
:0203220001795F
:02032300039F36
:02032400021EB7
:0203250000F7DF
:02032600002AAB
:0203270003B71A
:02032800039D33
:0203290003DDF2
:02032A0000765B
:02032B00016867
:02032C0002B31A
:02032D00005777
:02032E00025477
:02032F0000A923
:02033000035672
:02033100025C6C
:0203320001BA0E
:02033300017057
:02033400017E48
:0203350001E3E2
:0203360002A023
:0203370003B40D
:020338000120A2
:0203390002E2DE
:02033A0000FCC5
:02033B00036C51
:02033C0002338A
:02033D0001516C
:02033E0000C5F8
:02033F0000902C
:0203400000B00B
:02034100012792
:0203420001F3C5
:020343000315A0
:02034400008C2B
:0203450002595B
:02034600007C39
:0203470002F3BF
:0203480001C0F2
:0203490000E1D1
:02034A0000575A
:02034B0000228E
:02034C0000416E
:02034D0000B5F9
:02034E00017D2F
:02034F00029812
:020350000008A3
:0203510001CCDD
:0203520003E3C3
:02035300024E58
:02035400010C9A
:02035500001E88
:02035600038220
:02035700033A67
:0203580003445C
:0203590003A1FE
:02035A00005150
:02035B0001534C
:02035C0002A8F5
:02035D00004F4F
:02035E00024853
:02035F00009309
:02036000032F69
:02036100021E7A
:02036200015E3A
:0203630000EFA9
:0203640000D1C6
:02036500010590
:02036600018A0A
:02036700026032
:02036800038709
:0203690000FE94
:02036A0002C6C9
:02036B0000DEB2
:02036C00034646
:02036D0001FF8E
:02036E00010785
:02036F0000602C
:02037000000883
:0203710000008A
:02037200004742
:0203730000DEAA
:0203740001C4C2
:0203750002FA8A
:02037600007E07
:02037700025131
:02037800007310
:0203790002E49C
:02037A0001A3DD
:02037B0000B0D0
:02037C00000C73
:02037D0003B6C5
:02037E0003AECC
:02037F0003F485
:020380000088F3
:02038100016910
:020382000298DF
:02038300001563
:0203840001DF97
:0203850003F57E
:0203860002591A
:02038700010A69
:0203880000086B
:0203890003521D
:02038A0002E986
:02038B0002CDA1
:02038C0002FD70
:02038D000379F2
:02038E0000412C
:02038F00015516
:0203900002B5B4
:02039100006109
:0203920002590E
:02039300009CCC
:02039400032A3A
:02039500020460
:0203960001293B
:020397000099CB
:0203980000540F
:02039900005A08
:02039A0000AAB7
:02039B0001451A
:02039C00022B32
:02039D00035B00
:02039E0000D588
:02039F000299C1
:0203A00000A7B4
:0203A100030057
:0203A20001A2B6
:0203A300008DCB
:0203A40003C391
:0203A500034211
:0203A600030A48
:0203A700031B36
:0203A8000376DA
:0203A900001939
:0203AA0001064A
:0203AB00023B13
:0203AC0003B993
:0203AD00017FCE
:0203AE00038EBC
:0203AF0001E566
:0203B0000085C6
:0203B100036CDB
:0203B200029CAB
:0203B300021432
:0203B40001D373
:0203B50001DA6B
:0203B60002281B
:0203B70002BF83
:0203B800039CA4
:0203B90000C181
:0203BA00022D12
:0203BB0003DF5E
:0203BC0001D965
:0203BD00001A24
:0203BE0002A19A
:0203BF00016FCC
:0203C0000084B7
:0203C10003DE59
:0203C2000380B6
:0203C3000367CE
:0203C4000394A0
:0203C50000082E
:0203C60000C174
:0203C70001C073
:0203C80003052B
:0203C900008FA3
:0203CA00025FD0
:0203CB000074BC
:0203CC0002CE5F
:0203CD00016DC0
:0203CE000052DB
:0203CF00037BAE
:0203D00002E940
:0203D100029C8C
:0203D200029394
:0203D30002CF57
:0203D4000350D4
:0203D500001412
:0203D600011D07
:0203D700026AB8
:0203D80003FB25
:0203D90001D051
:0203DA0003E935
:0203DB000246D8
:0203DC0000E639
:0203DD0003C952
:0203DE0002F02B
:0203DF00025AC0
:0203E000020811
:0203E10001F821
:0203E200022CEB
:0203E30002A274
:0203E400035BB9
:0203E5000057BF
:0203E60001967E
:0203E7000317FA
:0203E80000DA39
:0203E90002E030
:0203EA000128E8
:0203EB0003B25B
:0203EC00027E8F
:0203ED00018C81
:0203EE0000DB32
:0203EF00006D9F
:0203F0000040CB
:0203F1000055B5
:0203F20000AB5E
:0203F3000142C5
:0203F400021BEA
:0203F5000334CF
:0203F600008F76
:0203F700022BD7
:0203F8000008FB
:0203F9000225DB
:0203FA0000837E
:0203FB000321DC
:0203FC000201FC
:0203FD000120DD
:0203FE0000807D
:0203FF000020DC
:00000001ff
