:020000040000FA
:0100000000FF
:0100010000FE
:010002000FEE
:0100030010EC
:010004001FDC
:010005000FEB
:010006000CED
:0100070018E0
:0100080010E7
:0100090004F2
:01000A001FD6
:01000B0002F2
:01000C0007EC
:01000D001CD6
:01000E000BE6
:01000F0010E0
:0100100003EC
:0100110011DD
:010012001DD0
:0100130003E9
:0100140014D7
:010015001BCF
:0100160016D3
:010017001DCB
:010018001DCA
:010019001ACC
:01001A000FD6
:01001B000DD7
:01001C001DC6
:01001D001DC5
:01001E0002DF
:01001F0016CA
:010020001CC3
:010021000AD4
:0100220011CC
:0100230012CA
:0100240009D2
:0100250006D4
:010026000FCA
:0100270001D7
:010028000DCA
:010029001CBA
:01002A000CC9
:01002B000FC5
:01002C0010C3
:01002D000CC6
:01002E0019B8
:01002F0000D0
:0100300001CE
:0100310010BE
:0100320018B5
:0100330018B4
:0100340006C5
:010035000BBF
:0100360006C3
:010037000BBD
:0100380005C2
:0100390011B5
:01003A0003C2
:01003B0003C1
:01003C000FB4
:01003D0018AA
:01003E0005BC
:01003F0012AE
:010040000FB0
:0100410000BE
:0100420000BD
:010043001BA1
:0100440015A6
:0100450004B6
:0100460014A5
:0100470003B5
:0100480007B0
:0100490006B0
:01004A001D98
:01004B001D97
:01004C0009AA
:01004D001C96
:01004E0000B1
:01004F001898
:010050001699
:0100510004AA
:010052001D90
:01005300119B
:0100540005A6
:010055000F9B
:010056001A8F
:0100570004A4
:0100580000A7
:010059001492
:01005A00178E
:01005B00178D
:01005C001390
:01005D001F83
:01005E0000A1
:01005F001090
:010060001B84
:01006100029C
:010062001885
:01006300029A
:010064001A81
:010065000B8F
:010066001485
:010067000791
:01006800088F
:010069000F87
:01006A000590
:01006B00088C
:01006C00068D
:01006D000290
:01006E001180
:01006F001878
:01007000127D
:010071000B83
:01007200018C
:010073000587
:010074001972
:010075001476
:010076001C6D
:010077000B7D
:010078000D7A
:010079000086
:01007A001372
:01007B000A7A
:01007C00176C
:01007D000082
:01007E001E63
:01007F001A66
:010080000F70
:010081000A74
:010082000B72
:01008300017B
:01008400106B
:010085000B6F
:010086001762
:010087000B6D
:010088001067
:010089001F57
:01008A000471
:01008B001B59
:01008C001261
:01008D000969
:01008E000F62
:01008F000769
:01009000036C
:010091000767
:010092000865
:010093000D5F
:010094000C5F
:010095000E5C
:010096000A5F
:010097000C5C
:010098000E59
:010099001C4A
:01009A001154
:01009B001C48
:01009C00184B
:01009D00164C
:01009E00154C
:01009F00035D
:0100A000005F
:0100A1001F3F
:0100A200005D
:0100A3001448
:0100A4001D3E
:0100A5000F4B
:0100A6000B4E
:0100A7000553
:0100A8001F38
:0100A9000E48
:0100AA00163F
:0100AB00094B
:0100AC000C47
:0100AD001240
:0100AE000150
:0100AF000B45
:0100B0001639
:0100B100143A
:0100B2000944
:0100B3000A42
:0100B4001A31
:0100B5000B3F
:0100B6000247
:0100B7001038
:0100B800192E
:0100B9000E38
:0100BA001035
:0100BB001232
:0100BC00142F
:0100BD00073B
:0100BE000938
:0100BF000A36
:0100C0000A35
:0100C1001529
:0100C2000934
:0100C3001329
:0100C4000E2D
:0100C5000634
:0100C6001524
:0100C7000533
:0100C8000D2A
:0100C9001620
:0100CA00171E
:0100CB001420
:0100CC00042F
:0100CD000929
:0100CE00171A
:0100CF000E22
:0100D000002F
:0100D1000B23
:0100D2001E0F
:0100D3001517
:0100D4001C0F
:0100D5000D1D
:0100D6001118
:0100D7000028
:0100D8001F08
:0100D9000422
:0100DA001213
:0100DB001A0A
:0100DC001C07
:0100DD00081A
:0100DE001A07
:0100DF001E02
:0100E0000D12
:0100E100100E
:0100E2001D00
:0100E3001903
:0100E4001704
:0100E5001703
:0100E6000910
:0100E7000A0E
:0100E8000512
:0100E9001501
:0100EA000114
:0100EB001DF7
:0100EC000F04
:0100ED00060C
:0100EE00030E
:0100EF0013FD
:0100F00010FF
:0100F1000509
:0100F2000607
:0100F3001AF2
:0100F40012F9
:0100F5000DFD
:0100F6001BEE
:0100F70015F3
:0100F8000502
:0100F9000006
:0100FA000CF9
:0100FB0019EB
:0100FC0007FC
:0100FD000101
:0100FE0002FF
:0100FF0011EF
:0101000003FB
:0101010019E4
:0101020004F8
:010103001EDD
:0101040014E6
:010105001ADF
:0101060017E1
:010107001BDC
:0101080004F2
:0101090000F5
:01010A0005EF
:01010B001BD8
:01010C0015DD
:01010D0011E0
:01010E001ED2
:01010F0015DA
:010110001CD2
:0101110008E5
:0101120018D4
:010113001BD0
:010114000BDF
:010115000EDB
:0101160018D0
:0101170009DE
:0101180010D6
:0101190004E1
:01011A000ED6
:01011B0000E3
:01011C001AC8
:01011D0008D9
:01011E0003DD
:01011F000FD0
:0101200000DE
:0101210013CA
:0101220012CA
:0101230015C6
:0101240000DA
:0101250001D8
:0101260016C2
:0101270006D1
:0101280006D0
:0101290018BD
:01012A0008CC
:01012B0010C3
:01012C0014BE
:01012D0008C9
:01012E0009C7
:01012F0000CF
:0101300003CB
:0101310015B8
:0101320003C9
:0101330008C3
:0101340008C2
:0101350017B2
:0101360012B6
:0101370003C4
:010138001FA7
:0101390007BE
:01013A0009BB
:01013B001EA5
:01013C000AB8
:01013D001EA3
:01013E0016AA
:01013F001AA5
:010140001DA1
:010141001F9E
:010142000AB2
:0101430015A6
:0101440002B8
:010145001E9B
:0101460001B7
:0101470012A5
:010148001F97
:0101490004B1
:01014A0008AC
:01014B001C97
:01014C0000B2
:01014D001A97
:01014E0000B0
:01014F00129D
:010150001995
:010151000DA0
:010152000E9E
:0101530009A2
:010154001595
:010155001693
:01015600198F
:01015700188F
:01015800178F
:0101590004A1
:01015A001B89
:01015B0000A3
:01015C00049E
:01015D00029F
:01015E0000A0
:01015F00108F
:010160000D91
:010161001F7E
:010162001785
:010163001289
:010164001882
:010165001980
:010166001583
:010167001285
:010168000393
:010169000590
:01016A000094
:01016B00068D
:01016C00157D
:01016D00147D
:01016E00167A
:01016F001778
:01017000008E
:01017100028B
:010172001973
:010173000E7D
:01017400107A
:010175001C6D
:01017600196F
:010177001770
:010178001175
:010179000C79
:01017A00196B
:01017B001271
:01017C001A68
:01017D000081
:01017E001E62
:01017F001768
:010180001767
:010181001766
:010182001765
:010183000477
:010184001565
:010185000772
:010186000771
:01018700086F
:01018800086E
:010189000F66
:01018A001064
:01018B00086B
:01018C001B57
:01018D001A57
:01018E000070
:01018F00105F
:010190001856
:010191000F5E
:010192001755
:010193001C4F
:010194001258
:010195001950
:010196001850
:010197000364
:010198001551
:010199001550
:01019A001153
:01019B000360
:01019C000D55
:01019D001C45
:01019E00065A
:01019F000A55
:0101A000114D
:0101A1000F4E
:0101A2001F3D
:0101A3000754
:0101A4001545
:0101A5000455
:0101A6001444
:0101A7001146
:0101A8001046
:0101A9001045
:0101AA00173D
:0101AB00173C
:0101AC000B47
:0101AD00153C
:0101AE00034D
:0101AF000B44
:0101B0000D41
:0101B100103D
:0101B2000745
:0101B3000E3D
:0101B4000743
:0101B5000247
:0101B6001335
:0101B7001C2B
:0101B8000541
:0101B9001F26
:0101BA00063E
:0101BB001D26
:0101BC00132F
:0101BD001C25
:0101BE001828
:0101BF000F30
:0101C000122C
:0101C1001A23
:0101C2000C30
:0101C3001229
:0101C4000139
:0101C5001722
:0101C6001A1E
:0101C7001A1D
:0101C8000E28
:0101C900171E
:0101CA001F15
:0101CB00191A
:0101CC001F13
:0101CD00161B
:0101CE000927
:0101CF000F20
:0101D0000529
:0101D100121B
:0101D2000527
:0101D3001714
:0101D4000624
:0101D5001E0B
:0101D6000F19
:0101D7001413
:0101D8001016
:0101D9000D18
:0101DA000024
:0101DB00041F
:0101DC000022
:0101DD001F02
:0101DE001907
:0101DF000A15
:0101E0001905
:0101E1001607
:0101E2001804
:0101E3001DFE
:0101E4000F0B
:0101E5001DFC
:0101E6000117
:0101E7001BFC
:0101E8001402
:0101E9001DF8
:0101EA001103
:0101EB001201
:0101EC000909
:0101ED000908
:0101EE000C04
:0101EF0016F9
:0101F00010FE
:0101F1000EFF
:0101F2000B01
:0101F3000A01
:0101F40016F4
:0101F5000306
:0101F6000CFC
:0101F70015F2
:0101F80008FE
:0101F90019EC
:0101FA0005FF
:0101FB000DF6
:0101FC001DE5
:0101FD000AF7
:0101FE000DF3
:0101FF000AF5
:010200000CF1
:0102010007F5
:0102020013E8
:0102030016E4
:0102040018E1
:010205000CEC
:010206000CEB
:010207001ADC
:0102080000F5
:010209000FE5
:01020A0000F3
:01020B0013DF
:01020C0013DE
:01020D000EE2
:01020E001DD2
:01020F001FCF
:010210001CD1
:0102110002EA
:0102120009E2
:010213000DDD
:0102140016D3
:0102150010D8
:0102160010D7
:0102170012D4
:010218001BCA
:0102190016CE
:01021A0016CD
:01021B0016CC
:01021C0017CA
:01021D0003DD
:01021E000AD5
:01021F0005D9
:0102200014C9
:010221001EBE
:0102220012C9
:0102230004D6
:0102240013C6
:0102250003D5
:0102260000D7
:010227001EB8
:0102280016BF
:010229000BC9
:01022A0006CD
:01022B0016BC
:01022C0015BC
:01022D0001CF
:01022E001FB0
:01022F001DB1
:0102300011BC
:0102310014B8
:010232000BC0
:010233001EAC
:0102340000C9
:0102350009BF
:0102360018AF
:0102370013B3
:0102380008BD
:010239000CB8
:01023A001AA9
:01023B0015AD
:01023C0007BA
:01023D0001BF
:01023E001AA5
:01023F0011AD
:010240000CB1
:0102410018A4
:0102420008B3
:0102430017A3
:0102440007B2
:0102450000B8
:0102460011A6
:0102470010A6
:010248001B9A
:01024900169E
:01024A000BA8
:01024B000CA6
:01024C00129F
:01024D001B95
:01024E000EA1
:01024F001896
:010250000CA1
:0102510005A7
:0102520003A8
:010253000F9B
:010254001792
:010255001197
:01025600188F
:010257000F97
:010258001F86
:01025900198B
:01025A001291
:01025B00089A
:01025C0000A1
:01025D00029E
:01025E00019E
:01025F00148A
:010260001984
:010261001587
:010262001487
:010263000694
:010264000594
:010265000E8A
:01026600098E
:010267001F77
:010268000491
:010269001183
:01026A00048F
:01026B00038F
:01026C001A77
:01026D001B75
:01026E00008F
:01026F000886
:010270001875
:010271001C70
:010272000685
:010273000F7B
:010274001772
:010275000286
:010276001B6C
:010277001670
:01027800097C
:010279001371
:01027A001A69
:01027B00077B
:01027C000D74
:01027D00027E
:01027E00037C
:01027F001668
:01028000037A
:010281001A62
:010282001368
:010283000971
:010284000079
:010285001F59
:010286001562
:01028700185E
:010288000372
:01028900165E
:01028A00185B
:01028B00185A
:01028C000869
:01028D00026E
:01028E00046B
:01028F001559
:010290001F4E
:010291001458
:010292000C5F
:010293000367
:010294001D4C
:010295000365
:010296000463
:010297001551
:010298001253
:010299001B49
:01029A00164D
:01029B001250
:01029C000061
:01029D001848
:01029E001946
:01029F000757
:0102A0000C51
:0102A1001745
:0102A2001F3C
:0102A3001E3C
:0102A4001544
:0102A5000D4B
:0102A6001047
:0102A7001244
:0102A8000C49
:0102A900193B
:0102AA000053
:0102AB00084A
:0102AC000051
:0102AD001F31
:0102AE001D32
:0102AF001B33
:0102B0001F2E
:0102B1001438
:0102B2000C3F
:0102B3001C2E
:0102B4000247
:0102B5001F29
:0102B6001A2D
:0102B7000244
:0102B800073E
:0102B9000341
:0102BA00142F
:0102BB001C26
:0102BC00053C
:0102BD001D23
:0102BE001827
:0102BF00102E
:0102C000023B
:0102C1001527
:0102C200112A
:0102C3000733
:0102C4000A2F
:0102C5001523
:0102C600082F
:0102C700092D
:0102C8000035
:0102C9000034
:0102CA001C17
:0102CB000F23
:0102CC001B16
:0102CD00042C
:0102CE00151A
:0102CF001F0F
:0102D0001617
:0102D1001616
:0102D2001F0C
:0102D3001713
:0102D4000821
:0102D5000325
:0102D6001D0A
:0102D7001016
:0102D8001C09
:0102D900081C
:0102DA001C07
:0102DB000919
:0102DC00041D
:0102DD000719
:0102DE00110E
:0102DF000717
:0102E000120B
:0102E100011B
:0102E2000912
:0102E3000218
:0102E4000B0E
:0102E5000810
:0102E6000116
:0102E7000313
:0102E8000312
:0102E90017FD
:0102EA001DF6
:0102EB0017FB
:0102EC000C05
:0102ED000907
:0102EE001FF0
:0102EF00040A
:0102F00014F9
:0102F10010FC
:0102F2001DEE
:0102F3000505
:0102F40018F1
:0102F5000BFD
:0102F60017F0
:0102F7001BEB
:0102F8001AEB
:0102F9001DE7
:0102FA0011F2
:0102FB0008FA
:0102FC001AE7
:0102FD0003FD
:0102FE0004FB
:0102FF0003FB
:010300000BF1
:010301000CEF
:010302001BDF
:0103030011E8
:010304000CEC
:0103050011E6
:0103060007EF
:010307001BDA
:010308001FD5
:0103090009EA
:01030A0016DC
:01030B0005EC
:01030C001CD4
:01030D0004EB
:01030E000CE2
:01030F0008E5
:010310000FDD
:010311001FCC
:0103120018D2
:0103130003E6
:010314000ADE
:010315001CCB
:010316000ED8
:010317001ACB
:010318001EC6
:010319001BC8
:01031A001BC7
:01031B0008D9
:01031C0013CD
:01031D0012CD
:01031E001FBF
:01031F0018C5
:0103200000DC
:0103210000DB
:0103220004D6
:010323001DBC
:0103240001D7
:010325000ACD
:0103260017BF
:010327000CC9
:0103280010C4
:010329000FC4
:01032A001DB5
:01032B000DC4
:01032C001AB6
:01032D0003CC
:01032E000BC3
:01032F0019B4
:010330001BB1
:0103310001CA
:0103320000CA
:0103330012B7
:0103340015B3
:010335000CBB
:010336001DA9
:0103370015B0
:0103380004C0
:010339001DA6
:01033A001AA8
:01033B0019A8
:01033C001AA6
:01033D0004BB
:01033E0001BD
:01033F0000BD
:0103400016A6
:0103410018A3
:0103420003B7
:0103430018A1
:010344001C9C
:0103450016A1
:0103460015A1
:010347000BAA
:010348000DA7
:01034900159E
:01034A0003AF
:01034B001A97
:01034C0000B0
:01034D0000AF
:01034E000CA2
:01034F001796
:010350001993
:010351000E9D
:010352001991
:010353001C8D
:0103540003A5
:010355001A8D
:010356001393
:0103570005A0
:01035800089C
:010359001C87
:01035A0002A0
:01035B00039E
:01035C000898
:01035D00009F
:01035E00009E
:01035F001D80
:010360001488
:010361000398
:01036200108A
:010363000297
:010364000494
:010365000790
:010366001F77
:010367000491
:010368001381
:010369000C87
:01036A00147E
:01036B00127F
:01036C00157B
:01036D000C83
:01036E000D81
:01036F000F7E
:01037000117B
:010371001279
:010372001872
:010373000B7E
:01037400196F
:010375001275
:010376000B7B
:010377001D68
:01037800057F
:010379000380
:01037A001D65
:01037B001A67
:01037C000977
:01037D001867
:01037E001E60
:01037F00126B
:01038000106C
:010381001A61
:010382001367
:010383000376
:010384001761
:010385001E59
:010386000C6A
:01038700195C
:010388000074
:010389000172
:01038A001F53
:01038B000170
:01038C00135D
:01038D00026D
:01038E00026C
:01038F000964
:01039000115B
:010391001853
:010392000169
:010393001059
:010394001058
:010395000E59
:010396001B4B
:010397000B5A
:01039800174D
:010399001B48
:01039A001949
:01039B00124F
:01039C001050
:01039D001D42
:01039E000955
:01039F000657
:0103A0000B51
:0103A100114A
:0103A2001743
:0103A3001F3A
:0103A4000E4A
:0103A5000C4B
:0103A600074F
:0103A7000E47
:0103A800163E
:0103A900173C
:0103AA000C46
:0103AB00133E
:0103AC000F41
:0103AD000748
:0103AE000549
:0103AF001637
:0103B0000A42
:0103B1001833
:0103B2001733
:0103B3000346
:0103B4001B2D
:0103B5000443
:0103B6000343
:0103B7000243
:0103B8001133
:0103B9001F24
:0103BA00033F
:0103BB00142D
:0103BC000F31
:0103BD00132C
:0103BE00033B
:0103BF000736
:0103C0000834
:0103C1001427
:0103C2001C1E
:0103C3001524
:0103C4001820
:0103C5001F18
:0103C6000B2B
:0103C7001D18
:0103C8001D17
:0103C9001320
:0103CA000D25
:0103CB001C15
:0103CC00131D
:0103CD000A25
:0103CE001C12
:0103CF000726
:0103D0000D1F
:0103D1001318
:0103D2000228
:0103D3000623
:0103D4000E1A
:0103D5000D1A
:0103D6001A0C
:0103D7000E17
:0103D800061E
:0103D9000221
:0103DA00071B
:0103DB001B06
:0103DC000917
:0103DD001F00
:0103DE000E10
:0103DF000A13
:0103E0000C10
:0103E1000F0C
:0103E2001109
:0103E3001405
:0103E4001EFA
:0103E5001700
:0103E6000A0C
:0103E700080D
:0103E8000212
:0103E9000F04
:0103EA00060C
:0103EB00050C
:0103EC000B05
:0103ED001BF4
:0103EE001CF2
:0103EF0015F8
:0103F00015F7
:0103F1000B00
:0103F2000A00
:0103F3000801
:0103F4000008
:0103F5000DFA
:0103F60010F6
:0103F7000DF8
:0103F80009FB
:0103F9000FF4
:0103FA000BF7
:0103FB000DF4
:0103FC0009F7
:0103FD0015EA
:0103FE000BF3
:0103FF0007F6
:010400000AF1
:0104010017E3
:0104020014E5
:010403000AEE
:0104040007F0
:0104050019DD
:0104060015E0
:010407000FE5
:0104080001F2
:0104090008EA
:01040A0002EF
:01040B0013DD
:01040C0000EF
:01040D0011DD
:01040E0013DA
:01040F0014D8
:0104100007E4
:0104110001E9
:010412001ACF
:010413000CDC
:0104140017D0
:010415001CCA
:0104160000E5
:0104170009DB
:0104180002E1
:010419001AC8
:01041A0000E1
:01041B0008D8
:01041C000AD5
:01041D001FBF
:01041E0003DA
:01041F0016C6
:010420001CBF
:0104210019C1
:0104220017C2
:0104230002D6
:0104240008CF
:010425001BBB
:0104260010C5
:010427001FB5
:0104280002D1
:0104290017BB
:01042A001EB3
:01042B001CB4
:01042C0016B9
:01042D0016B8
:01042E0009C4
:01042F001EAE
:0104300008C3
:010431001AB0
:010432000FBA
:0104330000C8
:010434000CBB
:0104350014B2
:010436001BAA
:0104370009BB
:0104380006BD
:010439001FA3
:01043A0005BC
:01043B0008B8
:01043C001EA1
:01043D0000BE
:01043E0007B6
:01043F0012AA
:0104400002B9
:010441001AA0
:0104420000B9
:010443001D9B
:010444001E99
:0104450010A6
:0104460007AE
:01044700179D
:01044800169D
:010449001F93
:01044A000FA2
:01044B0005AB
:01044C0005AA
:01044D00149A
:01044E001994
:01044F0000AC
:010450001794
:010451000E9C
:010452001990
:010453000D9B
:0104540003A4
:01045500188E
:01045600099C
:01045700178D
:01045800079C
:0104590000A2
:01045A000A97
:01045B00128E
:01045C000699
:01045D001985
:01045E001E7F
:01045F000D8F
:010460001F7C
:010461001189
:010462000396
:010463001583
:010464000D8A
:010465001284
:010466000E87
:010467000E86
:010468000093
:01046900187A
:01046A000988
:01046B000C84
:01046C001A75
:01046D000F7F
:01046E000C81
:01046F001379
:010470000883
:010471001278
:010472001B6E
:010473001177
:010474000285
:010475000086
:010476000085
:01047700196B
:01047800047F
:010479001E64
:01047A00067B
:01047B001E62
:01047C000976
:01047D000F6F
:01047E001964
:01047F00126A
:010480000A71
:010481001169
:010482001B5E
:010483001F59
:010484001562
:01048500195D
:01048600096C
:01048700056F
:010488001063
:010489001062
:01048A000D64
:01048B00125E
:01048C000B64
:01048D000A64
:01048E00006D
:01048F00026A
:010490000764
:010491000A60
:010492000663
:010493001B4D
:01049400095E
:010495001650
:01049600075E
:010497000460
:010498001B48
:01049900184A
:01049A000C55
:01049B000957
:01049C00055A
:01049D001846
:01049E001C41
:01049F000E4E
:0104A0000C4F
:0104A1001A40
:0104A2001940
:0104A3001246
:0104A4000D4A
:0104A5001640
:0104A600193C
:0104A700094B
:0104A800173C
:0104A900183A
:0104AA00044D
:0104AB00163A
:0104AC000946
:0104AD001C32
:0104AE00113C
:0104AF000A42
:0104B0000F3C
:0104B1000842
:0104B2001E2B
:0104B3000048
:0104B4001E29
:0104B500083E
:0104B6001431
:0104B700172D
:0104B8000C37
:0104B9000E34
:0104BA001A27
:0104BB001030
:0104BC00142B
:0104BD000935
:0104BE001825
:0104BF000933
:0104C0000A31
:0104C1000733
:0104C2001128
:0104C3001C1C
:0104C4001D1A
:0104C5000B2B
:0104C6000035
:0104C700181C
:0104C8001221
:0104C9000F23
:0104CA001120
:0104CB001F11
:0104CC00002F
:0104CD001D11
:0104CE000429
:0104CF00022A
:0104D0000922
:0104D1000D1D
:0104D2000128
:0104D3001F09
:0104D4001F08
:0104D5001F07
:0104D6001D08
:0104D700190B
:0104D800170C
:0104D9001C06
:0104DA000F12
:0104DB001B05
:0104DC000B14
:0104DD000D11
:0104DE00130A
:0104DF000E0E
:0104E0001407
:0104E1001CFE
:0104E2000019
:0104E3001AFE
:0104E400090E
:0104E5000E08
:0104E600090C
:0104E7000113
:0104E8001AF9
:0104E9001FF3
:0104EA001BF6
:0104EB001AF6
:0104EC000C03
:0104ED00030B
:0104EE0012FB
:0104EF0011FB
:0104F00015F6
:0104F1001CEE
:0104F2001FEA
:0104F3000008
:0104F4001DEA
:0104F5001BEB
:0104F6001EE7
:0104F7000EF6
:0104F80014EF
:0104F9001CE6
:0104FA0014ED
:0104FB000CF4
:0104FC0015EA
:0104FD0004FA
:0104FE000FEE
:0104FF000EEE
:010500001DDD
:0105010018E1
:010502001DDB
:010503000EE9
:010504000DE9
:0105050000F5
:010506000FE5
:0105070001F2
:0105080004EE
:0105090003EE
:01050A0010E0
:01050B001BD4
:01050C0019D5
:01050D0000ED
:01050E0006E6
:01050F0007E4
:010510001FCB
:010511000CDD
:010512000DDB
:0105130006E1
:010514001BCB
:0105150012D3
:0105160014D0
:010517000BD8
:0105180004DE
:010519000DD4
:01051A0018C8
:01051B0017C8
:01051C001FBF
:01051D0006D7
:01051E0005D7
:01051F0018C3
:010520001CBE
:010521000ECB
:0105220010C8
:0105230006D1
:0105240013C3
:0105250000D5
:0105260014C0
:010527001BB8
:0105280002D0
:0105290019B8
:01052A000FC1
:01052B0018B7
:01052C0009C5
:01052D0018B5
:01052E0000CC
:01052F001AB1
:0105300003C7
:010531001BAE
:0105320002C6
:010533001CAB
:010534000CBA
:010535001AAB
:010536000EB6
:0105370013B0
:0105380015AD
:0105390004BD
:01053A000FB1
:01053B0009B6
:01053C0007B7
:01053D001E9F
:01053E0008B4
:01053F001E9D
:010540001C9E
:0105410001B8
:010542000CAC
:0105430000B7
:010544001F97
:0105450011A4
:010546001D97
:010547000CA7
:0105480009A9
:0105490003AE
:01054A0008A8
:01054B000AA5
:01054C001B93
:01054D00119C
:01054E0003A9
:01054F0009A2
:010550001E8C
:010551001E8B
:01055200099F
:010553001E89
:010554001F87
:010555001194
:010556001A8A
:0105570000A3
:010558000E94
:010559001091
:01055A00138D
:01055B00059A
:01055C001985
:01055D00009D
:01055E00118B
:01055F00009B
:010560000892
:010561000297
:010562000A8E
:010563001E79
:010564001E78
:010565000D88
:010566000C88
:010567000291
:01056800157D
:010569000F82
:01056A001B75
:01056B00048B
:01056C001975
:01056D000B82
:01056E000C80
:01056F000E7D
:010570000882
:010571001277
:010572000385
:01057300186F
:010574000E78
:010575000184
:010576001470
:01057700087B
:010578000181
:01057900047D
:01057A001A66
:01057B000B74
:01057C00027C
:01057D000C71
:01057E001864
:01057F001665
:010580001763
:010581001168
:010582001761
:010583000275
:010584000B6B
:010585000C69
:010586000272
:010587000C67
:01058800086A
:010589001A57
:01058A00046C
:01058B000C63
:01058C001856
:01058D00125B
:01058E000369
:01058F001952
:01059000006A
:010591000861
:010592000365
:010593000364
:010594001E48
:01059500095C
:010596001D47
:010597001350
:01059800085A
:01059900174A
:01059A00015F
:01059B00055A
:01059C000757
:01059D000954
:01059E00124A
:01059F000853
:0105A0001644
:0105A1000554
:0105A2000256
:0105A3001B3C
:0105A4000056
:0105A5000154
:0105A6001341
:0105A700094A
:0105A8001B37
:0105A9000051
:0105AA00113F
:0105AB000B44
:0105AC000A44
:0105AD000C41
:0105AE001339
:0105AF001F2C
:0105B0001535
:0105B1001A2F
:0105B2001434
:0105B3000C3B
:0105B4000C3A
:0105B5000045
:0105B600152F
:0105B7001A29
:0105B8000042
:0105B9001928
:0105BA001927
:0105BB00152A
:0105BC00043A
:0105BD001F1E
:0105BE00013B
:0105BF000536
:0105C0000931
:0105C1000B2E
:0105C2000D2B
:0105C3001126
:0105C4001B1B
:0105C5001025
:0105C600181C
:0105C7001A19
:0105C8000230
:0105C9001B16
:0105CA00121E
:0105CB001718
:0105CC001A14
:0105CD000E1F
:0105CE000527
:0105CF001615
:0105D0001812
:0105D1000128
:0105D2000E1A
:0105D300190E
:0105D4001F07
:0105D5001F06
:0105D6001A0A
:0105D7001112
:0105D800071B
:0105D9000120
:0105DA00061A
:0105DB001E01
:0105DC00130B
:0105DD000E0F
:0105DE001EFE
:0105DF00100B
:0105E0001307
:0105E1001AFF
:0105E2001602
:0105E3001CFB
:0105E4000214
:0105E5001FF6
:0105E6000C08
:0105E7000310
:0105E8000012
:0105E9000110
:0105EA00040C
:0105EB000A05
:0105EC0015F9
:0105ED000706
:0105EE000705
:0105EF001AF1
:0105F0000901
:0105F1001CED
:0105F2000008
:0105F3001FE8
:0105F40008FE
:0105F5000BFA
:0105F60018EC
:0105F7000102
:0105F8001BE7
:0105F9001BE6
:0105FA0018E8
:0105FB0009F6
:0105FC0009F5
:0105FD0013EA
:0105FE0003F9
:0105FF0018E3
:0106000012E7
:0106010011E7
:0106020018DF
:010603000AEC
:010604000FE6
:010605000CE8
:0106060009EA
:0106070012E0
:0106080010E1
:0106090011DF
:01060A0002ED
:01060B0014DA
:01060C0018D5
:01060D0000EC
:01060E0000EB
:01060F000DDD
:010610001ECB
:010611000CDC
:0106120010D7
:0106130005E1
:0106140007DE
:0106150016CE
:0106160010D3
:0106170015CD
:0106180009D8
:010619000ED2
:01061A000AD5
:01061B0003DB
:01061C0002DB
:01061D000FCD
:01061E0014C7
:01061F0000DA
:010620001DBC
:010621001CBC
:010622000EC9
:0106230002D4
:010624000DC8
:0106250004D0
:010626001BB8
:010627000AC8
:010628000AC7
:0106290016BA
:01062A0007C8
:01062B001BB3
:01062C0011BC
:01062D0008C4
:01062E0000CB
:01062F001CAE
:0106300000C9
:0106310011B7
:0106320014B3
:0106330013B3
:0106340016AF
:0106350007BD
:0106360013B0
:0106370006BC
:0106380010B1
:010639001FA1
:01063A0006B9
:01063B0018A6
:01063C0007B6
:01063D0009B3
:01063E0016A5
:01063F0005B5
:010640000FAA
:0106410010A8
:0106420002B5
:0106430005B1
:0106440015A0
:0106450014A0
:0106460003B0
:0106470004AE
:010648001C95
:010649000FA1
:01064A0005AA
:01064B0006A8
:01064C001A93
:01064D000D9F
:01064E000BA0
:01064F0000AA
:010650001C8D
:010651000E9A
:0106520007A0
:010653001A8C
:010654001C89
:0106550000A4
:010656001D86
:010657000C96
:01065800059C
:01065900029E
:01065A00009F
:01065B001A84
:01065C00108D
:01065D00009C
:01065E000C8F
:01065F001684
:010660000099
:010661001088
:010662000C8B
:010663001A7C
:010664000392
:010665001282
:010666001083
:010667000B87
:010668001081
:010669000D83
:01066A00137C
:01066B00137B
:01066C00008D
:01066D000E7E
:01066E001279
:01066F000288
:010670001673
:010671000781
:010672000F78
:010673000A7C
:010674001471
:010675000B79
:010676000E75
:010677001E64
:010678001D64
:010679000D73
:01067A00136C
:01067B00136B
:01067C001568
:01067D00017B
:01067E001F5C
:01067F001A60
:010680001D5C
:010681001662
:010682001265
:010683000076
:010684001164
:01068500175D
:01068600056E
:010687000E64
:010688000869
:010689000A66
:01068A000B64
:01068B000569
:01068C00115C
:01068D000B61
:01068E000F5C
:01068F001C4E
:010690001158
:010691000D5B
:010692001255
:010693000363
:010694000362
:01069500184C
:01069600075C
:010697001949
:01069800154C
:01069900065A
:01069A001748
:01069B00134B
:01069C000855
:01069D000557
:01069E001942
:01069F001545
:0106A0000C4D
:0106A1000F49
:0106A2001542
:0106A3001244
:0106A4001E37
:0106A5001044
:0106A6000152
:0106A7000B47
:0106A8000B46
:0106A9001C34
:0106AA001D32
:0106AB000C42
:0106AC000944
:0106AD001636
:0106AE001536
:0106AF000A40
:0106B0001930
:0106B100093F
:0106B2001F28
:0106B3000541
:0106B4000441
:0106B500063E
:0106B600172C
:0106B700033F
:0106B8001928
:0106B9000739
:0106BA001D22
:0106BB000E30
:0106BC000B32
:0106BD000834
:0106BE001922
:0106BF001624
:0106C0001326
:0106C1000A2E
:0106C2001423
:0106C3000B2B
:0106C4000A2B
:0106C5000F25
:0106C600161D
:0106C7000032
:0106C8000A27
:0106C9001818
:0106CA000A25
:0106CB000529
:0106CC000C21
:0106CD000626
:0106CE001813
:0106CF000A20
:0106D0000623
:0106D1001513
:0106D2000225
:0106D3001A0C
:0106D4000A1B
:0106D5001F05
:0106D6000A19
:0106D7001B07
:0106D800031E
:0106D900160A
:0106DA000718
:0106DB000B13
:0106DC001805
:0106DD000517
:0106DE000A11
:0106DF000119
:0106E0000415
:0106E1000E0A
:0106E2001BFC
:0106E3000A0C
:0106E40019FC
:0106E500080C
:0106E60017FC
:0106E7000909
:0106E8000011
:0106E9000010
:0106EA000F00
:0106EB0012FC
:0106EC0011FC
:0106ED0014F8
:0106EE000407
:0106EF000CFE
:0106F00018F1
:0106F10013F5
:0106F2000BFC
:0106F30010F6
:0106F40010F5
:0106F5001CE8
:0106F60007FC
:0106F70003FF
:0106F80004FD
:0106F9001EE2
:0106FA0009F6
:0106FB001AE4
:0106FC000BF2
:0106FD0013E9
:0106FE000EED
:0106FF0016E4
:0107000008F0
:0107010001F6
:010702001FD7
:0107030002F3
:010704000AEA
:0107050018DB
:0107060010E2
:0107070013DE
:0107080008E8
:0107090013DC
:01070A001AD4
:01070B0007E6
:01070C0000EC
:01070D0010DB
:01070E0001E9
:01070F0000E9
:0107100018D0
:0107110017D0
:010712000CDA
:0107130007DE
:0107140019CB
:0107150013D0
:0107160008DA
:010717000BD6
:0107180012CE
:0107190013CC
:01071A0003DB
:01071B001BC2
:01071C0013C9
:01071D0006D5
:01071E000ECC
:01071F0007D2
:010720000ECA
:0107210000D7
:010722001CBA
:0107230002D3
:0107240012C2
:010725000FC4
:010726001BB7
:0107270019B8
:0107280010C0
:0107290003CC
:01072A001AB4
:01072B001CB1
:01072C0012BA
:01072D0006C5
:01072E0003C7
:01072F0013B6
:0107300003C5
:0107310001C6
:010732001BAB
:0107330001C4
:0107340003C1
:0107350013B0
:0107360002C0
:0107370005BC
:010738000FB1
:0107390015AA
:01073A000FAF
:01073B0013AA
:01073C0019A3
:01073D001BA0
:01073E0012A8
:01073F0019A0
:010740000DAB
:010741000AAD
:010742000EA8
:01074300189D
:0107440008AC
:010745001F94
:010746001E94
:0107470008A9
:0107480000B0
:010749000BA4
:01074A000F9F
:01074B00129B
:01074C001A92
:01074D00119A
:01074E0000AA
:01074F001198
:010750000E9A
:0107510005A2
:0107520002A4
:010753001293
:01075400059F
:010755000B98
:01075600138F
:010757001190
:01075800168A
:010759001689
:01075A00049A
:01075B001885
:01075C000696
:01075D000695
:01075E00108A
:01075F001E7B
:010760000890
:010761000A8D
:010762001F77
:010763000590
:01076400197B
:01076500197A
:01076600058D
:010767001C75
:01076800018F
:010769001679
:01076A001C72
:01076B001A73
:01076C00127A
:01076D000B80
:01076E000C7E
:01076F001C6D
:010770000484
:010771000D7A
:010772000185
:010773000B7A
:01077400186C
:01077500146F
:010776000D75
:01077700126F
:01077800126E
:010779001F60
:01077A000975
:01077B00027B
:01077C001E5E
:01077D00116A
:01077E000F6B
:01077F000F6A
:010780000870
:010781001067
:010782000076
:010783001263
:010784001F55
:01078500046F
:010786001B57
:010787000170
:01078800155B
:01078900155A
:01078A00006E
:01078B001657
:01078C001953
:01078D000B60
:01078E000F5B
:01078F000861
:010790001B4D
:010791000E59
:01079200075F
:010793000D58
:01079400085C
:010795000261
:01079600035F
:01079700174A
:010798000957
:010799000659
:01079A001A44
:01079B001449
:01079C000359
:01079D001645
:01079E001E3C
:01079F000D4C
:0107A0001444
:0107A100084F
:0107A2001C3A
:0107A3000451
:0107A400173D
:0107A5000B48
:0107A600173B
:0107A700143D
:0107A8001A36
:0107A900044B
:0107AA000C42
:0107AB000E3F
:0107AC000745
:0107AD001239
:0107AE000F3B
:0107AF001C2D
:0107B0001A2E
:0107B1000740
:0107B200073F
:0107B3001B2A
:0107B400063E
:0107B5000C37
:0107B6001131
:0107B7001C25
:0107B800122E
:0107B9001B24
:0107BA001E20
:0107BB000439
:0107BC001725
:0107BD000239
:0107BE000F2B
:0107BF000B2E
:0107C0000236
:0107C1000136
:0107C200191D
:0107C300171E
:0107C4000C28
:0107C500092A
:0107C6000032
:0107C700022F
:0107C800032D
:0107C9001916
:0107CA001618
:0107CB00111C
:0107CC00022A
:0107CD001E0D
:0107CE001E0C
:0107CF001B0E
:0107D0000F19
:0107D1001413
:0107D2000521
:0107D3000025
:0107D4001F05
:0107D5000320
:0107D600071B
:0107D7000D14
:0107D800140C
:0107D9001E01
:0107DA000A14
:0107DB001D00
:0107DC001903
:0107DD000219
:0107DE001EFC
:0107DF001108
:0107E0000216
:0107E10018FF
:0107E2001BFB
:0107E3001401
:0107E4000C08
:0107E5000D06
:0107E600030F
:0107E70019F8
:0107E8001DF3
:0107E9001AF5
:0107EA00000E
:0107EB001CF1
:0107EC00000C
:0107ED001BF0
:0107EE001EEC
:0107EF001CED
:0107F0000800
:0107F10013F4
:0107F20014F2
:0107F3001FE6
:0107F40009FB
:0107F5000AF9
:0107F60019E9
:0107F7000DF4
:0107F8000000
:0107F9000BF4
:0107FA0008F6
:0107FB0013EA
:0107FC0008F4
:0107FD0002F9
:0107FE0000FA
:0107FF0000F9
:00000001ff
