:020000040000FA
:0100000000FF
:0100010003FB
:010002000FEE
:0100030003F9
:010004001FDC
:0100050003F7
:010006000FEA
:0100070003F5
:010008001FD8
:0100090002F4
:01000A000EE7
:01000B0001F3
:01000C001CD7
:01000D001FD3
:01000E000AE7
:01000F001DD3
:0100100018D7
:010011001AD4
:0100120004E9
:0100130016D6
:0100140010DB
:0100150012D8
:010016001BCE
:010017000CDC
:0100180005E2
:0100190005E1
:01001A000ED7
:01001B001EC6
:01001C0015CE
:01001D0015CD
:01001E001CC5
:01001F000AD6
:0100200000DF
:010021001EC0
:0100220004D9
:0100230011CB
:0100240006D5
:0100250002D8
:0100260006D3
:0100270012C6
:0100280005D2
:0100290000D6
:01002A0002D3
:01002B000BC9
:01002C001DB6
:01002D0015BD
:01002E0016BB
:01002F001DB3
:010030000CC3
:0100310003CB
:0100320001CC
:0100330007C5
:0100340014B7
:0100350008C2
:0100360004C5
:0100370007C1
:0100380012B5
:0100390004C2
:01003A001DA8
:01003B001EA6
:01003C0006BD
:01003D0015AD
:01003E000CB5
:01003F000AB6
:010040000FB0
:010041001CA2
:0100420010AD
:010043000BB1
:010044000DAE
:0100450017A3
:0100460008B1
:0100470000B8
:010048001F98
:0100490006B0
:01004A0014A1
:01004B0009AB
:01004C0005AE
:01004D0008AA
:01004E00139E
:01004F0004AC
:010050001D92
:010051001D91
:0100520004A9
:01005300129A
:0100540007A4
:0100550004A6
:0100560007A2
:010057001296
:0100580003A4
:010059001C8A
:01005A001C89
:01005B0002A2
:01005C001093
:01005D00059D
:01005E0000A1
:01005F00039D
:010060000D92
:010061001E80
:010062001588
:010063001488
:010064001982
:010065000694
:010066001980
:010067001385
:010068001582
:010069001D79
:01006A000C89
:01006B000292
:01006C001E75
:01006D000290
:01006E000C85
:01006F001E72
:010070001679
:010071001579
:010072001A73
:010073000785
:010074001A71
:010075001476
:010076001574
:010077001D6B
:010078000B7C
:010079000086
:01007A001C69
:01007B001F65
:01007C00087B
:01007D00186A
:01007E000F72
:01007F000C74
:01008000106F
:010081001B63
:010082000D70
:010083000577
:010084000378
:010085000971
:010086001564
:010087000771
:010088000077
:010089000076
:01008A00076E
:01008B001460
:01008C00076C
:01008D000171
:01008E00026F
:01008F000967
:010090001758
:010091000B63
:010092000667
:010093000765
:010094000F5C
:010095001D4D
:010096001257
:010097000D5B
:010098000E59
:01009900174F
:01009A000560
:01009B001A4A
:01009C00154E
:01009D00174B
:01009E000061
:01009F000E52
:0100A000035C
:0100A1001F3F
:0100A200005D
:0100A3000953
:0100A4001744
:0100A5000C4E
:0100A6000752
:0100A700094F
:0100A8001146
:0100A9001F37
:0100AA001342
:0100AB000E46
:0100AC000F44
:0100AD00163C
:0100AE00044D
:0100AF001838
:0100B000123D
:0100B100133B
:0100B2001934
:0100B3000646
:0100B4001932
:0100B5001238
:0100B6001237
:0100B7001830
:0100B8000443
:0100B9001630
:0100BA000E37
:0100BB000C38
:0100BC001132
:0100BD001B27
:0100BE000C35
:0100BF00033D
:0100C000003F
:0100C100043A
:0100C2000D30
:0100C3001C20
:0100C4001229
:0100C5000D2D
:0100C6000F2A
:0100C7001721
:0100C8000532
:0100C900181E
:0100CA001223
:0100CB001222
:0100CC00181B
:0100CD00042E
:0100CE00161B
:0100CF000E22
:0100D0000C23
:0100D100101E
:0100D2001A13
:0100D3000A22
:0100D400002B
:0100D5001B0F
:0100D6001D0C
:0100D7000523
:0100D8001215
:0100D9000620
:0100DA001F06
:0100DB001F05
:0100DC00041F
:0100DD000F13
:0100DE000021
:0100DF001709
:0100E000140B
:0100E1001608
:0100E2001FFE
:0100E3000D0F
:0100E400011A
:0100E5001BFF
:0100E6001BFE
:0100E7000117
:0100E8000C0B
:0100E9001DF9
:0100EA001401
:0100EB001103
:0100EC0014FF
:0100ED001CF6
:0100EE000A07
:0100EF001EF2
:0100F00018F7
:0100F10017F7
:0100F2001CF1
:0100F3000705
:0100F40017F4
:0100F5000EFC
:0100F6000900
:0100F7000BFD
:0100F80012F5
:0100F9001FE7
:0100FA0012F3
:0100FB000AFA
:0100FC0008FB
:0100FD000CF6
:0100FE0015EC
:0100FF0004FC
:0101000018E6
:0101010013EA
:0101020012EA
:0101030018E3
:0101040002F8
:0101050013E6
:0101060009EF
:0101070005F2
:0101080006F0
:010109000DE8
:01010A0019DB
:01010B000BE8
:01010C0003EF
:01010D0000F1
:01010E0002EE
:01010F000AE5
:0101100018D6
:010111000BE2
:0101120003E9
:0101130001EA
:0101140005E5
:010115000EDB
:010116001CCC
:0101170010D7
:0101180009DD
:0101190008DD
:01011A000CD8
:01011B0016CD
:01011C0005DD
:01011D001AC7
:01011E0014CC
:01011F0013CC
:0101200018C6
:0101210002DB
:0101220011CB
:0101230006D5
:0101240000DA
:0101250000D9
:0101260005D3
:010127000FC8
:010128001FB7
:0101290014C1
:01012A000EC6
:01012B000EC5
:01012C0013BF
:01012D001DB4
:01012E000DC3
:01012F0002CD
:010130001CB2
:010131001BB2
:0101320000CC
:010133000AC1
:0101340019B1
:010135000EBB
:0101360007C1
:0101370006C1
:010138000BBB
:0101390014B1
:01013A0003C1
:01013B0017AC
:01013C0010B2
:01013D000EB3
:01013E0012AE
:01013F001AA5
:0101400008B6
:010141001BA2
:0101420013A9
:0101430011AA
:0101440013A7
:010145001B9E
:0101460008B0
:010147001A9D
:0101480011A5
:010149000DA8
:01014A000EA6
:01014B00159E
:01014C0000B2
:01014D0011A0
:01014E0007A9
:01014F0002AD
:0101500001AD
:0101510006A7
:01015200109C
:0101530000AB
:010154001496
:010155000D9C
:010156000B9D
:010157000E99
:01015800178F
:0101590004A1
:01015A00168E
:01015B000E95
:01015C000A98
:01015D000B96
:01015E00128E
:01015F001D82
:010160000D91
:01016100029B
:010162001D7F
:010163001C7F
:01016400009A
:010165000990
:010166001781
:010167000A8D
:010168000294
:010169001F76
:01016A000094
:01016B00078C
:01016C001280
:01016D00038E
:01016E001878
:01016F00127D
:01017000127C
:010171001578
:010172001E6E
:010173000C7F
:010174001E6C
:010175001673
:010176001276
:010177001374
:01017800196D
:010179000481
:01017A001371
:01017B00087B
:01017C000181
:01017D001F62
:01017E00027E
:01017F000976
:010180001569
:010181000677
:010182001C60
:010183001764
:010184001664
:010185001B5E
:010186000375
:010187001166
:010188000373
:010189001B5A
:01018A00165E
:01018B00175C
:01018C001C56
:01018D00066B
:01018E00155B
:01018F000867
:01019000006E
:010191001D50
:010192001F4D
:010193000566
:010194000F5B
:010195001F4A
:010196001355
:010197000C5B
:01019800095D
:010199000B5A
:01019A001252
:01019B001D46
:01019C000D55
:01019D000160
:01019E001A46
:01019F001847
:0101A0001B43
:0101A100015C
:0101A2000D4F
:0101A3001D3E
:0101A4001248
:0101A5000B4E
:0101A600094F
:0101A7000B4C
:0101A8001244
:0101A9001E37
:0101AA000E46
:0101AB000251
:0101AC001B37
:0101AD001938
:0101AE001B35
:0101AF00024D
:0101B0000D41
:0101B1001C31
:0101B200113B
:0101B3000942
:0101B4000644
:0101B5000841
:0101B6000E3A
:0101B700192E
:0101B800083E
:0101B9001B2A
:0101BA001331
:0101BB001033
:0101BC001131
:0101BD00162B
:0101BE000040
:0101BF000E31
:0101C000003E
:0101C1001726
:0101C2001329
:0101C3001328
:0101C4001723
:0101C5001F1A
:0101C6000D2B
:0101C7001E19
:0101C8001422
:0101C9000E27
:0101CA000C28
:0101CB000F24
:0101CC00171B
:0101CD00022F
:0101CE00121E
:0101CF000728
:0101D0001F0F
:0101D1001C11
:0101D2001E0E
:0101D3000328
:0101D4000D1D
:0101D5001C0D
:0101D6000E1A
:0101D7000522
:0101D8000026
:0101D9000025
:0101DA000420
:0101DB000C17
:0101DC00180A
:0101DD000918
:0101DE001E02
:0101DF001708
:0101E000140A
:0101E1001607
:0101E2001C00
:0101E3000615
:0101E4001406
:0101E5000712
:0101E6001EFA
:0101E70019FE
:0101E80018FE
:0101E9001CF9
:0101EA000311
:0101EB000F04
:0101EC000012
:0101ED0014FD
:0101EE000C04
:0101EF000906
:0101F0000A04
:0101F1000FFE
:0101F20018F4
:0101F3000605
:0101F40017F3
:0101F5000DFC
:0101F6000701
:0101F7000502
:0101F80007FF
:0101F9000DF8
:0101FA0017ED
:0101FB0006FD
:0101FC0019E9
:0101FD000FF2
:0101FE000AF6
:0101FF0009F6
:010200000CF1
:0102010013E9
:010202001FDC
:010203000EEC
:0102040001F8
:0102050019DF
:0102060015E2
:0102070014E2
:0102080018DD
:0102090000F4
:01020A000CE7
:01020B001BD7
:01020C000FE2
:01020D0007E9
:01020E0003EC
:01020F0003EB
:0102100007E6
:010211000FDD
:010212001BD0
:010213000BDF
:0102140000E9
:0102150018D0
:0102160014D3
:0102170014D2
:0102180018CD
:0102190000E4
:01021A000CD7
:01021B001CC6
:01021C0010D1
:01021D0008D8
:01021E0004DB
:01021F0004DA
:0102200007D6
:010221000FCD
:010222001BC0
:010223000AD0
:010224001EBB
:0102250016C2
:0102260011C6
:0102270010C6
:0102280013C2
:010229001BB9
:01022A0006CD
:01022B0015BD
:01022C0008C9
:01022D001EB2
:01022E0019B6
:01022F0017B7
:010230001AB3
:0102310000CC
:010232000AC1
:0102330018B2
:010234000ABF
:0102350000C8
:0102360019AE
:0102370017AF
:0102380018AD
:010239001DA7
:01023A0006BD
:01023B0013AF
:01023C0003BE
:01023D0018A8
:01023E0010AF
:01023F000CB2
:010240000CB1
:0102410010AC
:0102420017A4
:0102430002B8
:0102440011A8
:0102450004B4
:010246001B9C
:0102470015A1
:0102480013A2
:01024900159F
:01024A001B98
:01024B0004AE
:01024C00129F
:01024D0003AD
:01024E001798
:01024F00109E
:010250000CA1
:010251000CA0
:010252000F9C
:010253001793
:0102540002A7
:010255001197
:0102560003A4
:010257001A8C
:010258001491
:010259001193
:01025A001390
:01025B00188A
:01025C0000A1
:01025D000D93
:01025E001D82
:01025F00118D
:010260000895
:010261000399
:010262000299
:010263000496
:010264000A8F
:010265001484
:010266000196
:010267001383
:01026800078E
:010269001F75
:01026A001B78
:01026B001B77
:01026C001E73
:01026D00058B
:01026E000F80
:01026F001D71
:010270000F7E
:010271000488
:010272001D6E
:010273001A70
:010274001A6F
:010275001D6B
:010276000483
:010277000F77
:010278001D68
:010279000F75
:01027A00057E
:01027B001E64
:01027C001A67
:01027D001B65
:01027E001E61
:01027F000579
:01028000106D
:010281001F5D
:01028200106B
:010283000674
:010284001F5A
:010285001B5D
:010286001B5C
:010287001F57
:01028800066F
:010289001064
:01028A001E55
:01028B001062
:01028C00056C
:01028D001D53
:01028E001956
:01028F001856
:010290001B52
:01029100026A
:010292000C5F
:010293001951
:010294000A5F
:010295001E4A
:010296001651
:010297001155
:010298001055
:010299001252
:01029A00174C
:01029B000062
:01029C000C55
:01029D001C44
:01029E00104F
:01029F000658
:0102A000005D
:0102A1001E3E
:0102A2001F3C
:0102A3000357
:0102A4000B4E
:0102A5001642
:0102A6000453
:0102A7001640
:0102A8000C49
:0102A9000450
:0102AA000053
:0102AB000052
:0102AC00024F
:0102AD000947
:0102AE00123D
:0102AF001F2F
:0102B0000F3E
:0102B1000349
:0102B2001A31
:0102B3001436
:0102B4001237
:0102B5001335
:0102B6001730
:0102B7001F27
:0102B8000A3B
:0102B900182C
:0102BA000A39
:0102BB001F23
:0102BC00172A
:0102BD00132D
:0102BE00122D
:0102BF00142A
:0102C0001A23
:0102C100023A
:0102C2000E2D
:0102C3001E1C
:0102C4001128
:0102C5000731
:0102C6000037
:0102C7001C1A
:0102C8001C19
:0102C9001F15
:0102CA00052E
:0102CB000F23
:0102CC001C15
:0102CD000C24
:0102CE001F10
:0102CF001618
:0102D000101D
:0102D1000D1F
:0102D2000D1E
:0102D3001119
:0102D4001811
:0102D5000226
:0102D6000F18
:0102D7001F07
:0102D8001312
:0102D9000A1A
:0102DA00041F
:0102DB000121
:0102DC00021F
:0102DD00051B
:0102DE000C13
:0102DF001608
:0102E0000419
:0102E1001408
:0102E2000813
:0102E3001EFC
:0102E4001801
:0102E5001602
:0102E6001601
:0102E70019FD
:0102E8000015
:0102E9000A0A
:0102EA0017FC
:0102EB00070B
:0102EC001AF7
:0102ED0011FF
:0102EE000A05
:0102EF000707
:0102F0000706
:0102F1000A02
:0102F20010FB
:0102F30019F1
:0102F4000504
:0102F50015F3
:0102F6000700
:0102F7001DE9
:0102F80016EF
:0102F90011F3
:0102FA0010F3
:0102FB0012F0
:0102FC0018E9
:0102FD000000
:0102FE000BF4
:0102FF001AE4
:010300000BF1
:0103010000FB
:0103020017E3
:0103030012E7
:0103040010E8
:0103050011E6
:0103060015E1
:010307001CD9
:0103080006EE
:0103090013E0
:01030A0003EF
:01030B0016DB
:01030C000CE4
:01030D0006E9
:01030E0002EC
:01030F0001EC
:0103100003E9
:0103110009E2
:0103120011D9
:010313001DCC
:010314000BDD
:010315001DCA
:0103160011D5
:0103170008DD
:0103180003E1
:0103190000E3
:01031A0001E1
:01031B0004DD
:01031C000BD5
:01031D0014CB
:01031E0001DD
:01031F0010CD
:0103200002DA
:0103210018C3
:0103220010CA
:010323000BCE
:010324000ACE
:010325000BCC
:010326000FC7
:0103270016BF
:0103280000D4
:010329000DC6
:01032A001DB5
:01032B0010C1
:01032C0006CA
:01032D001FB0
:01032E001BB3
:01032F0019B4
:010330001BB1
:010331001FAC
:0103320007C3
:0103330011B8
:010334001EAA
:010335000FB8
:0103360002C4
:0103370018AD
:0103380011B3
:010339000DB6
:01033A000BB7
:01033B000DB4
:01033C0011AF
:01033D0019A6
:01033E0003BB
:01033F0010AD
:0103400000BC
:0103410013A8
:0103420009B1
:0103430002B7
:010344001D9B
:010345001B9C
:010346001D99
:0103470001B4
:0103480008AC
:0103490012A1
:01034A001E94
:01034B000EA3
:01034C0000B0
:01034D00159A
:01034E000DA1
:01034F0008A5
:0103500006A6
:0103510007A4
:010352000AA0
:010353001099
:01035400198F
:0103550005A2
:010356001492
:0103570005A0
:01035800198B
:010359001093
:01035A000A98
:01035B00079A
:01035C00069A
:01035D000996
:01035E000E90
:01035F001687
:01036000009C
:010361000E8D
:010362001E7C
:010363001188
:010364000791
:010365001F78
:010366001A7C
:01036700187D
:01036800197B
:010369001D76
:01036A00038F
:01036B000C85
:01036C001878
:01036D000788
:01036E001876
:01036F000C81
:010370000389
:010371001C6F
:010372001971
:010373001871
:01037400196F
:010375001E69
:010376000581
:010377000F76
:010378001C68
:010379000B78
:01037A001D65
:01037B00126F
:01037C000977
:01037D00047B
:01037E00007E
:01037F00007D
:01038000027A
:010381000774
:010382000F6B
:010383001960
:010384000672
:010385001661
:01038600086E
:010387001E57
:01038800155F
:010389001063
:01038A000D65
:01038B000D64
:01038C000F61
:01038D00145B
:01038E001C52
:01038F000667
:010390001359
:010391000368
:010392001555
:010393000A5F
:010394000266
:010395001C4B
:01039600194D
:01039700194C
:010398001B49
:010399000063
:01039A00075B
:01039B001150
:01039C001E42
:01039D000D52
:01039E001F3F
:01039F00134A
:0103A0000B51
:0103A1000457
:0103A2000159
:0103A3000059
:0103A4000157
:0103A5000552
:0103A6000C4A
:0103A7001540
:0103A8000153
:0103A9001043
:0103AA000151
:0103AB00143D
:0103AC000B45
:0103AD00034C
:0103AE001F2F
:0103AF001D30
:0103B0001D2F
:0103B100004B
:0103B2000644
:0103B3000E3B
:0103B400192F
:0103B5000641
:0103B6001630
:0103B700093C
:0103B8001E26
:0103B900152E
:0103BA000F33
:0103BB000C35
:0103BC000B35
:0103BD000D32
:0103BE00112D
:0103BF001825
:0103C000013B
:0103C1000D2E
:0103C2001B1F
:0103C3000C2D
:0103C4001F19
:0103C5001522
:0103C6000D29
:0103C700082D
:0103C800062E
:0103C900062D
:0103CA00082A
:0103CB000D24
:0103CC00141C
:0103CD001E11
:0103CE000B23
:0103CF001914
:0103D0000B21
:0103D1001F0C
:0103D2001515
:0103D3000E1B
:0103D400091F
:0103D5000720
:0103D600071F
:0103D7000A1B
:0103D8000F15
:0103D900170C
:0103DA000121
:0103DB000D14
:0103DC001C04
:0103DD000E11
:0103DE00021C
:0103DF001805
:0103E000110B
:0103E1000C0F
:0103E2000A10
:0103E3000A0F
:0103E4000D0B
:0103E5001205
:0103E60019FD
:0103E7000312
:0103E8001004
:0103E9001EF5
:0103EA000F03
:0103EB00030E
:0103EC0019F7
:0103ED0012FD
:0103EE000C02
:0103EF000A03
:0103F0000903
:0103F1000B00
:0103F20010FA
:0103F30017F2
:0103F4000008
:0103F5000CFB
:0103F6001AEC
:0103F7000AFB
:0103F8001DE7
:0103F90013F0
:0103FA000AF8
:0103FB0004FD
:0103FC0001FF
:0103FD0000FF
:0103FE0001FD
:0103FF0004F9
:010400000AF1
:0104010012E8
:010402001DDC
:010403000AEE
:010404001ADD
:010405000BEB
:010406001FD6
:0104070016DE
:010408000FE4
:010409000AE8
:01040A0007EA
:01040B0007E9
:01040C000AE5
:01040D000EE0
:01040E0015D8
:01040F001ECE
:010410000AE1
:0104110018D2
:0104120008E1
:010413001ACE
:010414000FD8
:0104150007DF
:0104160000E5
:010417001CC8
:010418001AC9
:010419001BC7
:01041A001EC3
:01041B0003DD
:01041C000AD5
:01041D0014CA
:01041E0000DD
:01041F000ECE
:010420001FBC
:0104210012C8
:0104220007D2
:010423001FB9
:0104240018BF
:0104250014C2
:0104260013C2
:0104270014C0
:0104280017BC
:010429001CB6
:01042A0003CE
:01042B000DC3
:01042C0019B6
:01042D0008C6
:01042E0018B5
:01042F000BC1
:0104300000CB
:0104310018B2
:0104320011B8
:010433000DBB
:010434000BBC
:010435000CBA
:010436000EB7
:0104370013B1
:010438001BA8
:0104390004BE
:01043A0010B1
:01043B001EA2
:01043C000EB1
:01043D0000BE
:01043E0015A8
:01043F000CB0
:0104400005B6
:0104410000BA
:010442001E9B
:010443001D9B
:010444001F98
:0104450004B2
:010446000AAB
:0104470013A1
:010448001D96
:010449000BA7
:01044A001A97
:01044B000BA5
:01044C001F90
:01044D001599
:01044E000DA0
:01044F0007A5
:0104500004A7
:0104510002A8
:0104520003A6
:0104530006A2
:010454000C9B
:010455001393
:010456001D88
:01045700089C
:01045800168D
:01045900079B
:01045A001988
:01045B000D93
:01045C00049B
:01045D001D81
:01045E001885
:01045F001587
:010460001586
:010461001684
:010462001A7F
:010463000098
:010464000790
:010465001284
:010466001E77
:010467000C88
:010468001D76
:010469001082
:01046A00058C
:01046B001C74
:01046C00157A
:01046D00107E
:01046E000D80
:01046F000D7F
:010470000F7C
:010471001278
:010472001871
:010473000088
:010474000B7C
:01047500176F
:010476000580
:01047700166E
:01047800097A
:010479001D65
:01047A00146D
:01047B000D73
:01047C000877
:01047D000678
:01047E000578
:01047F000676
:010480000A71
:010481000F6B
:010482001762
:010483000177
:010484000D6A
:010485001B5B
:010486000B6A
:010487001D57
:010488001162
:01048900076B
:01048A000071
:01048B001A56
:01048C001758
:01048D001559
:01048E001657
:01048F001953
:010490001E4D
:010491000565
:010492000E5B
:01049300194F
:010494000661
:010495001551
:01049600065F
:01049700194B
:010498000F54
:01049900065C
:01049A001F42
:01049B001B45
:01049C001847
:01049D001846
:01049E001944
:01049F001D3F
:0104A0000358
:0104A1000A50
:0104A2001445
:0104A3000058
:0104A4000E49
:0104A5001D39
:0104A6000F46
:0104A7000351
:0104A800193A
:0104A9001141
:0104AA000B46
:0104AB000749
:0104AC00054A
:0104AD000549
:0104AE000746
:0104AF000B41
:0104B000113A
:0104B1001931
:0104B2000346
:0104B3000F39
:0104B4001D2A
:0104B5000D39
:0104B6001F26
:0104B7001331
:0104B800093A
:0104B9000141
:0104BA001B26
:0104BB001729
:0104BC00152A
:0104BD00142A
:0104BE001627
:0104BF001A22
:0104C000003B
:0104C1000832
:0104C2001227
:0104C3001E1A
:0104C4000B2C
:0104C5001B1B
:0104C6000D28
:0104C7000034
:0104C800161D
:0104C9000E24
:0104CA00072A
:0104CB00032D
:0104CC00002F
:0104CD00002E
:0104CE00012C
:0104CF000428
:0104D0000922
:0104D1001119
:0104D2001A0F
:0104D3000523
:0104D4001215
:0104D5000125
:0104D6001213
:0104D700051F
:0104D8001A09
:0104D9001012
:0104DA000918
:0104DB00041C
:0104DC00001F
:0104DD001FFF
:0104DE001FFE
:0104DF00011B
:0104E0000516
:0104E1000C0E
:0104E2001405
:0104E3001EFA
:0104E400090E
:0104E50017FF
:0104E600070E
:0104E70019FB
:0104E8000C07
:0104E9000111
:0104EA0019F8
:0104EB0012FE
:0104EC000D02
:0104ED000A04
:0104EE000904
:0104EF000A02
:0104F0000DFE
:0104F10011F9
:0104F20018F1
:0104F3000008
:0104F4000AFD
:0104F50017EF
:0104F6000500
:0104F70014F0
:0104F80006FD
:0104F9001AE8
:0104FA0010F1
:0104FB0007F9
:0104FC0000FF
:0104FD001BE3
:0104FE0018E5
:0104FF0017E5
:0105000018E2
:010501001BDE
:010502001FD9
:0105030006F1
:010504000EE8
:0105050018DD
:0105060004F0
:0105070012E1
:0105080001F1
:0105090013DE
:01050A0006EA
:01050B001BD4
:01050C0012DC
:01050D000BE2
:01050E0006E6
:01050F0002E9
:0105100001E9
:0105110001E8
:0105120003E5
:0105130007E0
:010514000DD9
:0105150014D1
:010516001EC6
:0105170009DA
:0105180016CC
:0105190005DC
:01051A0016CA
:01051B0008D7
:01051C001DC1
:01051D0013CA
:01051E000BD1
:01051F0005D6
:0105200000DA
:010521001EBB
:010522001DBB
:010523001EB9
:0105240001D5
:0105250005D0
:010526000CC8
:0105270014BF
:010528001EB4
:010529000AC7
:01052A0018B8
:01052B0007C8
:01052C0018B6
:01052D000BC2
:01052E0000CC
:01052F0017B4
:010530000FBB
:0105310009C0
:0105320005C3
:0105330003C4
:0105340003C3
:0105350004C1
:0105360007BD
:010537000CB7
:0105380012B0
:010539001BA6
:01053A0005BB
:01053B0011AE
:01053C001F9F
:01053D000EAF
:01053E0000BC
:01053F0013A8
:0105400007B3
:010541001E9B
:0105420016A2
:0105430010A7
:010544000CAA
:010545000AAB
:0105460009AB
:010547000AA9
:010548000DA5
:0105490011A0
:01054A001898
:01054B0000AF
:01054C000AA4
:01054D001598
:01054E0003A9
:01054F001299
:0105500002A8
:010551001594
:01055200099F
:010553001F88
:01055400178F
:010555001095
:010556000B99
:01055700089B
:01055800079B
:01055900079A
:01055A000997
:01055B000D92
:01055C00138B
:01055D001A83
:01055E000399
:01055F000D8E
:010560001A80
:010561000891
:010562001880
:01056300098E
:010564001C7A
:010565001184
:01056600088C
:010567000093
:010568001A78
:01056900167B
:01056A00137D
:01056B00137C
:01056C00137B
:01056D001677
:01056E001A72
:01056F00008B
:010570000882
:010571001178
:010572001C6C
:01057300087F
:01057400176F
:01057500077E
:01057600186C
:010577000C77
:010578000181
:010579001869
:01057A001070
:01057B000A75
:01057C000678
:01057D00037A
:01057E00027A
:01057F000378
:010580000575
:010581000A6F
:010582000F69
:010583001760
:010584000076
:010585000A6B
:01058600175D
:01058700056E
:01058800155D
:01058900066B
:01058A001957
:01058B000E61
:01058C00046A
:01058D001C51
:01058E001557
:01058F00115A
:010590000E5C
:010591000C5D
:010592000C5C
:010593000E59
:010594001155
:01059500174E
:010596001D47
:01059700065D
:010598001052
:010599001B46
:01059A000858
:01059B001748
:01059C000856
:01059D001A43
:01059E000E4E
:01059F000358
:0105A0001A40
:0105A1001346
:0105A2000D4B
:0105A300094E
:0105A4000650
:0105A5000550
:0105A600064E
:0105A700084B
:0105A8000C46
:0105A9001140
:0105AA001937
:0105AB00014E
:0105AC000C42
:0105AD001835
:0105AE000547
:0105AF001437
:0105B0000545
:0105B1001732
:0105B2000B3D
:0105B3000146
:0105B400182E
:0105B5001035
:0105B6000B39
:0105B700073C
:0105B800043E
:0105B900033E
:0105BA00043C
:0105BB000639
:0105BC000A34
:0105BD000F2E
:0105BE001626
:0105BF001F1C
:0105C0000931
:0105C1001524
:0105C2000236
:0105C3001126
:0105C4000135
:0105C5001322
:0105C600072D
:0105C7001C17
:0105C8001220
:0105C9000B26
:0105CA00042C
:0105CB00002F
:0105CC001D11
:0105CD001B12
:0105CE001B11
:0105CF001D0E
:0105D000002A
:0105D1000524
:0105D2000B1D
:0105D3001314
:0105D4001C0A
:0105D500071E
:0105D6001410
:0105D7000221
:0105D8001111
:0105D900021F
:0105DA00150B
:0105DB000916
:0105DC001FFF
:0105DD001607
:0105DE000F0D
:0105DF000912
:0105E0000515
:0105E1000316
:0105E2000216
:0105E3000215
:0105E4000412
:0105E500080D
:0105E6000D07
:0105E7001300
:0105E8001BF7
:0105E900050C
:0105EA001000
:0105EB001DF2
:0105EC000B03
:0105ED001BF2
:0105EE000C00
:0105EF001FEC
:0105F00013F7
:0105F1000900
:0105F2000008
:0105F30019EE
:0105F40013F3
:0105F5000FF6
:0105F6000CF8
:0105F7000BF8
:0105F8000BF7
:0105F9000DF4
:0105FA0011EF
:0105FB0015EA
:0105FC001CE2
:0105FD0004F9
:0105FE000DEF
:0105FF0018E3
:0106000004F5
:0106010012E6
:0106020001F6
:0106030012E4
:0106040004F1
:0106050018DC
:010606000DE6
:0106070004EE
:010608001CD5
:0106090016DA
:01060A0011DE
:01060B000EE0
:01060C000CE1
:01060D000CE0
:01060E000DDE
:01060F000FDB
:0106100013D6
:0106110019CF
:0106120000E7
:0106130008DE
:0106140012D3
:010615001EC6
:010616000AD9
:0106170019C9
:0106180009D8
:010619001AC6
:01061A000DD2
:01061B0001DD
:01061C0016C7
:01061D000DCF
:01061E0006D5
:01061F0000DA
:010620001CBD
:0106210018C0
:0106220017C0
:0106230017BF
:0106240018BD
:010625001BB9
:010626001FB4
:0106270004CE
:010628000CC5
:0106290014BC
:01062A001EB1
:01062B0009C5
:01062C0016B7
:01062D0004C8
:01062E0014B7
:01062F0005C5
:0106300018B1
:010631000CBC
:0106320001C6
:0106330018AE
:0106340011B4
:010635000ABA
:0106360005BE
:0106370002C0
:0106380000C1
:0106390000C0
:01063A0000BF
:01063B0003BB
:01063C0006B7
:01063D000CB0
:01063E0012A9
:01063F001AA0
:0106400003B6
:010641000EAA
:010642001A9D
:0106430008AE
:01064400179E
:0106450008AC
:01064600199A
:010647000DA5
:0106480001B0
:010649001799
:01064A000FA0
:01064B0008A6
:01064C0002AB
:01064D001E8E
:01064E001B90
:01064F001991
:010650001990
:010651001B8D
:010652001D8A
:0106530001A5
:01065400079E
:010655000E96
:01065600168D
:0106570000A2
:010658000B96
:010659001789
:01065A00059A
:01065B00148A
:01065C000598
:01065D001785
:01065E000A91
:01065F001F7B
:010660001584
:010661000C8C
:010662000592
:010663000096
:010664001B7A
:01066500187C
:01066600177C
:01066700167C
:01066800177A
:010669001A76
:01066A001E71
:01066B00038B
:01066C000A83
:01066D00117B
:01066E001B70
:01066F000585
:010670001277
:010671001F69
:010672000E79
:010673001E68
:010674000F76
:010675000282
:01067600166D
:010677000C76
:01067800037E
:010679001B65
:01067A00156A
:01067B00106E
:01067C000C71
:01067D000A72
:01067E000972
:01067F000971
:010680000B6E
:010681000E6A
:010682001265
:01068300185E
:010684001F56
:01068500076D
:010686001162
:010687001C56
:010688000869
:01068900165A
:01068A00056A
:01068B001658
:01068C000766
:01068D001A52
:01068E000F5C
:01068F000466
:010690001C4D
:010691001454
:010692000E59
:01069300095D
:010694000560
:010695000361
:010696000261
:010697000260
:01069800045D
:010699000759
:01069A000B54
:01069B00104E
:01069C001746
:01069D00005C
:01069E000952
:01069F001446
:0106A0000059
:0106A1000E4A
:0106A2001C3B
:0106A3000C4A
:0106A4001E37
:0106A5001044
:0106A600044F
:0106A7001A38
:0106A8001041
:0106A9000848
:0106AA00014E
:0106AB001C32
:0106AC001835
:0106AD001537
:0106AE001338
:0106AF001337
:0106B0001435
:0106B1001632
:0106B2001A2D
:0106B3001E28
:0106B4000540
:0106B5000C38
:0106B600152E
:0106B7001F23
:0106B8000A37
:0106B9001729
:0106BA00043B
:0106BB00142A
:0106BC000439
:0106BD001626
:0106BE000932
:0106BF001D1D
:0106C0001227
:0106C100092F
:0106C2000136
:0106C3001B1B
:0106C4001520
:0106C5001123
:0106C6000E25
:0106C7000D25
:0106C8000D24
:0106C9000E22
:0106CA00101F
:0106CB00131B
:0106CC001815
:0106CD001E0E
:0106CE000625
:0106CF000E1C
:0106D0001811
:0106D1000325
:0106D2000F18
:0106D3001D09
:0106D4000C19
:0106D5001C08
:0106D6000D16
:0106D7000022
:0106D800140D
:0106D9000917
:0106DA001F00
:0106DB001707
:0106DC00100D
:0106DD000A12
:0106DE000615
:0106DF000218
:0106E0000019
:0106E1001FF9
:0106E2000017
:0106E3000115
:0106E4000411
:0106E500080C
:0106E6000D06
:0106E70014FE
:0106E8001CF5
:0106E900050B
:0106EA000F00
:0106EB001BF3
:0106EC000706
:0106ED0015F7
:0106EE000506
:0106EF0015F5
:0106F0000702
:0106F1001AEE
:0106F2000EF9
:0106F3000303
:0106F4001AEB
:0106F50012F2
:0106F6000BF8
:0106F70005FD
:0106F8000001
:0106F9001DE3
:0106FA001BE4
:0106FB001AE4
:0106FC001AE3
:0106FD001CE0
:0106FE001FDC
:0106FF0003F7
:0107000008F0
:010701000EE9
:0107020016E0
:010703001FD6
:0107040009EB
:0107050014DF
:0107060001F1
:010707000FE2
:010708001DD3
:010709000EE1
:01070A001FCF
:01070B0011DC
:01070C0005E7
:01070D001AD1
:01070E0010DA
:01070F0008E1
:0107100000E8
:010711001ACD
:0107120015D1
:0107130011D4
:010714000ED6
:010715000DD6
:010716000CD6
:010717000DD4
:010718000FD1
:0107190013CC
:01071A0017C7
:01071B001DC0
:01071C0004D8
:01071D000CCF
:01071E0015C5
:01071F001FBA
:010720000BCD
:0107210018BF
:0107220006D0
:0107230015C0
:0107240005CF
:0107250017BC
:0107260009C9
:010727001DB4
:0107280012BE
:0107290008C7
:01072A0000CE
:01072B0018B5
:01072C0012BA
:01072D000DBE
:01072E0009C1
:01072F0006C3
:0107300005C3
:0107310004C3
:0107320005C1
:0107330007BE
:010734000ABA
:010735000EB5
:0107360014AE
:010737001AA7
:0107380002BE
:010739000BB4
:01073A0015A9
:01073B0000BD
:01073C000DAF
:01073D001AA1
:01073E0009B1
:01073F0019A0
:010740000AAE
:010741001C9B
:0107420010A6
:0107430004B1
:010744001A9A
:0107450010A3
:0107460008AA
:0107470001B0
:010748001C94
:010749001798
:01074A00149A
:01074B00119C
:01074C00109C
:01074D00109B
:01074E001199
:01074F001396
:010750001791
:010751001B8C
:0107520001A5
:01075300089D
:010754001094
:01075500198A
:01075600039F
:010757000F92
:010758001B85
:010759000996
:01075A001787
:01075B000796
:01075C001884
:01075D000B90
:01075E001E7C
:01075F001287
:010760000890
:010761001F78
:010762001680
:010763000F86
:01076400098B
:01076500048F
:010766000191
:010767001E73
:010768001D73
:010769001C73
:01076A001D71
:01076B001F6E
:01076C00028A
:01076D000685
:01076E000B7F
:01076F001277
:01077000196F
:010771000285
:010772000C7A
:01077300166F
:010774000282
:010775000F74
:010776001D65
:010777000D74
:010778001D63
:010779000F70
:01077A00017D
:01077B001568
:01077C000A72
:01077D001F5C
:01077E001664
:01077F000F6A
:010780000870
:010781000275
:010782001D59
:010783001A5B
:01078400185C
:01078500165D
:01078600165C
:01078700175A
:010788001957
:010789001C53
:01078A00006E
:01078B000568
:01078C000C60
:01078D001358
:01078E001C4E
:01078F000564
:010790001058
:010791001C4B
:01079200085E
:01079300164F
:01079400055F
:01079500164D
:01079600075B
:010797001948
:010798000C54
:01079900015E
:01079A001648
:01079B000D50
:01079C000557
:01079D001D3E
:01079E001743
:01079F001247
:0107A0000E4A
:0107A1000B4C
:0107A200094D
:0107A300084D
:0107A400094B
:0107A5000A49
:0107A6000C46
:0107A7001041
:0107A800153B
:0107A9001A35
:0107AA00014D
:0107AB000944
:0107AC00113B
:0107AD001B30
:0107AE000644
:0107AF001237
:0107B0001F29
:0107B1000D3A
:0107B2001D29
:0107B3000D38
:0107B4001E26
:0107B5001033
:0107B600043E
:0107B7001829
:0107B8000E32
:0107B900043B
:0107BA001C22
:0107BB001528
:0107BC000F2D
:0107BD000932
:0107BE000535
:0107BF000237
:0107C0000038
:0107C1001F18
:0107C2001F17
:0107C3000035
:0107C4000232
:0107C500052E
:0107C6000A28
:0107C7000F22
:0107C800151B
:0107C9001D12
:0107CA000529
:0107CB000E1F
:0107CC001913
:0107CD000427
:0107CE001119
:0107CF001F0A
:0107D0000D1B
:0107D1001D0A
:0107D2000E18
:0107D3001F06
:0107D4001212
:0107D500061D
:0107D6001B07
:0107D7001011
:0107D8000719
:0107D9001F00
:0107DA001806
:0107DB00120B
:0107DC000D0F
:0107DD000912
:0107DE000614
:0107DF000415
:0107E0000414
:0107E1000413
:0107E2000511
:0107E300070E
:0107E4000A0A
:0107E5000E05
:0107E60014FE
:0107E7001AF7
:0107E800010F
:0107E9000906
:0107EA0013FB
:0107EB001DF0
:0107EC000804
:0107ED0015F6
:0107EE000208
:0107EF0011F8
:0107F0000008
:0107F10010F7
:0107F2000204
:0107F30014F1
:0107F40008FC
:0107F5001CE7
:0107F60012F0
:0107F70008F9
:0107F8000000
:0107F90018E7
:0107FA0012EC
:0107FB000CF1
:0107FC0008F4
:0107FD0004F7
:0107FE0002F8
:0107FF0000F9
:00000001ff
