:020000040000FA
:0100000000FF
:010001001FDF
:010002001FDE
:010003001EDE
:010004001DDE
:010005001BDF
:0100060019E0
:0100070016E2
:0100080014E3
:0100090010E6
:01000A000DE8
:01000B0009EB
:01000C0005EE
:01000D0000F2
:01000E001BD6
:01000F0016DA
:0100100010DF
:010011000AE4
:0100120003EA
:010013001DCF
:0100140015D6
:010015000EDC
:0100160006E3
:010017001ECA
:0100180015D2
:010019000CDA
:01001A0003E2
:01001B0019CB
:01001C000FD4
:01001D0005DD
:01001E001AC7
:01001F000FD1
:0100200003DC
:0100210018C6
:010022000BD2
:010023001FBD
:0100240012C9
:0100250005D5
:0100260017C2
:0100270009CF
:010028001BBC
:010029000DC9
:01002A001EB7
:01002B000EC6
:01002C001FB4
:01002D000FC3
:01002E001EB3
:01002F000EC2
:010030001DB2
:010031000BC3
:010032001AB3
:0100330008C4
:0100340015B6
:0100350002C8
:010036000FBA
:010037001CAC
:0100380008BF
:0100390014B2
:01003A0000C5
:01003B000BB9
:01003C0016AD
:01003D0001C1
:01003E000BB6
:01003F0015AB
:010040001EA1
:0100410008B6
:0100420010AD
:0100430019A3
:0100440001BA
:0100450009B1
:0100460011A8
:0100470018A0
:010048001F98
:0100490006B0
:01004A000CA9
:01004B0012A2
:01004C00189B
:01004D001D95
:01004E0002AF
:01004F0007A9
:010050000BA4
:010051000F9F
:01005200139A
:010053001696
:010054001992
:010055001C8E
:010056001F8A
:0100570001A7
:0100580002A5
:0100590004A2
:01005A0005A0
:01005B00069E
:01005C00069D
:01005D00079B
:01005E00079A
:01005F00069A
:010060000699
:01006100049A
:01006200039A
:01006300019B
:01006400009B
:010065001D7D
:010066001B7E
:010067001880
:010068001582
:010069001185
:01006A000D88
:01006B00098B
:01006C00058E
:01006D000092
:01006E001B76
:01006F00167A
:01007000107F
:010071000A84
:010072000489
:010073001D6F
:010074001675
:010075000F7B
:010076000881
:010077000088
:01007800186F
:010079001076
:01007A00077E
:01007B001E66
:01007C00156E
:01007D000B77
:01007E000180
:01007F001769
:010080000D72
:01008100027C
:010082001766
:010083000C70
:01008400007B
:010085001466
:010086000871
:010087001C5C
:010088000F68
:010089000274
:01008A001560
:01008B00076D
:01008C00195A
:01008D000B67
:01008E001C55
:01008F000E62
:010090001E51
:010091000F5F
:010092001F4E
:01009300105C
:010094001F4C
:010095000F5B
:010096001E4B
:010097000D5B
:010098001C4B
:010099000A5C
:01009A00184D
:01009B00065E
:01009C00144F
:01009D000161
:01009E000E53
:01009F001A46
:0100A0000758
:0100A100134B
:0100A2001F3E
:0100A3000A52
:0100A4001645
:0100A5000159
:0100A6000C4D
:0100A7001642
:0100A8000057
:0100A9000A4C
:0100AA001441
:0100AB001D37
:0100AC00064D
:0100AD000F43
:0100AE001839
:0100AF000050
:0100B0000847
:0100B100103E
:0100B2001736
:0100B3001F2D
:0100B4000645
:0100B5000C3E
:0100B6001336
:0100B700192F
:0100B8001F28
:0100B9000541
:0100BA000A3B
:0100BB000F35
:0100BC00142F
:0100BD00182A
:0100BE001D24
:0100BF00013F
:0100C000053A
:0100C1000836
:0100C2000B32
:0100C3000E2E
:0100C400112A
:0100C5001426
:0100C6001623
:0100C7001820
:0100C800191E
:0100C9001B1B
:0100CA001C19
:0100CB001D17
:0100CC001E15
:0100CD001E14
:0100CE001E13
:0100CF001E12
:0100D0001E11
:0100D1001D11
:0100D2001C11
:0100D3001B11
:0100D4001A11
:0100D5001812
:0100D6001613
:0100D7001414
:0100D8001215
:0100D9000F17
:0100DA000C19
:0100DB00091B
:0100DC00061D
:0100DD000220
:0100DE001E03
:0100DF001A06
:0100E0001609
:0100E100110D
:0100E2000C11
:0100E3000715
:0100E4000219
:0100E5001CFE
:0100E6001603
:0100E7001008
:0100E8000A0D
:0100E9000313
:0100EA001CF9
:0100EB0015FF
:0100EC000E05
:0100ED00070B
:0100EE001FF2
:0100EF0017F9
:0100F0000E01
:0100F1000608
:0100F2001DF0
:0100F30014F8
:0100F4000B00
:0100F5000109
:0100F60018F1
:0100F7000EFA
:0100F8000304
:0100F90019ED
:0100FA000EF7
:0100FB000301
:0100FC0018EB
:0100FD000DF5
:0100FE000100
:0100FF0015EB
:0101000009F5
:010101001DE0
:0101020011EB
:0101030004F7
:0101040017E3
:0101050009F0
:010106001CDC
:010107000EE9
:0101080000F6
:0101090012E3
:01010A0004F0
:01010B0015DE
:01010C0006EC
:01010D0017DA
:01010E0008E8
:01010F0018D7
:0101100008E6
:0101110018D5
:0101120008E4
:0101130018D3
:0101140007E3
:0101150016D3
:0101160005E3
:0101170014D3
:0101180002E4
:0101190010D5
:01011A001EC6
:01011B000CD7
:01011C0019C9
:01011D0007DA
:01011E0014CC
:01011F0001DE
:010120000DD1
:010121001AC3
:0101220006D6
:0101230012C9
:010124001DBD
:0101250009D0
:0101260014C4
:010127001FB8
:010128000ACC
:0101290015C0
:01012A001FB5
:01012B0009CA
:01012C0013BF
:01012D001DB4
:01012E0007C9
:01012F0010BF
:0101300019B5
:0101310002CB
:010132000BC1
:0101330013B8
:010134001CAE
:0101350004C5
:010136000BBD
:0101370013B4
:010138001AAC
:0101390002C3
:01013A0009BB
:01013B000FB4
:01013C0016AC
:01013D001CA5
:01013E0002BE
:01013F0008B7
:010140000EB0
:0101410014A9
:0101420019A3
:010143001E9D
:0101440003B7
:0101450008B1
:010146000CAC
:0101470010A7
:0101480014A2
:01014900189D
:01014A001C98
:01014B001F94
:01014C0002B0
:01014D0005AC
:01014E0008A8
:01014F000BA4
:010150000DA1
:010151000F9E
:01015200119B
:010153001398
:010154001595
:010155001693
:010156001791
:01015700188F
:01015800198D
:010159001A8B
:01015A001A8A
:01015B001A89
:01015C001A88
:01015D001A87
:01015E001A86
:01015F001986
:010160001886
:010161001786
:010162001686
:010163001487
:010164001387
:010165001188
:010166000F89
:010167000D8A
:010168000A8C
:01016900088D
:01016A00058F
:01016B000291
:01016C001F73
:01016D001B76
:01016E001878
:01016F00147B
:01017000107E
:010171000C81
:010172000785
:010173000388
:010174001E6C
:010175001970
:010176001474
:010177000F78
:01017800097D
:010179000481
:01017A001E66
:01017B00186B
:01017C001171
:01017D000B76
:01017E00047C
:01017F001D62
:010180001668
:010181000F6E
:010182000874
:01018300007B
:010184001862
:010185001069
:010186000870
:010187000077
:01018800175F
:010189000F66
:01018A00066E
:01018B001D56
:01018C00135F
:01018D000A67
:01018E000070
:01018F001659
:010190000C62
:01019100026B
:010192001854
:010193000D5E
:010194000367
:010195001851
:010196000D5B
:010197000166
:010198001650
:010199000A5B
:01019A001E46
:01019B001251
:01019C00065C
:01019D001A47
:01019E000D53
:01019F00005F
:0101A000144A
:0101A1000657
:0101A2001943
:0101A3000C4F
:0101A4001E3C
:0101A5001049
:0101A6000256
:0101A7001443
:0101A8000650
:0101A900173E
:0101AA00094B
:0101AB001A39
:0101AC000B47
:0101AD001B36
:0101AE000C44
:0101AF001C33
:0101B0000D41
:0101B1001D30
:0101B2000D3F
:0101B3001C2F
:0101B4000C3E
:0101B5001B2E
:0101B6000B3D
:0101B7001A2D
:0101B800093D
:0101B900172E
:0101BA00063E
:0101BB00142F
:0101BC000240
:0101BD001031
:0101BE001E22
:0101BF000C33
:0101C0001925
:0101C1000736
:0101C2001428
:0101C300013A
:0101C4000E2C
:0101C5001A1F
:0101C6000731
:0101C7001324
:0101C8001F17
:0101C9000B2A
:0101CA00171D
:0101CB000330
:0101CC000E24
:0101CD001918
:0101CE00052B
:0101CF00101F
:0101D0001A14
:0101D1000528
:0101D200101C
:0101D3001A11
:0101D4000426
:0101D5000E1B
:0101D6001810
:0101D7000126
:0101D8000B1B
:0101D9001411
:0101DA001D07
:0101DB00061D
:0101DC000F13
:0101DD001809
:0101DE00011F
:0101DF000916
:0101E000110D
:0101E1001904
:0101E200011B
:0101E3000912
:0101E400100A
:0101E5001801
:0101E6001FF9
:0101E7000611
:0101E8000D09
:0101E9001401
:0101EA001AFA
:0101EB000112
:0101EC00070B
:0101ED000D04
:0101EE0013FD
:0101EF0019F6
:0101F0001EF0
:0101F1000409
:0101F2000903
:0101F3000EFD
:0101F40013F7
:0101F50018F1
:0101F6001DEB
:0101F7000106
:0101F8000600
:0101F9000AFB
:0101FA000EF6
:0101FB0012F1
:0101FC0016EC
:0101FD0019E8
:0101FE001DE3
:0101FF0000FF
:0102000003FA
:0102010006F6
:0102020009F2
:010203000CEE
:010204000EEB
:0102050011E7
:0102060013E4
:0102070015E1
:0102080017DE
:0102090019DB
:01020A001AD9
:01020B001CD6
:01020C001DD4
:01020D001ED2
:01020E001FD0
:01020F0000EE
:0102100001EC
:0102110002EA
:0102120002E9
:0102130002E8
:0102140002E7
:0102150002E6
:0102160002E5
:0102170002E4
:0102180001E4
:0102190001E3
:01021A0000E3
:01021B001FC3
:01021C001EC3
:01021D001DC3
:01021E001BC4
:01021F001AC4
:0102200018C5
:0102210016C6
:0102220015C6
:0102230012C8
:0102240010C9
:010225000ECA
:010226000BCC
:0102270009CD
:0102280006CF
:0102290003D1
:01022A0000D3
:01022B001DB5
:01022C0019B8
:01022D0016BA
:01022E0012BD
:01022F000EC0
:010230000AC3
:0102310006C6
:0102320002C9
:010233001DAD
:0102340019B0
:0102350014B4
:010236000FB8
:010237000ABC
:0102380005C0
:0102390000C4
:01023A001BA8
:01023B0015AD
:01023C0010B1
:01023D000AB6
:01023E0004BB
:01023F001EA0
:0102400018A5
:0102410011AB
:010242000BB0
:0102430004B6
:010244001D9C
:0102450016A2
:010246000FA8
:0102470008AE
:0102480001B4
:01024900199B
:01024A0012A1
:01024B000AA8
:01024C0002AF
:01024D001A96
:01024E00129D
:01024F000AA4
:0102500001AC
:010251001993
:01025200109B
:0102530007A3
:010254001E8B
:010255001593
:010256000C9B
:0102570003A3
:01025800198C
:010259000F95
:01025A00069D
:01025B001C86
:01025C00128F
:01025D000898
:01025E001D82
:01025F00138B
:010260000895
:010261001E7E
:010262001388
:010263000892
:010264001D7C
:010265001187
:010266000691
:010267001B7B
:010268000F86
:010269000391
:01026A00177C
:01026B000B87
:01026C001F72
:01026D00137D
:01026E000788
:01026F001A74
:010270000D80
:01027100018B
:010272001477
:010273000783
:010274001970
:010275000C7C
:010276001F68
:010277001175
:010278000382
:01027900166E
:01027A00087B
:01027B001969
:01027C000B76
:01027D001D63
:01027E000F70
:01027F00007E
:01028000116C
:01028100027A
:010282001368
:010283000476
:010284001564
:010285000672
:010286001661
:01028700076F
:01028800175E
:01028900076D
:01028A00175C
:01028B00076B
:01028C00175A
:01028D000769
:01028E001659
:01028F000569
:010290001558
:010291000468
:010292001358
:010293000268
:010294001158
:010295001F49
:010296000E59
:010297001C4A
:010298000B5A
:01029900194B
:01029A00075C
:01029B00154D
:01029C00035E
:01029D001050
:01029E001E41
:01029F000B53
:0102A0001944
:0102A1000656
:0102A2001348
:0102A300005A
:0102A4000D4C
:0102A5001A3E
:0102A6000651
:0102A7001343
:0102A8001F36
:0102A9000B49
:0102AA00173C
:0102AB00034F
:0102AC000F42
:0102AD001B35
:0102AE000748
:0102AF00123C
:0102B0001E2F
:0102B1000943
:0102B2001437
:0102B3001F2B
:0102B4000A3F
:0102B5001533
:0102B6000047
:0102B7000B3B
:0102B8001530
:0102B9001F25
:0102BA000A39
:0102BB00142E
:0102BC001E23
:0102BD000838
:0102BE00122D
:0102BF001B23
:0102C0000538
:0102C1000E2E
:0102C2001823
:0102C3000139
:0102C4000A2F
:0102C5001325
:0102C6001C1B
:0102C7000531
:0102C8000D28
:0102C900161E
:0102CA001E15
:0102CB00062C
:0102CC000F22
:0102CD001719
:0102CE001F10
:0102CF000727
:0102D0000E1F
:0102D1001616
:0102D2001D0E
:0102D3000525
:0102D4000C1D
:0102D5001315
:0102D6001A0D
:0102D7000125
:0102D800081D
:0102D9000F15
:0102DA00160D
:0102DB001C06
:0102DC00031E
:0102DD000917
:0102DE000F10
:0102DF001509
:0102E0001B02
:0102E100011B
:0102E2000714
:0102E3000C0E
:0102E4001207
:0102E5001701
:0102E6001DFA
:0102E7000214
:0102E800070E
:0102E9000C08
:0102EA001102
:0102EB0015FD
:0102EC001AF7
:0102ED001FF1
:0102EE00030C
:0102EF000707
:0102F0000C01
:0102F10010FC
:0102F20014F7
:0102F30018F2
:0102F4001CED
:0102F5001FE9
:0102F6000304
:0102F7000600
:0102F8000AFB
:0102F9000DF7
:0102FA0010F3
:0102FB0013EF
:0102FC0016EB
:0102FD0019E7
:0102FE001CE3
:0102FF001EE0
:0103000001FB
:0103010003F8
:0103020006F4
:0103030008F1
:010304000AEE
:010305000CEB
:010306000EE8
:0103070010E5
:0103080011E3
:0103090013E0
:01030A0014DE
:01030B0016DB
:01030C0017D9
:01030D0018D7
:01030E0019D5
:01030F001AD3
:010310001BD1
:010311001CCF
:010312001DCD
:010313001DCC
:010314001ECA
:010315001EC9
:010316001EC8
:010317001EC7
:010318001EC6
:010319001EC5
:01031A001EC4
:01031B001EC3
:01031C001EC2
:01031D001DC2
:01031E001DC1
:01031F001CC1
:010320001BC1
:010321001AC1
:0103220019C1
:0103230018C1
:0103240017C1
:0103250016C1
:0103260015C1
:0103270013C2
:0103280012C2
:0103290010C3
:01032A000EC4
:01032B000CC5
:01032C000AC6
:01032D0008C7
:01032E0006C8
:01032F0004C9
:0103300002CA
:010331001FAC
:010332001DAD
:010333001AAF
:0103340017B1
:0103350014B3
:0103360011B5
:010337000EB7
:010338000BB9
:0103390008BB
:01033A0005BD
:01033B0001C0
:01033C001EA2
:01033D001AA5
:01033E0016A8
:01033F0013AA
:010340000FAD
:010341000BB0
:0103420007B3
:0103430003B6
:010344001E9A
:010345001A9D
:0103460015A1
:0103470011A4
:010348000CA8
:0103490007AC
:01034A0003AF
:01034B001E93
:01034C001997
:01034D00139C
:01034E000EA0
:01034F0009A4
:0103500003A9
:010351001E8D
:010352001892
:010353001396
:010354000D9B
:0103550007A0
:0103560001A5
:010357001B8A
:01035800158F
:010359000F94
:01035A00089A
:01035B00029F
:01035C001B85
:01035D00158A
:01035E000E90
:01035F000796
:01036000009C
:010361001982
:010362001288
:010363000B8E
:010364000494
:010365001C7B
:010366001581
:010367000D88
:01036800068E
:010369001E75
:01036A00167C
:01036B000E83
:01036C00068A
:01036D001E71
:01036E001678
:01036F000E7F
:010370000587
:010371001D6E
:010372001476
:010373000C7D
:010374000385
:010375001A6D
:010376001175
:01037700087D
:010378001F65
:01037900166D
:01037A000D75
:01037B00047D
:01037C001A66
:01037D00116E
:01037E000777
:01037F001D60
:010380001468
:010381000A71
:01038200007A
:010383001663
:010384000C6C
:010385000176
:01038600175F
:010387000D68
:010388000272
:01038900185B
:01038A000D65
:01038B00026F
:01038C001858
:01038D000D62
:01038E00026C
:01038F001756
:010390000B61
:01039100006B
:010392001555
:010393000960
:010394001E4A
:010395001255
:01039600075F
:010397001B4A
:010398000F55
:010399000360
:01039A00174B
:01039B000B56
:01039C001F41
:01039D00124D
:01039E000658
:01039F001A43
:0103A0000D4F
:0103A100015A
:0103A2001446
:0103A3000752
:0103A4001A3E
:0103A5000D4A
:0103A6000056
:0103A7001342
:0103A800064E
:0103A900193A
:0103AA000B47
:0103AB001E33
:0103AC001040
:0103AD00034C
:0103AE001539
:0103AF000746
:0103B0001933
:0103B1000B40
:0103B2001D2D
:0103B3000F3A
:0103B4000147
:0103B5001334
:0103B6000442
:0103B700162F
:0103B800083C
:0103B900192A
:0103BA000A38
:0103BB001C25
:0103BC000D33
:0103BD001E21
:0103BE000F2F
:0103BF00003D
:0103C000112B
:0103C100013A
:0103C2001228
:0103C3000336
:0103C4001325
:0103C5000334
:0103C6001422
:0103C7000431
:0103C8001420
:0103C900042F
:0103CA00141E
:0103CB00042D
:0103CC00141C
:0103CD00042B
:0103CE00141A
:0103CF00032A
:0103D0001319
:0103D1000328
:0103D2001218
:0103D3000128
:0103D4001018
:0103D5000027
:0103D6000F17
:0103D7001E07
:0103D8000D17
:0103D9001C07
:0103DA000A18
:0103DB001908
:0103DC000818
:0103DD001609
:0103DE000519
:0103DF00130A
:0103E000011B
:0103E100100B
:0103E2001EFC
:0103E3000C0D
:0103E4001AFE
:0103E500080F
:0103E6001600
:0103E7000312
:0103E8001103
:0103E9001FF4
:0103EA000C06
:0103EB001AF7
:0103EC000709
:0103ED0014FB
:0103EE00020C
:0103EF000FFE
:0103F0001CF0
:0103F1000902
:0103F20016F4
:0103F3000306
:0103F4000FF9
:0103F5001CEB
:0103F60009FD
:0103F70015F0
:0103F8000202
:0103F9000EF5
:0103FA001BE7
:0103FB0007FA
:0103FC0013ED
:0103FD001FE0
:0103FE000BF3
:0103FF0017E6
:0104000003F8
:010401000FEB
:010402001BDE
:0104030006F2
:0104040012E5
:010405001DD9
:0104060009EC
:0104070014E0
:0104080000F3
:010409000BE7
:01040A0016DB
:01040B0001EF
:01040C000CE3
:01040D0017D7
:01040E0002EB
:01040F000DDF
:0104100017D4
:0104110002E8
:010412000CDD
:0104130017D1
:0104140001E6
:010415000CDA
:0104160016CF
:0104170000E4
:010418000AD9
:0104190014CE
:01041A001EC3
:01041B0008D8
:01041C0012CD
:01041D001CC2
:01041E0006D7
:01041F000FCD
:0104200019C2
:0104210002D8
:010422000CCD
:0104230015C3
:010424001EB9
:0104250008CE
:0104260011C4
:010427001ABA
:0104280003D0
:010429000CC6
:01042A0015BC
:01042B001DB3
:01042C0006C9
:01042D000FBF
:01042E0017B6
:01042F0000CC
:0104300008C3
:0104310011B9
:0104320019B0
:0104330001C7
:0104340009BE
:0104350012B4
:010436001AAB
:0104370001C3
:0104380009BA
:0104390011B1
:01043A0019A8
:01043B0001BF
:01043C0008B7
:01043D0010AE
:01043E0017A6
:01043F001F9D
:0104400006B5
:010441000DAD
:0104420014A5
:010443001C9C
:0104440003B4
:010445000AAC
:0104460011A4
:01044700179D
:010448001E95
:0104490005AD
:01044A000CA5
:01044B00129E
:01044C001996
:01044D001F8F
:01044E0006A7
:01044F000CA0
:010450001299
:010451001892
:010452001E8B
:0104530005A3
:010454000A9D
:010455001096
:01045600168F
:010457001C88
:0104580002A1
:01045900079B
:01045A000D94
:01045B00138D
:01045C001887
:01045D001D81
:01045E00039A
:01045F000894
:010460000D8E
:010461001288
:010462001782
:010463001C7C
:010464000196
:010465000690
:010466000B8A
:010467001084
:01046800147F
:010469001979
:01046A001E73
:01046B00028E
:01046C000689
:01046D000B83
:01046E000F7E
:01046F001379
:010470001774
:010471001C6E
:010472000089
:010473000484
:010474000780
:010475000B7B
:010476000F76
:010477001371
:01047800166D
:010479001A68
:01047A001E63
:01047B00017F
:01047C00047B
:01047D000876
:01047E000B72
:01047F000E6E
:01048000116A
:010481001466
:010482001762
:010483001A5E
:010484001D5A
:010485000076
:010486000372
:01048700066E
:01048800086B
:010489000B67
:01048A000D64
:01048B001060
:01048C00125D
:01048D00145A
:01048E001756
:01048F001953
:010490001B50
:010491001D4D
:010492001F4A
:010493000167
:010494000364
:010495000561
:01049600075E
:01049700085C
:010498000A59
:010499000C56
:01049A000D54
:01049B000F51
:01049C00104F
:01049D00114D
:01049E00134A
:01049F001448
:0104A0001546
:0104A1001644
:0104A2001742
:0104A3001840
:0104A400193E
:0104A5001A3C
:0104A6001B3A
:0104A7001B39
:0104A8001C37
:0104A9001D35
:0104AA001D34
:0104AB001E32
:0104AC001E31
:0104AD001F2F
:0104AE001F2E
:0104AF001F2D
:0104B0001F2C
:0104B100004A
:0104B2000049
:0104B3000048
:0104B4000047
:0104B5000046
:0104B6001F26
:0104B7001F25
:0104B8001F24
:0104B9001F23
:0104BA001E23
:0104BB001E22
:0104BC001D22
:0104BD001D21
:0104BE001C21
:0104BF001C20
:0104C0001B20
:0104C1001A20
:0104C2001920
:0104C3001820
:0104C4001720
:0104C5001620
:0104C6001520
:0104C7001420
:0104C8001320
:0104C9001220
:0104CA001021
:0104CB000F21
:0104CC000D22
:0104CD000C22
:0104CE000A23
:0104CF000923
:0104D0000724
:0104D1000525
:0104D2000425
:0104D3000226
:0104D4000027
:0104D5001E08
:0104D6001C09
:0104D7001A0A
:0104D800180B
:0104D900160C
:0104DA00140D
:0104DB00110F
:0104DC000F10
:0104DD000D11
:0104DE000A13
:0104DF000814
:0104E0000516
:0104E1000218
:0104E2000019
:0104E3001DFB
:0104E4001AFD
:0104E50017FF
:0104E6001500
:0104E7001202
:0104E8000F04
:0104E9000C06
:0104EA000809
:0104EB00050B
:0104EC00020D
:0104ED001FEF
:0104EE001BF2
:0104EF0018F4
:0104F00015F6
:0104F10011F9
:0104F2000DFC
:0104F3000AFE
:0104F4000601
:0104F5000303
:0104F6001FE6
:0104F7001BE9
:0104F80017EC
:0104F90013EF
:0104FA000FF2
:0104FB000BF5
:0104FC0007F8
:0104FD0003FB
:0104FE001FDE
:0104FF001AE2
:0105000016E4
:0105010012E7
:010502000DEB
:0105030009EE
:0105040004F2
:0105050000F5
:010506001BD9
:0105070016DD
:0105080012E0
:010509000DE4
:01050A0008E8
:01050B0003EC
:01050C001ED0
:01050D0019D4
:01050E0014D8
:01050F000FDC
:010510000AE0
:0105110005E4
:010512001FC9
:010513001ACD
:0105140015D1
:010515000FD6
:010516000ADA
:0105170004DF
:010518001FC3
:0105190019C8
:01051A0013CD
:01051B000DD2
:01051C0008D6
:01051D0002DB
:01051E001CC0
:01051F0016C5
:0105200010CA
:010521000ACF
:0105220004D4
:010523001EB9
:0105240017BF
:0105250011C4
:010526000BC9
:0105270004CF
:010528001EB4
:0105290018B9
:01052A0011BF
:01052B000BC4
:01052C0004CA
:01052D001DB0
:01052E0017B5
:01052F0010BB
:0105300009C1
:0105310002C7
:010532001BAD
:0105330014B3
:010534000DB9
:0105350006BF
:010536001FA5
:0105370018AB
:0105380010B2
:0105390009B8
:01053A0002BE
:01053B001BA4
:01053C0013AB
:01053D000CB1
:01053E0004B8
:01053F001C9F
:0105400015A5
:010541000DAC
:0105420005B3
:010543001E99
:0105440016A0
:010545000EA7
:0105460006AE
:010547001E95
:01054800169C
:010549000EA3
:01054A0006AA
:01054B001E91
:01054C001599
:01054D000DA0
:01054E0005A7
:01054F001C8F
:010550001496
:010551000C9D
:0105520003A5
:010553001B8C
:010554001294
:01055500099C
:0105560001A3
:01055700188B
:010558000F93
:01055900069B
:01055A001D83
:01055B00148B
:01055C000B93
:01055D00029B
:01055E001983
:01055F00108B
:010560000793
:010561001D7C
:010562001484
:010563000B8C
:010564000195
:01056500187D
:010566000F85
:01056700058E
:010568001B77
:01056900127F
:01056A000888
:01056B001E71
:01056C001579
:01056D000B82
:01056E00018B
:01056F001774
:010570000D7D
:010571000386
:01057200196F
:010573000F78
:010574000581
:010575001B6A
:010576001074
:01057700067D
:010578001C66
:010579001170
:01057A000779
:01057B001D62
:01057C00126C
:01057D000776
:01057E001D5F
:01057F001269
:010580000773
:010581001D5C
:010582001266
:010583000770
:010584001C5A
:010585001164
:01058600066E
:010587001B58
:010588001062
:01058900056C
:01058A001A56
:01058B000F60
:01058C00036B
:01058D001855
:01058E000D5F
:01058F00016A
:010590001654
:010591000A5F
:010592001F49
:010593001354
:01059400085E
:010595001C49
:010596001054
:01059700055E
:010598001949
:010599000D54
:01059A00015F
:01059B00154A
:01059C000955
:01059D001D40
:01059E00114B
:01059F000556
:0105A0001941
:0105A1000D4C
:0105A2000058
:0105A3001443
:0105A400084E
:0105A5001B3A
:0105A6000F45
:0105A7000251
:0105A800163C
:0105A9000948
:0105AA001D33
:0105AB00103F
:0105AC00034B
:0105AD001736
:0105AE000A42
:0105AF001D2E
:0105B000103A
:0105B1000346
:0105B2001632
:0105B300093E
:0105B4001C2A
:0105B5000F36
:0105B6000242
:0105B700152E
:0105B800083A
:0105B9001B26
:0105BA000D33
:0105BB00003F
:0105BC00122C
:0105BD000538
:0105BE001824
:0105BF000A31
:0105C0001D1D
:0105C1000F2A
:0105C2000137
:0105C3001423
:0105C4000630
:0105C500181D
:0105C6000A2A
:0105C7001C17
:0105C8000E24
:0105C9000130
:0105CA00131D
:0105CB00052A
:0105CC001618
:0105CD000825
:0105CE001A12
:0105CF000C1F
:0105D0001E0C
:0105D1000F1A
:0105D2000127
:0105D3001314
:0105D4000422
:0105D500160F
:0105D600071D
:0105D700190A
:0105D8000A18
:0105D9001C05
:0105DA000D13
:0105DB001E01
:0105DC00100E
:0105DD00011C
:0105DE00120A
:0105DF000318
:0105E0001406
:0105E1000514
:0105E2001602
:0105E3000710
:0105E40018FE
:0105E500090C
:0105E6001AFA
:0105E7000B08
:0105E8001BF7
:0105E9000C05
:0105EA001DF3
:0105EB000D02
:0105EC001EF0
:0105ED000FFE
:0105EE001FED
:0105EF0010FB
:0105F000000A
:0105F10010F9
:0105F2000107
:0105F30011F6
:0105F4000105
:0105F50012F3
:0105F6000202
:0105F70012F1
:0105F8000200
:0105F90012EF
:0105FA0002FE
:0105FB0012ED
:0105FC0002FC
:0105FD0012EB
:0105FE0002FA
:0105FF0012E9
:0106000001F8
:0106010011E7
:0106020001F6
:0106030011E5
:0106040000F5
:0106050010E4
:010606001FD4
:010607000FE3
:010608001ED3
:010609000EE2
:01060A001DD2
:01060B000CE2
:01060C001CD1
:01060D000BE1
:01060E001AD1
:01060F0009E1
:0106100019D0
:0106110008E0
:0106120017D0
:0106130006E0
:0106140015D0
:0106150004E0
:0106160013D0
:0106170002E0
:0106180010D1
:010619001FC1
:01061A000ED1
:01061B001DC1
:01061C000BD2
:01061D001AC2
:01061E0009D2
:01061F0017C3
:0106200006D3
:0106210014C4
:0106220003D4
:0106230011C5
:010624001FB6
:010625000EC6
:010626001CB7
:010627000AC8
:0106280019B8
:0106290007C9
:01062A0015BA
:01062B0003CB
:01062C0011BC
:01062D001FAD
:01062E000DBE
:01062F001BAF
:0106300009C0
:0106310017B1
:0106320005C2
:0106330013B3
:0106340000C5
:010635000EB6
:010636001CA7
:0106370009B9
:0106380017AA
:0106390005BB
:01063A0012AD
:01063B0000BE
:01063C000DB0
:01063D001AA2
:01063E0008B3
:01063F0015A5
:0106400003B6
:0106410010A8
:010642001D9A
:010643000AAC
:01064400179E
:0106450005AF
:0106460012A1
:010647001F93
:010648000CA5
:010649001997
:01064A0006A9
:01064B00139B
:01064C001F8E
:01064D000CA0
:01064E001992
:01064F0006A4
:010650001396
:010651001F89
:010652000C9B
:01065300198D
:0106540005A0
:010655001292
:010656001E85
:010657000B97
:01065800178A
:01065900039D
:01065A00108F
:01065B001C82
:01065C000895
:01065D001587
:01065E00019A
:01065F000D8D
:010660001980
:010661000593
:010662001186
:010663001D79
:01066400098C
:01066500157F
:010666000192
:010667000D85
:010668001978
:01066900058B
:01066A00117E
:01066B001C72
:01066C000885
:01066D001478
:01066E001F6C
:01066F000B7F
:010670001772
:010671000286
:010672000E79
:01067300196D
:010674000580
:010675001074
:010676001B68
:01067700077B
:01067800126F
:010679001D63
:01067A000877
:01067B00146A
:01067C001F5E
:01067D000A72
:01067E001566
:01067F00007A
:010680000B6E
:010681001662
:010682000176
:010683000C6A
:01068400175E
:010685000272
:010686000C67
:01068700175B
:01068800026F
:010689000D63
:01068A001758
:01068B00026C
:01068C000C61
:01068D001755
:01068E000269
:01068F000C5E
:010690001653
:010691000167
:010692000B5C
:010693001650
:010694000065
:010695000A5A
:01069600154E
:010697001F43
:010698000958
:01069900134D
:01069A001D42
:01069B000757
:01069C00114C
:01069D001B41
:01069E000556
:01069F000F4B
:0106A0001940
:0106A1000355
:0106A2000D4A
:0106A300173F
:0106A4000154
:0106A5000A4A
:0106A600143F
:0106A7001E34
:0106A800074A
:0106A900113F
:0106AA001B34
:0106AB00044A
:0106AC000E3F
:0106AD001735
:0106AE00014A
:0106AF000A40
:0106B0001336
:0106B1001D2B
:0106B2000641
:0106B3000F37
:0106B400192C
:0106B5000242
:0106B6000B38
:0106B700142E
:0106B8001D24
:0106B900063A
:0106BA000F30
:0106BB001826
:0106BC00013C
:0106BD000A32
:0106BE001328
:0106BF001C1E
:0106C0000534
:0106C1000E2A
:0106C2001720
:0106C3001F17
:0106C400082D
:0106C5001123
:0106C6001A19
:0106C7000230
:0106C8000B26
:0106C900131D
:0106CA001C13
:0106CB00042A
:0106CC000D20
:0106CD001517
:0106CE001E0D
:0106CF000624
:0106D0000E1B
:0106D1001711
:0106D2001F08
:0106D300071F
:0106D4000F16
:0106D500180C
:0106D6000023
:0106D700081A
:0106D8001011
:0106D9001808
:0106DA00001F
:0106DB000816
:0106DC00100D
:0106DD001804
:0106DE00001B
:0106DF000812
:0106E0001009
:0106E1001701
:0106E2001FF8
:0106E300070F
:0106E4000F06
:0106E50016FE
:0106E6001EF5
:0106E700060C
:0106E8000D04
:0106E90015FB
:0106EA001CF3
:0106EB00040A
:0106EC000B02
:0106ED0013F9
:0106EE001AF1
:0106EF000109
:0106F0000900
:0106F10010F8
:0106F20017F0
:0106F3001FE7
:0106F40006FF
:0106F5000DF7
:0106F60014EF
:0106F7001BE7
:0106F80002FF
:0106F90009F7
:0106FA0011EE
:0106FB0018E6
:0106FC001FDE
:0106FD0005F7
:0106FE000CEF
:0106FF0013E7
:010700001ADE
:0107010001F6
:0107020008EE
:010703000EE7
:0107040015DF
:010705001CD7
:0107060003EF
:0107070009E8
:0107080010E0
:0107090016D9
:01070A001DD1
:01070B0003EA
:01070C000AE2
:01070D0010DB
:01070E0017D3
:01070F001DCC
:0107100004E4
:010711000ADD
:0107120010D6
:0107130017CE
:010714001DC7
:0107150003E0
:0107160009D9
:010717000FD2
:0107180015CB
:010719001CC3
:01071A0002DC
:01071B0008D5
:01071C000ECE
:01071D0014C7
:01071E001AC0
:01071F0000D9
:0107200005D3
:010721000BCC
:0107220011C5
:0107230017BE
:010724001DB7
:0107250003D0
:0107260008CA
:010727000EC3
:0107280014BC
:0107290019B6
:01072A001FAF
:01072B0004C9
:01072C000AC2
:01072D000FBC
:01072E0015B5
:01072F001AAF
:0107300000C8
:0107310005C2
:010732000BBB
:0107330010B5
:0107340015AF
:010735001BA8
:0107360000C2
:0107370005BC
:010738000AB6
:010739000FB0
:01073A0015A9
:01073B001AA3
:01073C001F9D
:01073D0004B7
:01073E0009B1
:01073F000EAB
:0107400013A5
:01074100189F
:010742001D99
:0107430002B3
:0107440006AE
:010745000BA8
:0107460010A2
:01074700159C
:010748001A96
:010749001E91
:01074A0003AB
:01074B0008A5
:01074C000CA0
:01074D00119A
:01074E001595
:01074F001A8F
:010750001F89
:0107510003A4
:01075200079F
:010753000C99
:010754001094
:01075500158E
:010756001989
:010757001D84
:01075800029E
:010759000699
:01075A000A94
:01075B000E8F
:01075C001389
:01075D001784
:01075E001B7F
:01075F001F7A
:010760000395
:010761000790
:010762000B8B
:010763000F86
:010764001381
:01076500177C
:010766001B77
:010767001F72
:01076800038D
:010769000788
:01076A000A84
:01076B000E7F
:01076C00127A
:01076D001675
:01076E001971
:01076F001D6C
:010770000187
:010771000483
:01077200087E
:010773000B7A
:010774000F75
:010775001271
:01077600166C
:010777001968
:010778001D63
:01077900007F
:01077A00047A
:01077B000776
:01077C000A72
:01077D000D6E
:01077E001169
:01077F001465
:010780001761
:010781001A5D
:010782001E58
:010783000174
:010784000470
:01078500076C
:010786000A68
:010787000D64
:010788001060
:01078900135C
:01078A001658
:01078B001954
:01078C001C50
:01078D001F4C
:01078E000169
:01078F000465
:010790000761
:010791000A5D
:010792000C5A
:010793000F56
:010794001252
:01079500154E
:01079600174B
:010797001A47
:010798001C44
:010799001F40
:01079A00015D
:01079B000459
:01079C000656
:01079D000952
:01079E000B4F
:01079F000E4B
:0107A0001048
:0107A1001245
:0107A2001541
:0107A300173E
:0107A400193B
:0107A5001C37
:0107A6001E34
:0107A7000051
:0107A800024E
:0107A900044B
:0107AA000648
:0107AB000845
:0107AC000A42
:0107AD000D3E
:0107AE000F3B
:0107AF001138
:0107B0001236
:0107B1001433
:0107B2001630
:0107B300182D
:0107B4001A2A
:0107B5001C27
:0107B6001E24
:0107B7000041
:0107B800013F
:0107B900033C
:0107BA000539
:0107BB000637
:0107BC000834
:0107BD000A31
:0107BE000B2F
:0107BF000D2C
:0107C0000E2A
:0107C1001027
:0107C2001224
:0107C3001322
:0107C4001420
:0107C500161D
:0107C600171B
:0107C7001918
:0107C8001A16
:0107C9001B14
:0107CA001D11
:0107CB001E0F
:0107CC001F0D
:0107CD00012A
:0107CE000228
:0107CF000326
:0107D0000424
:0107D1000522
:0107D2000620
:0107D300071E
:0107D400081C
:0107D5000A19
:0107D6000B17
:0107D7000C15
:0107D8000D13
:0107D9000D12
:0107DA000E10
:0107DB000F0E
:0107DC00100C
:0107DD00110A
:0107DE001208
:0107DF001306
:0107E0001305
:0107E1001403
:0107E2001501
:0107E30016FF
:0107E40016FE
:0107E50017FC
:0107E60018FA
:0107E70018F9
:0107E80019F7
:0107E90019F6
:0107EA001AF4
:0107EB001AF3
:0107EC001BF1
:0107ED001BF0
:0107EE001CEE
:0107EF001CED
:0107F0001CEC
:0107F1001DEA
:0107F2001DE9
:0107F3001EE7
:0107F4001EE6
:0107F5001EE5
:0107F6001EE4
:0107F7001FE2
:0107F8001FE1
:0107F9001FE0
:0107FA001FDF
:0107FB001FDE
:0107FC001FDD
:0107FD001FDC
:0107FE001FDB
:0107FF001FDA
:00000001ff
