:020000040000FA
:020000000000FE
:0200010003FEFC
:0200020003EC0D
:02000300039B5D
:0200040002C137
:0200050000F702
:0200060001B740
:02000700005F98
:02000800002FC7
:02000900004CA9
:02000A0003BC35
:02000B00016B87
:02000C000027CB
:02000D0002A24D
:02000E0003737A
:02000F000114DA
:0200100001E409
:020011000027C6
:020012000204E6
:02001300018862
:0200140000A743
:020015000135B3
:0200160000F0F8
:02001700017A6C
:0200180000598D
:0200190002FBE8
:02001A0002B32F
:02001B0000BA29
:02001C00022EB2
:02001D000016CB
:02001E00035E7F
:02001F0000D807
:02002000013DA0
:02002100012FAD
:020022000133A8
:0200230001BA20
:020024000319BE
:02002500018C4C
:02002600013A9D
:02002700022FA6
:02002800006076
:0200290003A929
:02002A0003CF02
:02002B00008053
:02002C00015180
:02002D0001C010
:02002E0001349B
:02002F0002FCD1
:0200300002527A
:02003100025774
:020032000216B4
:02003300008249
:02003400007B4F
:0200350000C603
:020036000016B2
:020037000104C2
:020038000216AE
:0200390001BB09
:02003A00024C76
:02003B00020BB6
:02003C00032897
:02003D0003BA04
:02003E0001C4FB
:02003F00033587
:0200400001E5D8
:02004100039822
:0200420001FDBE
:0200430002AE0B
:02004400033186
:0200450000F8C1
:02004600015E59
:0200470001AC0A
:0200480003179C
:0200490002BEF5
:02004A0001AF04
:02004B0000E0D3
:02004C00013879
:02004D00038727
:02004E00008A26
:02004F0000ECC3
:0200500001436A
:02005100021398
:0200520003CDDC
:0200530002CEDB
:02005400036047
:0200550001BBED
:020056000204A2
:02005700004F58
:02005800009A0C
:0200590002D3D0
:02005A0002D7CB
:02005B00006D36
:02005C00034D52
:02005D00031B83
:02005E00036C31
:02005F0003C0DC
:02006000038714
:02006100021F7C
:0200620002D4C6
:0200630000E1BA
:02006400037126
:02006500019BFD
:02006600026630
:0200670000CACD
:0200680003ABE8
:0200690001DDB7
:02006A0002256D
:02006B0003345C
:02006C0003AFE0
:02006D0002256A
:02006E00011877
:02006F0002FA93
:02007000022B61
:0200710000FC91
:0200720001ADDE
:02007300026E1B
:02007400016029
:020075000094F5
:02007600020A7C
:0200770003B3D1
:02007800037211
:02007900031969
:02007A0000691B
:02007B0001176B
:02007C0002C6BA
:02007D00030C72
:02007E00036E0F
:02007F0001621C
:0200800002522A
:020081000394E6
:02008200027505
:02008300002E4D
:0200840001ED8C
:0200850000D0A9
:0200860001E790
:02008700023243
:0200880002A6CE
:02008900002550
:02008A000388E9
:02008B000195DD
:02008C00030867
:02008D00008DE4
:02008E0002C2AC
:02008F00023736
:020090000370FB
:0200910002E289
:0200920000F379
:0200930001FF6B
:02009400025117
:0200950002283F
:0200960001B6B1
:02009700012046
:02009800007DE9
:0200990003D68C
:02009A00032938
:02009B000266FB
:02009C00016FF2
:02009D00001B46
:02009E0002332B
:02009F000374E8
:0200A000038ECD
:0200A100022338
:0200A20002CB8F
:0200A30001104A
:0200A4000070EA
:0200A500005BFE
:0200A600003820
:0200A700035FF5
:0200A800011C39
:0200A90000B1A4
:0200AA00015201
:0200AB00022829
:0200AC00024E02
:0200AD0000D77A
:0200AE0000C68A
:0200AF00011539
:0200B00000B19D
:0200B100027CCF
:0200B200014DFE
:0200B30003ED5B
:0200B400011D2C
:0200B5000390B6
:0200B60001EF58
:0200B70002D66F
:0200B80000D86E
:0200B900027BC8
:0200BA00023B07
:0200BB000289B8
:0200BC0001C978
:0200BD000257E8
:0200BE000283BB
:0200BF000090AF
:0200C00002B983
:0200C100032E0C
:0200C20000122A
:0200C300037FB9
:0200C4000386B1
:0200C500022A0D
:0200C6000165D2
:0200C70003290B
:0200C8000159DC
:0200C90001D262
:0200CA000263CF
:0200CB0000D45F
:0200CC0002E14F
:0200CD00023CF3
:0200CE00008DA3
:0200CF000372BA
:0200D0000081AD
:0200D1000141EB
:0200D2000335F4
:0200D30003D256
:0200D4000086A4
:0200D50002B275
:0200D60003B174
:0200D70000D255
:0200D800035AC9
:0200D90000879E
:0200DA00018A99
:0200DB00038E92
:0200DC0003B36C
:0200DD00030E10
:0200DE0002AE70
:0200DF00039686
:0200E00002C25A
:0200E1000122FA
:0200E200039E7B
:0200E300031800
:0200E4000063B7
:0200E500004ECB
:0200E600039E77
:0200E700030C08
:0200E800034CC7
:0200E90001070D
:0200EA0000DD37
:0200EB000368A8
:0200EC000135DC
:0200ED0002CC43
:0200EE0000AA66
:0200EF000345C7
:0200F000030902
:0200F100005BB2
:0200F200039673
:0200F300010DFD
:0200F400010DFC
:0200F50003D630
:0200F60001A364
:0200F70002A75E
:0200F800030AF9
:0200F90002EE15
:0200FA00026D95
:0200FB0001986A
:0200FC0000788A
:0200FD00030DF1
:0200FE000152AD
:0200FF000336C6
:0201000000A35A
:02010100017B80
:02010200019664
:0201030000C634
:0201040002D621
:0201050003866F
:02010600029164
:0201070003A94A
:02010800027A79
:0201090002A74B
:02010A0003CC24
:02010B00017C75
:02010C000345A9
:02010D0000AC44
:02010E00012EC0
:02010F000042AC
:02011000015795
:0201110003D415
:02011200031ACE
:02011300028266
:02011400015F89
:0201150002F9ED
:0201160002964F
:02011700037271
:0201180000C124
:0201190001B231
:02011A00016C76
:02011B000310CF
:02011C0001B729
:02011D0000726E
:02011E00024D90
:02011F00024D8F
:0201200003706A
:0201210000AB31
:0201220000F0EB
:020123000328AF
:020124000234A3
:0201250000F2E6
:020126000235A0
:0201270000CE08
:0201280003834F
:020129000117BC
:02012A0000448F
:02012B0003BE11
:02012C0002349B
:02012D00024D81
:02012E0002AA23
:02012F0001E5E8
:02013000029437
:02013100034386
:02013200027B4E
:0201330002BC0C
:02013400028344
:02013500004385
:02013600026D58
:0201370003675C
:0201380001952F
:0201390003526F
:02013A0002F6CB
:02013B0002D0F0
:02013C00012A96
:02013D00004977
:02013E00026A53
:02013F0001C6F7
:02014000008F2E
:0201410000F2CA
:020142000115A5
:0201430003189F
:020144000117A1
:02014500012691
:02014600015660
:0201470003AF04
:0201480002357E
:0201490002E7CB
:02014A0003BCF4
:02014B0002A907
:02014C00019917
:02014D00027638
:02014E0003208C
:02014F00017538
:02015000034B5F
:02015100027436
:0201520000BCEF
:0201530003EABD
:0201540001BFE9
:0201550003F7AE
:02015600004760
:02015700006343
:0201580001F4B0
:0201590002A200
:02015A00000E95
:02015B0003D4CB
:02015C00038B13
:02015D0000C3DD
:02015E00010A94
:02015F0001E6B7
:0201600000DAC3
:02016100036336
:0201620002F8A1
:02016300010B8E
:02016400030C8A
:02016500026234
:02016600007126
:020167000298FC
:02016800023063
:02016900008F05
:02016A0003038D
:02016B0002D9B7
:02016C0001553B
:02016D0003BAD3
:02016E00034448
:02016F00012964
:02017000029DEE
:0201710000CFBD
:0201720000E6A5
:02017300000882
:02017400035432
:0201750003E69F
:0201760002D3B2
:02017700012F56
:02017800000481
:02017900005D27
:02017A00033E42
:02017B0001A4DD
:02017C00008CF5
:02017D0000EC94
:02017E0003B5C7
:02017F0001D4A9
:0201800000324B
:0201810003B4C5
:02018200013A40
:02018300019EDB
:0201840001B8C0
:02018500025B1B
:02018600005522
:02018700007006
:02018800037101
:02018900021959
:02018A0001274B
:02018B0001521F
:02018C00034F1F
:02018D0003CE9F
:02018E00037CF0
:02018F0003006B
:0201900002FD6E
:02019100001458
:0201920002E089
:0201930003F770
:0201940003EE78
:02019500035213
:0201960002AFB6
:02019700028CD8
:02019800036CF6
:0201990001CD96
:02019A00022A37
:02019B0000FA68
:02019C0002AFB0
:02019D0003B9A4
:02019E000083DC
:02019F000173EA
:0201A00002EC6F
:0201A100014F0C
:0201A20000F566
:0201A300023622
:0201A4000166F2
:0201A50002D581
:0201A60002CF86
:0201A700019BBA
:0201A800037ED4
:0201A90000B99B
:0201AA000188CA
:0201AB0002252B
:0201AC0002C58A
:0201AD00039AB3
:0201AE0000D17E
:0201AF000294B8
:0201B000010C40
:0201B1000059F3
:0201B200009DAE
:0201B30001F257
:0201B4000071D8
:0201B500002E1A
:0201B600013A0C
:0201B70003A3A0
:0201B8000372D0
:0201B90000AE96
:0201BA00035AE6
:0201BB000376C9
:0201BC0000FC45
:0201BD0003E558
:0201BE00002718
:0201BF0001B28B
:0201C0000076C7
:0201C100005BE1
:0201C200014BEF
:0201C30003280F
:0201C40001D365
:0201C500012A0D
:0201C600010630
:0201C700013DF8
:0201C80001A292
:0201C90002062C
:0201CA000236FB
:0201CB0001F938
:0201CC00011719
:0201CD000351DC
:0201CE000069C6
:0201CF00001915
:0201D000021B10
:0201D100022505
:0201D20003E93F
:0201D300031710
:0201D400035CCA
:0201D5000060C8
:0201D60001CA5C
:0201D700033CE7
:0201D8000057CE
:0201D90000B76D
:0201DA0003F62A
:0201DB0001AA77
:0201DC000167B9
:0201DD0002BD61
:0201DE00013AE4
:0201DF000069B5
:0201E00003D04A
:0201E10002F426
:0201E2000156C4
:0201E3000276A2
:0201E40001CD4B
:0201E50002D640
:0201E600010511
:0201E70003CD46
:0201E800029D76
:0201E90000E430
:0201EA00020A07
:0201EB0001769B
:0201EC00028E81
:0201ED0000B15F
:0201EE00033FCD
:0201EF0001937A
:0201F000030604
:0201F10002EE1C
:0201F200009E6D
:0201F3000366A1
:0201F400029572
:0201F500017493
:0201F600034DB7
:0201F7000363A0
:0201F80000FB0A
:0201F9000353AE
:0201FA0001AA58
:0201FB000338C7
:0201FC000337C7
:0201FD0000DA26
:0201FE000355A7
:0201FF0001D726
:02020000038E6B
:0202010003A355
:02020200013EBB
:02020300038571
:02020400019A5D
:02020500029D58
:0202060001AB4A
:0202070001DF15
:020208000252A0
:020209000218D9
:02020A000045AD
:02020B0003EA04
:02020C000015DB
:02020D0003D01C
:02020E000225C7
:02020F00021BD0
:0202100002B436
:0202110002F4F5
:0202120001D811
:02021300025E89
:02021400037F66
:020215000033B4
:02021600036F74
:020217000026BF
:0202180001499A
:0202190001C41E
:02021A0000855D
:02021B0000736E
:02021C0000766A
:02021D0003726A
:02021E00004A94
:02021F0001DC00
:020220000306D3
:0202210002A336
:02022200038C4B
:02022300009841
:0202240000993F
:02022500026273
:0202260000C313
:0202270002884B
:02022800027D55
:02022900036967
:02022A000014BE
:02022B0003428C
:02022C0003B419
:02022D00002AA5
:02022E0003616A
:02022F000015B8
:0202300000FFCD
:0202310000D5F6
:02023200024C7C
:020233000017B2
:0202340000E5E3
:0202350003655F
:02023600024480
:0202370000299C
:0202380003BE03
:0202390003A818
:02023A00028A36
:02023B000305B9
:02023C0003B904
:02023D0003427A
:02023E00003C82
:02023F00013F7D
:0202400000E3D9
:0202410001BCFE
:02024200025D5B
:02024300015563
:02024400013582
:0202450000892E
:0202460001DADB
:0202470003B101
:0202480000961E
:02024900030CA4
:02024A0001961B
:02024B0002B4FB
:02024C0000E5CB
:02024D0002A508
:02024E00026F3D
:02024F0002BCEF
:020250000201A9
:0202510002B4F5
:0202520003485F
:02025300022C7B
:0202540001D1D6
:0202550000A205
:02025600010C99
:0202570001772D
:02025800004A5A
:0202590003EAB6
:02025A0002BCE4
:02025B0003217D
:02025C00037726
:02025D00021E7F
:02025E0001712C
:02025F0003CAD0
:02026000038217
:0202610002EFAA
:02026200006535
:02026300023760
:0202640002B7DF
:02026500003364
:0202660000F99D
:0202670003553D
:02026800018F04
:0202690001F1A1
:02026A0002BFD1
:02026B0002404F
:02026C0002B5D9
:02026D00025F2E
:02026E00037D0E
:02026F00004D40
:02027000030B7E
:0202710001F09A
:02027200033552
:02027300011078
:0202740001B6D1
:02027500035A2A
:02027600002D59
:02027700025F24
:02027800001E66
:020279000396EA
:02027A0002F28E
:02027B00005B26
:02027C0001F887
:02027D0001EF8F
:02027E00026319
:02027F00017804
:02028000014D2E
:02028100000279
:0202820003B4C3
:02028300027FF8
:02028400027DF9
:0202850001C7AF
:02028600027301
:020287000298DB
:0202880000482C
:020289000197DB
:02028A000094DE
:02028B00034E20
:02028C0003D39A
:02028D0000303F
:02028E00026DFF
:02028F000095D8
:0202900000AEBE
:0202910000BDAE
:0202920002C8A0
:0202930000D099
:0202940000D692
:0202950000DB8C
:0202960002DC88
:0202970000D68F
:0202980000C4A0
:02029900009FC4
:02029A00025F01
:02029B0003FB63
:02029C000368F5
:02029D000299C4
:02029E000381DA
:02029F0000104D
:0202A000023525
:0202A10003DE7A
:0202A20002F860
:0202A300016CEC
:0202A400012532
:0202A500000B4C
:0202A600000353
:0202A70002F261
:0202A80002BE94
:0202A90001470B
:0202AA00006EE4
:0202AB0002143B
:0202AC0000153B
:0202AD00004F00
:0202AE00009CB2
:0202AF0002D774
:0202B00000D874
:0202B1000076D5
:0202B2000386C1
:0202B30003DE68
:0202B400034FF6
:0202B50003AC98
:0202B60002C480
:0202B7000267DC
:0202B8000063E1
:0202B9000282BF
:0202BA000291AF
:0202BB000258E7
:0202BC0003A09D
:0202BD0000310E
:0202BE0001CE6F
:0202BF00023DFE
:0202C0000340F9
:0202C100029A9F
:0202C200020A2E
:0202C3000350E6
:0202C40000290F
:0202C5000252E3
:0202C6000386AD
:0202C700017EB6
:0202C80001F43F
:0202C900029F92
:0202CA000135FC
:0202CB00036BC3
:0202CC0002F43A
:0202CD000183AB
:0202CE0000C866
:0202CF000275B6
:0202D0000036F6
:0202D10003BB6D
:0202D20002AE7A
:0202D30002BB6C
:0202D400018B9C
:0202D50000C85F
:0202D60002170D
:0202D700032002
:0202D80001879C
:0202D90002F031
:0202DA0000FD25
:0202DB00014FD1
:0202DC00018897
:0202DD000344D8
:0202DE000024FA
:0202DF0001C15B
:0202E00001BA61
:0202E10001A674
:0202E2000320F7
:0202E30003BF57
:0202E400011BFC
:0202E50000C84F
:0202E600005BBB
:0202E7000167AD
:0202E800017F94
:0202E9000234DD
:0202EA000115FC
:0202EB0003B15D
:0202EC00039578
:0202ED00024FBE
:0202EE00016AA3
:0202EF0002709B
:0202F00002E921
:0202F100005FAC
:0202F2000058B2
:0202F300005AAF
:0202F40001EA1D
:0202F500028B7A
:0202F60003C043
:0202F700030AF8
:0202F80001EA19
:0202F90001E022
:0202FA00006999
:0202FB000302FC
:0202FC000329D4
:0202FD000257A6
:0202FE000207F5
:0202FF0003B347
:0203000000D02B
:0203010002D820
:02030200033FB7
:02030300037A7B
:0203040000FDFA
:02030500013BBA
:0203060001A54F
:0203070003AC45
:0203080000C033
:02030900024FA1
:02030A0001C729
:02030B0000945C
:02030C000021CE
:02030D0001DB12
:02030E000329C1
:02030F00017576
:020310000226C3
:0203110002A345
:02031200005198
:02031300009454
:0203140000D116
:02031500026A7A
:0203160002C122
:020317000336AB
:02031800012AB8
:0203190001F9E8
:02031A000304DA
:02031B0001A639
:02031C00033AA2
:02031D00011DC0
:02031E0000A835
:02031F000334A5
:020320000219C0
:0203210002AE2A
:02032200024A8D
:02032300024096
:0203240003E7ED
:02032500009145
:02032600019044
:0203270000379D
:0203280001D5FD
:0203290003BB14
:02032A00033797
:02032B00019738
:02032C000027A8
:02032D00003599
:02032E00030BBF
:02032F0001F3D8
:02033000023792
:02033100011EAB
:0203320003F2D4
:0203330003F8CD
:02033400027550
:0203350000B016
:0203360003ECD6
:02033700016C57
:0203380002724F
:02033900004082
:02033A000016AB
:02033B00033489
:02033C0002D9E4
:02033D0000427C
:02033E0000AD10
:02033F00015665
:02034000037840
:02034100004E6C
:020342000112A6
:0203430002FCBA
:02034400034470
:02034500032291
:0203460003CBE7
:0203470002763C
:0203480000575C
:0203490002A10F
:02034A00028827
:02034B00013E71
:02034C0003F4B8
:02034D0003DBD0
:02034E00022388
:02034F0003FAAF
:02035000028F1A
:02035100030E99
:0203520002A502
:02035300027F27
:0203540003C7DD
:0203550003A7FC
:0203560003485A
:0203570003D3CE
:02035800027031
:0203590000465C
:02035A00027A25
:02035B0002326C
:02035C0000930C
:02035D0002C1DB
:02035E0001DEBE
:02035F00030D8C
:02036000036F29
:02036100002674
:02036200025047
:02036300030E87
:02036400037E16
:0203650000BDD9
:0203660003E9A9
:02036700021D75
:0203680000751E
:02036900000D85
:02036A0001FD93
:02036B00035F2E
:02036C00014B43
:02036D0000DAB4
:02036E00032268
:02036F00013952
:02037000003655
:02037100012C5D
:02037200013058
:02037300015532
:0203740002AFD6
:02037500024E36
:02037600014440
:0203770000A2E2
:0203780001770B
:0203790000D3AF
:02037A0003C3BB
:02037B00035627
:02037C000098E7
:02037D000096E8
:02037E00005B22
:02037F0000F28A
:02038000036513
:0203810000BEBC
:02038200020572
:02038300004236
:02038400007EF9
:0203850003BEB5
:02038600030969
:0203870003640D
:0203880001D49E
:02038900035C13
:02038A0001016F
:02038B0003C4A9
:02038C0000A8C7
:02038D0000AEC0
:02038E0000D697
:02038F00022248
:02039000018FDB
:02039100001D4D
:0203920002C99E
:020393000292D4
:020394000073F4
:020395000169FC
:020396000270F3
:020397000081E3
:020398000098CB
:0203990003ADB2
:02039A0002BAA5
:02039B0002B6A8
:02039C000099C6
:02039D00015B02
:02039E0001F16B
:02039F00035108
:0203A0000270E9
:0203A100004218
:0203A20001BC9C
:0203A30003D184
:0203A4000372E2
:0203A5000192C3
:0203A600032230
:0203A700011340
:0203A8000056FD
:0203A90001D879
:0203AA00028AC5
:0203AB000359F4
:0203AC0001331B
:0203AD00010647
:0203AE0003BD8D
:0203AF00024406
:0203B0000187C3
:0203B1000270D8
:0203B20001E95F
:0203B30000DC6C
:0203B400003215
:0203B50000D274
:0203B60003A59D
:0203B7000191B2
:0203B800037EC2
:0203B9000250F0
:0203BA0002EE51
:0203BB00023C02
:0203BC00011E20
:0203BD000077C7
:0203BE00012C10
:0203BF00001E1E
:0203C000022F0A
:0203C1000040FA
:0203C200033303
:0203C30003E84D
:0203C400033DF7
:0203C500021222
:0203C6000146EE
:0203C70001B77C
:0203C8000041F2
:0203C90001C36E
:0203CA00031717
:0203CB00011A15
:0203CC0000A788
:0203CD00029894
:0203CE0003C862
:0203CF0001101B
:0203D000034ADE
:0203D100034CDB
:0203D20001F137
:0203D300000E1A
:0203D400027BAA
:0203D500020D17
:0203D600039C86
:0203D70003FB26
:0203D800000023
:0203D900007FA3
:0203DA00024BD4
:0203DB000238E6
:0203DC00011806
:0203DD0003BD5E
:0203DE0002F922
:0203DF00039D7C
:0203E0000278A1
:0203E100005CBE
:0203E2000218FF
:0203E300007B9D
:0203E4000052C5
:0203E500026DA7
:0203E60003987A
:0203E70000A173
:0203E8000253BE
:0203E900017B96
:0203EA0002E42B
:0203EB00035AB3
:0203EC0003A567
:0203ED0000927C
:0203EE0002E724
:0203EF00037099
:0203F00002F316
:0203F100023ACE
:0203F200020BFC
:0203F300032DD8
:0203F40002689D
:0203F500008086
:0203F600023BC8
:0203F700005FA5
:0203F80003AF51
:0203F90000F012
:0203FA0000E61B
:0203FB000053AD
:0203FC0003FA02
:0203FD00009E60
:0203FE0002FFFC
:0203FF0003DF1A
:00000001ff
