:020000040000FA
:020000000012EC
:020001000043BA
:0200020000E616
:02000300017981
:02000400026C8C
:0200050000F504
:02000600005E9A
:02000700017383
:020008000036C0
:02000900005F96
:02000A00027B77
:02000B0002F001
:02000C00021FD1
:02000D000020D1
:02000E0000C030
:02000F0000BF30
:0200100003915A
:0200110002B536
:0200120000B438
:02001300035494
:0200140001FFEA
:020015000147A1
:02001600008C5C
:020017000121C5
:020018000227BD
:0200190001558F
:02001A0000F6EE
:02001B0002AE33
:02001C0001F1F0
:02001D000308D6
:02001E0002BA24
:02001F00009946
:0200200000EDF1
:020021000000DD
:02002200024892
:0200230003AA2E
:02002400000DCD
:0200250003AC2A
:0200260003A82D
:02002700031ABA
:0200280002A232
:02002900029340
:02002A00028C46
:02002B00036B65
:02002C0000AC26
:02002D0003547A
:02002E0002D5F9
:02002F00037B51
:0200300001A528
:02003100015F6D
:02003200037059
:0200330002FACF
:0200340000BD0D
:02003500006069
:020036000308BD
:020037000008BF
:0200380003D3F0
:02003900025A69
:02003A00006B59
:02003B0001378B
:02003C0001C5FC
:02003D0001F3CD
:02003E0001A41B
:02003F0001A816
:0200400001912C
:02004100012F8D
:02004200017B40
:02004300026950
:0200440003CFE8
:0200450001EFC9
:02004600013E79
:0200470001F4C2
:02004800032F84
:02004900025162
:02004A0002C9E9
:02004B0000F1C2
:02004C0000F8BA
:02004D0003436B
:02004E00034C61
:02004F00014866
:0200500002802C
:02005100014666
:0200520003A603
:0200530003D6D2
:0200540003FAAD
:02005500024166
:02005600005B4D
:0200570001C9DD
:02005800028420
:02005900033171
:02005A00031091
:02005B00032F71
:02005C0003158A
:02005D0003326C
:02005E0003CAD3
:02005F0000811E
:02006000018D10
:02006100037723
:02006200023169
:0200630001C5D5
:02006400027B1D
:02006500001584
:0200660002FF97
:02006700036133
:02006800014055
:02006900005045
:02006A0001F3A0
:02006B0000E1B2
:02006C0001B0E1
:02006D0000FD94
:02006E00021A74
:02006F0001BFCF
:0200700003A0EB
:0200710003EE9C
:02007200037B0E
:02007300014347
:02007400022E5A
:0200750001D1B7
:0200760000EE9A
:0200770002DBAA
:02007800007313
:02007900014B39
:02007A0001C0C3
:02007B0001B3CF
:02007C0001AFD2
:02007D00016F11
:02007E0001027D
:02007F0000CFB0
:02008000007806
:0200810000EA93
:0200820000FD7F
:02008300021564
:02008400039DDA
:0200850001E296
:0200860000AFC9
:0200870000D5A2
:0200880001BABB
:0200890003551D
:02008A0002A7CB
:02008B0003046C
:02008C0000581A
:02008D0003F47A
:02008E00003D33
:02008F0002EC81
:0200900002BDAF
:0200910000CBA2
:0200920000B4B8
:0200930002E782
:0200940002C2A6
:02009500010266
:02009600018FD8
:02009700004F18
:0200980001CB9A
:0200990001A4C0
:02009A00004C18
:02009B0001B9A9
:02009C0001B9A8
:02009D0000DC85
:02009E0002C49A
:02009F0003E379
:0200A000006BF3
:0200A10000233A
:0200A20002FB5F
:0200A3000164F6
:0200A400031146
:0200A50000C198
:0200A60001DC7B
:0200A700031D37
:0200A80003B0A3
:0200A900008DC8
:0200AA0001163D
:0200AB0001AFA3
:0200AC0002D27E
:0200AD00001E33
:0200AE0001D57A
:0200AF000385C7
:0200B00001DA73
:0200B1000089C4
:0200B200004DFF
:0200B30000BD8E
:0200B40001B198
:0200B50003B294
:0200B600025FE7
:0200B7000263E2
:0200B8000349FA
:0200B9000192B2
:0200BA0000DA6A
:0200BB000182C0
:0200BC00037EC1
:0200BD0002D26D
:0200BE0003DE5F
:0200BF0002A39A
:0200C000031328
:0200C100010C30
:0200C200008EAE
:0200C3000293A6
:0200C400021028
:0200C50003E056
:0200C60003A293
:0200C700011620
:0200C800012F06
:0200C90003DC56
:0200CA000070C4
:0200CB00037FB1
:0200CC000186AB
:0200CD000177B9
:0200CE000065CB
:0200CF0001EF3F
:0200D000022A02
:0200D100010329
:0200D2000345E4
:0200D300000A21
:0200D400039493
:0200D50002F730
:0200D60000F434
:0200D700020B1A
:0200D80002B96B
:0200D900029093
:0200DA000176AD
:0200DB00002AF9
:0200DC000234EC
:0200DD0000021F
:0200DE000159C6
:0200DF000273AA
:0200E000032EED
:0200E100036CAE
:0200E20003DB3E
:0200E3000076A5
:0200E400006CAE
:0200E50000B960
:0200E600014BCC
:0200E700019F77
:0200E8000247CD
:0200E900036AA8
:0200EA000071A3
:0200EB00021DF4
:0200EC00003FD3
:0200ED0002EA25
:0200EE0001BA55
:0200EF000140CE
:0200F000017499
:0200F10002917A
:0200F200008785
:0200F30002E722
:0200F4000229DF
:0200F50002699E
:0200F600038F76
:0200F70001EF17
:0200F8000137CE
:0200F90001956F
:0200FA000349B8
:0200FB00021CE5
:0200FC0001E31E
:0200FD0003629C
:0200FE0001B04F
:0200FF0001CF2F
:0201000003A753
:0201010002DE1C
:02010200035F99
:0201030001E118
:0201040001EC0C
:02010500035F96
:0201060002E510
:020107000021D5
:02010800033CB6
:0201090003DF12
:02010A000304EC
:02010B0003DB14
:02010C0002DF10
:02010D0003D617
:02010E0002E20B
:02010F00003EB0
:0201100003AD3D
:0201110001DA11
:0201120001D911
:02011300006B7F
:02011400014D9B
:02011500009B4D
:02011600028A5B
:0201170002C024
:0201180001A143
:02011900039051
:02011A00039A46
:02011B00027D63
:02011C00003EA3
:02011D00009F41
:02011E000024BB
:02011F000205D7
:02012000034E8C
:020121000339A0
:0201220002A237
:02012300007A60
:02012400018F49
:020125000231A5
:02012600013F97
:02012700003D99
:02012800020BC8
:02012900033C95
:02012A0003AE22
:02012B00039738
:02012C0002FED1
:02012D00018847
:02012E0003A923
:02012F0001A528
:0201300002F0DB
:02013100037257
:0201320003F4D4
:02013300003496
:0201340003FCCA
:02013500037D48
:02013600031FA5
:0201370002695B
:02013800018C38
:02013900004183
:02013A00037D43
:02013B0001C8F9
:02013C0000B30E
:02013D0003BB02
:02013E0002A21B
:02013F00016756
:0201400000DEDF
:02014100001CA0
:0201420003C5F3
:02014300035A5D
:02014400039D19
:02014500003C7C
:02014600008D2A
:0201470001F8BD
:02014800035F53
:0201490001793A
:02014A000003B0
:02014B000306A9
:02014C0002535C
:02014D0002AC02
:02014E00033B71
:02014F0000C4EA
:0201500002C0EB
:02015100018A21
:0201520000E6C5
:02015300011594
:02015400026740
:02015500007236
:02015600031E86
:0201570002C2E2
:02015800038022
:0201590001178C
:02015A00001093
:02015B0003732C
:02015C0000435E
:02015D0001FAA5
:02015E00009E01
:02015F0000C4DA
:02016000020596
:0201610000207C
:0201620003EAAE
:0201630000DFBB
:02016400034056
:02016500029204
:02016600036B29
:0201670002058F
:0201680001D1C3
:02016900025D35
:02016A00013062
:02016B00012A67
:02016C0002CFC0
:02016D00021579
:02016E0002C5C8
:02016F0001226B
:0201700000EBA2
:0201710002C6C4
:0201720001C7C3
:02017300031572
:0201740001EE9A
:02017500021670
:0201760000691E
:0201770000F690
:0201780002D8AB
:0201790002ADD5
:02017A0000542F
:02017B00002B57
:02017C00022857
:02017D00018EF1
:02017E00032656
:02017F0002B3C9
:0201800000AAD3
:02018100005A22
:02018200023445
:02018300025820
:020184000096E3
:0201850000EA8E
:02018600038AEA
:02018700004C2A
:02018800034131
:02018900010B68
:02018A000097DC
:02018B00027EF2
:02018C00029FD0
:02018D0001A8C7
:02018E00029CD1
:02018F0001F875
:0201900003F773
:0201910000A4C8
:02019200034D1B
:02019300010366
:02019400011256
:0201950003570E
:0201960000ADBA
:020197000089DD
:0201980002EA79
:0201990003C49D
:02019A00036FF1
:02019B0002035D
:02019C00033529
:02019D0003332A
:02019E00015FFF
:02019F00034615
:0201A000033822
:0201A100023228
:0201A20003FD5B
:0201A300010554
:0201A40000C792
:0201A50002CB8B
:0201A60000A2B5
:0201A70001094C
:0201A80000AAAB
:0201A90002F959
:0201AA00003320
:0201AB00010F42
:0201AC000077DA
:0201AD00031F2E
:0201AE000070DF
:0201AF0001410C
:0201B0000194B8
:0201B1000096B6
:0201B20002CF7A
:0201B300009BAF
:0201B4000182C6
:0201B500013A0D
:0201B6000064E3
:0201B70002FC48
:0201B80000CE77
:0201B90001CC77
:0201BA00022C15
:0201BB0001F34E
:0201BC00017FC1
:0201BD0003B687
:0201BE0001DC62
:0201BF00034DEE
:0201C00003E555
:0201C100009BA1
:0201C2000097A4
:0201C300035DDA
:0201C400029B9C
:0201C50000B286
:0201C60002BC79
:0201C700003204
:0201C8000171C3
:0201C9000277BB
:0201CA000238F9
:0201CB000255DB
:0201CC000255DA
:0201CD0001B57A
:0201CE0000C06F
:0201CF000372B9
:0201D00001DD4F
:0201D1000053D9
:0201D20001DE4C
:0201D30003AB7C
:0201D400019890
:0201D50002ED39
:0201D6000060C7
:0201D700014BDA
:0201D8000283A0
:0201D9000363BE
:0201DA0003AA76
:0201DB0000958D
:0201DC00010B15
:0201DD00021707
:0201DE000229F4
:0201DF0002EA32
:0201E000035EBC
:0201E100000814
:0201E20000A17A
:0201E300011207
:0201E40001D840
:0201E500028E88
:0201E600038193
:0201E700008E88
:0201E800015FB5
:0201E90002D939
:0201EA00005FB4
:0201EB0001828F
:0201EC00035EB0
:0201ED000140CF
:0201EE000369A3
:0201EF00021BF1
:0201F00000B558
:0201F10003AA5F
:0201F20002B257
:0201F300020800
:0201F40001AB5D
:0201F5000209FD
:0201F60002A75E
:0201F7000355AE
:0201F80000768F
:0201F90001D72C
:0201FA0003E917
:0201FB0001D130
:0201FC000115EB
:0201FD0003CF2E
:0201FE000347B5
:0201FF0003E11A
:0202000003F306
:020201000146B4
:02020200029761
:02020300007980
:02020400035C99
:02020500026A8B
:020206000220D4
:0202070002648F
:02020800030BE6
:0202090000CF24
:02020A0002549C
:02020B000132BE
:02020C0000836D
:02020D0000BA35
:02020E000118D5
:02020F00025794
:020210000023C9
:02021100034A9E
:02021200026088
:020213000240A7
:020214000326BF
:0202150000DF08
:020216000310D3
:02021700027271
:0202180002489A
:0202190002EFF2
:02021A0000944E
:02021B0002CD12
:02021C00024896
:02021D00020BD2
:02021E000316C5
:02021F0000AA33
:02022000035485
:0202210002C613
:020222000334A3
:0202230000AE2B
:020224000311C4
:0202250002666F
:02022600028E46
:0202270003E5ED
:0202280001B51E
:0202290001577B
:02022A000124AD
:02022B00027B54
:02022C0000CF01
:02022D0003F5D7
:02022E0000349A
:02022F00016A62
:0202300003EBDE
:0202310003A622
:0202320003FACD
:02023300018E3A
:02023400004385
:02023500007E49
:02023600017B4A
:02023700033F83
:0202380002F5CD
:02023900039F21
:02023A0000DEE4
:02023B0003DDE1
:02023C00004080
:02023D0001724C
:02023E0003F6C5
:02023F0003BEFC
:0202400000A814
:0202410002D0E9
:02024200024F69
:0202430003575F
:0202440000F1C7
:0202450000A512
:02024600014273
:020247000303AF
:02024800027F33
:02024900032E82
:02024A0001169B
:02024B0000644D
:02024C000101AE
:02024D0002C0ED
:02024E00025458
:02024F00032684
:02025000014368
:02025100014565
:0202520001FBAE
:02025300004267
:02025400003E6A
:0202550001ADF9
:02025600005E48
:0202570000C4E1
:0202580002960C
:0202590001D1D1
:02025A0002722E
:02025B0000EFB2
:02025C0000EBB5
:02025D0001BBE3
:02025E0000E4BA
:02025F0001019B
:02026000035148
:02026100026633
:02026200037522
:02026300024255
:02026400025046
:02026500004651
:020266000398FB
:02026700009401
:0202680003444D
:0202690003622E
:02026A00014D44
:02026B0000A5EC
:02026C00022C62
:02026D0000E2AD
:02026E00017B12
:02026F0003FB8F
:02027000036C1D
:02027100013C4E
:0202720000A0EA
:020273000195F3
:0202740000A9DF
:0202750000A3E4
:02027600034C37
:0202770003156D
:0202780001176C
:02027900000E75
:02027A00016021
:02027B00007110
:02027C00019AE5
:02027D00002758
:02027E00003945
:02027F0002EE8D
:0202800002C4B6
:020281000087F4
:0202820000700A
:0202830001EA8E
:02028400016611
:0202850002A0D5
:0202860001B1C4
:0202870002E291
:0202880001B8BB
:020289000272FF
:02028A0001056C
:02028B0001D898
:02028C0000224E
:02028D0000ADC2
:02028E0002C4A8
:02028F00033A30
:020290000195D6
:02029100016802
:0202920003A2C5
:0202930003C3A3
:02029400021353
:02029500023B2A
:0202960003D98A
:0202970003EF73
:0202980001D291
:02029900021B46
:02029A0003E778
:02029B000070F1
:02029C000266F8
:02029D00025A03
:02029E00007BE3
:02029F0000FD60
:0202A00002E278
:0202A1000364F4
:0202A20001A9B0
:0202A300027ADD
:0202A40000D484
:0202A5000177DF
:0202A60003F360
:0202A70001262E
:0202A800000450
:0202A900011C36
:0202AA00003220
:0202AB00017ED2
:0202AC0001222D
:0202AD00029AB3
:0202AE00024309
:0202AF0003FE4C
:0202B000002626
:0202B100026EDB
:0202B20002C484
:0202B3000184C4
:0202B400026ED8
:0202B500014EF8
:0202B6000255EF
:0202B70001F153
:0202B80003A79A
:0202B90003261A
:0202BA000156EB
:0202BB000188B8
:0202BC00000739
:0202BD0000F946
:0202BE00038AB1
:0202BF0000EF4E
:0202C00000C27A
:0202C100023BFE
:0202C2000267D1
:0202C30000F544
:0202C400013106
:0202C5000066D1
:0202C6000156DF
:0202C70000FC39
:0202C80002E54D
:0202C90002A889
:0202CA000156DB
:0202CB000231FE
:0202CC00017CB3
:0202CD0002B875
:0202CE00027FAD
:0202CF000085A8
:0202D000010922
:0202D10003E345
:0202D2000134F5
:0202D300010D1B
:0202D40002B76F
:0202D500030D17
:0202D6000241E3
:0202D70002F52E
:0202D80002D151
:0202D90000E53E
:0202DA0000E240
:0202DB0003BC62
:0202DC0000F42C
:0202DD00008E91
:0202DE0002B765
:0202DF00037C9E
:0202E0000220FA
:0202E100037B9D
:0202E2000343D4
:0202E30001F127
:0202E4000233E3
:0202E50001EF27
:0202E6000328EB
:0202E700038290
:0202E8000241D1
:0202E90003B060
:0202EA000323EC
:0202EB000164AC
:0202EC0001FF10
:0202ED0000E926
:0202EE000326E5
:0202EF000319F1
:0202F000021FEB
:0202F10002F217
:0202F20002C543
:0202F3000151B7
:0202F400025EA8
:0202F50001AC5A
:0202F60003758E
:0202F700004BBA
:0202F800036F92
:0202F900011AE8
:0202FA00012CD5
:0202FB000009F8
:0202FC000140BF
:0202FD00016C92
:0202FE000013EB
:0202FF00012AD2
:02030000011DDD
:0203010003AC4B
:02030200009267
:02030300004CAC
:02030400029C59
:0203050003559E
:0203060002F6FD
:02030700010EE5
:0203080001F3FF
:020309000100F1
:02030A000347A7
:02030B00005A96
:02030C0003905C
:02030D00017875
:02030E00024C9F
:02030F0001B536
:0203100003FFE9
:02031100007179
:0203120003CD19
:02031300026482
:02031400030ED6
:02031500028262
:0203160000C520
:0203170001746F
:020318000123BF
:0203190003CD12
:02031A0000776A
:02031B0000A63A
:02031C0002F4E9
:02031D00003AA4
:02031E0000518C
:02031F0002C218
:02032000006F6C
:02032100005981
:0203220003BD19
:020323000122B5
:0203240001A432
:020325000100D5
:020326000316BC
:0203270003B71A
:0203280003A729
:0203290001AD24
:02032A0002B01F
:02032B0002C30B
:02032C0001BB13
:02032D0003408B
:02032E00036466
:02032F00026C5E
:02033000006F5C
:0203310000DAF0
:02033200008445
:02033300030ABB
:02033400004681
:02033500004F77
:0203360002EBD8
:02033700008E36
:02033800014C76
:0203390000932F
:02033A0002902F
:02033B0003BB02
:02033C0003EDCF
:02033D00024478
:02033E00000AB3
:02033F0000B408
:020340000004B7
:02034100022692
:02034200036353
:02034300039025
:0203440002288D
:0203450003BBF8
:02034600009D18
:02034700004B69
:02034800025A57
:0203490003DED1
:02034A0003FDB1
:02034B0003129B
:02034C0001624C
:02034D00023379
:02034E00026249
:02034F0001109B
:0203500002ADFC
:02035100037E29
:0203520003079F
:0203530001B8EF
:0203540002FCA9
:02035500038C17
:0203560002D0D3
:0203570000FBA9
:02035800026F32
:0203590002BEE2
:02035A0001B2EE
:02035B0003AEEF
:02035C0000CFD0
:02035D00011E7F
:02035E0003F4A6
:02035F00021585
:0203600002DABF
:02036100030790
:02036200023C5B
:0203630003FF96
:02036400010E88
:0203650000DFB7
:0203660003830F
:02036700018211
:02036800029CF5
:02036900027E12
:02036A00018E02
:02036B00037914
:02036C00009EF1
:02036D00004C42
:02036E00035238
:02036F0001503B
:02037000028EFB
:0203710002CBBD
:02037200022463
:02037300001D6B
:02037400013254
:0203750001AADB
:0203760000FA8B
:02037700032D54
:0203780000DAA9
:02037900014D34
:02037A000091F0
:02037B000385F8
:02037C00014638
:02037D0001CCB1
:02037E00016B11
:02037F000092EA
:02038000027AFF
:020381000385F2
:02038200036C0A
:0203830002C1B5
:0203840001482E
:0203850002650F
:02038600030B67
:02038700023A38
:0203880001076B
:02038900031659
:02038A0003DD91
:02038B00038CE1
:02038C0002DF8E
:02038D0001531A
:02038E00022447
:02038F0002AAC0
:02039000025316
:0203910000CD9D
:02039200030F57
:0203930003B3B2
:02039400002740
:02039500036EF5
:020396000187DD
:02039700032E33
:0203980003A4BC
:02039900036BF4
:02039A0002124D
:02039B00003927
:02039C0001CD91
:02039D00024E0E
:02039E00019AC2
:02039F00004814
:0203A000023821
:0203A100033225
:0203A200032B2B
:0203A30002D086
:0203A400013323
:0203A50003470C
:0203A600003025
:0203A70003FF52
:0203A8000382CE
:0203A90001D27F
:0203AA000380CE
:0203AB00006CE4
:0203AC00006FE0
:0203AD000353F8
:0203AE00022D1E
:0203AF000376D3
:0203B0000097B4
:0203B100005BEF
:0203B20003EB5B
:0203B3000260E6
:0203B40003FC48
:0203B50000D472
:0203B60000BC89
:0203B70000152F
:0203B80003023E
:0203B90000AB97
:0203BA000166DA
:0203BB0001E05F
:0203BC00014AF4
:0203BD0003F14A
:0203BE0001B28A
:0203BF00031029
:0203C0000392A6
:0203C100033205
:0203C200022314
:0203C300000335
:0203C40001E056
:0203C5000260D4
:0203C600022013
:0203C7000151E2
:0203C800038DA3
:0203C90001B978
:0203CA000246E9
:0203CB00028DA1
:0203CC000230FD
:0203CD0000CB63
:0203CE00032307
:0203CF00002408
:0203D00000D457
:0203D10000C268
:0203D20003DF47
:0203D3000277AF
:0203D400004CDB
:0203D50001081D
:0203D6000136EE
:0203D70000E53F
:0203D800039090
:0203D90001FC25
:0203DA0003AA74
:0203DB000072AE
:0203DC000070AF
:0203DD0003CC4F
:0203DE000276A5
:0203DF0000928A
:0203E00001DE3C
:0203E1000268B0
:0203E200025FB8
:0203E30001E631
:0203E4000069AE
:0203E50001EF26
:0203E60003789A
:0203E70003C051
:0203E80003BF51
:0203E90002B25E
:0203EA000157B9
:0203EB00039F6E
:0203EC000068A7
:0203ED00011EEF
:0203EE00010507
:0203EF000066A6
:0203F00002C742
:0203F10000DD2D
:0203F200022BDC
:0203F3000257AF
:0203F40002CF36
:0203F50001D332
:0203F6000061A4
:0203F7000252B0
:0203F80003F30D
:0203F900006F93
:0203FA0000F110
:0203FB000014EC
:0203FC000303F9
:0203FD00017885
:0203FE0002DA21
:0203FF0003CA2F
:00000001ff
