:020000040000FA
:020000000004FA
:020001000304F6
:020002000013E9
:0200030001B941
:020004000000FA
:020005000233C4
:020006000150A7
:020007000320D4
:020008000207ED
:02000900017A7A
:02000A000322CF
:02000B0000AB48
:02000C00023DB3
:02000D00019A56
:02000E0001E708
:02000F000014DB
:0200100003F4F7
:0200110001EB01
:02001200014E9D
:02001300035395
:0200140002B236
:0200150003DB0B
:0200160001CE19
:02001700038C58
:02001800022FB5
:02001900038C56
:02001A0001845F
:02001B0001D70B
:02001C0002A53B
:02001D00037668
:02001E0002DE00
:02001F0000BB24
:0200200000FCE2
:020021000304D6
:02002200019C3F
:02002300037662
:02002400004199
:02002500024B8C
:0200260000AF29
:02002700021BBA
:020028000013C3
:0200290002CA09
:02002A0001844F
:02002B00037D53
:02002C00016170
:02002D0003408E
:02002E000318B5
:02002F0003D7F5
:0200300000E9E5
:02003100024D7E
:020032000125A6
:0200330000D4F7
:0200340000903A
:02003500018345
:02003600015F68
:02003700017F47
:0200380002794B
:0200390000378E
:02003A0002873B
:02003B00022E93
:02003C00026C54
:02003D000304BA
:02003E0002BA04
:02003F00024677
:0200400003C7F4
:0200410002A714
:0200420003F5C4
:02004300033B7D
:0200440003C4F3
:02004500025760
:02004600036550
:0200470001AC0A
:02004800014D68
:02004900034A68
:02004A0001842F
:02004B00031B95
:02004C0001446D
:02004D00008D24
:02004E00028E20
:02004F000005AA
:0200500003604B
:0200510003B9F1
:02005200002C80
:0200530003AFF9
:02005400013A6F
:02005500007138
:0200560002A006
:02005700002F78
:0200580002762E
:0200590001F5AF
:02005A0000FAAA
:02005B0002A100
:02005C0002445C
:02005D00034559
:02005E0001425D
:02005F0000A9F6
:0200600003ACEF
:02006100039901
:02006200029307
:0200630001AAF0
:02006400035146
:02006500023760
:02006600007A1E
:02006700033A5A
:02006800028A0A
:0200690001BCD8
:02006A0000078D
:02006B00019101
:02006C0000C7CB
:02006D00001A77
:02006E0000127E
:02006F0001B8D6
:02007000015E2F
:0200710001B8D4
:02007200035336
:02007300006328
:0200740000DFAB
:0200750002FE89
:02007600000286
:02007700015D29
:02007800022460
:0200790000DEA7
:02007A00019FE4
:02007B00007A09
:02007C0000443E
:02007D0001ABD5
:02007E00029AE4
:02007F0001F28C
:020080000392E9
:0200810000ACD1
:0200820000720A
:02008300010476
:0200840000BCBE
:0200850003BCBA
:0200860001D0A7
:020087000098DF
:0200880002076D
:0200890003244E
:02008A00031B56
:02008B00029ED3
:02008C000389E6
:02008D0000D1A0
:02008E0002C8A6
:02008F000396D6
:0200900000125C
:0200910000D09D
:020092000384E5
:0200930000A6C5
:02009400016108
:0200950001C4A4
:02009600034025
:020097000366FE
:0200980002ED77
:0200990000FF66
:02009A0002C79B
:02009B0003461A
:02009C00036BF4
:02009D00026DF2
:02009E00026DF1
:02009F0001530B
:0200A00001F667
:0200A100017FDD
:0200A20001114A
:0200A30003B1A7
:0200A400006FEB
:0200A50000CF8A
:0200A6000375E0
:0200A700030A4A
:0200A8000169EC
:0200A900030151
:0200AA000280D2
:0200AB0000B3A0
:0200AC0000A8AA
:0200AD00001140
:0200AE0003DC71
:0200AF00010D41
:0200B00001D479
:0200B10002DD6E
:0200B20000DE6E
:0200B300025FEA
:0200B40001BE8B
:0200B500036ADC
:0200B600005EEA
:0200B70000D176
:0200B80003241F
:0200B90003043E
:0200BA0000CA7A
:0200BB00011032
:0200BC000081C1
:0200BD0003DF5F
:0200BE000041FF
:0200BF000389B3
:0200C00001112C
:0200C100028FAC
:0200C200012C0F
:0200C30002D564
:0200C40003C473
:0200C500003405
:0200C6000258DE
:0200C700007CBB
:0200C800035DD6
:0200C90000BB7A
:0200CA00021919
:0200CB0003B080
:0200CC00039996
:0200CD00012B05
:0200CE000084AC
:0200CF00024FDE
:0200D00003B477
:0200D100027EAD
:0200D200016FBC
:0200D30000CE5D
:0200D40003190E
:0200D50001F038
:0200D6000335F0
:0200D700024ED7
:0200D80001A481
:0200D900004DD8
:0200DA0003E53C
:0200DB0002938E
:0200DC000147DA
:0200DD00021A05
:0200DE0002E638
:0200DF00000718
:0200E000034CCF
:0200E100031406
:0200E200019982
:0200E3000069B2
:0200E400000E0C
:0200E50003D83E
:0200E60001E235
:0200E700033BD9
:0200E8000038DE
:0200E90000F91C
:0200EA000215FD
:0200EB000171A1
:0200EC000344CB
:0200ED000343CB
:0200EE0001FB14
:0200EF00024FBE
:0200F0000328E3
:0200F1000147C5
:0200F2000147C4
:0200F30001C446
:0200F40001AB5E
:0200F50002B453
:0200F600000701
:0200F700010402
:0200F8000037CF
:0200F90002748F
:0200FA000216EC
:0200FB00026D94
:0200FC00034DB2
:0200FD0000C43D
:0200FE0002FFFF
:0200FF000248B5
:020100000337C3
:020101000304F5
:0201020003FCFC
:020103000220D8
:0201040003EA0C
:020105000334C1
:020106000244B1
:020107000104F1
:020108000253A0
:0201090001876C
:02010A000007EC
:02010B000316D9
:02010C0001B63A
:02010D0002B836
:02010E0002E904
:02010F00036586
:020110000011DC
:02011100022EBC
:02011200031CCC
:020113000332B5
:0201140000C425
:020115000343A2
:02011600028461
:020117000227BD
:02011800011FC5
:02011900015C87
:02011A00039B45
:02011B00034B94
:02011C0002A23D
:02011D0002C816
:02011E000026B9
:02011F0002D903
:02012000033C9E
:02012100029F3B
:020122000010CB
:02012300015287
:0201240003E5F1
:0201250002399D
:0201260000FDDA
:02012700008650
:0201280002646F
:020129000304CD
:02012A00037F51
:02012B00037E51
:02012C0003448A
:02012D0001CF00
:02012E00031BB1
:02012F0002814B
:02013000013894
:0201310000ECE0
:02013200027752
:0201330000B812
:02013400038640
:0201350002BD09
:02013600016B5B
:02013700011BAA
:0201380001368E
:02013900028939
:02013A0002DCE5
:02013B0000B50D
:02013C0003229C
:02013D0001B30C
:02013E0000843B
:02013F0000625C
:020140000310AA
:0201410003A811
:02014200030FA9
:02014300008E2C
:02014400027C3B
:02014500030CA9
:02014600012F87
:02014700018E27
:0201480003A909
:020149000304AD
:02014A0000753E
:02014B00038A25
:02014C000007AA
:02014D00037F2E
:02014E000308A4
:02014F000104A9
:020150000307A3
:0201510003D3D6
:0201520001703A
:0201530003594E
:0201540000C4E5
:020155000304A1
:0201560003FEA6
:0201570000BBEB
:02015800001095
:02015900016043
:02015A0003712F
:02015B0003613E
:02015C0003A7F7
:02015D00033865
:02015E0000BAE5
:02015F0001D1CC
:02016000028714
:0201610000C5D7
:0201620003E5B3
:02016300005E3C
:02016400038115
:02016500035342
:02016600027421
:0201670000286E
:02016800006E27
:02016900003064
:02016A0001840E
:02016B00001082
:02016C0001721E
:02016D0001CCC3
:02016E00005F30
:02016F00003B53
:02017000010785
:0201710003DCAD
:02017200003952
:02017300010485
:0201740001AADE
:02017500034D38
:02017600020580
:02017700023E46
:0201780002245F
:0201790003235E
:02017A00037E02
:02017B0003F986
:02017C000199E7
:02017D00037508
:02017E00009AE5
:02017F00020874
:0201800000BEBF
:0201810003DC9D
:0201820002D6A3
:0201830003BDBA
:02018400019ADE
:0201850002DD99
:0201860003DD97
:02018700016D08
:020188000385ED
:0201890003F879
:02018A0001472B
:02018B00017BF6
:02018C00011957
:02018D00022648
:02018E0003402C
:02018F0002C4A8
:02019000020A61
:0201910000B3B9
:02019200000A61
:02019300026FF9
:0201940002E285
:020195000092D6
:020196000284E1
:02019700034E15
:0201980000DD88
:02019900005212
:02019A0001EB77
:02019B0001045D
:02019C0000233E
:02019D00011847
:02019E00012E30
:02019F000168F5
:0201A00002DC7F
:0201A100030C4D
:0201A200005FFC
:0201A30002A3B5
:0201A40003A3B3
:0201A50003CB8A
:0201A60002D97C
:0201A70000ABAB
:0201A800020C47
:0201A90001A0B3
:0201AA0000D47F
:0201AB0000E66C
:0201AC0003FE50
:0201AD00024C02
:0201AE0003420A
:0201AF0002D577
:0201B00002D477
:0201B100004B01
:0201B20000F358
:0201B30000B694
:0201B400034204
:0201B50001A7A0
:0201B600000740
:0201B7000355EE
:0201B80003241E
:0201B9000382BF
:0201BA0002E35E
:0201BB00001C26
:0201BC00006BD6
:0201BD000191AE
:0201BE0003F24A
:0201BF0000D06E
:0201C000008AB3
:0201C10000EC50
:0201C2000393A5
:0201C3000057E3
:0201C40003C472
:0201C50001AC8B
:0201C60003B57F
:0201C70000072F
:0201C80003F939
:0201C90002D65C
:0201CA0000AD86
:0201CB0001270A
:0201CC000279B6
:0201CD000059D7
:0201CE0003022A
:0201CF000247E5
:0201D00000B479
:0201D10002BB6F
:0201D20001EF3B
:0201D3000049E1
:0201D4000380A6
:0201D500006BBD
:0201D600026BBA
:0201D70002EE36
:0201D80000EF36
:0201D900009490
:0201DA0002CA57
:0201DB0000F42E
:0201DC0000AB76
:0201DD0003809D
:0201DE0002D746
:0201DF0003BF5C
:0201E00002E932
:0201E100009983
:0201E20000B269
:0201E30002C553
:0201E400022EE9
:0201E5000243D3
:0201E600028491
:0201E70002E331
:0201E800000F06
:0201E90003CD44
:0201EA000162B0
:0201EB0002020E
:0201EC00014BC5
:0201ED0001D43B
:0201EE0001BC52
:0201EF00034DBE
:0201F00001A864
:0201F100017A91
:0201F20001C04A
:0201F300009476
:0201F400000702
:0201F500030401
:0201F6000242C3
:0201F700013CC9
:0201F8000338CA
:0201F9000057AD
:0201FA0002B150
:0201FB00037E81
:0201FC000041C0
:0201FD00000FF1
:0201FE0000CA35
:0201FF00007B83
:0202000002AF4B
:0202010001D624
:0202020000C03A
:02020300000FEA
:0202040003C431
:0202050000D027
:0202060002AC48
:020207000102F2
:02020800015D96
:0202090000E112
:02020A000215DB
:02020B0002AA45
:02020C00015C93
:02020D0003D01C
:02020E0000846A
:02020F0000C32A
:0202100002A842
:020211000328C0
:02021200002AC0
:0202130002A047
:0202140000B236
:0202150003F1F3
:02021600039251
:0202170002B132
:0202180002A43E
:02021900015092
:02021A00038B54
:02021B00038B53
:02021C00035489
:02021D00033F9D
:02021E00007866
:02021F00039743
:020220000333A6
:02022100028B4E
:02022200002EAC
:0202230000B326
:02022400017661
:02022500036173
:0202260001BC19
:020227000104D0
:0202280001D300
:0202290003C40C
:02022A00007062
:02022B0002616E
:02022C000020B0
:02022D0003408C
:02022E00037457
:02022F0001B11B
:02023000035475
:02023100015674
:02023200038443
:0202330003BF07
:0202340001497E
:020235000017B0
:02023600002D99
:020237000100C4
:0202380000E1E3
:0202390000764D
:02023A0002328E
:02023B0001D8E8
:02023C00000EB2
:02023D0001EDD1
:02023E00009F1F
:02023F000104B8
:02024000036059
:02024100030FA9
:02024200024276
:0202430001C4F4
:0202440000C9EF
:0202450000BCFB
:02024600012590
:0202470003862C
:0202480003476A
:0202490001B002
:02024A0001DDD4
:02024B0000C5EC
:02024C0001446B
:02024D00002D82
:02024E0000624C
:02024F0002F9B2
:02025000036247
:02025100039612
:02025200005456
:02025300015850
:0202540001A8FF
:0202550003DFC5
:02025600028222
:02025700005C49
:0202580000E2C2
:02025900009E05
:02025A00019F02
:02025B0003F3AB
:02025C00022876
:02025D0001D3CB
:02025E00001985
:02025F00024E4D
:02026000028614
:02026100004358
:02026200011485
:02026300014F49
:0202640000C5D3
:02026500037E16
:02026600028410
:0202670000ABEA
:0202680003642D
:02026900039AF6
:02026A00028E02
:02026B0002C1CE
:02026C0000DFB1
:02026D0000B8D7
:02026E00023458
:02026F00025932
:02027000005438
:02027100028009
:02027200038403
:0202730003691D
:0202740000BBCD
:0202750001B6D0
:02027600016C19
:02027700010480
:0202780000EC98
:02027900022160
:02027A0003700F
:02027B0002CAB5
:02027C000294EA
:02027D00030478
:02027E00037EFD
:02027F0003FB7F
:02028000027A00
:02028100006C0F
:0202820000304A
:020283000293E4
:02028400005028
:0202850003A0D4
:0202860001C6AF
:0202870000A8CD
:02028800006B09
:0202890001135F
:02028A00002F43
:02028B000282ED
:02028C0001BCB3
:02028D00022E3F
:02028E00008DE1
:02028F0003B5B5
:020290000274F6
:02029100015C0E
:020292000094D6
:0202930001B9AF
:0202940001BCAB
:0202950002CA9B
:0202960002382C
:020297000272F1
:0202980000F76D
:02029900005310
:02029A0002223E
:02029B0001164A
:02029C00030855
:02029D00030656
:02029E00036DEE
:02029F00000657
:0202A000002B31
:0202A10000E873
:0202A200033126
:0202A300020D4A
:0202A40000D385
:0202A5000163F3
:0202A600026AEA
:0202A70001A8AC
:0202A800024012
:0202A90003044C
:0202AA0000D082
:0202AB0000E46D
:0202AC00034409
:0202AD0001212D
:0202AE0003410A
:0202AF00006FDE
:0202B00003F158
:0202B100000348
:0202B2000053F7
:0202B3000087C2
:0202B40002C482
:0202B500023E07
:0202B60001C87D
:0202B700026BD8
:0202B80002063C
:0202B90001EB57
:0202BA000184BD
:0202BB0001033D
:0202BC00000B35
:0202BD000068D7
:0202BE0000C777
:0202BF000370CA
:0202C000010D2E
:0202C1000370C8
:0202C2000059E1
:0202C300004DEC
:0202C4000167D0
:0202C500022F06
:0202C600007FB7
:0202C700005CD9
:0202C80002E44E
:0202C9000137FB
:0202CA000364CB
:0202CB000362CC
:0202CC0000062A
:0202CD0000012E
:0202CE0000E04E
:0202CF00021417
:0202D00003FB2E
:0202D10002F039
:0202D200025DCB
:0202D30003D254
:0202D400022402
:0202D5000087A0
:0202D60001B76E
:0202D700032200
:0202D800000D17
:0202D90000CF54
:0202DA0001FF22
:0202DB0003AF6F
:0202DC0000AC74
:0202DD0001BE60
:0202DE0000ED31
:0202DF0000CD50
:0202E00003CC4D
:0202E100038296
:0202E200000911
:0202E3000357BF
:0202E40000A078
:0202E50003AF65
:0202E6000059BD
:0202E70001DC38
:0202E8000255BD
:0202E9000230E1
:0202EA00039E71
:0202EB00020F00
:0202EC0001B25D
:0202ED0002F518
:0202EE00020B01
:0202EF00027B90
:0202F00002A565
:0202F100035CAC
:0202F200037493
:0202F3000362A4
:0202F40000D533
:0202F5000258AD
:0202F60002F60E
:0202F70001E222
:0202F8000226DC
:0202F900024FB2
:0202FA000023DF
:0202FB000056AB
:0202FC000248B6
:0202FD0003C03C
:0202FE0000B24C
:0202FF000302F8
:02030000024DAC
:0203010003BA3D
:0203020001C731
:02030300001DDB
:02030400036B89
:02030500013FB6
:0203060003E50D
:02030700024BA7
:0203080003E40C
:0203090000965C
:02030A0000A150
:02030B0000955B
:02030C000144AA
:02030D0003B734
:02030E00012BC1
:02030F00030FDA
:020310000306E2
:0203110002EBFD
:0203120000D811
:020313000334B1
:0203140000C423
:0203150000B72F
:0203160002C122
:020317000333AE
:020318000315CB
:02031900004999
:02031A0001AD33
:02031B00033DA0
:02031C00024499
:02031D0001825B
:02031E00015E7E
:02031F00001CC0
:02032000020DCC
:0203210001D009
:02032200008752
:02032300021FB7
:02032400018A4C
:02032500010DC8
:0203260002844F
:0203270003B21F
:02032800028C45
:0203290001923F
:02032A00001DB4
:02032B0002BD11
:02032C00039438
:02032D0002B418
:02032E0002804B
:02032F000012BA
:0203300003A226
:0203310000F3D7
:0203320003BD09
:020333000022A6
:02033400031FA5
:020335000304BF
:0203360003EDD5
:02033700003E86
:0203380001249E
:020339000318A7
:02033A0002625D
:02033B0003A11C
:02033C00005A65
:02033D00038338
:02033E000212A9
:02033F00039524
:0203400002C6F3
:02034100022593
:02034200009227
:0203430001F0C7
:0203440003C4F0
:0203450001D9DC
:0203460002E8CB
:0203470001446F
:0203480003852B
:0203490001347D
:02034A00038628
:02034B000208A6
:02034C00035B51
:02034D0001F0BD
:02034E0000C0ED
:02034F0000119B
:02035000023475
:02035100004D5D
:02035200031A8C
:0203530003BCE9
:02035400008720
:0203550001CDD8
:0203560002B5EE
:02035700020D95
:0203580003217F
:02035900029808
:02035A00034D51
:02035B0003306D
:02035C00002778
:02035D0000F2AC
:02035E00021586
:02035F0002BAE0
:0203600001A5F5
:02036100021B7D
:0203620000D9C0
:02036300010493
:02036400011D79
:0203650003FE95
:0203660001D0C4
:02036700010A89
:0203680003711F
:02036900031B74
:02036A00036F1F
:02036B0002315D
:02036C00008708
:02036D00000985
:02036E0003C9C1
:02036F00016922
:02037000022B5E
:02037100000684
:0203720002BFC8
:02037300010285
:02037400017C0A
:0203750003FC87
:020376000294EF
:0203770002BBC7
:02037800027110
:02037900016A17
:02037A0002354A
:02037B00036815
:02037C0000D3AC
:02037D0000ABD3
:02037E0000C0BD
:02037F0003B1C8
:02038000022653
:02038100000674
:0203820001B6C2
:02038300015423
:0203840003FB79
:0203850003046F
:0203860001482C
:02038700006C08
:0203880002244D
:020389000184ED
:02038A00004B26
:02038B0000313F
:02038C00003936
:02038D00020864
:02038E00033931
:02038F0002B1B9
:02039000020069
:0203910002B9AF
:0203920003D096
:0203930002FF67
:02039400022045
:02039500009CCA
:0203960000C99C
:0203970001560D
:0203980002B7AA
:02039900008FD3
:02039A0003213D
:02039B0000BFA1
:02039C00033E1E
:02039D00016CF1
:02039E000084D9
:02039F0001A8B3
:0203A000035CFC
:0203A100030453
:0203A2000261F6
:0203A300011146
:0203A40002163F
:0203A500015401
:0203A600011F35
:0203A70003BE93
:0203A80000F65D
:0203A900039BB4
:0203AA00031836
:0203AB0001044B
:0203AC0002B29B
:0203AD0002C686
:0203AE0002C883
:0203AF0000C389
:0203B00000D477
:0203B10002D177
:0203B20003DC6A
:0203B300000C3C
:0203B400000641
:0203B50002A4A0
:0203B600029AA9
:0203B700001B29
:0203B8000282BF
:0203B90001FF42
:0203BA00013E02
:0203BB00031825
:0203BC000044FB
:0203BD00010637
:0203BE0002E358
:0203BF000256E4
:0203C0000088B3
:0203C100010831
:0203C2000384B2
:0203C3000188AF
:0203C400003700
:0203C500021321
:0203C60000B580
:0203C70002969C
:0203C80000D261
:0203C90000EE44
:0203CA0002A48B
:0203CB0001A689
:0203CC000370BC
:0203CD00011419
:0203CE00010527
:0203CF0000EF3D
:0203D0000381A7
:0203D1000249DF
:0203D2000384A2
:0203D30003F92C
:0203D40000D057
:0203D500016EB7
:0203D6000150D4
:0203D70001EA39
:0203D80000879C
:0203D9000029F9
:0203DA00036DB1
:0203DB000270AE
:0203DC0000B36C
:0203DD00030417
:0203DE000168B4
:0203DF00010417
:0203E000020C0D
:0203E10001AF6A
:0203E200000712
:0203E300020B0B
:0203E400038292
:0203E50000F620
:0203E60001A96B
:0203E700019281
:0203E800034EC2
:0203E9000221EF
:0203EA0003EE20
:0203EB000337D6
:0203EC00011DF1
:0203ED00035BB0
:0203EE00024FBC
:0203EF0002FA10
:0203F000010604
:0203F10000CB3F
:0203F200015BAD
:0203F30002887E
:0203F40002EE17
:0203F5000207FD
:0203F600022FD4
:0203F70002BB47
:0203F8000206FB
:0203F900038778
:0203FA0001DF21
:0203FB0000F709
:0203FC00000CF3
:0203FD0003D12A
:0203FE00008479
:0203FF000008F4
:00000001ff
