:020000040000FA
:0100000000FF
:0100010003FB
:010002001FDE
:010003000BF1
:010004001FDC
:0100050012E8
:010006001CDD
:0100070016E2
:0100080016E1
:0100090014E2
:01000A0007EE
:01000B0008EC
:01000C000DE6
:01000D000EE4
:01000E0002EF
:01000F0001EF
:0100100001EE
:010011001AD4
:0100120002EB
:0100130011DB
:010014001DCE
:010015001ECC
:010016000BDE
:0100170019CF
:0100180001E6
:0100190018CE
:01001A0015D0
:01001B000ED6
:01001C001BC8
:01001D0012D0
:01001E0008D9
:01001F0015CB
:010020000FD0
:010021000BD3
:0100220001DC
:0100230006D6
:0100240010CB
:0100250015C5
:010026000CCD
:010027000ACE
:0100280005D2
:0100290013C3
:01002A0009CC
:01002B001EB6
:01002C0007CC
:01002D001AB8
:01002E000BC6
:01002F0012BE
:0100300002CD
:0100310012BC
:0100320017B6
:0100330007C5
:0100340015B6
:0100350018B2
:0100360005C4
:0100370011B7
:0100380011B6
:010039001AAC
:01003A0000C5
:01003B001AAA
:01003C001AA9
:01003D0018AA
:01003E0006BB
:01003F001BA5
:0100400009B6
:0100410007B7
:0100420009B4
:0100430003B9
:0100440009B2
:0100450011A9
:010046000DAC
:0100470014A4
:01004800189F
:010049000FA7
:01004A000CA9
:01004B0003B1
:01004C0009AA
:01004D0012A0
:01004E0011A0
:01004F001B95
:0100500003AC
:010051001D91
:010052001D90
:010053001795
:010054001E8D
:0100550006A4
:0100560004A5
:01005700099F
:010058000A9D
:010059001A8C
:01005A000E97
:01005B00178D
:01005C00099A
:01005D00188A
:01005E00178A
:01005F001A86
:01006000128D
:01006100148A
:01006200128B
:01006300009C
:01006400108B
:010065001684
:010066000495
:010067000D8B
:010068000394
:010069001B7B
:01006A00068F
:01006B00177D
:01006C000093
:01006D00157D
:01006E000889
:01006F000B85
:01007000107F
:010071000B83
:010072000D80
:010073000A82
:010074001279
:010075001971
:010076001079
:010077000A7E
:01007800196E
:010079000F77
:01007A001D68
:01007B00176D
:01007C000E75
:01007D00136F
:01007E001968
:01007F00126E
:010080000F70
:01008100027C
:010082001C61
:01008300106C
:010084000F6C
:010085000B6F
:010086001564
:010087001E5A
:01008800195E
:010089001660
:01008A00076E
:01008B001E56
:01008C000A69
:01008D001F53
:01008E000D64
:01008F00056B
:010090001857
:010091001856
:010092001558
:01009300016B
:010094000D5E
:010095000961
:010096000762
:010097001652
:01009800095E
:010099001056
:01009A001C49
:01009B001D47
:01009C00045F
:01009D000260
:01009E00075A
:01009F00045C
:0100A0000A55
:0100A1000856
:0100A200104D
:0100A300124A
:0100A4001E3D
:0100A5000456
:0100A6001643
:0100A7000355
:0100A8001B3C
:0100A9000E48
:0100AA000D48
:0100AB00094B
:0100AC001043
:0100AD00133F
:0100AE00024F
:0100AF000D43
:0100B000044B
:0100B1001737
:0100B2001637
:0100B300103C
:0100B4001635
:0100B5001733
:0100B6000346
:0100B700093F
:0100B8001A2D
:0100B9000442
:0100BA00182D
:0100BB00053F
:0100BC001B28
:0100BD00083A
:0100BE001E23
:0100BF000937
:0100C0001C23
:0100C100043A
:0100C200102D
:0100C300122A
:0100C4001625
:0100C5000D2D
:0100C6000732
:0100C7001127
:0100C8001B1C
:0100C9001521
:0100CA000C29
:0100CB001123
:0100CC001320
:0100CD001F13
:0100CE00062B
:0100CF00151B
:0100D0001D12
:0100D1000B23
:0100D2000E1F
:0100D3001616
:0100D400111A
:0100D5000D1D
:0100D6001910
:0100D7000424
:0100D8001D0A
:0100D9001214
:0100DA001114
:0100DB00091B
:0100DC00081B
:0100DD001E04
:0100DE00170A
:0100DF00041C
:0100E000110E
:0100E1000D11
:0100E2000716
:0100E3000D0F
:0100E4000D0E
:0100E5001505
:0100E6001306
:0100E7001503
:0100E8000B0C
:0100E9000016
:0100EA000411
:0100EB00050F
:0100EC001003
:0100ED0013FF
:0100EE001DF4
:0100EF001BF5
:0100F0001BF4
:0100F1000B03
:0100F20018F5
:0100F30011FB
:0100F4000308
:0100F5001BEF
:0100F6000801
:0100F70017F1
:0100F80016F1
:0100F90011F5
:0100FA0018ED
:0100FB0017ED
:0100FC001BE8
:0100FD0012F0
:0100FE000BF6
:0100FF0011EF
:0101000012EC
:010101001CE1
:010102001CE0
:010103001FDC
:0101040013E7
:0101050005F4
:0101060001F7
:0101070015E2
:010108000FE7
:010109001BDA
:01010A0006EE
:01010B001ED5
:01010C000FE3
:01010D0006EB
:01010E0011DF
:01010F001CD3
:0101100015D9
:0101110007E6
:0101120001EB
:010113000EDD
:010114001CCE
:0101150017D2
:010116000CDC
:0101170008DF
:0101180018CE
:0101190007DE
:01011A0004E0
:01011B001AC9
:01011C0016CC
:01011D0004DD
:01011E0011CF
:01011F000AD5
:010120001BC3
:0101210010CD
:0101220017C5
:010123001AC1
:0101240007D3
:010125000ACF
:010126000FC9
:0101270003D4
:0101280012C4
:0101290008CD
:01012A0011C3
:01012B0019BA
:01012C000DC5
:01012D0019B8
:01012E0009C7
:01012F0008C7
:0101300003CB
:0101310007C6
:010132001EAE
:0101330016B5
:0101340019B1
:0101350014B5
:0101360013B5
:0101370001C6
:010138000BBB
:010139001CA9
:01013A0000C4
:01013B0003C0
:01013C0011B1
:01013D0015AC
:01013E001BA5
:01013F000FB0
:010140001CA2
:010141000EAF
:0101420011AB
:010143000FAC
:0101440016A4
:0101450010A9
:0101460008B0
:010147000BAC
:0101480003B3
:010149001C99
:01014A0002B2
:01014B0000B3
:01014C0001B1
:01014D0011A0
:01014E001A96
:01014F0009A6
:0101500008A6
:0101510003AA
:0101520005A7
:010153001992
:010154000AA0
:0101550004A5
:010156001197
:010157001D8A
:010158001294
:010159001C89
:01015A00069E
:01015B001B88
:01015C00069C
:01015D001190
:01015E000898
:01015F001689
:010160000599
:01016100019C
:010162001389
:010163000893
:010164000A90
:010165000396
:010166001F79
:01016700088F
:01016800088E
:010169000C89
:01016A001C78
:01016B00048F
:01016C000F83
:01016D00078A
:01016E00167A
:01016F000887
:010170000688
:010171001C71
:010172001379
:010173001774
:010174001179
:010175000D7C
:010176001474
:010177001176
:010178000E78
:01017900166F
:01017A001272
:01017B000E75
:01017C00146E
:01017D000D74
:01017E00047C
:01017F00037C
:010180001569
:010181000479
:010182001963
:010183001F5C
:01018400007A
:010185000673
:010186001B5D
:010187000A6D
:010188001C5A
:010189001B5A
:01018A001163
:01018B00086B
:01018C000B67
:01018D00026F
:01018E001957
:01018F001857
:010190000A64
:010191001954
:010192000E5E
:010193001358
:010194001357
:010195001653
:010196000662
:010197000E59
:01019800174F
:010199000A5B
:01019A001153
:01019B00174C
:01019C00045E
:01019D00025F
:01019E001B45
:01019F001847
:0101A000045A
:0101A1000657
:0101A2000A52
:0101A3001744
:0101A4001941
:0101A5001841
:0101A6001E3A
:0101A7001443
:0101A8000452
:0101A900163F
:0101AA00153F
:0101AB000A49
:0101AC001D35
:0101AD001938
:0101AE00064A
:0101AF000E41
:0101B0001A34
:0101B1001439
:0101B2000448
:0101B3001338
:0101B4000C3E
:0101B5001633
:0101B6001C2C
:0101B7000641
:0101B8001D29
:0101B9000B3A
:0101BA00182C
:0101BB000E35
:0101BC00152D
:0101BD00172A
:0101BE001C24
:0101BF000E31
:0101C0001628
:0101C1001B22
:0101C2000933
:0101C3000635
:0101C4001C1E
:0101C5001524
:0101C6001820
:0101C7000F28
:0101C8000333
:0101C9001B1A
:0101CA000232
:0101CB001F14
:0101CC001C16
:0101CD00022F
:0101CE001818
:0101CF000827
:0101D0001A14
:0101D1001716
:0101D2000824
:0101D3001516
:0101D4000624
:0101D5000623
:0101D6001B0D
:0101D7000E19
:0101D800091D
:0101D9001312
:0101DA00160E
:0101DB00190A
:0101DC00051D
:0101DD00021F
:0101DE001A06
:0101DF00130C
:0101E0001806
:0101E1000F0E
:0101E200021A
:0101E3001902
:0101E4001CFE
:0101E5001405
:0101E6000810
:0101E7000116
:0101E800080E
:0101E9000411
:0101EA001EF6
:0101EB001EF5
:0101EC000D05
:0101ED001100
:0101EE0015FB
:0101EF001FF0
:0101F00018F6
:0101F1000805
:0101F20017F5
:0101F3000DFE
:0101F40013F7
:0101F50010F9
:0101F6000CFC
:0101F70010F7
:0101F8000303
:0101F9000EF7
:0101FA0018EC
:0101FB0009FA
:0101FC000AF8
:0101FD0002FF
:0101FE0019E7
:0101FF0017E8
:0102000005F8
:0102010009F3
:010202000BF0
:0102030015E5
:010204000CED
:010205001ADE
:0102060006F1
:0102070017DF
:0102080016DF
:010209000AEA
:01020A001CD7
:01020B0012E0
:01020C0014DD
:01020D000BE5
:01020E001DD2
:01020F0013DB
:0102100013DA
:0102110007E5
:0102120015D6
:0102130005E5
:010214001ECB
:0102150008E0
:010216000BDC
:010217000FD7
:010218001ACB
:0102190014D0
:01021A0005DE
:01021B0014CE
:01021C0009D8
:01021D000BD5
:01021E0002DD
:01021F0014CA
:010220000AD3
:010221000BD1
:010222001EBD
:010223000BCF
:0102240018C1
:010225000ECA
:0102260014C3
:0102270010C6
:010228000ACB
:010229000BC9
:01022A0017BC
:01022B0018BA
:01022C0014BD
:01022D0013BD
:01022E001BB4
:01022F0014BA
:0102300006C7
:0102310016B6
:010232000DBE
:0102330012B8
:010234000BBE
:0102350000C8
:0102360018AF
:010237001AAC
:010238000DB8
:0102390019AB
:01023A0003C0
:01023B0014AE
:01023C0012AF
:01023D0004BC
:01023E0012AD
:01023F0002BC
:010240001BA2
:0102410004B8
:0102420005B6
:0102430003B7
:0102440007B2
:0102450016A2
:01024600199E
:0102470015A1
:0102480011A4
:01024900159F
:01024A0007AC
:01024B000EA4
:01024C0011A0
:01024D001799
:01024E0006A9
:01024F0005A9
:010250001C91
:01025100109C
:0102520008A3
:010253000C9E
:0102540002A7
:010255001098
:010256001D8A
:010257001195
:010258001194
:01025900059F
:01025A001291
:01025B0000A2
:01025C00158C
:01025D001888
:01025E000F90
:01025F00019D
:010260001489
:01026100108C
:010262001A81
:010263001981
:010264001386
:010265001088
:010266001582
:010267000A8C
:010268001481
:01026900197B
:01026A000291
:01026B00137F
:01026C00137E
:01026D000987
:01026E001B74
:01026F000F7F
:010270000C81
:010271001874
:010272001A71
:010273001872
:010274001772
:010275001F69
:010276001671
:010277000284
:01027800097C
:010279001173
:01027A000281
:01027B000082
:01027C00136E
:01027D000080
:01027E000E71
:01027F00027C
:010280000479
:010281001963
:010282000774
:010283001565
:010284000871
:010285000771
:01028600185F
:010287000175
:01028800086D
:010289001361
:01028A00096A
:01028B000E64
:01028C000A67
:01028D00026E
:01028E001D52
:01028F00006E
:01029000115C
:010291001755
:010292001754
:010293001753
:010294001D4C
:010295001058
:010296001552
:010297001254
:010298000C59
:010299000B59
:01029A001350
:01029B000B57
:01029C001948
:01029D00015F
:01029E000B54
:01029F001C42
:0102A0001A43
:0102A1000A52
:0102A2001348
:0102A3001A40
:0102A4000554
:0102A5001A3E
:0102A6001F38
:0102A700193D
:0102A8000D48
:0102A9000351
:0102AA001F34
:0102AB00084A
:0102AC00024F
:0102AD00143C
:0102AE00034C
:0102AF001539
:0102B0000F3E
:0102B1001834
:0102B2001536
:0102B3000B3F
:0102B4000049
:0102B5001A2E
:0102B6001E29
:0102B7001234
:0102B8001C29
:0102B9000044
:0102BA00063D
:0102BB001131
:0102BC000839
:0102BD001030
:0102BE000F30
:0102BF000A34
:0102C0000637
:0102C1000A32
:0102C2001B20
:0102C3001D1D
:0102C4001722
:0102C5000E2A
:0102C600082F
:0102C700092D
:0102C800181D
:0102C900191B
:0102CA001320
:0102CB000929
:0102CC00032E
:0102CD00052B
:0102CE00141B
:0102CF001717
:0102D000111C
:0102D1000923
:0102D2000427
:0102D3000723
:0102D4001811
:0102D5001B0D
:0102D6001611
:0102D7000F17
:0102D8000A1B
:0102D9000D17
:0102DA001D06
:0102DB000022
:0102DC001A07
:0102DD001010
:0102DE000916
:0102DF000816
:0102E0001409
:0102E100120A
:0102E2000615
:0102E3001604
:0102E4000712
:0102E5001EFA
:0102E6000017
:0102E7001204
:0102E8001AFB
:0102E9001DF7
:0102EA001FF4
:0102EB00060C
:0102EC0016FB
:0102ED0016FA
:0102EE000906
:0102EF0015F9
:0102F000000D
:0102F1000DFF
:0102F2000209
:0102F3000505
:0102F40019F0
:0102F5000503
:0102F6000DFA
:0102F70015F1
:0102F8000401
:0102F9001DE7
:0102FA0007FC
:0102FB0005FD
:0102FC001DE4
:0102FD0014EC
:0102FE000EF1
:0102FF0011ED
:0103000001FB
:0103010004F7
:010302001DDD
:0103030013E6
:0103040009EF
:0103050006F1
:010306000CEA
:0103070003F2
:010308000DE7
:0103090011E2
:01030A0012E0
:01030B0017DA
:01030C0002EE
:01030D001AD5
:01030E0003EB
:01030F0002EB
:010310001BD1
:0103110014D7
:0103120010DA
:0103130016D3
:0103140009DF
:010315000ED9
:010316000ADC
:0103170002E3
:010318001ACA
:0103190017CC
:01031A001EC4
:01031B0013CE
:01031C001BC5
:01031D001BC4
:01031E0018C6
:01031F0015C8
:0103200017C5
:0103210004D7
:0103220000DA
:010323000FCA
:0103240017C1
:010325001ABD
:010326001FB7
:010327000ACB
:010328001FB5
:0103290003D0
:01032A001AB8
:01032B0009C8
:01032C0015BB
:01032D0002CD
:01032E0014BA
:01032F0010BD
:010330001BB1
:0103310019B2
:010332000EBC
:010333001FAA
:0103340011B7
:0103350007C0
:0103360007BF
:0103370015B0
:0103380015AF
:010339000CB7
:01033A001DA5
:01033B000FB2
:01033C0004BC
:01033D0001BE
:01033E000BB3
:01033F0006B7
:0103400017A5
:0103410001BA
:010342000AB0
:0103430015A4
:0103440007B1
:0103450004B3
:0103460011A5
:0103470012A3
:010348000BA9
:0103490000B3
:01034A00169C
:01034B0011A0
:01034C00169A
:01034D0008A7
:01034E000CA2
:01034F0007A6
:010350001B91
:010351000F9C
:0103520005A5
:0103530003A6
:010354000C9C
:0103550004A3
:010356001195
:010357001590
:01035800168E
:01035900178C
:01035A001C86
:01035B000B96
:01035C00069A
:01035D00128D
:01035E00148A
:01035F000F8E
:010360000894
:010361000299
:010362000298
:010363000C8D
:010364000494
:010365000F88
:010366000F87
:010367000A8B
:010368000391
:010369001F74
:01036A000191
:01036B000E83
:01036C000987
:01036D001877
:01036E001D71
:01036F001C71
:010370001B71
:010371001D6E
:010372000585
:010373001871
:010374001A6E
:010375000F78
:010376001B6B
:010377000283
:01037800077D
:010379001073
:01037A001F63
:01037B001869
:01037C00017F
:01037D001C63
:01037E000D71
:01037F001964
:010380000379
:01038100106B
:010382000278
:010383001F5A
:010384000A6E
:010385000671
:01038600195D
:010387000570
:010388000E66
:01038900195A
:01038A000969
:01038B00026F
:01038C000868
:01038D001E51
:01038E000965
:01038F000D60
:010390000D5F
:010391000C5F
:01039200105A
:010393001B4E
:010394001157
:010395001750
:010396000F57
:010397001F46
:01039800085C
:010399001053
:01039A001A48
:01039B000A57
:01039C00035D
:01039D000956
:01039E00005E
:01039F000C51
:0103A000104C
:0103A100114A
:0103A2001149
:0103A3001445
:0103A4001F39
:0103A5001443
:0103A600183E
:0103A7000E47
:0103A8001A3A
:0103A9000053
:0103AA00034F
:0103AB00064B
:0103AC000E42
:0103AD001E31
:0103AE001935
:0103AF000449
:0103B000024A
:0103B1001734
:0103B2000545
:0103B3001237
:0103B4001F29
:0103B5001235
:0103B6000D39
:0103B7001431
:0103B8000B39
:0103B900152E
:0103BA00152D
:0103BB001031
:0103BC000937
:0103BD00043B
:0103BE00033B
:0103BF000A33
:0103C0001E1E
:0103C100013A
:0103C2001723
:0103C3000435
:0103C4000A2E
:0103C5000E29
:0103C6001323
:0103C7001D18
:0103C8000E26
:0103C9000B28
:0103CA00161C
:0103CB00141D
:0103CC000828
:0103CD00141B
:0103CE001E10
:0103CF000726
:0103D0001418
:0103D1000823
:0103D2000723
:0103D3001316
:0103D4001018
:0103D5000225
:0103D6000B1B
:0103D7001015
:0103D8001410
:0103D9001A09
:0103DA00051D
:0103DB001908
:0103DC001907
:0103DD000916
:0103DE000C12
:0103DF000518
:0103E0001804
:0103E1000714
:0103E2001703
:0103E3000A0F
:0103E4000414
:0103E500090E
:0103E6001BFB
:0103E7001DF8
:0103E8001400
:0103E9000211
:0103EA000B07
:0103EB0012FF
:0103EC001AF6
:0103ED000609
:0103EE001BF3
:0103EF001AF3
:0103F0000705
:0103F1000605
:0103F2001AF0
:0103F3000603
:0103F4000DFB
:0103F50012F5
:0103F60019ED
:0103F7000500
:0103F80019EB
:0103F90019EA
:0103FA0006FC
:0103FB0006FB
:0103FC001AE6
:0103FD0007F8
:0103FE000EF0
:0103FF0014E9
:010400001CDF
:0104010008F2
:010402001DDC
:010403001CDC
:0104040009EE
:0104050008EE
:010406001CD9
:0104070007ED
:010408000CE7
:0104090010E2
:01040A0014DD
:01040B001DD3
:01040C000DE2
:01040D0007E7
:01040E000EDF
:01040F0006E6
:0104100012D9
:0104110014D6
:0104120010D9
:0104130009DF
:0104140002E5
:010415001DC9
:010416001FC6
:0104170009DB
:0104180000E3
:0104190006DC
:01041A001EC3
:01041B000BD5
:01041C0011CE
:01041D0011CD
:01041E0010CD
:01041F0011CB
:0104200015C6
:0104210001D9
:0104220017C2
:010423001BBD
:010424000EC9
:0104250015C1
:0104260012C3
:0104270009CB
:010428001BB8
:010429000DC5
:01042A0001D0
:01042B001AB6
:01042C001BB4
:01042D0007C7
:01042E0001CC
:01042F000BC1
:010430000AC1
:010431001FAB
:010432000EBB
:0104330019AF
:0104340004C3
:0104350011B5
:0104360003C2
:010437001EA6
:0104380003C0
:0104390017AB
:01043A001BA6
:01043B0013AD
:01043C0002BD
:01043D000AB4
:01043E000EAF
:01043F0012AA
:0104400018A3
:0104410002B8
:0104420015A4
:0104430012A6
:010444001C9B
:01044500179F
:0104460004B1
:0104470008AC
:0104480004AF
:010449001C96
:01044A00139E
:01044B000AA6
:01044C0006A9
:01044D0008A6
:01044E001499
:01044F000CA0
:010450001398
:010451000D9D
:010452001B8E
:0104530000A8
:0104540000A7
:010455001D89
:010456001A8B
:01045700198B
:010458001D86
:010459000A98
:01045A0001A0
:01045B00069A
:01045C001B84
:01045D00039B
:01045E00009D
:01045F001686
:010460000794
:010461001783
:010462000693
:01046300197F
:010464001285
:010465001383
:010466000095
:010467001B79
:01046800078C
:01046900068C
:01046A001B76
:01046B000888
:01046C00127D
:01046D001975
:01046E00018C
:01046F000C80
:010470001D6E
:010471001773
:010472001D6C
:010473001078
:010474001473
:010475000B7B
:01047600186D
:010477001D67
:010478001D66
:010479001B67
:01047A001A67
:01047B001B65
:01047C00017E
:01047D00106E
:01047E000974
:01047F00106C
:010480000774
:01048100106A
:010482000D6C
:010483000375
:010484001265
:010485001F57
:010486000A6B
:01048700185C
:01048800096A
:010489000270
:01048A00046D
:01048B00125E
:01048C000E61
:01048D001C52
:01048E001D50
:01048F001458
:010490000467
:010491000F5B
:010492001851
:010493000167
:010494000C5B
:010495001D49
:010496001550
:01049700184C
:01049800075C
:01049900055D
:01049A00154C
:01049B001947
:01049C00134C
:01049D000658
:01049E001548
:01049F00025A
:0104A000104B
:0104A100005A
:0104A2001544
:0104A3001246
:0104A4001A3D
:0104A5000E48
:0104A6001144
:0104A700064E
:0104A8000E45
:0104A9000D45
:0104AA00054C
:0104AB001739
:0104AC000847
:0104AD001836
:0104AE000B42
:0104AF000349
:0104B0000249
:0104B1000A40
:0104B2001F2A
:0104B3000246
:0104B4001532
:0104B5001C2A
:0104B600192C
:0104B7000D37
:0104B8001B28
:0104B900063C
:0104BA001031
:0104BB001C24
:0104BC000B34
:0104BD00003E
:0104BE001E1F
:0104BF000636
:0104C0001C1F
:0104C100003A
:0104C2001722
:0104C3000236
:0104C4000334
:0104C5001C1A
:0104C6001124
:0104C7000331
:0104C800151E
:0104C9000929
:0104CA000130
:0104CB000030
:0104CC000728
:0104CD001A14
:0104CE001A13
:0104CF000A22
:0104D0000C1F
:0104D1000228
:0104D2000F1A
:0104D3001513
:0104D4001512
:0104D5001412
:0104D6001213
:0104D7001113
:0104D800150E
:0104D9001F03
:0104DA00120F
:0104DB001010
:0104DC001B04
:0104DD001608
:0104DE00021B
:0104DF00021A
:0104E0001803
:0104E1000614
:0104E2000F0A
:0104E3001503
:0104E40019FE
:0104E5001FF7
:0104E600080D
:0104E70017FD
:0104E8000D06
:0104E9000E04
:0104EA001AF7
:0104EB0015FB
:0104EC00010E
:0104ED001FEF
:0104EE0012FB
:0104EF001DEF
:0104F000000B
:0104F100000A
:0104F2001CED
:0104F30019EF
:0104F40017F0
:0104F5001AEC
:0104F6000203
:0104F70014F0
:0104F8000FF4
:0104F90018EA
:0104FA000FF2
:0104FB0017E9
:0104FC0013EC
:0104FD0003FB
:0104FE000BF2
:0104FF000DEF
:010500000AF0
:0105010005F4
:0105020000F8
:010503001CDB
:010504001DD9
:0105050004F1
:0105060013E1
:010507000DE6
:0105080013DF
:0105090008E9
:01050A000EE2
:01050B0006E9
:01050C0013DB
:01050D0017D6
:01050E0014D8
:01050F000CDF
:0105100002E8
:0105110016D3
:010512000CDC
:0105130005E2
:0105140004E2
:010515000ADB
:010516001ACA
:0105170015CE
:010518001EC4
:0105190017CA
:01051A0001DF
:01051B001FC0
:01051C0013CB
:01051D001FBE
:01051E0004D8
:01051F0006D5
:0105200005D5
:0105210004D5
:0105220005D3
:010523000BCC
:0105240016C0
:0105250009CC
:0105260006CE
:010527000FC4
:0105280006CC
:010529000DC4
:01052A0006CA
:01052B0013BC
:01052C0016B8
:01052D0011BC
:01052E0006C6
:01052F0017B4
:0105300006C4
:0105310014B5
:0105320004C4
:0105330019AE
:0105340012B4
:0105350014B1
:010536001FA5
:0105370016AD
:010538001BA7
:010539000FB2
:01053A0014AC
:01053B000DB2
:01053C001CA2
:01053D0001BC
:01053E0000BC
:01053F001AA1
:0105400011A9
:0105410007B2
:010542001E9A
:01054300189F
:01054400179F
:010545001D98
:010546000BA9
:0105470004AF
:0105480009A9
:010549001C95
:01054A0000B0
:01054B001699
:01054C0000AE
:01054D001F8E
:01054E001795
:01054F0008A3
:010550001595
:0105510000A9
:010552000A9E
:010553001592
:0105540003A3
:01055500168F
:010556001094
:010557001390
:0105580000A2
:010559001A87
:01055A00029E
:01055B001A85
:01055C00049A
:01055D00029B
:01055E001686
:01055F000299
:010560000694
:010561000693
:010562000395
:010563001F78
:010564001C7A
:010565001B7A
:010566001E76
:01056700088B
:010568001A78
:01056900167B
:01056A001D73
:01056B00127D
:01056C001678
:01056D000B82
:01056E001379
:01056F000F7C
:010570000387
:010571000E7B
:010572001474
:010573001572
:010574001472
:010575001372
:010576001272
:01057700156E
:010578001D65
:010579000B76
:01057A00017F
:01057B00027D
:01057C000E70
:01057D000875
:01057E00116B
:01057F000C6F
:010580001A60
:010581001C5D
:010582001464
:010583000572
:010584001066
:01058500165F
:010586001A5A
:010587001D56
:010588000171
:01058900076A
:01058A00125E
:01058B00036C
:01058C001C52
:01058D001E4F
:01058E000B61
:01058F000665
:010590000F5B
:010591000960
:010592001454
:010593001453
:01059400095D
:01059500164F
:010596001B49
:010597001B48
:01059800174B
:01059900124F
:01059A000C54
:01059B000758
:01059C000658
:01059D000954
:01059E001349
:01059F000556
:0105A0000159
:0105A1000950
:0105A2001D3B
:0105A3000156
:0105A4001541
:0105A5001B3A
:0105A600153F
:0105A700054E
:0105A8000C46
:0105A9000C45
:0105AA00064A
:0105AB001C33
:0105AC00103E
:0105AD000449
:0105AE001933
:0105AF00103B
:0105B0000C3E
:0105B1000E3B
:0105B2001731
:0105B3000A3D
:0105B400073F
:0105B5001233
:0105B6000A3A
:0105B7001231
:0105B8000C36
:0105B9001829
:0105BA001A26
:0105BB00112E
:0105BC00013D
:0105BD000A33
:0105BE000E2E
:0105BF000E2D
:0105C0000D2D
:0105C1000C2D
:0105C2000D2B
:0105C3001027
:0105C400191D
:0105C500072E
:0105C6001D17
:0105C7001D16
:0105C800082A
:0105C9000031
:0105CA00062A
:0105CB001B14
:0105CC00022C
:0105CD001C11
:0105CE000B21
:0105CF000F1C
:0105D0000B1F
:0105D1000128
:0105D2001117
:0105D3001E09
:0105D400081E
:0105D5001213
:0105D6001D07
:0105D7000B18
:0105D8001C06
:0105D900130E
:0105DA00120E
:0105DB001906
:0105DC000B13
:0105DD000815
:0105DE001309
:0105DF000D0E
:0105E0001703
:0105E1001306
:0105E2000216
:0105E3000710
:0105E4000214
:0105E50016FF
:0105E6000212
:0105E7000A09
:0105E8000F03
:0105E90012FF
:0105EA0014FC
:0105EB0017F8
:0105EC001EF0
:0105ED000805
:0105EE0018F4
:0105EF000FFC
:0105F0000FFB
:0105F10019F0
:0105F2000FF9
:0105F30011F6
:0105F4000303
:0105F5000401
:0105F60018EC
:0105F7001EE5
:0105F80019E9
:0105F9000AF7
:0105FA0012EE
:0105FB0014EB
:0105FC0010EE
:0105FD0008F5
:0105FE001DDF
:0105FF0011EA
:0106000006F3
:010601001DDB
:0106020016E1
:0106030015E1
:0106040019DC
:0106050006EE
:010606001BD8
:010607001BD7
:0106080007EA
:0106090001EF
:01060A0009E6
:01060B0002EC
:01060C000DE0
:01060D000AE2
:01060E001DCE
:01060F0005E5
:0106100006E3
:010611001FC9
:0106120012D5
:0106130001E5
:010614000ED7
:0106150019CB
:0106160004DF
:0106170011D1
:0106180001E0
:0106190015CB
:01061A000ED1
:01061B000FCF
:01061C0019C4
:01061D000CD0
:01061E000BD0
:01061F0017C3
:0106200011C8
:010621001ABE
:0106220015C2
:0106230001D5
:0106240002D3
:0106250018BC
:0106260004CF
:0106270008CA
:0106280006CB
:010629001EB2
:01062A0013BC
:01062B0005C9
:01062C0016B7
:01062D0007C5
:01062E0019B2
:01062F000FBB
:0106300009C0
:0106310009BF
:010632000FB8
:010633001FA7
:0106340018AD
:010635001CA8
:010636000DB6
:010637000BB7
:0106380019A8
:0106390018A8
:01063A0008B7
:01063B000CB2
:01063C0005B8
:01063D0013A9
:01063E0019A2
:01063F0018A2
:0106400010A9
:0106410004B4
:0106420015A2
:0106430004B2
:0106440012A3
:0106450001B3
:0106460012A1
:0106470006AC
:010648001F92
:010649001E92
:01064A0004AB
:01064B00139B
:01064C000CA1
:01064D00109C
:01064E0001AA
:01064F0000AA
:010650000E9B
:010651000D9B
:010652001D8A
:0106530001A5
:01065400198C
:01065500079D
:010656000C97
:010657000A98
:0106580001A0
:01065900138D
:01065A00019E
:01065B000D91
:01065C001885
:01065D000399
:01065E000F8C
:01065F001E7C
:010660001188
:010661000A8E
:01066200088F
:010663000F87
:010664001F76
:01066500197B
:010666001F74
:010667001280
:01066800137E
:01066900048C
:01066A00058A
:01066B001876
:01066C001F6E
:01066D001A72
:01066E000B80
:01066F001377
:010670001376
:010671000D7B
:010672000285
:010673001274
:010674000085
:010675000D77
:01067600196A
:01067700077B
:01067800166B
:010679000A76
:01067A00027D
:01067B00007E
:01067C000578
:01067D001369
:01067E000A71
:01067F000D6D
:010680001B5E
:010681001761
:010682000275
:010683001C5A
:01068400086D
:01068500066E
:01068600175C
:010687001E54
:010688001A57
:010689000D63
:01068A001956
:01068B001E50
:01068C001E4F
:01068D001A52
:01068E001358
:01068F000B5F
:010690000267
:010691001A4E
:010692001552
:010693001254
:010694001451
:010695001B49
:01069600095A
:010697000062
:010698001F42
:010699000957
:01069A001E41
:01069B00015D
:01069C00114C
:01069D00104C
:01069E001F3C
:01069F00005A
:0106A0001445
:0106A1001B3D
:0106A200183F
:0106A3000B4B
:0106A4001540
:0106A500173D
:0106A6001340
:0106A7000B47
:0106A8001E33
:0106A9000E42
:0106AA001D32
:0106AB000B43
:0106AC001A33
:0106AD000A42
:0106AE001E2D
:0106AF001634
:0106B0001336
:0106B1001731
:0106B2000245
:0106B3001630
:0106B4001332
:0106B5001C28
:0106B6001132
:0106B700132F
:0106B800043D
:0106B900043C
:0106BA001629
:0106BB001826
:0106BC000E2F
:0106BD001923
:0106BE001823
:0106BF000E2C
:0106C0001B1E
:0106C1000137
:0106C2000136
:0106C3001B1B
:0106C4001223
:0106C500062E
:0106C600181B
:0106C7000929
:0106C8001B16
:0106C9000F21
:0106CA00052A
:0106CB00002E
:0106CC001F0E
:0106CD000428
:0106CE00101B
:0106CF000525
:0106D0000326
:0106D1000C1C
:0106D2000027
:0106D3000125
:0106D4000F16
:0106D5000D17
:0106D6001A09
:0106D7001909
:0106D8000A17
:0106D9000E12
:0106DA000619
:0106DB00140A
:0106DC001904
:0106DD001507
:0106DE000912
:0106DF001802
:0106E0000118
:0106E1000711
:0106E200090E
:0106E300090D
:0106E400090C
:0106E500090B
:0106E6000A09
:0106E7000E04
:0106E80015FC
:0106E900010F
:0106EA0012FD
:0106EB000A04
:0106EC000A03
:0106ED0012FA
:0106EE000506
:0106EF000208
:0106F0000BFE
:0106F1000206
:0106F2000601
:0106F3001AEC
:0106F4001EE7
:0106F50013F1
:0106F6001AE9
:0106F70015ED
:0106F80004FD
:0106F90009F7
:0106FA0004FB
:0106FB0017E7
:0106FC0002FB
:0106FD0007F5
:0106FE0007F4
:0106FF0002F8
:010700001BDD
:0107010011E6
:0107020005F1
:010703001ADB
:0107040010E4
:0107050007EC
:0107060002F0
:0107070000F1
:0107080003ED
:010709000DE2
:01070A001DD1
:01070B0016D7
:01070C0018D4
:01070D0004E7
:01070E001BCF
:01070F001ECB
:010710000EDA
:010711000DDA
:010712001ACC
:0107130018CD
:0107140008DC
:0107150009DA
:010716001EC4
:0107170007DA
:0107180005DB
:0107190019C6
:01071A0005D9
:01071B0009D4
:01071C0006D6
:01071D001EBD
:01071E0011C9
:01071F0000D9
:010720000CCC
:0107210017C0
:0107220000D6
:010723000ACB
:0107240016BE
:0107250003D0
:0107260014BE
:0107270009C8
:0107280003CD
:0107290003CC
:01072A000BC3
:01072B001AB3
:01072C0013B9
:01072D0016B5
:01072E0004C6
:01072F001DAC
:0107300004C4
:0107310019AE
:010732001DA9
:0107330011B4
:0107340015AF
:010735000CB7
:0107360015AD
:0107370012AF
:0107380004BC
:010739000CB3
:01073A000AB4
:01073B0000BD
:01073C000FAD
:01073D0017A4
:01073E001AA0
:01073F0018A1
:0107400013A5
:010741000BAC
:0107420002B4
:01074300179E
:010744000DA7
:0107450005AE
:010746001E94
:010747001B96
:010748001B95
:0107490001AE
:01074A000CA2
:01074B001E8F
:01074C001993
:01074D001C8F
:01074E0008A2
:01074F001F8A
:0107500002A6
:010751001295
:010752000E98
:01075300198C
:010754001490
:010755001E85
:010756001A88
:010757000899
:010758000997
:010759001E81
:01075A000896
:01075B000796
:01075C001D7F
:01075D000B90
:01075E001288
:01075F001188
:010760000C8C
:010761000196
:010762001383
:010763000293
:010764000F85
:010765001B78
:01076600068C
:01076700137E
:01076800018F
:01076900127D
:01076A000688
:01076B001F6E
:01076C001D6F
:01076D00018A
:01076E000C7E
:01076F001F6A
:010770001B6D
:010771000186
:010772001274
:010773000E77
:01077400176D
:010775000D76
:010776001171
:01077700057C
:010778000878
:010779001D62
:01077A00037B
:01077B001C61
:01077C000973
:01077D000A71
:01077E00007A
:01077F000D6C
:010780001167
:010781000D6A
:010782000274
:010783001065
:01078400195B
:010785001E55
:010786001F53
:010787001D54
:010788001957
:01078900155A
:01078A00105E
:01078B000C61
:01078C000A62
:01078D000A61
:01078E000D5D
:01078F001554
:010790000266
:010791001453
:010792000E58
:010793000F56
:01079400184C
:010795000B58
:01079600085A
:010797001150
:01079800055B
:010799000659
:01079A00144A
:01079B00114C
:01079C001E3E
:01079D001A41
:01079E000852
:01079F000851
:0107A0001A3E
:0107A1000057
:0107A2001A3C
:0107A300094C
:0107A4000F45
:0107A5000C47
:0107A6000052
:0107A7000D44
:0107A800133D
:0107A900143B
:0107AA00103E
:0107AB000845
:0107AC001C30
:0107AD000F3C
:0107AE001F2B
:0107AF000F3A
:0107B0000048
:0107B1001136
:0107B2000343
:0107B300192C
:0107B4001232
:0107B5000F34
:0107B6001131
:0107B7001928
:0107B8000838
:0107B9001F20
:0107BA001D21
:0107BB000538
:0107BC001725
:0107BD001427
:0107BE001C1E
:0107BF001128
:0107C0001325
:0107C1000334
:0107C2000234
:0107C3001124
:0107C4001024
:0107C5000132
:0107C600032F
:0107C7001918
:0107C800022E
:0107C900002F
:0107CA00131B
:0107CB001C11
:0107CC001C10
:0107CD001417
:0107CE000525
:0107CF000E1B
:0107D0001216
:0107D1001116
:0107D2000B1B
:0107D3000223
:0107D400170D
:0107D500091A
:0107D6001A08
:0107D7000B16
:0107D8001D03
:0107D9000F10
:0107DA00041A
:0107DB001C01
:0107DC001705
:0107DD001605
:0107DE001BFF
:0107DF000613
:0107E0001701
:0107E1001007
:0107E2001105
:0107E3001CF9
:0107E4001004
:0107E5000F04
:0107E60019F9
:0107E7000F02
:0107E80013FD
:0107E900040B
:0107EA00040A
:0107EB0012FB
:0107EC0011FB
:0107ED00010A
:0107EE000208
:0107EF0016F3
:0107F0001DEB
:0107F10018EF
:0107F20007FF
:0107F3000CF9
:0107F40007FD
:0107F50019EA
:0107F6000200
:0107F70004FD
:0107F8001FE1
:0107F90015EA
:0107FA0004FA
:0107FB0010ED
:0107FC0017E5
:0107FD001CDF
:0107FE001EDC
:0107FF001FDA
:00000001ff
