:020000040000FA
:010000001FE0
:010001001AE4
:0100020016E7
:0100030019E3
:0100040000FB
:0100050011E9
:010006000BEE
:0100070015E3
:010008000EE9
:010009001ADC
:01000A001CD9
:01000B0015DF
:01000C000AE9
:01000D001ED4
:01000E0012DF
:01000F000BE5
:010010000DE2
:0100110018D6
:0100120012DB
:010013001FCD
:0100140001EA
:010015001CCE
:0100160014D5
:010017000DDB
:010018000BDC
:0100190010D6
:01001A0004E1
:01001B0008DC
:01001C0000E3
:01001D0012D0
:01001E0001E0
:01001F0014CC
:010020000CD3
:0100210011CD
:0100220006D7
:010023000FCD
:0100240012C9
:0100250015C5
:010026001ABF
:0100270007D1
:0100280004D3
:0100290014C2
:01002A001DB8
:01002B0002D2
:01002C000BC8
:01002D001EB4
:01002E001FB2
:01002F0015BB
:0100300005CA
:0100310014BA
:010032000AC3
:010033000BC1
:010034001EAD
:010035000AC0
:0100360013B6
:0100370002C6
:010038001CAB
:0100390007BF
:01003A000ABB
:01003B000CB8
:01003C0013B0
:01003D0006BC
:01003E000CB5
:01003F000BB5
:010040000AB5
:0100410013AB
:0100420008B5
:0100430015A7
:010044001F9C
:010045000DAD
:0100460007B2
:0100470014A4
:010048001C9B
:0100490005B1
:01004A001A9B
:01004B0000B4
:01004C001F94
:01004D0001B1
:01004E000AA7
:01004F0007A9
:010050001B94
:01005100129C
:01005200119C
:0100530004A8
:010054000F9C
:010055001E8C
:010056001891
:0100570006A2
:010058001097
:010059001F87
:01005A001B8A
:01005B000F95
:01005C0001A2
:01005D001B87
:01005E00079A
:01005F000E92
:010060001689
:010061000B93
:010062001885
:010063000399
:010064001685
:010065001A80
:010066001B7E
:010067000197
:010068001582
:010069000195
:01006A000E87
:01006B00088C
:01006C00177C
:01006D00088A
:01006E001F72
:01006F000C84
:010070001679
:010071000985
:010072000C81
:010073000D7F
:010074001477
:010075000D7D
:010076000188
:010077001C6C
:010078000780
:010079000E78
:01007A001A6B
:01007B00196B
:01007C001271
:01007D00136F
:01007E00057C
:01007F00126E
:010080000A75
:01008100126C
:010082001964
:010083000973
:010084000E6D
:010085001367
:010086000277
:01008700096F
:010088001166
:01008900086E
:01008A00185D
:01008B000D67
:01008C001360
:01008D00165C
:01008E000071
:01008F000070
:01009000006F
:010091000C62
:01009200105D
:010093001A52
:010094001457
:010095000B5F
:010096000C5D
:010097000266
:01009800194E
:010099000165
:01009A000263
:01009B000B59
:01009C00095A
:01009D00075B
:01009E00124F
:01009F001947
:0100A000055A
:0100A1000757
:0100A2000855
:0100A3001943
:0100A4000259
:0100A5001644
:0100A6001E3B
:0100A7000850
:0100A8000156
:0100A900183E
:0100AA00183D
:0100AB001044
:0100AC000E45
:0100AD001D35
:0100AE000D44
:0100AF000947
:0100B000014E
:0100B100034B
:0100B2001A33
:0100B3001537
:0100B4000546
:0100B5001337
:0100B6000F3A
:0100B7000741
:0100B800093E
:0100B9000442
:0100BA00063F
:0100BB001A2A
:0100BC001132
:0100BD001A28
:0100BE00023F
:0100BF001729
:0100C0000837
:0100C100043A
:0100C2001825
:0100C3001428
:0100C4000635
:0100C5001D1D
:0100C6000633
:0100C7001325
:0100C8000F28
:0100C9000C2A
:0100CA00171E
:0100CB001F15
:0100CC00141F
:0100CD00052D
:0100CE000130
:0100CF00141C
:0100D000121D
:0100D1000727
:0100D2000429
:0100D3001715
:0100D4000E1D
:0100D5001D0D
:0100D6000F1A
:0100D7001414
:0100D8001F08
:0100D9001A0C
:0100DA001A0B
:0100DB000D17
:0100DC000023
:0100DD00051D
:0100DE000B16
:0100DF00031D
:0100E0001B04
:0100E100041A
:0100E2000F0E
:0100E3000913
:0100E4000516
:0100E5001208
:0100E6000118
:0100E7001FF9
:0100E8001FF8
:0100E9001204
:0100EA000510
:0100EB000A0A
:0100EC001102
:0100ED000C06
:0100EE000B06
:0100EF001BF5
:0100F00011FE
:0100F1001DF1
:0100F2000C01
:0100F30012FA
:0100F4001EED
:0100F5000109
:0100F6000FFA
:0100F70013F5
:0100F8000106
:0100F9000AFC
:0100FA000005
:0100FB0011F3
:0100FC000FF4
:0100FD000CF6
:0100FE0018E9
:0100FF0007F9
:0101000005F9
:0101010007F6
:010102001DDF
:0101030019E2
:010104000BEF
:0101050006F3
:0101060019DF
:0101070019DE
:0101080013E3
:010109001CD9
:01010A0006EE
:01010B001ED5
:01010C001AD8
:01010D0009E8
:01010E0000F0
:01010F000CE3
:0101100003EB
:0101110015D8
:0101120013D9
:0101130010DB
:010114001ECC
:010115000DDC
:0101160012D6
:010117001EC9
:0101180002E4
:0101190011D4
:01011A001BC9
:01011B0016CD
:01011C0012D0
:01011D001FC2
:01011E0015CB
:01011F0000DF
:0101200016C8
:0101210009D4
:010122000BD1
:010123000ECD
:0101240004D6
:0101250002D7
:0101260018C0
:010127001ABD
:0101280019BD
:0101290009CC
:01012A001CB8
:01012B0007CC
:01012C0019B9
:01012D0006CB
:01012E0004CC
:01012F0000CF
:0101300012BC
:010131000BC2
:010132001DAF
:010133001CAF
:010134001CAE
:010135000EBB
:0101360006C2
:0101370017B0
:0101380016B0
:0101390013B2
:01013A0003C1
:01013B0017AC
:01013C0007BB
:01013D0001C0
:01013E001DA3
:01013F000BB4
:010140001F9F
:010141000DB0
:010142000AB2
:0101430007B4
:0101440019A1
:0101450011A8
:0101460006B2
:010147000BAC
:0101480012A4
:010149000FA6
:01014A00179D
:01014B001D96
:01014C00149E
:01014D00129F
:01014E0008A8
:01014F000CA3
:01015000129C
:010151000CA1
:010152000E9E
:010153000E9D
:0101540001A9
:010155001792
:0101560007A1
:0101570004A3
:0101580002A4
:01015900168F
:01015A001391
:01015B000F94
:01015C001D85
:01015D00128F
:01015E00019F
:01015F00009F
:01016000029C
:010161001C81
:010162000498
:010163000B90
:010164000892
:010165001089
:010166001583
:010167000E89
:010168000E88
:010169000A8B
:01016A00167E
:01016B00098A
:01016C00177B
:01016D00137E
:01016E00147C
:01016F000B84
:01017000117D
:010171001A73
:010172001973
:010173000685
:010174001278
:010175001574
:010176000385
:010177001176
:010178001472
:010179000184
:01017A000E76
:01017B000E75
:01017C00176B
:01017D000180
:01017E001E62
:01017F00047B
:010180000975
:01018100017C
:01018200017B
:010183000378
:010184001565
:010185001267
:010186000C6C
:010187001B5C
:010188001462
:010189000C69
:01018A00175D
:01018B000E65
:01018C00036F
:01018D000E63
:01018E00036D
:01018F001956
:010190000569
:010191001D50
:010192001854
:010193000962
:010194000763
:010195000861
:010196000167
:010197000A5D
:01019800184E
:010199001F46
:01019A00164E
:01019B00154E
:01019C000E54
:01019D001A47
:01019E001050
:01019F00025D
:0101A0000955
:0101A1001C41
:0101A2000D4F
:0101A3001645
:0101A4000D4D
:0101A5000554
:0101A600193F
:0101A7001B3C
:0101A8000155
:0101A9000550
:0101AA001C38
:0101AB001B38
:0101AC001939
:0101AD000E43
:0101AE000D43
:0101AF000F40
:0101B0000846
:0101B1001439
:0101B2000349
:0101B3000F3C
:0101B4000D3D
:0101B5001534
:0101B6001D2B
:0101B7001C2B
:0101B800073F
:0101B900182D
:0101BA000242
:0101BB001D26
:0101BC000141
:0101BD00033E
:0101BE001B25
:0101BF001E21
:0101C000043A
:0101C1000637
:0101C2001824
:0101C3001229
:0101C4000832
:0101C5001623
:0101C6001028
:0101C7000D2A
:0101C8000531
:0101C9000E27
:0101CA001F15
:0101CB001023
:0101CC00171B
:0101CD000C25
:0101CE00062A
:0101CF001C13
:0101D000032B
:0101D1001716
:0101D2000A22
:0101D3001714
:0101D4001416
:0101D5001811
:0101D6001A0E
:0101D7001314
:0101D800170F
:0101D9000124
:0101DA00071D
:0101DB001F04
:0101DC000220
:0101DD00071A
:0101DE00051B
:0101DF00150A
:0101E0000C12
:0101E1000419
:0101E2001408
:0101E300110A
:0101E4001604
:0101E5001AFF
:0101E6001206
:0101E70018FF
:0101E8000214
:0101E9000A0B
:0101EA00070D
:0101EB000F04
:0101EC001AF8
:0101ED00030E
:0101EE001DF3
:0101EF00030C
:0101F0000D01
:0101F10010FD
:0101F2000606
:0101F3000803
:0101F4000BFF
:0101F5000900
:0101F60018F0
:0101F70011F6
:0101F8000DF9
:0101F9000302
:0101FA000BF9
:0101FB001CE7
:0101FC0012F0
:0101FD001FE2
:0101FE001FE1
:0101FF000AF5
:0102000016E7
:010201001FDD
:0102020018E3
:010203001EDC
:0102040006F3
:010205000AEE
:0102060001F6
:0102070003F3
:0102080009EC
:010209000CE8
:01020A0003F0
:01020B0007EB
:01020C0010E1
:01020D0016DA
:01020E0012DD
:01020F001DD1
:010210000EDF
:010211001ECE
:0102120007E4
:010213001ECC
:010214001DCC
:010215001ECA
:0102160019CE
:0102170004E2
:010218001CC9
:0102190015CF
:01021A0009DA
:01021B0013CF
:01021C0008D9
:01021D0004DC
:01021E001DC2
:01021F000ED0
:010220000CD1
:0102210015C7
:010222001CBF
:010223001FBB
:0102240012C7
:0102250011C7
:0102260014C3
:0102270013C3
:0102280007CE
:010229000ACA
:01022A0013C0
:01022B001DB5
:01022C001FB2
:01022D0014BC
:01022E0012BD
:01022F0015B9
:0102300012BB
:0102310007C5
:0102320009C2
:0102330013B7
:010234001DAC
:0102350000C8
:0102360015B2
:0102370016B0
:010238001CA9
:0102390001C3
:01023A001AA9
:01023B0004BE
:01023C0017AA
:01023D000BB5
:01023E001DA2
:01023F0001BD
:0102400012AB
:010241000DAF
:0102420006B5
:0102430019A1
:010244001E9B
:010245000EAA
:0102460005B2
:01024700199D
:0102480007AE
:0102490004B0
:01024A000DA6
:01024B00189A
:01024C0001B0
:01024D0001AF
:01024E00119E
:01024F000BA3
:0102500006A7
:010251001F8D
:010252000C9F
:010253000AA0
:010254001198
:01025500198F
:010256001D8A
:01025700178F
:010258001F86
:010259001094
:01025A00049F
:01025B001290
:01025C00178A
:01025D000997
:01025E000699
:01025F00049A
:010260001D80
:010261000C90
:010262000B90
:010263001387
:010264001C7D
:010265000395
:010266000196
:010267000D89
:010268000590
:010269001E76
:01026A00167D
:01026B00068C
:01026C00058C
:01026D00117F
:01026E00008F
:01026F000F7F
:010270001677
:010271000F7D
:010272001675
:010273000288
:010274000F7A
:010275001672
:010276001176
:010277001A6C
:010278000D78
:010279000084
:01027A001172
:01027B00176B
:01027C000D74
:01027D001070
:01027E001669
:01027F001A64
:010280001766
:010281000874
:010282000675
:010283000971
:010284001069
:010285001167
:01028600086F
:010287001066
:010288000075
:01028900175D
:01028A000A69
:01028B00185A
:01028C001859
:01028D00066A
:01028E001A55
:01028F00125C
:010290000568
:010291000F5D
:010292000A61
:010293001258
:010294001E4B
:01029500095F
:010296001156
:010297000D59
:01029800184D
:010299000C58
:01029A00055E
:01029B001E44
:01029C000D54
:01029D00124E
:01029E00045B
:01029F00005E
:0102A0001E3F
:0102A1001A42
:0102A2000D4E
:0102A3001446
:0102A4000851
:0102A5000553
:0102A6000255
:0102A7001E38
:0102A8001045
:0102A900163E
:0102AA00074C
:0102AB000151
:0102AC001D34
:0102AD00163A
:0102AE000748
:0102AF000945
:0102B0001934
:0102B100103C
:0102B2000B40
:0102B3000149
:0102B4001039
:0102B5001137
:0102B6000047
:0102B700172F
:0102B8001233
:0102B900093B
:0102BA001A29
:0102BB001F23
:0102BC001130
:0102BD000D33
:0102BE000C33
:0102BF000B33
:0102C0000439
:0102C100102C
:0102C2000D2E
:0102C3001624
:0102C4000336
:0102C5000F29
:0102C600181F
:0102C700171F
:0102C800082D
:0102C9000430
:0102CA00092A
:0102CB000E24
:0102CC00121F
:0102CD000E22
:0102CE001E11
:0102CF001B13
:0102D000022B
:0102D1000F1D
:0102D2001912
:0102D3001F0B
:0102D4001C0D
:0102D500091F
:0102D6000324
:0102D7000323
:0102D800061F
:0102D900071D
:0102DA000023
:0102DB000D15
:0102DC000A17
:0102DD000F11
:0102DE001B04
:0102DF000915
:0102E000120B
:0102E100110B
:0102E2000417
:0102E3000416
:0102E4000D0C
:0102E5001AFE
:0102E6000611
:0102E7000E08
:0102E8000B0A
:0102E9001BF9
:0102EA0016FD
:0102EB001BF7
:0102EC00020F
:0102ED000A06
:0102EE000A05
:0102EF00010D
:0102F0000805
:0102F1001BF1
:0102F20018F3
:0102F30016F4
:0102F40014F5
:0102F5000DFB
:0102F60019EE
:0102F70018EE
:0102F8000302
:0102F90015EF
:0102FA000BF8
:0102FB000002
:0102FC0011F0
:0102FD0016EA
:0102FE000EF1
:0102FF0012EC
:010300001EDE
:0103010010EB
:0103020001F9
:010303000DEC
:0103040010E8
:0103050005F2
:0103060009ED
:0103070016DF
:0103080008EC
:010309001CD7
:01030A000CE6
:01030B0015DC
:01030C0011DF
:01030D001CD3
:01030E0013DB
:01030F0011DC
:0103100011DB
:0103110011DA
:010312000AE0
:0103130019D0
:0103140019CF
:0103150007E0
:010316001CCA
:0103170018CD
:0103180014D0
:010319000BD8
:01031A001BC7
:01031B0000E1
:01031C0013CD
:01031D0012CD
:01031E0019C5
:01031F0002DB
:010320000BD1
:010321000DCE
:0103220008D2
:0103230015C4
:010324000FC9
:0103250015C2
:0103260001D5
:010327000DC8
:010328001ABA
:010329001EB5
:01032A001AB8
:01032B0007CA
:01032C0002CE
:01032D0006C9
:01032E0010BE
:01032F001CB1
:0103300006C6
:0103310008C3
:0103320001C9
:010333000BBE
:0103340002C6
:0103350003C4
:0103360009BD
:0103370011B4
:0103380018AC
:0103390017AC
:01033A000DB5
:01033B0015AC
:01033C0009B7
:01033D0009B6
:01033E000FAF
:01033F0016A7
:010340001CA0
:010341001D9E
:0103420014A6
:010343001C9D
:0103440016A2
:01034500199E
:0103460004B2
:0103470011A4
:010348001F95
:0103490008AB
:01034A0009A9
:01034B001F92
:01034C0003AD
:01034D00159A
:01034E00109E
:01034F000F9E
:010350000F9D
:010351000E9D
:0103520005A5
:010353001297
:010354001197
:010355001F88
:01035600188E
:01035700188D
:010358001C88
:010359001E85
:01035A001C86
:01035B00138E
:01035C001F81
:01035D001B84
:01035E00049A
:01035F001984
:01036000118B
:010361000D8E
:010362000892
:010363001D7C
:010364000A8E
:010365000A8D
:010366001C7A
:01036700197C
:010368000094
:010369000C87
:01036A001A78
:01036B00078A
:01036C001080
:01036D000D82
:01036E00008E
:01036F00038A
:01037000127A
:010371000B80
:010372000A80
:010373000B7E
:010374000A7E
:010375000582
:010376001670
:010377001D68
:010378001470
:010379001A69
:01037A00077B
:01037B001D64
:01037C00156B
:01037D000C73
:01037E00007E
:01037F000C71
:010380000D6F
:01038100017A
:010382000278
:010383001069
:010384000573
:010385001E59
:01038600185E
:010387001164
:010388000173
:010389000B68
:01038A00086A
:01038B00145D
:01038C000E62
:01038D00115E
:01038E001C52
:01038F000766
:010390001458
:010391001C4F
:010392001E4C
:010393001554
:010394001F49
:01039500194E
:010396001E48
:010397000C59
:010398000064
:01039900164D
:01039A000A58
:01039B001B46
:01039C00055B
:01039D00025D
:01039E00134B
:01039F00134A
:0103A0001E3E
:0103A1001348
:0103A2000D4D
:0103A3000752
:0103A4000157
:0103A500193E
:0103A600074F
:0103A7000C49
:0103A8000351
:0103A900094A
:0103AA001C36
:0103AB001839
:0103AC001937
:0103AD001D32
:0103AE00014D
:0103AF00024B
:0103B0001B31
:0103B1000C3F
:0103B200103A
:0103B3000346
:0103B4000444
:0103B5000F38
:0103B6000244
:0103B700182D
:0103B8000E36
:0103B900043F
:0103BA00142E
:0103BB001A27
:0103BC001729
:0103BD000639
:0103BE00023C
:0103BF000C31
:0103C0001E1E
:0103C1001427
:0103C2000F2B
:0103C3000A2F
:0103C4000038
:0103C5001126
:0103C600181E
:0103C7001421
:0103C8000133
:0103C9001C17
:0103CA00032F
:0103CB001120
:0103CC00042C
:0103CD001A15
:0103CE00101E
:0103CF00022B
:0103D0000E1E
:0103D1000F1C
:0103D2000525
:0103D3000C1D
:0103D4000226
:0103D5000324
:0103D6000A1C
:0103D700190C
:0103D8000A1A
:0103D9001B08
:0103DA00081A
:0103DB000F12
:0103DC000F11
:0103DD00021D
:0103DE000717
:0103DF001B02
:0103E0001A02
:0103E1000318
:0103E2001208
:0103E3000415
:0103E4001800
:0103E500090E
:0103E6001600
:0103E7001BFA
:0103E80015FF
:0103E900040F
:0103EA000012
:0103EB000C05
:0103EC00020E
:0103ED001FF0
:0103EE00020C
:0103EF000706
:0103F0000DFF
:0103F1000EFD
:0103F2000A00
:0103F3001DEC
:0103F4000701
:0103F5000106
:0103F6000BFB
:0103F7000203
:0103F8000301
:0103F9000CF7
:0103FA0018EA
:0103FB0007FA
:0103FC0016EA
:0103FD0002FD
:0103FE0008F6
:0103FF0005F8
:0104000016E5
:0104010019E1
:010402000EEB
:010403000DEB
:0104040019DE
:010405000BEB
:0104060002F3
:010407001CD8
:0104080015DE
:010409000DE5
:01040A001ED3
:01040B0008E8
:01040C0007E8
:01040D001AD4
:01040E001CD1
:01040F000CE0
:0104100009E2
:010411000CDE
:0104120017D2
:0104130005E3
:0104140014D3
:0104150001E5
:010416000CD9
:010417000ED6
:0104180008DB
:0104190017CB
:01041A0017CA
:01041B0007D9
:01041C0002DD
:01041D000AD4
:01041E001AC3
:01041F000ECE
:0104200004D7
:010421001CBE
:0104220012C7
:0104230004D4
:010424000DCA
:010425000FC7
:0104260003D2
:010427000ACA
:0104280000D3
:0104290003CF
:01042A0010C1
:01042B0005CB
:01042C0000CF
:01042D001EB0
:01042E001CB1
:01042F001AB2
:0104300012B9
:0104310004C6
:010432000DBC
:010433000BBD
:010434001BAC
:010435001BAB
:0104360009BC
:0104370002C2
:0104380003C0
:010439000BB7
:01043A0017AA
:01043B0004BC
:01043C0012AD
:01043D001CA2
:01043E0001BC
:01043F001D9F
:0104400010AB
:0104410017A3
:0104420010A9
:0104430017A1
:0104440009AE
:0104450008AE
:010446000EA7
:010447001A9A
:010448000AA9
:010449001A98
:01044A000AA7
:01044B00159B
:01044C001D92
:01044D001B93
:01044E000E9F
:01044F001696
:010450000F9C
:010451001793
:010452000D9C
:010453000C9C
:010454001295
:0104550000A6
:010456001194
:0104570004A0
:01045800168D
:01045900069C
:01045A000F92
:01045B00118F
:01045C000B94
:01045D001787
:01045E001786
:01045F000696
:01046000019A
:010461000A90
:010462001B7E
:010463001385
:010464001087
:010465001086
:010466001085
:010467000F85
:01046800098A
:010469001E74
:01046A000B86
:01046B000D83
:01046C00038C
:01046D000A84
:01046E00018C
:01046F000587
:010470001477
:010471000C7E
:010472000A7F
:010473000D7B
:010474001374
:01047500196D
:010476001E67
:010477001E66
:010478001A69
:010479000D75
:01047A00146D
:01047B00126E
:01047C00007F
:01047D001F5F
:01047E000A73
:01047F00027A
:010480000279
:010481000B6F
:010482001861
:010483000A6E
:010484001B5C
:010485000C6A
:010486001B5A
:01048700056F
:01048800076C
:010489000171
:01048A001061
:01048B00125E
:01048C00046B
:01048D000668
:01048E001558
:01048F000D5F
:01049000105B
:010491001852
:010492000861
:010493001850
:010494000A5D
:010495001B4B
:01049600095C
:010497001252
:01049800144F
:010499000D55
:01049A001C45
:01049B001D43
:01049C00104F
:01049D00114D
:01049E001F3E
:01049F001A42
:0104A0001D3E
:0104A1000753
:0104A2001841
:0104A3000B4D
:0104A4001F38
:0104A5001541
:0104A600074E
:0104A700163E
:0104A8001D36
:0104A9001E34
:0104AA00143D
:0104AB001F31
:0104AC001B34
:0104AD000846
:0104AE00034A
:0104AF000B41
:0104B0001E2D
:0104B1001832
:0104B2001C2D
:0104B3000246
:0104B4000C3B
:0104B500182E
:0104B6000342
:0104B7000B39
:0104B8000F34
:0104B9000D35
:0104BA00023F
:0104BB000E32
:0104BC000F30
:0104BD00013D
:0104BE000439
:0104BF001527
:0104C0001427
:0104C1001E1C
:0104C2001029
:0104C3000A2E
:0104C4000B2C
:0104C5000E28
:0104C6001421
:0104C700191B
:0104C8001D16
:0104C9001E14
:0104CA00171A
:0104CB000C24
:0104CC001619
:0104CD001717
:0104CE000B22
:0104CF00111B
:0104D0000526
:0104D1000921
:0104D2001A0F
:0104D3001513
:0104D400180F
:0104D5000224
:0104D6001213
:0104D700051F
:0104D8001A09
:0104D9001111
:0104DA00041D
:0104DB00150B
:0104DC001F00
:0104DD00041A
:0104DE001FFE
:0104DF00100C
:0104E0001407
:0104E1000C0E
:0104E2001306
:0104E300090F
:0104E4000C0B
:0104E5001AFC
:0104E6001302
:0104E7001202
:0104E80018FB
:0104E9000210
:0104EA000F02
:0104EB001DF3
:0104EC000B04
:0104ED0016F8
:0104EE001CF1
:0104EF001EEE
:0104F00018F3
:0104F1000901
:0104F2000EFB
:0104F3000800
:0104F40014F3
:0104F50010F6
:0104F6001AEB
:0104F70010F4
:0104F80013F0
:0104F9001FE3
:0104FA0012EF
:0104FB000EF2
:0104FC000BF4
:0104FD000DF1
:0104FE0011EC
:0104FF0014E8
:0105000015E5
:0105010012E7
:010502000BED
:010503001CDB
:0105040006F0
:0105050004F1
:0105060019DB
:010507001DD6
:0105080015DD
:010509001CD5
:01050A0011DF
:01050B0012DD
:01050C001ED0
:01050D0012DB
:01050E000EDE
:01050F0012D9
:0105100019D1
:0105110002E7
:010512000CDC
:0105130016D1
:010514001FC7
:0105150005E0
:0105160003E1
:010517001CC7
:010518000ED4
:0105190014CD
:01051A0010D0
:01051B001EC1
:01051C001EC0
:01051D000FCE
:01051E000CD0
:01051F0019C2
:010520000FCB
:0105210010C9
:0105220018C0
:0105230008CF
:010524001CBA
:0105250014C1
:0105260010C4
:010527000BC8
:0105280004CE
:010529001DB4
:01052A0011BF
:01052B0000CF
:01052C0006C8
:01052D0006C7
:01052E001AB2
:01052F0005C6
:0105300000CA
:010531000FBA
:010532000EBA
:010533001AAD
:0105340013B3
:0105350019AC
:0105360009BB
:010537001FA4
:010538001FA3
:0105390004BD
:01053A000DB3
:01053B0018A7
:01053C0006B8
:01053D0012AB
:01053E001D9F
:01053F0005B6
:0105400008B2
:0105410005B4
:010542001B9D
:0105430007B0
:010544000AAC
:0105450001B4
:010546000AAA
:0105470004AF
:010548000EA4
:0105490007AA
:01054A000DA3
:01054B001D92
:01054C001896
:01054D001D90
:01054E0009A3
:01054F001992
:010550000E9C
:0105510007A2
:0105520001A7
:010553001B8C
:010554001591
:010555000C99
:010556001F85
:010557000B98
:010558001191
:010559000F92
:01055A00039D
:01055B000D92
:01055C000B93
:01055D001A83
:01055E001A82
:01055F000992
:010560000892
:010561001188
:010562000890
:010563000790
:010564001086
:010565001F76
:01056600157F
:010567000F84
:010568000C86
:010569000B86
:01056A000A86
:01056B000986
:01056C000688
:01056D001F6E
:01056E001379
:01056F00008B
:010570000684
:010571000287
:010572001573
:010573001D6A
:010574001670
:010575000382
:010576001F65
:01057700097A
:01057800037F
:010579000978
:01057A001A66
:01057B00136C
:01057C001767
:01057D00027B
:01057E00126A
:01057F000675
:010580001E5C
:010581001861
:010582001266
:010583000C6B
:010584000373
:01058500195C
:010586000A6A
:01058700145F
:01058800165C
:01058900125F
:01058A00046C
:01058B000A65
:01058C000569
:01058D00115C
:01058E00105C
:01058F001E4D
:010590001A50
:010591000564
:010592001C4C
:010593001D4A
:01059400075F
:010595001C49
:01059600174D
:01059700174C
:010598001D45
:01059900065B
:01059A00114F
:01059B001D42
:01059C000955
:01059D00134A
:01059E001A42
:01059F001D3E
:0105A0001B3F
:0105A1001445
:0105A2000355
:0105A3000B4C
:0105A400074F
:0105A500193C
:0105A6001D37
:0105A700163D
:0105A8001D35
:0105A900163B
:0105AA001B35
:0105AB000F40
:0105AC000F3F
:0105AD001A33
:0105AE000E3E
:0105AF000B40
:0105B000103A
:0105B1001B2E
:0105B2000A3E
:0105B3001C2B
:0105B4001234
:0105B5000A3B
:0105B6000242
:0105B700182B
:0105B8000B37
:0105B9001C25
:0105BA000937
:0105BB000E31
:0105BC000E30
:0105BD000637
:0105BE001428
:0105BF001823
:0105C0000F2B
:0105C1001B1E
:0105C2001820
:0105C300082F
:0105C4000531
:0105C5001223
:0105C6000D27
:0105C700141F
:0105C800052D
:0105C9000031
:0105CA00062A
:0105CB00121D
:0105CC00042A
:0105CD001C11
:0105CE001913
:0105CF001912
:0105D0001B0F
:0105D1001E0B
:0105D2000127
:0105D3000225
:0105D4001F07
:0105D5001B0A
:0105D6001212
:0105D7000122
:0105D8000B17
:0105D9000B16
:0105DA00041C
:0105DB00110E
:0105DC00140A
:0105DD000A13
:0105DE00110B
:0105DF000A11
:0105E0001406
:0105E1000C0D
:0105E2001107
:0105E3000512
:0105E4000412
:0105E5000C09
:0105E6000113
:0105E7001BF8
:0105E8001EF4
:0105E900060B
:0105EA0014FC
:0105EB000708
:0105EC001CF2
:0105ED0013FA
:0105EE000A02
:0105EF000209
:0105F00018F2
:0105F1000CFD
:0105F2001CEC
:0105F30009FE
:0105F4000FF7
:0105F5000FF6
:0105F60006FE
:0105F70014EF
:0105F8001AE8
:0105F90015EC
:0105FA0003FD
:0105FB0004FB
:0105FC0018E6
:0105FD001CE1
:0105FE000FED
:0105FF0012E9
:0106000002F7
:010601001FD9
:0106020009EE
:010603001BDB
:0106040018DD
:010605001DD7
:0106060009EA
:010607001DD5
:0106080015DC
:0106090014DC
:01060A0013DC
:01060B0016D8
:01060C0019D4
:01060D001DCF
:01060E0002E9
:01060F0002E8
:0106100001E8
:010611001CCC
:0106120013D4
:0106130003E3
:010614000DD8
:010615000FD5
:0106160007DC
:0106170016CC
:0106180019C8
:0106190012CE
:01061A001DC2
:01061B001AC4
:01061C0009D4
:01061D0007D5
:01061E0014C7
:01061F000FCB
:0106200019C0
:010621000DCB
:010622000DCA
:0106230017BF
:010624000BCA
:0106250006CE
:0106260009CA
:0106270011C1
:0106280000D1
:0106290013BD
:01062A0008C7
:01062B0000CE
:01062C0019B4
:01062D0013B9
:01062E000CBF
:01062F0004C6
:0106300019B0
:010631000ABE
:0106320018AF
:010633001FA7
:010634001FA6
:0106350019AB
:010636000CB7
:0106370012B0
:0106380010B1
:0106390003BD
:01063A000BB4
:01063B0005B9
:01063C000FAE
:01063D000CB0
:01063E0019A2
:01063F0015A5
:010640001F9A
:0106410017A1
:010642001A9D
:0106430009AD
:0106440001B4
:0106450004B0
:0106460010A3
:0106470003AF
:010648001E93
:010649001D93
:01064A0003AC
:01064B000BA3
:01064C001697
:01064D0004A8
:01064E001398
:01064F0003A7
:010650001198
:010651001E8A
:01065200089F
:010653000F97
:010654001194
:010655000F95
:01065600069D
:01065700178B
:010658001F82
:010659001F81
:01065A00158A
:01065B001F7F
:01065C001E7F
:01065D001389
:01065E001883
:01065F00108A
:010660001881
:010661001286
:01066200187F
:010663000D89
:010664001283
:010665000193
:010666001C77
:010667000290
:010668001081
:010669000987
:01066A000986
:01066B00127C
:01066C001F6E
:01066D001379
:01066E000A81
:01066F000684
:010670000386
:010671000484
:010672000582
:01067300077F
:01067400067F
:01067500067E
:010676000281
:010677001C66
:010678001170
:01067900017F
:01067A000B74
:01067B000F6F
:01067C000C71
:01067D001E5E
:01067E000972
:01067F000A70
:010680001E5B
:010681000870
:010682000572
:010683001462
:010684001560
:01068500076D
:01068600096A
:010687001A58
:010688001859
:01068900066A
:01068A00006F
:01068B00046A
:01068C00135A
:01068D000E5E
:01068E001259
:01068F001D4D
:010690001158
:010691000D5B
:010692000C5B
:010693001254
:010694001D48
:01069500095B
:010696001A49
:010697000B57
:010698001F42
:01069900134D
:01069A000659
:01069B001846
:01069C000756
:01069D001349
:01069E001B40
:01069F000159
:0106A0001E3B
:0106A1001741
:0106A2000A4D
:0106A3001343
:0106A4001342
:0106A5000B49
:0106A600193A
:0106A7001B37
:0106A800123F
:0106A9001C34
:0106AA001837
:0106AB000747
:0106AC000647
:0106AD001735
:0106AE001635
:0106AF000446
:0106B0000049
:0106B1000840
:0106B2001F28
:0106B3001F27
:0106B4000A3B
:0106B5000143
:0106B6001F24
:0106B700063C
:0106B800162B
:0106B9000A36
:0106BA000639
:0106BB000836
:0106BC000E2F
:0106BD001626
:0106BE000338
:0106BF001228
:0106C0000237
:0106C1001325
:0106C2000433
:0106C3001521
:0106C4000332
:0106C5000F25
:0106C600181B
:0106C7001E14
:0106C8001F12
:0106C9001A16
:0106CA000F20
:0106CB001E10
:0106CC000528
:0106CD000428
:0106CE001912
:0106CF000426
:0106D0000623
:0106D1001B0D
:0106D2000621
:0106D3000125
:0106D4001114
:0106D5001212
:0106D600041F
:0106D700061C
:0106D8001809
:0106D9001709
:0106DA000718
:0106DB00021C
:0106DC000B12
:0106DD001DFF
:0106DE001EFD
:0106DF000614
:0106E0001900
:0106E1001503
:0106E20019FE
:0106E3000511
:0106E40017FE
:0106E5000F05
:0106E6000D06
:0106E7000F03
:0106E80014FD
:0106E9001FF1
:0106EA000A05
:0106EB0017F7
:0106EC000508
:0106ED0014F8
:0106EE000209
:0106EF000EFC
:0106F0001AEF
:0106F1000206
:0106F2000700
:0106F30009FD
:0106F4000401
:0106F5001CE8
:0106F6000DF6
:0106F70016EC
:0106F8001AE7
:0106F90015EB
:0106FA0005FA
:0106FB000EF0
:0106FC000CF1
:0106FD001EDE
:0106FE0006F5
:0106FF0000FA
:010700000DEB
:010701000DEA
:010702001ED8
:0107030001F4
:0107040013E1
:0107050015DE
:0107060006EC
:0107070006EB
:0107080012DE
:010709000BE4
:01070A000FDF
:01070B0000ED
:01070C001CD0
:01070D0000EB
:01070E000FDB
:01070F0006E3
:0107100006E2
:010711000CDB
:010712001ACC
:010713000CD9
:0107140005DF
:0107150003E0
:0107160004DE
:0107170009D8
:0107180010D0
:0107190019C6
:01071A0003DB
:01071B000FCE
:01071C0019C3
:01071D0005D6
:01071E000ECC
:01071F0015C4
:0107200019BF
:010721001ABD
:0107220017BF
:010723000FC6
:0107240002D2
:0107250011C2
:0107260017BB
:0107270016BB
:010728000EC2
:010729001DB2
:01072A0003CB
:01072B0000CD
:01072C0011BB
:01072D0018B3
:01072E0013B7
:01072F0001C8
:0107300002C6
:0107310016B1
:010732001BAB
:0107330011B4
:0107340018AC
:010735000EB5
:0107360014AE
:0107370008B9
:010738000BB5
:010739001AA5
:01073A0016A8
:01073B001E9F
:01073C0010AC
:01073D000EAD
:01073E0016A4
:01073F0007B2
:0107400000B8
:0107410004B3
:010742000CAA
:010743001D98
:01074400159F
:0107450012A1
:0107460012A0
:010747001998
:0107480003AD
:01074900119E
:01074A0000AE
:01074B00129B
:01074C0005A7
:01074D001992
:01074E000D9D
:01074F0000A9
:010750001395
:0107510003A4
:010752001294
:010753001E87
:01075400069E
:01075500099A
:01075600089A
:01075700039E
:01075800168A
:01075900039C
:01075A000A94
:01075B000994
:01075C001F7D
:01075D000C8F
:01075E000F8B
:01075F000891
:010760001781
:010761001B7C
:010762001185
:010763001D78
:010764001A7A
:010765000B88
:010766000D85
:010767001F72
:01076800028E
:010769001679
:01076A001876
:01076B000A83
:01076C000983
:01076D001576
:01076E00107A
:01076F001772
:01077000097F
:010771000681
:010772000E78
:010773000085
:010774001C68
:010775000281
:010776000E74
:01077700037E
:010778001F61
:01077900027D
:01077A000B73
:01077B001964
:01077C000B71
:01077D000378
:01077E001F5B
:01077F001E5B
:010780001E5A
:010781000275
:010782000670
:010783000B6A
:010784001163
:01078500175C
:010786001C56
:010787000071
:01078800016F
:01078900006F
:01078A001C52
:01078B001657
:01078C000A62
:01078D001A51
:01078E000565
:01078F000A5F
:010790000860
:010791000067
:010792001155
:01079300184D
:01079400174D
:010795000E55
:010796001C46
:010797001E43
:01079800154B
:01079900035C
:01079A00045A
:01079B001845
:01079C001F3D
:01079D001843
:01079E000456
:01079F000257
:0107A0001048
:0107A1000E49
:0107A2001D39
:0107A3001B3A
:0107A400064E
:0107A5000251
:0107A6000A48
:0107A7001F32
:0107A800014F
:0107A9000F40
:0107AA000747
:0107AB000C41
:0107AC001B31
:0107AD001338
:0107AE001535
:0107AF000148
:0107B0001434
:0107B1001037
:0107B2001135
:0107B3001B2A
:0107B4000A3A
:0107B5000043
:0107B6001929
:0107B7001928
:0107B8001B25
:0107B900023D
:0107BA000C32
:0107BB001924
:0107BC000735
:0107BD001724
:0107BE000733
:0107BF001920
:0107C0000A2E
:0107C1001B1C
:0107C2000B2B
:0107C300191C
:0107C400052F
:0107C5000F24
:0107C600151D
:0107C7001819
:0107C800151B
:0107C900111E
:0107CA000529
:0107CB001518
:0107CC001E0E
:0107CD00002B
:0107CE001B0F
:0107CF000E1B
:0107D0001A0E
:0107D1001D0A
:0107D2001610
:0107D300061F
:0107D4000C18
:0107D500071C
:0107D600160C
:0107D7001A07
:0107D800110F
:0107D9001C03
:0107DA001B03
:0107DB000B12
:0107DC000D0F
:0107DD00011A
:0107DE000515
:0107DF001900
:0107E0001EFA
:0107E1001205
:0107E2001501
:0107E3000510
:0107E400050F
:0107E5001102
:0107E6000A08
:0107E7001001
:0107E800010F
:0107E9001EF1
:0107EA000707
:0107EB0019F4
:0107EC0014F8
:0107ED001CEF
:0107EE000A00
:0107EF000207
:0107F0000107
:0107F10009FE
:0107F20017EF
:0107F3000CF9
:0107F40007FD
:0107F50008FB
:0107F6000EF4
:0107F70019E8
:0107F80008F8
:0107F9001AE5
:0107FA0010EE
:0107FB0009F4
:0107FC0004F8
:0107FD0002F9
:0107FE0000FA
:0107FF001FDA
:00000001ff
