:020000040000FA
:010000001EE1
:010001001CE2
:0100020019E4
:0100030017E5
:0100040015E6
:0100050012E8
:010006000FEA
:010007000DEB
:010008000AED
:0100090008EE
:01000A0006EF
:01000B0003F1
:01000C0001F2
:01000D001FD3
:01000E001CD5
:01000F0019D7
:0100100017D8
:0100110015D9
:0100120012DB
:0100130010DC
:010014000DDE
:010015000BDF
:0100160009E0
:0100170006E2
:0100180005E2
:0100190002E4
:01001A0000E5
:01001B001EC6
:01001C001BC8
:01001D0019C9
:01001E0016CB
:01001F0014CC
:0100200011CE
:0100210010CE
:010022000ECF
:010023000BD1
:0100240009D2
:0100250007D3
:0100260005D4
:0100270002D6
:0100280000D7
:010029001EB8
:01002A001CB9
:01002B0019BB
:01002C0017BC
:01002D0015BD
:01002E0013BE
:01002F0011BF
:010030000FC0
:010031000CC2
:010032000AC3
:0100330008C4
:0100340005C6
:0100350004C6
:0100360001C8
:010037001FA9
:010038001DAA
:010039001BAB
:01003A0019AC
:01003B0017AD
:01003C0015AE
:01003D0013AF
:01003E0011B0
:01003F000FB1
:010040000CB3
:010041000AB4
:0100420008B5
:0100430006B6
:0100440004B7
:0100450002B8
:0100460000B9
:010047001E9A
:010048001C9B
:010049001A9C
:01004A00189D
:01004B00169E
:01004C00149F
:01004D00139F
:01004E0010A1
:01004F000EA2
:010050000CA3
:010051000AA4
:0100520008A5
:0100530006A6
:0100540004A7
:0100550002A8
:0100560000A9
:010057001E8A
:010058001C8B
:010059001A8C
:01005A00188D
:01005B00178D
:01005C00158E
:01005D001290
:01005E001190
:01005F000F91
:010060000D92
:010061000B93
:010062000994
:010063000894
:010064000695
:010065000397
:010066000198
:010067000098
:010068001E79
:010069001C7A
:01006A001A7B
:01006B00187C
:01006C00167D
:01006D00157D
:01006E00137E
:01006F00117F
:010070000F80
:010071000E80
:010072000B82
:010073000A82
:010074000883
:010075000684
:010076000485
:010077000385
:010078000186
:010079001F67
:01007A001D68
:01007B001C68
:01007C001A69
:01007D00186A
:01007E00176A
:01007F00146C
:01008000136C
:01008100116D
:010082000F6E
:010083000D6F
:010084000C6F
:010085000A70
:010086000871
:010087000771
:010088000572
:010089000373
:01008A000273
:01008B000074
:01008C001E55
:01008D001D55
:01008E001B56
:01008F001957
:010090001857
:010091001658
:010092001459
:010093001359
:01009400115A
:010095000F5B
:010096000E5B
:010097000C5C
:010098000A5D
:01009900095D
:01009A00075E
:01009B00055F
:01009C00045F
:01009D00035F
:01009E000160
:01009F000060
:0100A0001D42
:0100A1001C42
:0100A2001B42
:0100A3001943
:0100A4001744
:0100A5001644
:0100A6001544
:0100A7001345
:0100A8001146
:0100A9001046
:0100AA000E47
:0100AB000D47
:0100AC000B48
:0100AD000A48
:0100AE000849
:0100AF00064A
:0100B000054A
:0100B100034B
:0100B200014C
:0100B300004C
:0100B4001F2C
:0100B5001E2C
:0100B6001C2D
:0100B7001A2E
:0100B800182F
:0100B900172F
:0100BA00162F
:0100BB001430
:0100BC001231
:0100BD001230
:0100BE001031
:0100BF000F31
:0100C0000D32
:0100C1000C32
:0100C2000A33
:0100C3000834
:0100C4000734
:0100C5000634
:0100C6000435
:0100C7000335
:0100C8000136
:0100C9000036
:0100CA001F16
:0100CB001D17
:0100CC001B18
:0100CD001A18
:0100CE001918
:0100CF001719
:0100D0001718
:0100D1001519
:0100D2001419
:0100D300121A
:0100D400101B
:0100D5000F1B
:0100D6000E1B
:0100D7000C1C
:0100D8000B1C
:0100D900091D
:0100DA00081D
:0100DB00081C
:0100DC00061D
:0100DD00051D
:0100DE00031E
:0100DF00021E
:0100E000001F
:0100E1001FFF
:0100E2001EFF
:0100E3001C00
:0100E4001B00
:0100E5001901
:0100E6001900
:0100E7001701
:0100E8001502
:0100E9001501
:0100EA001302
:0100EB001202
:0100EC001003
:0100ED000F03
:0100EE000E03
:0100EF000C04
:0100F0000B04
:0100F1000A04
:0100F2000805
:0100F3000804
:0100F4000605
:0100F5000406
:0100F6000405
:0100F7000206
:0100F8000106
:0100F9001FE7
:0100FA001FE6
:0100FB001EE6
:0100FC001CE7
:0100FD001BE7
:0100FE0019E8
:0100FF0019E7
:0101000017E7
:0101010016E7
:0101020014E8
:0101030013E8
:0101040012E8
:0101050011E8
:010106000FE9
:010107000FE8
:010108000DE9
:010109000CE9
:01010A000BE9
:01010B0009EA
:01010C0009E9
:01010D0007EA
:01010E0006EA
:01010F0005EA
:0101100004EA
:0101110003EA
:0101120002EA
:0101130000EB
:010114001FCB
:010115001ECB
:010116001DCB
:010117001CCB
:010118001BCB
:010119001ACB
:01011A0018CC
:01011B0017CC
:01011C0016CC
:01011D0014CD
:01011E0014CC
:01011F0013CC
:0101200011CD
:0101210010CD
:010122000FCD
:010123000ECD
:010124000DCD
:010125000CCD
:010126000ACE
:0101270009CE
:0101280008CE
:0101290007CE
:01012A0006CE
:01012B0005CE
:01012C0004CE
:01012D0003CE
:01012E0002CE
:01012F0000CF
:0101300000CE
:010131001FAE
:010132001EAE
:010133001CAF
:010134001BAF
:010135001AAF
:0101360019AF
:0101370018AF
:0101380018AE
:0101390016AF
:01013A0015AF
:01013B0013B0
:01013C0013AF
:01013D0011B0
:01013E0011AF
:01013F0010AF
:010140000EB0
:010141000DB0
:010142000DAF
:010143000CAF
:010144000BAF
:0101450009B0
:0101460008B0
:0101470008AF
:0101480007AF
:0101490005B0
:01014A0004B0
:01014B0003B0
:01014C0002B0
:01014D0002AF
:01014E0000B0
:01014F001F90
:010150001E90
:010151001E8F
:010152001C90
:010153001B90
:010154001A90
:010155001990
:010156001890
:010157001790
:010158001690
:01015900168F
:01015A001490
:01015B001390
:01015C001290
:01015D001190
:01015E001090
:01015F000F90
:010160000E90
:010161000D90
:010162000D8F
:010163000B90
:010164000A90
:010165000A8F
:01016600098F
:01016700088F
:01016800078F
:01016900068F
:01016A00058F
:01016B00048F
:01016C00038F
:01016D00028F
:01016E00028E
:01016F00008F
:010170001F6F
:010171001E6F
:010172001D6F
:010173001D6E
:010174001B6F
:010175001B6E
:010176001A6E
:01017700196E
:01017800186E
:01017900176E
:01017A00176D
:01017B00156E
:01017C00146E
:01017D00136E
:01017E00126E
:01017F00126D
:01018000116D
:01018100106D
:010182000F6D
:010183000F6C
:010184000D6D
:010185000C6D
:010186000B6D
:010187000A6D
:01018800096D
:01018900096C
:01018A00086C
:01018B00076C
:01018C00066C
:01018D00056C
:01018E00046C
:01018F00046B
:01019000026C
:01019100016C
:01019200016B
:01019300006B
:01019400006A
:010195001E4B
:010196001D4B
:010197001D4A
:010198001D49
:010199001B4A
:01019A001A4A
:01019B001A49
:01019C00184A
:01019D00174A
:01019E001749
:01019F001649
:0101A0001549
:0101A1001548
:0101A2001448
:0101A3001348
:0101A4001248
:0101A5001148
:0101A6001147
:0101A7001047
:0101A8000E48
:0101A9000E47
:0101AA000D47
:0101AB000C47
:0101AC000B47
:0101AD000B46
:0101AE000A46
:0101AF000946
:0101B0000846
:0101B1000845
:0101B2000745
:0101B3000645
:0101B4000545
:0101B5000445
:0101B6000444
:0101B7000344
:0101B8000244
:0101B9000243
:0101BA000143
:0101BB000043
:0101BC001F23
:0101BD001E23
:0101BE001E22
:0101BF001D22
:0101C0001C22
:0101C1001B22
:0101C2001B21
:0101C3001A21
:0101C4001921
:0101C5001821
:0101C6001721
:0101C7001621
:0101C8001620
:0101C9001520
:0101CA00151F
:0101CB00141F
:0101CC00131F
:0101CD00131E
:0101CE00121E
:0101CF00111E
:0101D000101E
:0101D100101D
:0101D2000E1E
:0101D3000D1E
:0101D4000D1D
:0101D5000D1C
:0101D6000B1D
:0101D7000B1C
:0101D8000A1C
:0101D9000A1B
:0101DA00091B
:0101DB00081B
:0101DC00071B
:0101DD00071A
:0101DE00061A
:0101DF00051A
:0101E000041A
:0101E1000419
:0101E2000319
:0101E3000219
:0101E4000218
:0101E5000118
:0101E6000018
:0101E7000017
:0101E8001FF7
:0101E9001EF7
:0101EA001EF6
:0101EB001DF6
:0101EC001CF6
:0101ED001CF5
:0101EE001AF6
:0101EF001AF5
:0101F0001AF4
:0101F10018F5
:0101F20018F4
:0101F30017F4
:0101F40017F3
:0101F50017F2
:0101F60015F3
:0101F70014F3
:0101F80014F2
:0101F90013F2
:0101FA0013F1
:0101FB0012F1
:0101FC0012F0
:0101FD0011F0
:0101FE0010F0
:0101FF000FF0
:010200000EEF
:010201000EEE
:010202000DEE
:010203000DED
:010204000CED
:010205000CEC
:010206000BEC
:010207000AEC
:0102080009EC
:0102090009EB
:01020A0008EB
:01020B0008EA
:01020C0007EA
:01020D0006EA
:01020E0005EA
:01020F0005E9
:0102100004E9
:0102110003E9
:0102120004E7
:0102130003E7
:0102140002E7
:0102150001E7
:0102160001E6
:0102170000E6
:0102180000E5
:010219001FC5
:01021A001EC5
:01021B001EC4
:01021C001DC4
:01021D001CC4
:01021E001CC3
:01021F001BC3
:010220001AC3
:010221001AC2
:0102220019C2
:0102230019C1
:0102240018C1
:0102250017C1
:0102260017C0
:0102270016C0
:0102280015C0
:0102290015BF
:01022A0014BF
:01022B0014BE
:01022C0013BE
:01022D0013BD
:01022E0012BD
:01022F0012BC
:0102300011BC
:0102310010BC
:0102320010BB
:0102330010BA
:010234000FBA
:010235000EBA
:010236000DBA
:010237000CBA
:010238000CB9
:010239000CB8
:01023A000BB8
:01023B000BB7
:01023C000AB7
:01023D0009B7
:01023E0009B6
:01023F0009B5
:0102400007B6
:0102410007B5
:0102420007B4
:0102430006B4
:0102440005B4
:0102450005B3
:0102460004B3
:0102470003B3
:0102480003B2
:0102490003B1
:01024A0002B1
:01024B0001B1
:01024C0001B0
:01024D0001AF
:01024E0000AF
:01024F0000AE
:010250001F8E
:010251001F8D
:010252001D8E
:010253001D8D
:010254001D8C
:010255001C8C
:010256001C8B
:010257001B8B
:010258001A8B
:010259001A8A
:01025A00198A
:01025B001989
:01025C001988
:01025D001888
:01025E001887
:01025F001787
:010260001786
:010261001686
:010262001586
:010263001585
:010264001485
:010265001484
:010266001384
:010267001383
:010268001382
:010269001183
:01026A001182
:01026B001181
:01026C001081
:01026D001080
:01026E000F80
:01026F000E80
:010270000E7F
:010271000D7F
:010272000D7E
:010273000C7E
:010274000C7D
:010275000C7C
:010276000B7C
:010277000A7C
:010278000A7B
:010279000A7A
:01027A00097A
:01027B000979
:01027C000879
:01027D000878
:01027E000877
:01027F000777
:010280000677
:010281000676
:010282000576
:010283000476
:010284000475
:010285000474
:010286000374
:010287000373
:010288000273
:010289000272
:01028A000172
:01028B000171
:01028C000170
:01028D000070
:01028E001F50
:01028F001F4F
:010290001E4F
:010291001E4E
:010292001D4E
:010293001D4D
:010294001D4C
:010295001C4C
:010296001C4B
:010297001B4B
:010298001B4A
:010299001A4A
:01029A00194A
:01029B001A48
:01029C001948
:01029D001848
:01029E001847
:01029F001846
:0102A0001746
:0102A1001745
:0102A2001645
:0102A3001644
:0102A4001544
:0102A5001543
:0102A6001443
:0102A7001442
:0102A8001342
:0102A9001341
:0102AA001241
:0102AB001240
:0102AC00123F
:0102AD00113F
:0102AE00113E
:0102AF00113D
:0102B000103D
:0102B1000F3D
:0102B200103B
:0102B3000E3C
:0102B4000E3B
:0102B5000E3A
:0102B6000D3A
:0102B7000D39
:0102B8000D38
:0102B9000C38
:0102BA000C37
:0102BB000B37
:0102BC000B36
:0102BD000B35
:0102BE000A35
:0102BF000A34
:0102C0000934
:0102C1000834
:0102C2000833
:0102C3000832
:0102C4000831
:0102C5000731
:0102C6000730
:0102C7000630
:0102C800062F
:0102C900052F
:0102CA00052E
:0102CB00042E
:0102CC00042D
:0102CD00032D
:0102CE00032C
:0102CF00032B
:0102D000022B
:0102D1000329
:0102D200012A
:0102D3000129
:0102D4000029
:0102D5000028
:0102D6000027
:0102D7001F07
:0102D8001F06
:0102D9001F05
:0102DA001E05
:0102DB001E04
:0102DC001E03
:0102DD001D03
:0102DE001C03
:0102DF001D01
:0102E0001C01
:0102E1001C00
:0102E2001CFF
:0102E3001BFF
:0102E4001BFE
:0102E5001AFE
:0102E60019FE
:0102E70019FD
:0102E80019FC
:0102E90019FB
:0102EA0017FC
:0102EB0018FA
:0102EC0017FA
:0102ED0017F9
:0102EE0016F9
:0102EF0016F8
:0102F00016F7
:0102F10015F7
:0102F20015F6
:0102F30014F6
:0102F40014F5
:0102F50014F4
:0102F60013F4
:0102F70013F3
:0102F80013F2
:0102F90012F2
:0102FA0012F1
:0102FB0011F1
:0102FC0011F0
:0102FD0010F0
:0102FE0011EE
:0102FF0010EE
:010300000FED
:010301000FEC
:010302000FEB
:010303000FEA
:010304000EEA
:010305000DEA
:010306000EE8
:010307000DE8
:010308000DE7
:010309000CE7
:01030A000CE6
:01030B000CE5
:01030C000CE4
:01030D000BE4
:01030E000AE4
:01030F000AE3
:0103100009E3
:0103110009E2
:0103120009E1
:0103130009E0
:0103140008E0
:0103150008DF
:0103160007DF
:0103170007DE
:0103180007DD
:0103190006DD
:01031A0006DC
:01031B0006DB
:01031C0006DA
:01031D0005DA
:01031E0006D8
:01031F0004D9
:0103200005D7
:0103210003D8
:0103220004D6
:0103230003D6
:0103240002D6
:0103250002D5
:0103260003D3
:0103270001D4
:0103280002D2
:0103290001D2
:01032A0001D1
:01032B0001D0
:01032C0000D0
:01032D0000CF
:01032E001FAF
:01032F001FAE
:010330001FAD
:010331001EAD
:010332001EAC
:010333001EAB
:010334001DAB
:010335001DAA
:010336001DA9
:010337001CA9
:010338001CA8
:010339001CA7
:01033A001CA6
:01033B001BA6
:01033C001AA6
:01033D001AA5
:01033E001AA4
:01033F001AA3
:0103400019A3
:0103410019A2
:0103420019A1
:0103430018A1
:0103440018A0
:01034500189F
:01034600189E
:01034700179E
:01034800179D
:01034900179C
:01034A00169C
:01034B00179A
:01034C00169A
:01034D00159A
:01034E001599
:01034F001598
:010350001498
:010351001497
:010352001496
:010353001495
:010354001395
:010355001394
:010356001294
:010357001293
:010358001292
:010359001192
:01035A001191
:01035B001190
:01035C00118F
:01035D00108F
:01035E00108E
:01035F00108D
:010360000F8D
:010361000F8C
:010362000F8B
:010363000F8A
:010364000F89
:010365000E89
:010366000E88
:010367000D88
:010368000D87
:010369000C87
:01036A000C86
:01036B000C85
:01036C000C84
:01036D000B84
:01036E000B83
:01036F000B82
:010370000B81
:010371000A81
:010372000A80
:010373000A7F
:010374000A7E
:01037500097E
:01037600097D
:01037700097C
:01037800087C
:01037900097A
:01037A00087A
:01037B000879
:01037C000878
:01037D000778
:01037E000777
:01037F000677
:010380000676
:010381000675
:010382000575
:010383000574
:010384000573
:010385000572
:010386000472
:010387000570
:010388000470
:010389000370
:01038A00036F
:01038B00036E
:01038C00036D
:01038D00026D
:01038E00036B
:01038F00026B
:01039000026A
:01039100016A
:010392000169
:010393000168
:010394000167
:010395000166
:010396000066
:010397000065
:010398000064
:010399000063
:01039A001F43
:01039B001F42
:01039C001F41
:01039D001E41
:01039E001E40
:01039F001E3F
:0103A0001D3F
:0103A1001D3E
:0103A2001D3D
:0103A3001C3D
:0103A4001C3C
:0103A5001C3B
:0103A6001B3B
:0103A7001C39
:0103A8001B39
:0103A9001B38
:0103AA001B37
:0103AB001B36
:0103AC001A36
:0103AD001A35
:0103AE001A34
:0103AF001A33
:0103B0001933
:0103B1001932
:0103B2001931
:0103B3001831
:0103B4001830
:0103B500182F
:0103B600182E
:0103B700182D
:0103B800172D
:0103B900172C
:0103BA00172B
:0103BB00162B
:0103BC00162A
:0103BD001629
:0103BE001529
:0103BF001528
:0103C0001626
:0103C1001526
:0103C2001525
:0103C3001524
:0103C4001424
:0103C5001423
:0103C6001323
:0103C7001322
:0103C8001321
:0103C9001320
:0103CA00131F
:0103CB00131E
:0103CC00121E
:0103CD00121D
:0103CE00121C
:0103CF00121B
:0103D000121A
:0103D100111A
:0103D2001119
:0103D3001019
:0103D4001018
:0103D5001116
:0103D6000F17
:0103D7001015
:0103D8001014
:0103D9000F14
:0103DA000F13
:0103DB000E13
:0103DC000F11
:0103DD000E11
:0103DE000E10
:0103DF000E0F
:0103E0000E0E
:0103E1000D0E
:0103E2000D0D
:0103E3000C0D
:0103E4000C0C
:0103E5000C0B
:0103E6000C0A
:0103E7000C09
:0103E8000B09
:0103E9000C07
:0103EA000B07
:0103EB000B06
:0103EC000B05
:0103ED000B04
:0103EE000A04
:0103EF000A03
:0103F0000A02
:0103F1000A01
:0103F2000901
:0103F3000900
:0103F40009FF
:0103F50009FE
:0103F60008FE
:0103F70008FD
:0103F80008FC
:0103F90008FB
:0103FA0007FB
:0103FB0007FA
:0103FC0007F9
:0103FD0007F8
:0103FE0007F7
:0103FF0007F6
:0104000006F5
:0104010006F4
:0104020006F3
:0104030005F3
:0104040006F1
:0104050006F0
:0104060005F0
:0104070005EF
:0104080004EF
:0104090005ED
:01040A0004ED
:01040B0004EC
:01040C0004EB
:01040D0004EA
:01040E0003EA
:01040F0003E9
:0104100003E8
:0104110002E8
:0104120003E6
:0104130002E6
:0104140002E5
:0104150002E4
:0104160002E3
:0104170001E3
:0104180001E2
:0104190001E1
:01041A0001E0
:01041B0001DF
:01041C0000DF
:01041D0000DE
:01041E0000DD
:01041F0000DC
:010420001FBC
:010421001FBB
:010422001FBA
:010423001FB9
:010424001EB9
:010425001FB7
:010426001EB7
:010427001EB6
:010428001DB6
:010429001EB4
:01042A001DB4
:01042B001DB3
:01042C001DB2
:01042D001DB1
:01042E001CB1
:01042F001DAF
:010430001CAF
:010431001CAE
:010432001CAD
:010433001CAC
:010434001BAC
:010435001BAB
:010436001BAA
:010437001BA9
:010438001AA9
:010439001AA8
:01043A001AA7
:01043B001AA6
:01043C001AA5
:01043D001AA4
:01043E001AA3
:01043F0019A3
:0104400019A2
:0104410019A1
:0104420019A0
:01044300199F
:01044400189F
:01044500189E
:01044600189D
:01044700179D
:01044800189B
:01044900179B
:01044A001899
:01044B001799
:01044C001798
:01044D001797
:01044E001697
:01044F001696
:010450001695
:010451001694
:010452001693
:010453001692
:010454001592
:010455001591
:010456001590
:01045700158F
:01045800148F
:01045900158D
:01045A00148D
:01045B00148C
:01045C00148B
:01045D00138B
:01045E001489
:01045F001488
:010460001388
:010461001387
:010462001386
:010463001286
:010464001285
:010465001284
:010466001283
:010467001282
:010468001281
:010469001280
:01046A00127F
:01046B00117F
:01046C00117E
:01046D00117D
:01046E00107D
:01046F00107C
:01047000107B
:01047100107A
:010472001079
:010473000F79
:010474000F78
:010475000F77
:010476000F76
:010477000F75
:010478000F74
:010479000F73
:01047A000E73
:01047B000E72
:01047C000E71
:01047D000E70
:01047E000D70
:01047F000E6E
:010480000D6E
:010481000D6D
:010482000D6C
:010483000D6B
:010484000D6A
:010485000D69
:010486000D68
:010487000D67
:010488000C67
:010489000C66
:01048A000C65
:01048B000C64
:01048C000C63
:01048D000B63
:01048E000B62
:01048F000B61
:010490000B60
:010491000A60
:010492000B5E
:010493000A5E
:010494000A5D
:010495000A5C
:01049600095C
:01049700095B
:01049800095A
:010499000959
:01049A000958
:01049B000957
:01049C000956
:01049D000955
:01049E000855
:01049F000854
:0104A0000853
:0104A1000852
:0104A2000851
:0104A3000850
:0104A4000750
:0104A500074F
:0104A600074E
:0104A700074D
:0104A800064D
:0104A900064C
:0104AA00064B
:0104AB000749
:0104AC000649
:0104AD000648
:0104AE000647
:0104AF000646
:0104B0000645
:0104B1000545
:0104B2000544
:0104B3000543
:0104B4000542
:0104B5000541
:0104B6000540
:0104B7000440
:0104B800043F
:0104B900043E
:0104BA00033E
:0104BB00033D
:0104BC00043B
:0104BD00043A
:0104BE000439
:0104BF000339
:0104C0000338
:0104C1000337
:0104C2000237
:0104C3000236
:0104C4000334
:0104C5000234
:0104C6000233
:0104C7000232
:0104C8000231
:0104C9000230
:0104CA000130
:0104CB00012F
:0104CC00012E
:0104CD00012D
:0104CE00012C
:0104CF00012B
:0104D000002B
:0104D100002A
:0104D2000029
:0104D3000028
:0104D4000126
:0104D5000026
:0104D6000025
:0104D7001F05
:0104D8001F04
:0104D9000022
:0104DA001F02
:0104DB001F01
:0104DC001F00
:0104DD001FFF
:0104DE001FFE
:0104DF001EFE
:0104E0001EFD
:0104E1001EFC
:0104E2001EFB
:0104E3001EFA
:0104E4001EF9
:0104E5001DF9
:0104E6001EF7
:0104E7001DF7
:0104E8001DF6
:0104E9001DF5
:0104EA001DF4
:0104EB001CF4
:0104EC001DF2
:0104ED001CF2
:0104EE001CF1
:0104EF001CF0
:0104F0001CEF
:0104F1001CEE
:0104F2001BEE
:0104F3001BED
:0104F4001CEB
:0104F5001BEB
:0104F6001CE9
:0104F7001BE9
:0104F8001BE8
:0104F9001BE7
:0104FA001AE7
:0104FB001BE5
:0104FC001AE5
:0104FD001AE4
:0104FE001AE3
:0104FF001AE2
:010500001AE0
:0105010019E0
:010502001ADE
:0105030019DE
:010504001ADC
:0105050019DC
:0105060019DB
:0105070018DB
:0105080019D9
:0105090019D8
:01050A0019D7
:01050B0018D7
:01050C0018D6
:01050D0018D5
:01050E0017D5
:01050F0018D3
:0105100018D2
:0105110017D2
:0105120017D1
:0105130017D0
:0105140017CF
:0105150017CE
:0105160017CD
:0105170017CC
:0105180017CB
:0105190016CB
:01051A0017C9
:01051B0016C9
:01051C0016C8
:01051D0016C7
:01051E0015C7
:01051F0016C5
:0105200015C5
:0105210015C4
:0105220015C3
:0105230015C2
:0105240015C1
:0105250014C1
:0105260015BF
:0105270015BE
:0105280014BE
:0105290015BC
:01052A0014BC
:01052B0015BA
:01052C0014BA
:01052D0014B9
:01052E0014B8
:01052F0014B7
:0105300013B7
:0105310013B6
:0105320014B4
:0105330013B4
:0105340013B3
:0105350013B2
:0105360013B1
:0105370012B1
:0105380012B0
:0105390013AE
:01053A0012AE
:01053B0012AD
:01053C0012AC
:01053D0012AB
:01053E0012AA
:01053F0012A9
:0105400011A9
:0105410011A8
:0105420011A7
:0105430011A6
:0105440011A5
:0105450011A4
:0105460011A3
:0105470011A2
:0105480010A2
:0105490010A1
:01054A00119F
:01054B00109F
:01054C00109E
:01054D00109D
:01054E00109C
:01054F00109B
:010550000F9B
:010551001099
:010552000F99
:010553000F98
:010554000F97
:010555000F96
:010556001094
:010557000F94
:010558000F93
:010559000F92
:01055A000E92
:01055B000E91
:01055C000F8F
:01055D000F8E
:01055E000E8E
:01055F000E8D
:010560000E8C
:010561000D8C
:010562000E8A
:010563000D8A
:010564000E88
:010565000D88
:010566000D87
:010567000D86
:010568000D85
:010569000D84
:01056A000D83
:01056B000D82
:01056C000D81
:01056D000D80
:01056E000D7F
:01056F000C7F
:010570000C7E
:010571000C7D
:010572000C7C
:010573000C7B
:010574000B7B
:010575000C79
:010576000C78
:010577000B78
:010578000B77
:010579000B76
:01057A000B75
:01057B000A75
:01057C000A74
:01057D000B72
:01057E000B71
:01057F000B70
:010580000A70
:010581000A6F
:010582000A6E
:010583000A6D
:01058400096D
:010585000A6B
:010586000A6A
:010587000A69
:010588000969
:010589000968
:01058A000967
:01058B000966
:01058C000965
:01058D000964
:01058E000963
:01058F000962
:010590000862
:010591000861
:010592000860
:01059300085F
:01059400085E
:01059500085D
:01059600085C
:01059700085B
:01059800085A
:010599000859
:01059A000759
:01059B000857
:01059C000856
:01059D000756
:01059E000755
:01059F000754
:0105A0000753
:0105A1000752
:0105A2000652
:0105A3000750
:0105A4000650
:0105A500074E
:0105A600064E
:0105A700074C
:0105A800064C
:0105A900064B
:0105AA00064A
:0105AB00054A
:0105AC000648
:0105AD000647
:0105AE000547
:0105AF000546
:0105B0000545
:0105B1000643
:0105B2000543
:0105B3000542
:0105B4000541
:0105B5000540
:0105B600053F
:0105B700053E
:0105B800043E
:0105B900043D
:0105BA00053B
:0105BB00043B
:0105BC00043A
:0105BD000439
:0105BE000438
:0105BF000437
:0105C0000337
:0105C1000435
:0105C2000335
:0105C3000433
:0105C4000333
:0105C5000332
:0105C6000331
:0105C7000330
:0105C800032F
:0105C900032E
:0105CA00032D
:0105CB00032C
:0105CC00022C
:0105CD00022B
:0105CE00022A
:0105CF000229
:0105D0000228
:0105D1000227
:0105D2000226
:0105D3000225
:0105D4000125
:0105D5000223
:0105D6000222
:0105D7000221
:0105D8000220
:0105D9000120
:0105DA00011F
:0105DB00011E
:0105DC00011D
:0105DD00011C
:0105DE00011B
:0105DF00011A
:0105E0000119
:0105E1000019
:0105E2000018
:0105E3000116
:0105E4000016
:0105E5000015
:0105E6000113
:0105E7000013
:0105E8000012
:0105E9000011
:0105EA000010
:0105EB00000F
:0105EC00000E
:0105ED00000D
:0105EE001FED
:0105EF00000B
:0105F0001FEB
:0105F1001FEA
:0105F2001FE9
:0105F3001FE8
:0105F4001FE7
:0105F5001FE6
:0105F6001FE5
:0105F7001EE5
:0105F8001EE4
:0105F9001FE2
:0105FA001FE1
:0105FB001FE0
:0105FC001FDF
:0105FD001EDF
:0105FE001EDE
:0105FF001EDD
:010600001EDB
:010601001DDB
:010602001ED9
:010603001ED8
:010604001ED7
:010605001DD7
:010606001DD6
:010607001DD5
:010608001DD4
:010609001ED2
:01060A001DD2
:01060B001DD1
:01060C001CD1
:01060D001CD0
:01060E001DCE
:01060F001CCE
:010610001CCD
:010611001CCC
:010612001CCB
:010613001CCA
:010614001CC9
:010615001DC7
:010616001CC7
:010617001CC6
:010618001BC6
:010619001CC4
:01061A001CC3
:01061B001CC2
:01061C001CC1
:01061D001BC1
:01061E001BC0
:01061F001BBF
:010620001CBD
:010621001BBD
:010622001BBC
:010623001BBB
:010624001BBA
:010625001ABA
:010626001BB8
:010627001AB8
:010628001AB7
:010629001BB5
:01062A001BB4
:01062B001AB4
:01062C001AB3
:01062D001AB2
:01062E001AB1
:01062F001AB0
:010630001AAF
:010631001AAE
:010632001AAD
:010633001AAC
:0106340019AC
:0106350019AB
:010636001AA9
:0106370019A9
:0106380019A8
:0106390019A7
:01063A0019A6
:01063B0019A5
:01063C0018A5
:01063D0018A4
:01063E0019A2
:01063F0019A1
:0106400019A0
:01064100199F
:01064200189F
:01064300189E
:01064400189D
:01064500189C
:01064600189B
:01064700179B
:010648001899
:010649001898
:01064A001897
:01064B001896
:01064C001895
:01064D001894
:01064E001893
:01064F001892
:010650001891
:010651001890
:010652001790
:01065300178F
:01065400178E
:01065500178D
:01065600178C
:01065700178B
:01065800178A
:010659001789
:01065A001788
:01065B001688
:01065C001687
:01065D001785
:01065E001685
:01065F001684
:010660001683
:010661001781
:010662001681
:010663001581
:01066400167F
:01066500167E
:01066600167D
:01066700167C
:01066800157C
:01066900157B
:01066A00157A
:01066B001678
:01066C001578
:01066D001577
:01066E001576
:01066F001575
:010670001574
:010671001573
:010672001572
:010673001571
:010674001570
:01067500156F
:01067600156E
:01067700156D
:01067800156C
:01067900156B
:01067A00146B
:01067B00146A
:01067C001568
:01067D001468
:01067E001467
:01067F001466
:010680001366
:010681001464
:010682001463
:010683001462
:010684001362
:010685001361
:010686001360
:01068700145E
:01068800135E
:01068900135D
:01068A00145B
:01068B00135B
:01068C00135A
:01068D001359
:01068E001358
:01068F001357
:010690001356
:010691001355
:010692001255
:010693001254
:010694001352
:010695001252
:010696001251
:010697001250
:01069800124F
:01069900124E
:01069A00124D
:01069B00124C
:01069C00124B
:01069D00114B
:01069E00114A
:01069F001248
:0106A0001148
:0106A1001246
:0106A2001245
:0106A3001244
:0106A4001144
:0106A5001143
:0106A6001142
:0106A7001141
:0106A8001140
:0106A900113F
:0106AA00113E
:0106AB00113D
:0106AC00103D
:0106AD00113B
:0106AE00113A
:0106AF001139
:0106B0001138
:0106B1001038
:0106B2001136
:0106B3001036
:0106B4001035
:0106B5001133
:0106B6001033
:0106B7001032
:0106B8001130
:0106B9001030
:0106BA00102F
:0106BB00102E
:0106BC00102D
:0106BD000F2D
:0106BE00102B
:0106BF000F2B
:0106C0000F2A
:0106C1000F29
:0106C2000F28
:0106C3001026
:0106C4000F26
:0106C5000F25
:0106C6000F24
:0106C7000F23
:0106C8000F22
:0106C9000F21
:0106CA000F20
:0106CB000F1F
:0106CC000F1E
:0106CD000F1D
:0106CE000F1C
:0106CF000E1C
:0106D0000E1B
:0106D1000E1A
:0106D2000F18
:0106D3000E18
:0106D4000E17
:0106D5000E16
:0106D6000E15
:0106D7000E14
:0106D8000E13
:0106D9000E12
:0106DA000E11
:0106DB000E10
:0106DC000E0F
:0106DD000D0F
:0106DE000E0D
:0106DF000E0C
:0106E0000D0C
:0106E1000E0A
:0106E2000D0A
:0106E3000D09
:0106E4000E07
:0106E5000D07
:0106E6000D06
:0106E7000D05
:0106E8000D04
:0106E9000D03
:0106EA000D02
:0106EB000D01
:0106EC000D00
:0106ED000DFF
:0106EE000DFE
:0106EF000CFE
:0106F0000DFC
:0106F1000CFC
:0106F2000CFB
:0106F3000DF9
:0106F4000CF9
:0106F5000DF7
:0106F6000DF6
:0106F7000CF6
:0106F8000CF5
:0106F9000CF4
:0106FA000CF3
:0106FB000CF2
:0106FC000CF1
:0106FD000CF0
:0106FE000CEF
:0106FF000CEE
:010700000BED
:010701000BEC
:010702000BEB
:010703000BEA
:010704000BE9
:010705000BE8
:010706000BE7
:010707000CE5
:010708000BE5
:010709000CE3
:01070A000BE3
:01070B000BE2
:01070C000BE1
:01070D000BE0
:01070E000BDF
:01070F000BDE
:010710000BDD
:010711000ADD
:010712000BDB
:010713000ADB
:010714000ADA
:010715000BD8
:010716000BD7
:010717000BD6
:010718000AD6
:010719000AD5
:01071A000AD4
:01071B000AD3
:01071C000AD2
:01071D000AD1
:01071E000BCF
:01071F000ACF
:010720000ACE
:010721000ACD
:010722000ACC
:0107230009CC
:0107240009CB
:010725000AC9
:0107260009C9
:0107270009C8
:010728000AC6
:0107290009C6
:01072A0009C5
:01072B0009C4
:01072C0009C3
:01072D0009C2
:01072E0009C1
:01072F0009C0
:0107300009BF
:0107310009BE
:0107320009BD
:0107330009BC
:0107340009BB
:0107350008BB
:0107360008BA
:0107370008B9
:0107380009B7
:0107390009B6
:01073A0009B5
:01073B0009B4
:01073C0008B4
:01073D0009B2
:01073E0008B2
:01073F0008B1
:0107400008B0
:0107410009AE
:0107420008AE
:0107430008AD
:0107440008AC
:0107450008AB
:0107460007AB
:0107470008A9
:0107480008A8
:0107490008A7
:01074A0008A6
:01074B0008A5
:01074C0008A4
:01074D0008A3
:01074E0007A3
:01074F0007A2
:0107500008A0
:0107510007A0
:01075200079F
:01075300079E
:01075400079D
:01075500079C
:01075600079B
:01075700079A
:010758000799
:010759000699
:01075A000797
:01075B000796
:01075C000795
:01075D000794
:01075E000793
:01075F000693
:010760000692
:010761000790
:010762000690
:01076300078E
:01076400068E
:01076500068D
:01076600078B
:01076700068B
:01076800068A
:010769000788
:01076A000688
:01076B000687
:01076C000686
:01076D000586
:01076E000684
:01076F000683
:010770000682
:010771000681
:010772000680
:010773000580
:01077400057F
:01077500067D
:01077600057D
:01077700067B
:01077800057B
:01077900057A
:01077A000678
:01077B000578
:01077C000577
:01077D000576
:01077E000575
:01077F000673
:010780000573
:010781000572
:010782000571
:010783000471
:01078400056F
:01078500056E
:01078600046E
:01078700056C
:01078800056B
:01078900046B
:01078A00046A
:01078B000568
:01078C000567
:01078D000467
:01078E000565
:01078F000564
:010790000464
:010791000463
:010792000561
:010793000461
:010794000460
:01079500045F
:01079600045E
:01079700045D
:01079800035D
:01079900045B
:01079A00045A
:01079B000459
:01079C000458
:01079D000358
:01079E000357
:01079F000455
:0107A0000454
:0107A1000354
:0107A2000452
:0107A3000451
:0107A4000351
:0107A500044F
:0107A600044E
:0107A700044D
:0107A800034D
:0107A900044B
:0107AA00034B
:0107AB00034A
:0107AC000349
:0107AD000348
:0107AE000248
:0107AF000346
:0107B0000345
:0107B1000344
:0107B2000244
:0107B3000342
:0107B4000242
:0107B5000340
:0107B6000240
:0107B700033E
:0107B800023E
:0107B900023D
:0107BA00023C
:0107BB00033A
:0107BC00023A
:0107BD000338
:0107BE000238
:0107BF000237
:0107C0000236
:0107C1000235
:0107C2000234
:0107C3000233
:0107C4000232
:0107C5000231
:0107C6000230
:0107C700022F
:0107C800012F
:0107C900022D
:0107CA00012D
:0107CB00022B
:0107CC00022A
:0107CD00012A
:0107CE000228
:0107CF000128
:0107D0000226
:0107D1000126
:0107D2000125
:0107D3000124
:0107D4000222
:0107D5000221
:0107D6000121
:0107D7000120
:0107D800011F
:0107D900011E
:0107DA00011D
:0107DB00011C
:0107DC00011B
:0107DD00011A
:0107DE000119
:0107DF000019
:0107E0000117
:0107E1000116
:0107E2000115
:0107E3000015
:0107E4000113
:0107E5000013
:0107E6000012
:0107E7000110
:0107E800010F
:0107E900000F
:0107EA00010D
:0107EB00000D
:0107EC00000C
:0107ED00000B
:0107EE00000A
:0107EF000009
:0107F0000008
:0107F1000007
:0107F2000006
:0107F3000005
:0107F4000004
:0107F5000003
:0107F6000002
:0107F7000001
:0107F8000000
:0107F90000FF
:0107FA0000FE
:0107FB001FDE
:0107FC0000FC
:0107FD0000FB
:0107FE001FDB
:0107FF001FDA
:00000001ff
