:020000040000FA
:0100000004FB
:010001000FEF
:0100020017E6
:010003001EDE
:0100040004F7
:0100050007F3
:0100060016E3
:0100070010E8
:0100080011E6
:0100090001F5
:01000A001BDA
:01000B001CD8
:01000C0015DE
:01000D0006EC
:01000E0010E1
:01000F000AE6
:010010001FD0
:010011000FDF
:0100120015D8
:0100130011DB
:0100140006E5
:0100150013D7
:010016000CDD
:0100170003E5
:010018001BCC
:010019001FC7
:01001A0004E1
:01001B0006DE
:01001C0006DD
:01001D0009D9
:01001E000CD5
:01001F0003DD
:0100200014CB
:010021000CD2
:0100220013CA
:010023001FBD
:0100240015C6
:0100250001D9
:0100260003D6
:010027001CBC
:0100280018BF
:010029000BCB
:01002A001DB8
:01002B000DC7
:01002C000DC6
:01002D0011C1
:01002E000AC7
:01002F0002CE
:010030000DC2
:0100310018B6
:0100320017B6
:0100330015B7
:010034001EAD
:0100350017B3
:0100360018B1
:010037001AAE
:010038000ABD
:010039000ABC
:01003A0010B5
:01003B0005BF
:01003C0014AF
:01003D001AA8
:01003E001CA5
:01003F0005BB
:0100400012AD
:010041001DA1
:0100420009B4
:010043000AB2
:0100440006B5
:0100450005B5
:0100460006B3
:0100470013A5
:0100480005B2
:0100490012A4
:01004A0011A4
:01004B0011A3
:01004C0013A0
:01004D0005AD
:01004E000FA2
:01004F001C94
:01005000119E
:010051000CA2
:0100520003AA
:010053001F8D
:0100540009A2
:010055000D9D
:010056000F9A
:010057000E9A
:0100580004A3
:010059001E88
:01005A001590
:01005B001292
:01005C00198A
:01005D00069C
:01005E001B86
:01005F00118F
:010060000996
:01006100029C
:010062001B82
:010063000A92
:010064000992
:01006500009A
:010066000198
:010067001286
:010068000A8D
:010069001185
:01006A001C79
:01006B001F75
:01006C000192
:01006D00157D
:01006E000988
:01006F000888
:010070001679
:010071000787
:01007200107D
:01007300127A
:010074001873
:01007500107A
:010076000188
:010077000286
:010078000483
:010079000B7B
:01007A00176E
:01007B00087C
:01007C00166D
:01007D00067C
:01007E001170
:01007F00136D
:010080000679
:010081000975
:010082000776
:01008300007C
:010084001467
:010085001763
:010086001366
:010087000375
:01008800185F
:010089000472
:01008A001C59
:01008B00165E
:01008C000B68
:01008D001A58
:01008E00066B
:01008F000C64
:010090000B64
:01009100115D
:01009200105D
:010093000567
:010094001457
:010095000664
:010096001C4D
:010097001553
:010098000C5B
:01009900194D
:01009A000362
:01009B000262
:01009C001E45
:01009D001A48
:01009E000958
:01009F000957
:0100A0000E51
:0100A100005E
:0100A200114C
:0100A3000755
:0100A4001744
:0100A5001A40
:0100A6001A3F
:0100A7001840
:0100A8000B4C
:0100A9000452
:0100AA000C49
:0100AB001242
:0100AC001C37
:0100AD001939
:0100AE00153C
:0100AF001739
:0100B0000847
:0100B100034B
:0100B2001538
:0100B3000943
:0100B4001239
:0100B5000248
:0100B6000C3D
:0100B7001137
:0100B8000542
:0100B9001333
:0100BA001A2B
:0100BB00073D
:0100BC000241
:0100BD001131
:0100BE000041
:0100BF000D33
:0100C0001C23
:0100C1000737
:0100C2000A33
:0100C3000F2D
:0100C400112A
:0100C5000535
:0100C6000E2B
:0100C7000434
:0100C8000037
:0100C900181E
:0100CA001F16
:0100CB001123
:0100CC000231
:0100CD001B17
:0100CE00032E
:0100CF001719
:0100D0001C13
:0100D1000A24
:0100D2001E0F
:0100D300012B
:0100D4000B20
:0100D5000C1E
:0100D6001316
:0100D7000424
:0100D8001B0C
:0100D900180E
:0100DA001B0A
:0100DB000C18
:0100DC000320
:0100DD000D15
:0100DE00140D
:0100DF000D13
:0100E0000D12
:0100E1000E10
:0100E2001508
:0100E3001A02
:0100E4001605
:0100E5000D0D
:0100E6000F0A
:0100E7001701
:0100E8000F08
:0100E9000A0C
:0100EA0018FD
:0100EB0015FF
:0100EC001102
:0100ED000012
:0100EE001BF6
:0100EF000D03
:0100F00017F8
:0100F1000D01
:0100F20012FB
:0100F30010FC
:0100F4000FFC
:0100F5001DED
:0100F60011F8
:0100F70019EF
:0100F80011F6
:0100F90011F5
:0100FA000302
:0100FB0010F4
:0100FC000300
:0100FD001BE7
:0100FE0017EA
:0100FF000DF3
:010100001AE4
:0101010019E4
:010102001EDE
:0101030014E7
:010104001CDE
:0101050007F2
:0101060009EF
:010107000BEC
:010108000BEB
:0101090011E4
:01010A0011E3
:01010B0011E2
:01010C0009E9
:01010D000AE7
:01010E0006EA
:01010F000CE3
:010110001DD1
:0101110010DD
:0101120006E6
:0101130009E2
:0101140011D9
:010115000EDB
:010116000BDD
:0101170007E0
:0101180003E3
:0101190019CC
:01011A000ED6
:01011B001DC6
:01011C0005DD
:01011D001FC2
:01011E0000E0
:01011F001CC3
:0101200013CB
:0101210014C9
:0101220004D8
:0101230005D6
:010124001EBC
:0101250019C0
:010126000ECA
:010127001ABD
:010128001BBB
:010129000DC8
:01012A0018BC
:01012B000BC8
:01012C000DC5
:01012D0013BE
:01012E0008C8
:01012F000FC0
:0101300016B8
:0101310010BD
:0101320007C5
:0101330018B3
:010134000DBD
:010135001BAE
:0101360012B6
:0101370005C2
:0101380000C6
:0101390015B0
:01013A0009BB
:01013B000FB4
:01013C001DA5
:01013D0002BF
:01013E0000C0
:01013F000DB2
:0101400018A6
:0101410019A4
:0101420018A4
:0101430002B9
:0101440003B7
:0101450001B8
:0101460018A0
:010147001A9D
:0101480011A5
:01014900199C
:01014A000FA5
:01014B0005AE
:01014C000BA7
:01014D00139E
:01014E0004AC
:01014F00119E
:010150001995
:0101510007A6
:0101520001AB
:010153001D8E
:010154000C9E
:010155001792
:010156000E9A
:01015700089F
:010158001492
:010159001590
:01015A00099B
:01015B001F84
:01015C0000A2
:01015D000A97
:01015E001987
:01015F001F80
:010160001589
:010161001885
:010162000F8D
:010163001A81
:010164001387
:010165000297
:010166001781
:010167000790
:010168001482
:010169001B7A
:01016A00068E
:01016B001083
:01016C00157D
:01016D001F72
:01016E000789
:01016F00137C
:010170001E70
:010171000786
:01017200127A
:010173000A81
:01017400107A
:010175000287
:010176000682
:01017700186F
:010178000086
:010179001570
:01017A001B69
:01017B001370
:01017C00067C
:01017D00146D
:01017E00027E
:01017F00007F
:01018000106E
:010181000776
:010182000B71
:01018300106B
:010184001B5F
:010185001861
:010186001761
:010187000D6A
:010188000A6C
:010189000B6A
:01018A001B59
:01018B00195A
:01018C00145E
:01018D001F52
:01018E00125E
:01018F001B54
:010190001D51
:01019100125B
:010192001458
:010193001853
:010194000F5B
:010195001356
:010196001454
:010197000364
:010198000462
:010199000065
:01019A000B59
:01019B000162
:01019C00174B
:01019D000160
:01019E00164A
:01019F001946
:0101A0001F3F
:0101A1001548
:0101A2001D3F
:0101A3000A51
:0101A4001347
:0101A5000B4E
:0101A6001246
:0101A7000F48
:0101A8001046
:0101A9001243
:0101AA00193B
:0101AB000152
:0101AC000B47
:0101AD000C45
:0101AE001838
:0101AF001D32
:0101B0001737
:0101B1000845
:0101B2000E3E
:0101B3001338
:0101B4000446
:0101B5001A2F
:0101B6000444
:0101B7000F38
:0101B800073F
:0101B9000144
:0101BA000341
:0101BB001E25
:0101BC00142E
:0101BD000D34
:0101BE001030
:0101BF001926
:0101C0000737
:0101C100013C
:0101C2001F1D
:0101C3001D1E
:0101C4000931
:0101C5001A1F
:0101C6001820
:0101C7001D1A
:0101C8000432
:0101C900062F
:0101CA001D17
:0101CB00062D
:0101CC00131F
:0101CD00072A
:0101CE001719
:0101CF00032C
:0101D0001915
:0101D1000528
:0101D2001616
:0101D3000C1F
:0101D4000624
:0101D5001514
:0101D600091F
:0101D7000F18
:0101D8001610
:0101D9001213
:0101DA00061E
:0101DB000A19
:0101DC001111
:0101DD00021F
:0101DE001C04
:0101DF00051A
:0101E0000915
:0101E1000E0F
:0101E2001FFD
:0101E300100B
:0101E4000713
:0101E5000415
:0101E6000C0C
:0101E7001FF8
:0101E8001501
:0101E90019FC
:0101EA001400
:0101EB000310
:0101EC0019F9
:0101ED00030E
:0101EE00020E
:0101EF001CF3
:0101F000010D
:0101F1001BF2
:0101F2000606
:0101F3001EED
:0101F40015F5
:0101F50019F0
:0101F6001FE9
:0101F7001AED
:0101F8000EF8
:0101F90010F5
:0101FA000FF5
:0101FB000300
:0101FC0008FA
:0101FD000100
:0101FE0004FC
:0101FF0003FC
:0102000003FA
:0102010009F3
:0102020008F3
:010203001EDC
:010204000EEB
:0102050015E3
:0102060003F4
:0102070004F2
:0102080007EE
:0102090014E0
:01020A0006ED
:01020B0016DC
:01020C0014DD
:01020D000BE5
:01020E001AD5
:01020F000CE2
:0102100015D8
:0102110007E5
:0102120000EB
:0102130003E7
:010214001ECB
:0102150000E8
:0102160007E0
:0102170015D1
:010218000CD9
:0102190013D1
:01021A001FC4
:01021B0011D1
:01021C0016CB
:01021D0002DE
:01021E001CC3
:01021F0013CB
:010220001DC0
:0102210019C3
:010222001DBE
:0102230010CA
:010224000ACF
:0102250003D5
:0102260004D3
:0102270019BD
:010228001CB9
:0102290003D1
:01022A001CB7
:01022B0015BD
:01022C001EB3
:01022D0012BE
:01022E0007C8
:01022F0019B5
:0102300010BD
:0102310000CC
:0102320019B2
:0102330008C2
:0102340006C3
:0102350000C8
:010236000FB8
:0102370008BE
:0102380003C2
:0102390000C4
:01023A0008BB
:01023B000EB4
:01023C0019A8
:01023D000BB5
:01023E0008B7
:01023F0017A7
:0102400003BA
:0102410007B5
:010242000AB1
:0102430014A6
:010244001E9B
:0102450002B6
:0102460013A4
:0102470015A1
:0102480008AD
:010249000FA5
:01024A000AA9
:01024B0006AC
:01024C0006AB
:01024D0002AE
:01024E001A95
:01024F001995
:010250001C91
:01025100119B
:0102520007A4
:0102530001A9
:010254001E8B
:010255001A8E
:010256001295
:010257000F97
:010258001590
:010259000A9A
:01025A000B98
:01025B001F83
:01025C000B96
:01025D001888
:01025E000A95
:01025F001E80
:010260001A83
:010261000894
:010262000F8C
:010263000F8B
:010264001683
:010265000494
:010266001780
:010267001284
:01026800177E
:010269000193
:01026A00177C
:01026B000D85
:01026C00068B
:01026D00058B
:01026E001D72
:01026F000C82
:01027000038A
:01027100018B
:010272001C6F
:01027300008A
:010274001673
:010275001771
:010276001473
:010277000B7B
:010278001A6B
:010279001C68
:01027A000C77
:01027B000979
:01027C00077A
:01027D00017F
:01027E001768
:01027F001D61
:01028000007D
:010281001468
:010282000774
:010283001664
:010284000079
:010285000870
:010286001760
:010287001264
:01028800175E
:010289000E66
:01028A000B68
:01028B000E64
:01028C00145D
:01028D00155B
:01028E00135C
:01028F001B53
:010290000B62
:010291001B51
:01029200115A
:010293000E5C
:010294000762
:01029500194F
:010296000D5A
:01029700184E
:010298000560
:010299000F55
:01029A000F54
:01029B00035F
:01029C00144D
:01029D001947
:01029E001748
:01029F001C42
:0102A000005D
:0102A1000854
:0102A200104B
:0102A3001248
:0102A4000752
:0102A5001F39
:0102A6001C3B
:0102A7000D49
:0102A8000550
:0102A900153F
:0102AA001E35
:0102AB00064C
:0102AC001839
:0102AD001937
:0102AE00143B
:0102AF000E40
:0102B0000D40
:0102B1000349
:0102B200014A
:0102B3000644
:0102B4001039
:0102B5001D2B
:0102B6001136
:0102B7000442
:0102B8000540
:0102B9001034
:0102BA00073C
:0102BB001B27
:0102BC001928
:0102BD00122E
:0102BE00023D
:0102BF000E30
:0102C0000538
:0102C100023A
:0102C2001724
:0102C3000733
:0102C4000534
:0102C500092F
:0102C6001621
:0102C7000036
:0102C800082D
:0102C900171D
:0102CA001B18
:0102CB000F23
:0102CC00161B
:0102CD001719
:0102CE00032C
:0102CF00141A
:0102D000032A
:0102D1000725
:0102D2000328
:0102D3001D0D
:0102D4000425
:0102D5001315
:0102D6000720
:0102D700180E
:0102D8000322
:0102D900091B
:0102DA000D16
:0102DB001909
:0102DC00051C
:0102DD001907
:0102DE000F10
:0102DF000E10
:0102E0001A03
:0102E1001B01
:0102E200100B
:0102E3000218
:0102E4000019
:0102E5000711
:0102E6001BFC
:0102E7000016
:0102E8000114
:0102E900050F
:0102EA000D06
:0102EB001101
:0102EC000809
:0102ED0013FD
:0102EE000807
:0102EF001FEF
:0102F0000B02
:0102F1000903
:0102F20019F2
:0102F3000604
:0102F4000702
:0102F5000206
:0102F6000700
:0102F7000204
:0102F80017EE
:0102F90017ED
:0102FA000DF6
:0102FB0014EE
:0102FC0013EE
:0102FD001CE4
:0102FE0018E7
:0102FF000FEF
:0103000000FC
:0103010012E9
:010302001EDC
:0103030016E3
:0103040017E1
:010305000BEC
:010306000CEA
:0103070010E5
:010308001ED6
:0103090006ED
:01030A0002F0
:01030B001AD7
:01030C0006EA
:01030D001AD5
:01030E0013DB
:01030F000FDE
:0103100002EA
:0103110004E7
:010312001ECC
:010313000ADF
:0103140015D3
:0103150011D6
:0103160011D5
:010317000ED7
:0103180009DB
:0103190007DC
:01031A0009D9
:01031B0007DA
:01031C001CC4
:01031D001FC0
:01031E001FBF
:01031F0013CA
:0103200007D5
:0103210003D8
:010322000BCF
:010323000FCA
:010324001EBA
:0103250011C6
:0103260005D1
:0103270005D0
:010328001BB9
:0103290013C0
:01032A0002D0
:01032B0011C0
:01032C000CC4
:01032D000DC2
:01032E0006C8
:01032F000CC1
:010330000BC1
:010331000EBD
:0103320016B4
:010333000ABF
:0103340008C0
:010335000BBC
:010336000FB7
:0103370017AE
:0103380014B0
:0103390010B3
:01033A0014AE
:01033B000DB4
:01033C001EA2
:01033D0012AD
:01033E0000BE
:01033F0019A4
:010340000EAE
:0103410008B3
:010342000DAD
:0103430005B4
:010344001C9C
:010345001B9C
:010346001C9A
:01034700169F
:0103480010A4
:01034900189B
:01034A000BA7
:01034B0003AE
:01034C001799
:01034D001E91
:01034E001C92
:01034F001895
:010350000F9D
:0103510000AB
:010352001A90
:010353001396
:010354000A9E
:010355001097
:010356000E98
:010357001F86
:01035800099B
:0103590001A2
:01035A001092
:01035B001C85
:01035C00039D
:01035D001986
:01035E000B93
:01035F00039A
:010360000894
:010361000E8D
:010362001E7C
:010363000F8A
:010364000395
:010365001582
:010366000096
:01036700068F
:01036800197B
:01036900167D
:01036A00048E
:01036B000988
:01036C000789
:01036D000887
:01036E001F6F
:01036F000786
:010370001B71
:010371001279
:010372001674
:010373001B6E
:010374000286
:010375001D6A
:010376001C6A
:01037700196C
:010378000183
:01037900057E
:01037A00146E
:01037B001A67
:01037C00047C
:01037D000679
:01037E00017D
:01037F00027B
:010380001864
:010381000774
:010382000674
:010383001861
:010384001068
:010385000077
:01038600076F
:010387000372
:010388000470
:01038900066D
:01038A000171
:01038B00125F
:01038C001B55
:01038D000B64
:01038E001B53
:01038F001A53
:010390001C50
:010391001C4F
:010392000F5B
:010393001A4F
:010394001C4C
:010395000760
:010396000A5C
:010397000F56
:010398000D57
:010399001E45
:01039A00144E
:01039B00174A
:01039C001F41
:01039D001C43
:01039E00025C
:01039F000558
:0103A0001745
:0103A100114A
:0103A2000D4D
:0103A3000D4C
:0103A4001840
:0103A500094E
:0103A6000B4B
:0103A7001B3A
:0103A800193B
:0103A9001F34
:0103AA00064C
:0103AB00044D
:0103AC00133D
:0103AD000649
:0103AE00113D
:0103AF000A43
:0103B0000D3F
:0103B1000348
:0103B2001832
:0103B3000445
:0103B4001434
:0103B5000740
:0103B6000343
:0103B7001431
:0103B8000440
:0103B9001F24
:0103BA00132F
:0103BB000D34
:0103BC000937
:0103BD001926
:0103BE001C22
:0103BF001D20
:0103C0000933
:0103C1001625
:0103C2001327
:0103C3000E2B
:0103C4000A2E
:0103C5000334
:0103C6000036
:0103C7001421
:0103C8001F15
:0103C900171C
:0103CA001D15
:0103CB00151C
:0103CC001A16
:0103CD00012E
:0103CE000727
:0103CF000528
:0103D0001517
:0103D100012A
:0103D2001B0F
:0103D3001118
:0103D4000127
:0103D5000B1C
:0103D6001610
:0103D7000025
:0103D800180C
:0103D9001B08
:0103DA001B07
:0103DB00031E
:0103DC001E02
:0103DD00051A
:0103DE00130B
:0103DF000C11
:0103E000100C
:0103E1001DFE
:0103E2001901
:0103E3001801
:0103E4000810
:0103E5000413
:0103E600080E
:0103E7001BFA
:0103E800070D
:0103E9001DF6
:0103EA001002
:0103EB001001
:0103EC001000
:0103ED0018F7
:0103EE00020C
:0103EF001FEE
:0103F0000C00
:0103F1000605
:0103F2001AF0
:0103F3001DEC
:0103F4001CEC
:0103F5000CFB
:0103F6001CEA
:0103F7000AFB
:0103F8001CE8
:0103F9000FF4
:0103FA000FF3
:0103FB0004FD
:0103FC0011EF
:0103FD0004FB
:0103FE000EF0
:0103FF0017E6
:0104000005F6
:0104010007F3
:0104020009F0
:0104030011E7
:010404001FD8
:010405001BDB
:0104060012E3
:0104070017DD
:0104080011E2
:0104090014DE
:01040A000EE3
:01040B0004EC
:01040C0004EB
:01040D0013DB
:01040E0010DD
:01040F000DDF
:010410000FDC
:0104110005E5
:010412000EDB
:010413001CCC
:0104140012D5
:0104150019CD
:010416000FD6
:0104170006DE
:0104180016CD
:0104190002E0
:01041A001CC5
:01041B0007D9
:01041C0013CC
:01041D0005D9
:01041E000CD1
:01041F000FCD
:0104200004D7
:010421000CCE
:0104220001D8
:010423001BBD
:010424001BBC
:0104250009CD
:0104260007CE
:010427000DC7
:0104280014BF
:0104290006CC
:01042A000CC5
:01042B0015BB
:01042C0002CD
:01042D0006C8
:01042E0001CC
:01042F000BC1
:0104300010BB
:0104310006C4
:010432000CBD
:010433001AAE
:0104340004C3
:0104350011B5
:0104360008BD
:010437000CB8
:0104380004BF
:010439001CA6
:01043A0019A8
:01043B0009B7
:01043C0004BB
:01043D0008B6
:01043E0015A8
:01043F000AB2
:0104400012A9
:0104410017A3
:0104420001B8
:0104430009AF
:010444001E99
:010445001B9B
:010446001F96
:010447000CA8
:0104480000B3
:0104490005AD
:01044A001998
:01044B0001AF
:01044C000EA1
:01044D000BA3
:01044E000F9E
:01044F0006A6
:0104500004A7
:010451000F9B
:0104520002A7
:010453001395
:0104540001A6
:010455001096
:010456001194
:010457000E96
:0104580003A0
:010459000E94
:01045A000A97
:01045B00118F
:01045C001F80
:01045D001787
:01045E001A83
:01045F000399
:010460001A81
:010461001684
:010462001782
:010463000D8B
:010464000691
:010465000A8C
:010466001085
:010467001A7A
:01046800167D
:01046900058D
:01046A00147D
:01046B000789
:01046C00157A
:01046D000589
:01046E00107D
:01046F000D7F
:010470000289
:010471001A70
:010472001E6B
:010473000A7E
:010474000285
:010475000680
:010476001F66
:01047700057F
:01047800077C
:01047900057D
:01047A00047D
:01047B00027E
:01047C00047B
:01047D00136B
:01047E001F5E
:01047F000775
:01048000106B
:010481000E6C
:010482000970
:010483001662
:010484000077
:010485000C6A
:010486001065
:010487001D57
:010488000271
:01048900165C
:01048A001958
:01048B000868
:01048C00026D
:01048D001B53
:01048E001F4E
:01048F000666
:010490000566
:010491001357
:010492001C4D
:010493000761
:010494000E59
:010495000F57
:010496000F56
:010497001153
:010498001152
:010499001052
:01049A001C45
:01049B000A56
:01049C000857
:01049D00124C
:01049E001A43
:01049F000755
:0104A0001E3D
:0104A1001C3E
:0104A2001A3F
:0104A3001B3D
:0104A400183F
:0104A500193D
:0104A6001045
:0104A700193B
:0104A800064D
:0104A9000151
:0104AA00173A
:0104AB000749
:0104AC000946
:0104AD00113D
:0104AE001A33
:0104AF000C40
:0104B0000744
:0104B1000F3B
:0104B2001E2B
:0104B3001E2A
:0104B4000641
:0104B5000442
:0104B6001B2A
:0104B7001E26
:0104B8001330
:0104B9001B27
:0104BA000C35
:0104BB001729
:0104BC00122D
:0104BD001D21
:0104BE001825
:0104BF001C20
:0104C0000635
:0104C1000535
:0104C2001227
:0104C3001C1C
:0104C4000433
:0104C5000333
:0104C6001322
:0104C700171D
:0104C8001B18
:0104C900032F
:0104CA001E13
:0104CB00131D
:0104CC001A15
:0104CD00131B
:0104CE000429
:0104CF001D0F
:0104D0001417
:0104D1000624
:0104D2000128
:0104D3001D0B
:0104D4000C1B
:0104D5001E08
:0104D6000B1A
:0104D700150F
:0104D8001310
:0104D9001E04
:0104DA000F12
:0104DB001808
:0104DC000D12
:0104DD00041A
:0104DE001805
:0104DF00100C
:0104E0001209
:0104E1001EFC
:0104E2001BFE
:0104E3000315
:0104E40019FE
:0104E5000C0A
:0104E60018FD
:0104E7001400
:0104E80014FF
:0104E9001BF7
:0104EA001BF6
:0104EB0011FF
:0104EC000F00
:0104ED000FFF
:0104EE000FFE
:0104EF00000C
:0104F00014F7
:0104F1000703
:0104F20012F7
:0104F3000503
:0104F4000007
:0104F50011F5
:0104F6000BFA
:0104F7001BE9
:0104F8000003
:0104F90017EB
:0104FA0009F8
:0104FB0003FD
:0104FC0012ED
:0104FD0013EB
:0104FE0013EA
:0104FF001BE1
:010500001DDD
:010501001EDB
:010502001CDC
:010503001DDA
:0105040003F3
:0105050011E4
:0105060013E1
:0105070018DB
:010508000CE6
:010509000EE3
:01050A0018D8
:01050B0002ED
:01050C0017D7
:01050D001FCE
:01050E001DCF
:01050F0006E5
:0105100015D5
:010511001FCA
:010512001FC9
:010513001FC8
:0105140007DF
:010515000DD8
:0105160013D1
:0105170010D3
:010518001DC5
:0105190013CE
:01051A001FC1
:01051B0013CC
:01051C0001DD
:01051D000DD0
:01051E0002DA
:01051F0017C4
:0105200018C2
:0105210006D3
:0105220004D4
:0105230015C2
:0105240007CF
:0105250007CE
:0105260015BF
:010527001BB8
:0105280002D0
:0105290014BD
:01052A0009C7
:01052B001BB4
:01052C000AC4
:01052D000CC1
:01052E0013B9
:01052F000BC0
:0105300006C4
:0105310003C6
:010532001AAE
:0105330009BE
:0105340015B1
:0105350017AE
:0105360011B3
:010537000FB4
:010538000EB4
:0105390004BD
:01053A0002BE
:01053B0015AA
:01053C0006B8
:01053D0002BB
:01053E0002BA
:01053F0015A6
:0105400012A8
:0105410018A1
:010542001B9D
:0105430010A7
:010544001D99
:0105450013A2
:010546000AAA
:010547000DA6
:0105480008AA
:0105490008A9
:01054A0001AF
:01054B0009A6
:01054C001C92
:01054D000BA2
:01054E000AA2
:01054F001299
:010550001C8E
:010551001594
:010552001494
:010553000E99
:010554000A9C
:010555001194
:0105560001A3
:010557001D86
:01055800168C
:01055900158C
:01055A0000A0
:01055B001986
:01055C001787
:01055D00029B
:01055E001389
:01055F00019A
:010560001F7B
:010561000198
:010562001A7E
:010563001F78
:010564001D79
:010565001382
:01056600068E
:010567000390
:010568001B77
:01056900157C
:01056A000888
:01056B001B74
:01056C000985
:01056D000C81
:01056E001E6E
:01056F001279
:010570001773
:010571000584
:010572001078
:010573000B7C
:010574000680
:010575000C79
:010576000183
:010577001C67
:01057800037F
:010579001F62
:01057A000D73
:01057B00126D
:01057C000B73
:01057D000974
:01057E000379
:01057F000477
:010580000674
:010581001E5B
:010582001E5A
:010583001F58
:01058400195D
:01058500175E
:010586001A5A
:010587001D56
:010588001E54
:010589000A67
:01058A000B65
:01058B000B64
:01058C000866
:01058D001E4F
:01058E000A62
:01058F001556
:010590001654
:010591001455
:01059200095F
:010593001354
:010594000462
:010595001A4B
:010596000064
:01059700174C
:010598000F53
:010599001A47
:01059A001F41
:01059B00134C
:01059C000E50
:01059D001C41
:01059E00025A
:01059F001447
:0105A0001149
:0105A1000D4C
:0105A2001F39
:0105A3001C3B
:0105A4000254
:0105A5001D38
:0105A600193B
:0105A700193A
:0105A8001939
:0105A9001C35
:0105AA00064A
:0105AB001738
:0105AC001836
:0105AD000F3E
:0105AE000E3E
:0105AF001F2C
:0105B0001139
:0105B1000346
:0105B2000D3B
:0105B3001730
:0105B4001432
:0105B5001530
:0105B6001232
:0105B7000E35
:0105B800063C
:0105B9001130
:0105BA001B25
:0105BB000C33
:0105BC00033B
:0105BD000835
:0105BE001626
:0105BF001922
:0105C000102A
:0105C1001D1C
:0105C2000731
:0105C3001522
:0105C4000E28
:0105C5000C29
:0105C6001123
:0105C7001221
:0105C800131F
:0105C9001D14
:0105CA00151B
:0105CB00151A
:0105CC00111D
:0105CD001716
:0105CE00002C
:0105CF001417
:0105D0001218
:0105D1001316
:0105D2001315
:0105D300091E
:0105D4001B0B
:0105D5001B0A
:0105D6000024
:0105D7000A19
:0105D800071B
:0105D9001E03
:0105DA00110F
:0105DB00001F
:0105DC00100E
:0105DD000716
:0105DE001309
:0105DF000219
:0105E0000812
:0105E1001702
:0105E2000216
:0105E3001601
:0105E4001303
:0105E5001DF8
:0105E6001301
:0105E7001EF5
:0105E80015FD
:0105E90017FA
:0105EA000C04
:0105EB00020D
:0105EC001BF3
:0105ED001AF3
:0105EE0019F3
:0105EF000407
:0105F0000EFC
:0105F1000EFB
:0105F20015F3
:0105F30016F1
:0105F4000105
:0105F5000AFB
:0105F6000103
:0105F7000AF9
:0105F8000EF4
:0105F90018E9
:0105FA000AF6
:0105FB0012ED
:0105FC0014EA
:0105FD0004F9
:0105FE0018E4
:0105FF0013E8
:0106000011E8
:0106010019DF
:010602001FD8
:0106030018DE
:0106040014E1
:0106050014E0
:0106060016DD
:010607000DE5
:0106080001F0
:0106090007E9
:01060A0018D7
:01060B001BD3
:01060C0005E8
:01060D0017D5
:01060E0005E6
:01060F001DCD
:0106100005E4
:0106110006E2
:010612000BDC
:010613000BDB
:0106140017CE
:0106150018CC
:0106160019CA
:0106170005DD
:010618000FD2
:010619000FD1
:01061A0006D9
:01061B0015C9
:01061C000ECF
:01061D000BD1
:01061E000CCF
:01061F001BBF
:0106200013C6
:0106210011C7
:010622000EC9
:0106230016C0
:0106240005D0
:0106250014C0
:010626001BB8
:010627001EB4
:010628001BB6
:0106290008C8
:01062A0005CA
:01062B0000CE
:01062C000AC3
:01062D0013B9
:01062E001CAF
:01062F0006C4
:010630001AAF
:0106310011B7
:0106320014B3
:010633001DA9
:0106340010B5
:010635000FB5
:0106360019AA
:0106370008BA
:010638000EB3
:0106390017A9
:01063A0007B8
:01063B0013AB
:01063C000EAF
:01063D001CA0
:01063E0014A7
:01063F0016A4
:0106400017A2
:0106410016A2
:0106420002B5
:0106430009AD
:01064400179E
:0106450006AE
:0106460013A0
:0106470011A1
:01064800149D
:01064900159B
:01064A0000AF
:01064B0001AD
:01064C00129B
:01064D001D8F
:01064E001F8C
:01064F001892
:010650001792
:010651000D9B
:010652001B8C
:010653000C9A
:0106540004A1
:010655001A8A
:010656001093
:010657001E84
:010658001190
:01065900128E
:01065A000B94
:01065B00019D
:01065C000F8E
:01065D001686
:01065E000893
:01065F001A80
:010660000F8A
:01066100098F
:010662001582
:010663000591
:010664001580
:010665000490
:010666000C87
:010667001D75
:010668000D84
:010669001878
:01066A001B74
:01066B000787
:01066C000C81
:01066D000785
:01066E000C7F
:01066F001773
:010670001574
:010671001276
:010672001770
:01067300186E
:010674001B6A
:010675001074
:01067600186B
:01067700136F
:01067800027F
:010679001D63
:01067A001768
:01067B001569
:01067C001964
:01067D000478
:01067E00017A
:01067F000F6B
:010680001B5E
:010681000375
:010682000671
:010683001B5B
:010684000372
:01068500086C
:010686000271
:010687001B57
:010688000B66
:01068900016F
:01068A00115E
:01068B000569
:01068C000C61
:01068D000C60
:01068E000665
:01068F001654
:010690000960
:010691001751
:010692000E59
:01069300075F
:01069400075E
:010695001E46
:010696000B58
:010697001D45
:010698001150
:010699000060
:01069A00045B
:01069B001846
:01069C00134A
:01069D000E4E
:01069E000D4E
:01069F000357
:0106A0000C4D
:0106A100094F
:0106A2001C3B
:0106A3001541
:0106A400183D
:0106A500084C
:0106A600064D
:0106A7000052
:0106A8001140
:0106A9000F41
:0106AA000847
:0106AB000945
:0106AC000D40
:0106AD001C30
:0106AE000447
:0106AF000248
:0106B0001336
:0106B1001F29
:0106B200093E
:0106B3001B2B
:0106B4001B2A
:0106B5001A2A
:0106B6000A39
:0106B7001929
:0106B8000B36
:0106B9001E22
:0106BA001F20
:0106BB000B33
:0106BC000F2E
:0106BD000E2E
:0106BE001F1C
:0106BF000C2E
:0106C0000237
:0106C1000632
:0106C2000730
:0106C300082E
:0106C4001322
:0106C5000A2A
:0106C6000D26
:0106C700181A
:0106C800141D
:0106C9000C24
:0106CA00022D
:0106CB00022C
:0106CC001A13
:0106CD001616
:0106CE000F1C
:0106CF001A10
:0106D0001514
:0106D1001711
:0106D2001B0C
:0106D3001A0C
:0106D4001A0B
:0106D500160E
:0106D600041F
:0106D7001210
:0106D800170A
:0106D9001907
:0106DA000619
:0106DB001B03
:0106DC001508
:0106DD000D0F
:0106DE000E0D
:0106DF001109
:0106E0000217
:0106E1000711
:0106E2001EF9
:0106E3001600
:0106E4001FF6
:0106E5000212
:0106E6001FF4
:0106E7000909
:0106E80013FE
:0106E9001EF2
:0106EA0012FD
:0106EB000509
:0106EC0018F5
:0106ED001EEE
:0106EE001FEC
:0106EF000307
:0106F00016F3
:0106F1000AFE
:0106F20012F5
:0106F3000DF9
:0106F4000FF6
:0106F5000EF6
:0106F6000BF8
:0106F70009F9
:0106F8000EF3
:0106F90019E7
:0106FA000EF1
:0106FB001AE4
:0106FC0004F9
:0106FD0011EB
:0106FE0002F9
:0106FF0007F3
:010700001CDC
:0107010010E7
:0107020010E6
:0107030011E4
:0107040006EE
:010705000EE5
:010706001BD7
:0107070010E1
:0107080002EE
:010709001FD0
:01070A0010DE
:01070B0015D8
:01070C0012DA
:01070D0004E7
:01070E0012D8
:01070F000DDC
:0107100007E1
:0107110005E2
:010712001FC7
:010713001ACB
:010714001CC8
:010715000ED5
:0107160006DC
:0107170014CD
:0107180004DC
:010719000ED1
:01071A0014CA
:01071B000BD2
:01071C000FCD
:01071D0007D4
:01071E000AD0
:01071F0015C4
:010720001CBC
:0107210002D5
:010722000BCB
:010723001DB8
:010724000DC7
:0107250002D1
:0107260016BC
:0107270018B9
:0107280011BF
:010729001EB1
:01072A0012BC
:01072B001DB0
:01072C0005C7
:01072D000FBC
:01072E0018B2
:01072F0014B5
:0107300006C2
:0107310006C1
:0107320003C3
:0107330019AC
:0107340013B1
:0107350009BA
:0107360001C1
:010737000FB2
:0107380006BA
:0107390012AD
:01073A0007B7
:01073B0007B6
:01073C0018A4
:01073D001C9F
:01073E0012A8
:01073F0011A8
:010740000DAB
:0107410011A6
:010742000FA7
:010743001D98
:0107440005AF
:0107450011A2
:01074600169C
:010747001D94
:010748000BA5
:0107490000AF
:01074A0005A9
:01074B000AA3
:01074C000AA2
:01074D001299
:01074E001B8F
:01074F001E8B
:01075000198F
:01075100089F
:010752001F87
:010753001095
:010754001D87
:010755001A89
:01075600158D
:010757001988
:01075800138D
:01075900108F
:01075A001F7F
:01075B001687
:01075C000696
:01075D001C7F
:01075E000D8D
:01075F001A7F
:010760001088
:010761001186
:010762000B8B
:010763000E87
:010764001B79
:01076500058E
:010766001280
:010767000C85
:01076800038D
:01076900038C
:01076A000F7F
:01076B001A73
:01076C001775
:01076D001F6C
:01076E000F7B
:01076F001475
:010770000781
:010771001473
:010772000383
:010773001F66
:010774000F75
:010775000083
:01077600087A
:010777001170
:010778001E62
:010779001E61
:01077A00116D
:01077B000776
:01077C00106C
:01077D000D6E
:01077E001D5D
:01077F000B6E
:010780000474
:010781001A5D
:010782001F57
:010783000A6B
:010784000E66
:01078500066D
:01078600056D
:010787000869
:010788001D53
:010789001D52
:01078A001D51
:01078B000667
:01078C001A52
:01078D000F5C
:01078E000763
:01078F000564
:010790001A4E
:010791001750
:010792001E48
:010793000560
:010794000A5A
:010795001B48
:010796000A58
:010797001F42
:010798000B55
:010799000B54
:01079A000658
:01079B00015C
:01079C000656
:01079D00104B
:01079E000456
:01079F000455
:0107A0000454
:0107A1000B4C
:0107A200183E
:0107A3000B4A
:0107A4000351
:0107A5000350
:0107A6001939
:0107A7000849
:0107A8000749
:0107A900113E
:0107AA00024C
:0107AB00133A
:0107AC000B41
:0107AD001F2C
:0107AE00004A
:0107AF001C2D
:0107B0001434
:0107B1000740
:0107B2001630
:0107B300192C
:0107B4001B29
:0107B5001330
:0107B600053D
:0107B700162B
:0107B800162A
:0107B900142B
:0107BA001925
:0107BB00102D
:0107BC001B21
:0107BD00013A
:0107BE000E2C
:0107BF000336
:0107C0000533
:0107C1000631
:0107C2000A2C
:0107C300181D
:0107C4000034
:0107C500072C
:0107C600171B
:0107C7000D24
:0107C800012F
:0107C900032C
:0107CA001717
:0107CB001A13
:0107CC000428
:0107CD001714
:0107CE00002A
:0107CF001316
:0107D0001C0C
:0107D100081F
:0107D2001A0C
:0107D300091C
:0107D4000123
:0107D5001A09
:0107D600041E
:0107D700051C
:0107D800130D
:0107D900140B
:0107DA001B03
:0107DB001D00
:0107DC001309
:0107DD000318
:0107DE001307
:0107DF000019
:0107E0000216
:0107E1001403
:0107E2001303
:0107E3000B0A
:0107E40018FC
:0107E5001EF5
:0107E60018FA
:0107E700020F
:0107E8000C04
:0107E9001BF4
:0107EA0010FE
:0107EB000706
:0107EC0015F7
:0107ED001CEF
:0107EE0013F7
:0107EF000EFB
:0107F0000503
:0107F10008FF
:0107F2001CEA
:0107F30006FF
:0107F4000004
:0107F5001EE5
:0107F60011F1
:0107F70014ED
:0107F8001EE2
:0107F90002FD
:0107FA0012EC
:0107FB000EEF
:0107FC0016E6
:0107FD001AE1
:0107FE0008F2
:0107FF001ADF
:00000001ff
