:020000040000FA
:0100000000FF
:010001001FDF
:010002001EDF
:010003001DDF
:010004001BE0
:0100050018E2
:0100060014E5
:0100070010E8
:010008000CEB
:0100090006F0
:01000A0001F4
:01000B001ADA
:01000C0013E0
:01000D000BE7
:01000E0003EE
:01000F001AD6
:0100100011DE
:0100110007E7
:010012001CD1
:0100130011DB
:0100140005E6
:0100150019D1
:010016000CDD
:010017001ECA
:0100180010D7
:0100190001E5
:01001A0012D3
:01001B0002E2
:01001C0011D2
:01001D0000E2
:01001E000ED3
:01001F001CC4
:0100200009D6
:0100210016C8
:0100220002DB
:010023000DCF
:0100240018C3
:0100250003D7
:010026000CCD
:0100270016C2
:010028001EB9
:0100290007CF
:01002A000EC7
:01002B0015BF
:01002C001CB7
:01002D0002D0
:01002E0007CA
:01002F000CC4
:0100300010BF
:0100310014BA
:0100320017B6
:010033001AB2
:010034001CAF
:010035001DAD
:010036001EAB
:010037001FA9
:010038001FA8
:010039001EA8
:01003A001DA8
:01003B001BA9
:01003C0019AA
:01003D0017AB
:01003E0013AE
:01003F0010B0
:010040000BB4
:0100410007B7
:0100420001BC
:010043001CA0
:0100440015A6
:010045000EAC
:0100460007B2
:010047001F99
:0100480017A0
:010049000EA8
:01004A0005B0
:01004B001B99
:01004C0010A3
:01004D0005AD
:01004E001A97
:01004F000EA2
:0100500002AD
:010051001599
:0100520008A5
:010053001A92
:010054000BA0
:010055001C8E
:010056000D9C
:010057001D8B
:010058000D9A
:010059001C8A
:01005A000B9A
:01005B00198B
:01005C00079C
:01005D00148E
:01005E0001A0
:01005F000D93
:010060001986
:01006100049A
:010062000F8E
:010063001A82
:010064000497
:010065000D8D
:010066001683
:010067001E7A
:010068000790
:010069000E88
:01006A001580
:01006B001C78
:01006C000291
:01006D00088A
:01006E000D84
:01006F00127E
:010070001778
:010071001A74
:010072001E6F
:01007300018B
:010074000487
:010075000684
:010076000782
:01007700097F
:01007800097E
:010079000A7C
:01007A000A7B
:01007B00097B
:01007C00087B
:01007D00077B
:01007E00057C
:01007F00037D
:01008000007F
:010081001D61
:010082001964
:010083001567
:01008400116A
:010085000C6E
:010086000772
:010087000177
:010088001B5C
:010089001462
:01008A000D68
:01008B00066E
:01008C001E55
:01008D00155D
:01008E000D64
:01008F00046C
:010090001A55
:01009100105E
:010092000667
:010093001B51
:01009400105B
:010095000466
:010096001851
:010097000C5C
:010098001F48
:010099001254
:01009A000461
:01009B00164E
:01009C00085B
:01009D001949
:01009E000958
:01009F001A46
:0100A0000A55
:0100A1001945
:0100A2000855
:0100A3001745
:0100A4000655
:0100A5001347
:0100A6000158
:0100A7000E4A
:0100A8001B3C
:0100A900074F
:0100AA001441
:0100AB001F35
:0100AC000A49
:0100AD00153D
:0100AE000051
:0100AF000A46
:0100B000143B
:0100B1001D31
:0100B2000647
:0100B3000E3E
:0100B4001734
:0100B5001E2C
:0100B6000643
:0100B7000D3B
:0100B8001433
:0100B9001A2C
:0100BA000045
:0100BB00053F
:0100BC000B38
:0100BD000F33
:0100BE00142D
:0100BF001828
:0100C0001C23
:0100C1001F1F
:0100C200023B
:0100C3000537
:0100C4000734
:0100C5000931
:0100C6000B2E
:0100C7000C2C
:0100C8000D2A
:0100C9000D29
:0100CA000D28
:0100CB000D27
:0100CC000C27
:0100CD000B27
:0100CE000A27
:0100CF000927
:0100D0000629
:0100D100042A
:0100D200012C
:0100D3001E0E
:0100D4001B10
:0100D5001713
:0100D6001316
:0100D7000F19
:0100D8000A1D
:0100D9000521
:0100DA001F06
:0100DB001A0A
:0100DC00140F
:0100DD000D15
:0100DE00061B
:0100DF001F01
:0100E0001807
:0100E100100E
:0100E2000815
:0100E3001FFD
:0100E4001605
:0100E5000D0D
:0100E6000415
:0100E7001AFE
:0100E8001007
:0100E9000511
:0100EA001AFB
:0100EB000F05
:0100EC00040F
:0100ED0018FA
:0100EE000C05
:0100EF000010
:0100F00013FC
:0100F1000608
:0100F20019F4
:0100F3000B01
:0100F4001DEE
:0100F5000EFC
:0100F6000009
:0100F70011F7
:0100F8000205
:0100F90012F4
:0100FA000203
:0100FB0012F2
:0100FC000102
:0100FD0010F2
:0100FE001FE2
:0100FF000EF2
:010100001CE2
:010101000AF3
:0101020017E5
:0101030005F6
:0101040012E8
:010105001EDB
:010106000BED
:0101070017E0
:0101080003F3
:010109000EE7
:01010A0019DB
:01010B0004EF
:01010C000FE3
:01010D0019D8
:01010E0003ED
:01010F000DE2
:0101100016D8
:010111001FCE
:0101120008E4
:0101130010DB
:0101140019D1
:0101150001E8
:0101160008E0
:010117000FD8
:0101180016D0
:010119001DC8
:01011A0004E0
:01011B000AD9
:01011C0010D2
:01011D0015CC
:01011E001BC5
:01011F0000DF
:0101200004DA
:0101210009D4
:010122000DCF
:0101230011CA
:0101240014C6
:0101250018C1
:010126001BBD
:010127001EB9
:0101280000D6
:0101290002D3
:01012A0004D0
:01012B0006CD
:01012C0007CB
:01012D0008C9
:01012E0009C7
:01012F000AC5
:010130000AC4
:010131000AC3
:010132000AC2
:0101330009C2
:0101340008C2
:0101350007C2
:0101360006C2
:0101370004C3
:0101380002C4
:0101390000C5
:01013A001EA6
:01013B001BA8
:01013C0018AA
:01013D0015AC
:01013E0012AE
:01013F000EB1
:010140000AB4
:0101410006B7
:0101420001BB
:010143001C9F
:0101440017A3
:0101450012A7
:010146000DAB
:0101470007B0
:0101480001B5
:010149001A9B
:01014A0014A0
:01014B000DA6
:01014C0006AC
:01014D001E93
:01014E001799
:01014F000FA0
:0101500007A7
:010151001E8F
:010152001696
:010153000D9E
:0101540004A6
:010155001B8E
:010156001197
:0101570007A0
:010158001D89
:010159001392
:01015A00089C
:01015B001D86
:01015C001290
:01015D00079A
:01015E001B85
:01015F00108F
:01016000049A
:010161001786
:010162000B91
:010163001E7D
:010164001189
:010165000495
:010166001682
:01016700088F
:010168001A7C
:010169000C89
:01016A001E76
:01016B000F84
:01016C000092
:01016D001180
:01016E00028E
:01016F00127D
:01017000028C
:01017100127B
:01017200028A
:01017300117A
:010174000189
:010175001079
:010176001F69
:010177000D7A
:010178001B6B
:010179000A7B
:01017A00176D
:01017B00057E
:01017C00136F
:01017D000081
:01017E000D73
:01017F001966
:010180000678
:01018100126B
:010182001E5E
:010183000A71
:010184001664
:010185000178
:010186000C6C
:010187001760
:010188000274
:010189000D68
:01018A00175D
:01018B000172
:01018C000B67
:01018D00155C
:01018E001E52
:01018F000768
:01019000105E
:010191001954
:01019200026A
:010193000A61
:010194001258
:010195001A4F
:010196000266
:01019700095E
:010198001155
:01019900184D
:01019A001F45
:01019B00055E
:01019C000C56
:01019D00124F
:01019E001848
:01019F001E41
:0101A000045A
:0101A1000954
:0101A2000F4D
:0101A3001447
:0101A4001842
:0101A5001D3C
:0101A6000157
:0101A7000651
:0101A8000A4C
:0101A9000E47
:0101AA001143
:0101AB00153E
:0101AC00183A
:0101AD001B36
:0101AE001E32
:0101AF00004F
:0101B000034B
:0101B1000548
:0101B2000745
:0101B3000942
:0101B4000A40
:0101B5000C3D
:0101B6000D3B
:0101B7000E39
:0101B8000F37
:0101B9000F36
:0101BA001034
:0101BB001033
:0101BC001032
:0101BD001031
:0101BE001030
:0101BF000F30
:0101C0000F2F
:0101C1000E2F
:0101C2000D2F
:0101C3000B30
:0101C4000A30
:0101C5000831
:0101C6000632
:0101C7000433
:0101C8000234
:0101C9000035
:0101CA001D17
:0101CB001A19
:0101CC00181A
:0101CD00141D
:0101CE00111F
:0101CF000D22
:0101D0000A24
:0101D1000627
:0101D200022A
:0101D3001E0D
:0101D4001911
:0101D5001514
:0101D6001018
:0101D7000B1C
:0101D8000620
:0101D9000025
:0101DA001B09
:0101DB00150E
:0101DC000F13
:0101DD000918
:0101DE00031D
:0101DF001D02
:0101E0001608
:0101E1000F0E
:0101E2000814
:0101E300011A
:0101E4001A00
:0101E5001207
:0101E6000B0D
:0101E7000314
:0101E8001BFB
:0101E9001302
:0101EA000B09
:0101EB000211
:0101EC0019F9
:0101ED001100
:0101EE000808
:0101EF001EF1
:0101F00015F9
:0101F1000C01
:0101F200020A
:0101F30018F3
:0101F4000EFC
:0101F5000405
:0101F60019EF
:0101F7000FF8
:0101F8000402
:0101F90019EC
:0101FA000EF6
:0101FB000300
:0101FC0018EA
:0101FD000CF5
:0101FE000000
:0101FF0014EB
:0102000009F4
:010201001CE0
:0102020010EB
:0102030003F7
:0102040017E2
:010205000AEE
:010206001DDA
:0102070010E6
:0102080002F3
:0102090015DF
:01020A0007EC
:01020B0019D9
:01020C000BE6
:01020D001DD3
:01020E000FE0
:01020F0001ED
:0102100012DB
:0102110003E9
:0102120014D7
:0102130005E5
:0102140016D3
:0102150007E1
:0102160017D0
:0102170007DF
:0102180017CE
:0102190007DD
:01021A0017CC
:01021B0007DB
:01021C0016CB
:01021D0006DA
:01021E0015CA
:01021F0004DA
:0102200013CA
:0102210002DA
:0102220010CB
:010223001FBB
:010224000DCC
:010225001BBD
:0102260009CE
:0102270017BF
:0102280005D0
:0102290012C2
:01022A0000D3
:01022B000DC5
:01022C001AB7
:01022D0007C9
:01022E0014BB
:01022F0000CE
:010230000DC0
:0102310019B3
:0102320006C5
:0102330012B8
:010234001EAB
:0102350009BF
:0102360015B2
:0102370001C5
:010238000CB9
:0102390017AD
:01023A0002C1
:01023B000DB5
:01023C0018A9
:01023D0003BD
:01023E000DB2
:01023F0017A7
:0102400002BB
:010241000CB0
:0102420016A5
:010243001F9B
:0102440009B0
:0102450013A5
:010246001C9B
:0102470005B1
:010248000EA7
:01024900179D
:01024A0000B3
:01024B0009A9
:01024C0011A0
:01024D001A96
:01024E0002AD
:01024F000AA4
:01025000129B
:010251001A92
:0102520002A9
:0102530009A1
:010254001198
:010255001890
:010256001F88
:0102570006A0
:010258000D98
:010259001490
:01025A001B88
:01025B0001A1
:01025C00079A
:01025D000E92
:01025E00148B
:01025F001A84
:01026000009D
:010261000597
:010262000B90
:01026300108A
:010264001683
:010265001B7D
:010266000097
:010267000591
:010268000A8B
:010269000E86
:01026A001380
:01026B00177B
:01026C001C75
:01026D000090
:01026E00048B
:01026F000886
:010270000C81
:010271000F7D
:010272001378
:010273001674
:010274001970
:010275001D6B
:010276000087
:010277000383
:010278000580
:01027900087C
:01027A000A79
:01027B000D75
:01027C000F72
:01027D00116F
:01027E00136C
:01027F001569
:010280001766
:010281001963
:010282001A61
:010283001C5E
:010284001D5C
:010285001E5A
:010286001F58
:010287000076
:010288000174
:010289000272
:01028A000271
:01028B00036F
:01028C00036E
:01028D00036D
:01028E00036C
:01028F00036B
:01029000036A
:010291000369
:010292000368
:010293000268
:010294000168
:010295000167
:010296000067
:010297001F47
:010298001E47
:010299001D47
:01029A001B48
:01029B001A48
:01029C001849
:01029D001749
:01029E00154A
:01029F00134B
:0102A000114C
:0102A1000F4D
:0102A2000D4E
:0102A3000A50
:0102A4000851
:0102A5000553
:0102A6000354
:0102A7000056
:0102A8001D38
:0102A9001A3A
:0102AA00173C
:0102AB00143E
:0102AC001041
:0102AD000D43
:0102AE000946
:0102AF000648
:0102B000024B
:0102B1001E2E
:0102B2001A31
:0102B3001634
:0102B4001237
:0102B5000D3B
:0102B600093E
:0102B7000442
:0102B8000045
:0102B9001B29
:0102BA00162D
:0102BB001131
:0102BC000C35
:0102BD000739
:0102BE00023D
:0102BF001C22
:0102C0001726
:0102C100112B
:0102C2000B30
:0102C3000535
:0102C4001F1A
:0102C500191F
:0102C6001324
:0102C7000D29
:0102C800072E
:0102C9000034
:0102CA001A19
:0102CB00131F
:0102CC000C25
:0102CD00052B
:0102CE001E11
:0102CF001717
:0102D000101D
:0102D1000923
:0102D200012A
:0102D3001A10
:0102D4001217
:0102D5000B1D
:0102D6000324
:0102D7001B0B
:0102D8001312
:0102D9000B19
:0102DA000320
:0102DB001A08
:0102DC00120F
:0102DD000917
:0102DE00011E
:0102DF001806
:0102E0000F0E
:0102E1000616
:0102E2001DFE
:0102E3001406
:0102E4000B0E
:0102E5000216
:0102E60018FF
:0102E7000F07
:0102E8000510
:0102E9001CF8
:0102EA001201
:0102EB00080A
:0102EC001EF3
:0102ED0014FC
:0102EE000A05
:0102EF001FEF
:0102F00015F8
:0102F1000B01
:0102F200000B
:0102F30016F4
:0102F4000BFE
:0102F5000008
:0102F60015F2
:0102F7000AFC
:0102F8001FE6
:0102F90014F0
:0102FA0008FB
:0102FB001DE5
:0102FC0011F0
:0102FD0006FA
:0102FE001AE5
:0102FF000EF0
:0103000003F9
:0103010017E4
:010302000AF0
:010303001EDB
:0103040012E6
:0103050006F1
:0103060019DD
:010307000DE8
:0103080000F4
:0103090014DF
:01030A0007EB
:01030B001AD7
:01030C000DE3
:01030D0000EF
:01030E0013DB
:01030F0006E7
:0103100018D4
:010311000BE0
:010312001DCD
:0103130010D9
:0103140002E6
:0103150014D3
:0103160006E0
:0103170018CD
:010318000ADA
:010319001CC7
:01031A000ED4
:01031B0000E1
:01031C0011CF
:01031D0003DC
:01031E0014CA
:01031F0006D7
:0103200017C5
:0103210008D3
:0103220019C1
:010323000ACF
:010324001BBD
:010325000CCB
:010326001DB9
:010327000EC7
:010328001EB6
:010329000FC4
:01032A001FB3
:01032B000FC2
:01032C0000D0
:01032D0010BF
:01032E0000CE
:01032F0010BD
:0103300000CC
:010331000FBC
:010332001FAB
:010333000FBA
:010334001EAA
:010335000EB9
:010336001DA9
:010337000DB8
:010338001CA8
:010339000BB8
:01033A001AA8
:01033B0009B8
:01033C0018A8
:01033D0007B8
:01033E0016A8
:01033F0004B9
:0103400013A9
:0103410001BA
:0103420010AA
:010343001E9B
:010344000CAC
:010345001B9C
:0103460009AD
:01034700179E
:0103480005AF
:0103490013A0
:01034A0000B2
:01034B000EA3
:01034C001C94
:01034D0009A6
:01034E001797
:01034F0004A9
:01035000129A
:010351001F8C
:010352000C9E
:010353001990
:0103540006A2
:010355001394
:0103560000A6
:010357000D98
:01035800198B
:01035900069D
:01035A001290
:01035B001F82
:01035C000B95
:01035D001887
:01035E00049A
:01035F00108D
:010360001C80
:010361000893
:010362001486
:010363000099
:010364000C8C
:010365001780
:010366000393
:010367000F86
:010368001A7A
:01036900068D
:01036A001181
:01036B001C75
:01036C000789
:01036D00127D
:01036E001D71
:01036F000885
:010370001379
:010371001E6D
:010372000981
:010373001475
:010374001E6A
:01037500097E
:010376001373
:010377001E67
:01037800087C
:010379001271
:01037A001C66
:01037B00067B
:01037C001070
:01037D001A65
:01037E00047A
:01037F000E6F
:010380001864
:01038100017A
:010382000B6F
:010383001564
:010384001E5A
:010385000770
:010386001165
:010387001A5B
:010388000371
:010389000C67
:01038A00155D
:01038B001E53
:01038C000769
:01038D00105F
:01038E001955
:01038F00016C
:010390000A62
:010391001358
:010392001B4F
:010393000465
:010394000C5C
:010395001453
:010396001C4A
:010397000560
:010398000D57
:01039900154E
:01039A001D45
:01039B00045D
:01039C000C54
:01039D00144B
:01039E001C42
:01039F00035A
:0103A0000B51
:0103A1001249
:0103A2001A40
:0103A3000158
:0103A4000850
:0103A5001047
:0103A600173F
:0103A7001E37
:0103A800054F
:0103A9000C47
:0103AA00133F
:0103AB001938
:0103AC000050
:0103AD000748
:0103AE000E40
:0103AF001439
:0103B0001B31
:0103B100014A
:0103B2000743
:0103B3000E3B
:0103B4001434
:0103B5001A2D
:0103B6000046
:0103B700063F
:0103B8000C38
:0103B9001231
:0103BA00182A
:0103BB001E23
:0103BC00043C
:0103BD000936
:0103BE000F2F
:0103BF001429
:0103C0001A22
:0103C1001F1C
:0103C2000535
:0103C3000A2F
:0103C4000F29
:0103C5001423
:0103C6001A1C
:0103C7001F16
:0103C8000430
:0103C900092A
:0103CA000D25
:0103CB00121F
:0103CC001719
:0103CD001C13
:0103CE00002E
:0103CF000528
:0103D0000923
:0103D1000E1D
:0103D2001218
:0103D3001712
:0103D4001B0D
:0103D5001F08
:0103D6000323
:0103D700071E
:0103D8000B19
:0103D9000F14
:0103DA00130F
:0103DB00170A
:0103DC001B05
:0103DD001E01
:0103DE00021C
:0103DF000617
:0103E0000913
:0103E1000D0E
:0103E200100A
:0103E3001405
:0103E4001701
:0103E5001AFD
:0103E6001DF9
:0103E7000114
:0103E8000410
:0103E900070C
:0103EA000A08
:0103EB000D04
:0103EC000F01
:0103ED0012FD
:0103EE0015F9
:0103EF0018F5
:0103F0001AF2
:0103F1001DEE
:0103F2001FEB
:0103F3000207
:0103F4000404
:0103F5000700
:0103F60009FD
:0103F7000BFA
:0103F8000DF7
:0103F9000FF4
:0103FA0012F0
:0103FB0014ED
:0103FC0015EB
:0103FD0017E8
:0103FE0019E5
:0103FF001BE2
:010400001DDE
:010401001EDC
:0104020000F9
:0104030002F6
:0104040003F4
:0104050005F1
:0104060006EF
:0104070007ED
:0104080009EA
:010409000AE8
:01040A000BE6
:01040B000CE4
:01040C000DE2
:01040D000EE0
:01040E000FDE
:01040F0010DC
:0104100011DA
:0104110012D8
:0104120013D6
:0104130013D5
:0104140014D3
:0104150015D1
:0104160015D0
:0104170016CE
:0104180016CD
:0104190017CB
:01041A0017CA
:01041B0017C9
:01041C0018C7
:01041D0018C6
:01041E0018C5
:01041F0018C4
:0104200018C3
:0104210018C2
:0104220018C1
:0104230018C0
:0104240018BF
:0104250017BF
:0104260017BE
:0104270017BD
:0104280016BD
:0104290016BC
:01042A0016BB
:01042B0015BB
:01042C0014BB
:01042D0014BA
:01042E0013BA
:01042F0012BA
:0104300012B9
:0104310011B9
:0104320010B9
:010433000FB9
:010434000EB9
:010435000DB9
:010436000CB9
:010437000BB9
:010438000AB9
:0104390008BA
:01043A0007BA
:01043B0006BA
:01043C0004BB
:01043D0003BB
:01043E0001BC
:01043F0000BC
:010440001E9D
:010441001D9D
:010442001B9E
:01044300199F
:01044400189F
:0104450016A0
:0104460014A1
:0104470012A2
:0104480010A3
:010449000EA4
:01044A000CA5
:01044B000AA6
:01044C0008A7
:01044D0006A8
:01044E0004A9
:01044F0001AB
:010450001F8C
:010451001C8E
:010452001A8F
:010453001890
:010454001592
:010455001393
:010456001095
:010457000D97
:010458000B98
:01045900089A
:01045A00059C
:01045B00029E
:01045C001F80
:01045D001C82
:01045E001984
:01045F001686
:010460001388
:01046100108A
:010462000D8C
:010463000A8E
:010464000790
:010465000393
:010466000095
:010467001C78
:01046800197A
:01046900167C
:01046A00127F
:01046B000E82
:01046C000B84
:01046D000787
:01046E000489
:01046F00008C
:010470001C6F
:010471001872
:010472001475
:010473001078
:010474000C7B
:01047500087E
:010476000481
:010477000084
:010478001C67
:01047900186A
:01047A00146D
:01047B000F71
:01047C000B74
:01047D000777
:01047E00027B
:01047F001E5E
:010480001962
:010481001565
:010482001069
:010483000B6D
:010484000770
:010485000274
:010486001D58
:01048700195B
:01048800145F
:010489000F63
:01048A000A67
:01048B00056B
:01048C00006F
:01048D001B53
:01048E001657
:01048F00115B
:010490000C5F
:010491000664
:010492000168
:010493001C4C
:010494001750
:010495001155
:010496000C59
:01049700065E
:010498000162
:010499001B47
:01049A00164B
:01049B001050
:01049C000A55
:01049D000559
:01049E001F3E
:01049F001943
:0104A0001348
:0104A1000D4D
:0104A2000851
:0104A3000256
:0104A4001C3B
:0104A5001640
:0104A6001045
:0104A700094B
:0104A8000350
:0104A9001D35
:0104AA00173A
:0104AB00113F
:0104AC000A45
:0104AD00044A
:0104AE001E2F
:0104AF001735
:0104B000113A
:0104B1000A40
:0104B2000445
:0104B3001D2B
:0104B4001631
:0104B5001036
:0104B600093C
:0104B7000242
:0104B8001C27
:0104B900152D
:0104BA000E33
:0104BB000739
:0104BC00003F
:0104BD001925
:0104BE00122B
:0104BF000B31
:0104C0000437
:0104C1001D1D
:0104C2001623
:0104C3000E2A
:0104C4000730
:0104C5000036
:0104C600191C
:0104C7001123
:0104C8000A29
:0104C9000230
:0104CA001B16
:0104CB00131D
:0104CC000C23
:0104CD00042A
:0104CE001D10
:0104CF001517
:0104D0000D1E
:0104D1000624
:0104D2001E0B
:0104D3001612
:0104D4000E19
:0104D5000620
:0104D6001F06
:0104D700170D
:0104D8000F14
:0104D900071B
:0104DA001F02
:0104DB00160A
:0104DC000E11
:0104DD000618
:0104DE001EFF
:0104DF001606
:0104E0000D0E
:0104E1000515
:0104E2001DFC
:0104E3001404
:0104E4000C0B
:0104E5000412
:0104E6001BFA
:0104E7001301
:0104E8000A09
:0104E9000111
:0104EA0019F8
:0104EB001000
:0104EC000708
:0104ED001FEF
:0104EE0016F7
:0104EF000DFF
:0104F0000407
:0104F1001BEF
:0104F20013F6
:0104F3000AFE
:0104F4000106
:0104F50018EE
:0104F6000EF7
:0104F70005FF
:0104F8001CE7
:0104F90013EF
:0104FA000AF7
:0104FB0001FF
:0104FC0018E7
:0104FD000EF0
:0104FE0005F8
:0104FF001CE0
:0105000012E8
:0105010009F0
:010502001FD9
:0105030016E1
:010504000CEA
:0105050003F2
:0105060019DB
:0105070010E3
:0105080006EC
:010509001CD5
:01050A0012DE
:01050B0009E6
:01050C001FCF
:01050D0015D8
:01050E000BE1
:01050F0001EA
:0105100017D3
:010511000DDC
:0105120003E5
:0105130019CE
:010514000FD7
:0105150005E0
:010516001BC9
:0105170011D2
:0105180007DB
:010519001DC4
:01051A0012CE
:01051B0008D7
:01051C001EC0
:01051D0013CA
:01051E0009D3
:01051F001FBC
:0105200014C6
:010521000ACF
:010522001FB9
:0105230015C2
:010524000ACC
:010525001FB6
:0105260015BF
:010527000AC9
:010528001FB3
:0105290015BC
:01052A000AC6
:01052B001FB0
:01052C0014BA
:01052D0009C4
:01052E001FAD
:01052F0014B7
:0105300009C1
:010531001EAB
:0105320013B5
:0105330008BF
:010534001DA9
:0105350011B4
:0105360006BE
:010537001BA8
:0105380010B2
:0105390005BC
:01053A0019A7
:01053B000EB1
:01053C0003BB
:01053D0017A6
:01053E000CB0
:01053F0001BA
:0105400015A5
:010541000AAF
:010542001E9A
:0105430013A4
:0105440007AF
:010545001B9A
:0105460010A4
:0105470004AF
:010548001999
:010549000DA4
:01054A0001AF
:01054B00159A
:01054C000AA4
:01054D001E8F
:01054E00129A
:01054F0006A5
:010550001A90
:010551000E9B
:0105520002A6
:010553001691
:010554000A9C
:010555001E87
:010556001292
:01055700069D
:010558001A88
:010559000D94
:01055A00019F
:01055B00158A
:01055C000995
:01055D001C81
:01055E00108C
:01055F000497
:010560001783
:010561000B8E
:010562001E7A
:010563001285
:010564000591
:01056500197C
:010566000C88
:010567000093
:01056800137F
:01056900068B
:01056A001A76
:01056B000D82
:01056C00008E
:01056D001479
:01056E000785
:01056F001A71
:010570000D7D
:010571000089
:010572001375
:010573000681
:010574001A6C
:010575000D78
:010576000084
:010577001370
:01057800067C
:010579001869
:01057A000B75
:01057B001E61
:01057C00116D
:01057D000479
:01057E001765
:01057F000972
:010580001C5E
:010581000F6A
:010582000177
:010583001463
:01058400076F
:01058500195C
:010586000C68
:010587001E55
:010588001161
:01058900036E
:01058A00165A
:01058B000867
:01058C001B53
:01058D000D60
:01058E001F4D
:01058F001259
:010590000466
:010591001653
:010592000860
:010593001B4C
:010594000D59
:010595001F46
:010596001153
:010597000360
:01059800154D
:01059900075A
:01059A001947
:01059B000B54
:01059C001D41
:01059D000F4E
:01059E00015B
:01059F001348
:0105A0000555
:0105A1001742
:0105A200094F
:0105A3001A3D
:0105A4000C4A
:0105A5001E37
:0105A6001044
:0105A7000152
:0105A800133F
:0105A900054C
:0105AA00163A
:0105AB000847
:0105AC001A34
:0105AD000B42
:0105AE001D2F
:0105AF000E3D
:0105B000004A
:0105B1001138
:0105B2000246
:0105B3001433
:0105B4000541
:0105B500172E
:0105B600083C
:0105B700192A
:0105B8000B37
:0105B9001C25
:0105BA000D33
:0105BB001E21
:0105BC000F2F
:0105BD00013C
:0105BE00122A
:0105BF000338
:0105C0001426
:0105C1000534
:0105C2001622
:0105C3000730
:0105C400181E
:0105C500092C
:0105C6001A1A
:0105C7000B28
:0105C8001C16
:0105C9000D24
:0105CA001D13
:0105CB000E21
:0105CC001F0F
:0105CD00101D
:0105CE00012B
:0105CF00111A
:0105D0000228
:0105D1001316
:0105D2000325
:0105D3001413
:0105D4000422
:0105D5001510
:0105D600061E
:0105D700160D
:0105D800071B
:0105D900170A
:0105DA000818
:0105DB001807
:0105DC000816
:0105DD001904
:0105DE000913
:0105DF001A01
:0105E0000A10
:0105E1001AFF
:0105E2000A0E
:0105E3001BFC
:0105E4000B0B
:0105E5001BFA
:0105E6000B09
:0105E7001BF8
:0105E8000C06
:0105E9001CF5
:0105EA000C04
:0105EB001CF3
:0105EC000C02
:0105ED001CF1
:0105EE000C00
:0105EF001CEF
:0105F0000CFE
:0105F1001CED
:0105F2000CFC
:0105F3001CEB
:0105F4000CFA
:0105F5001BEA
:0105F6000BF9
:0105F7001BE8
:0105F8000BF7
:0105F9001BE6
:0105FA000AF6
:0105FB001AE5
:0105FC000AF4
:0105FD0019E4
:0105FE0009F3
:0105FF0019E2
:0106000008F1
:0106010018E0
:0106020007F0
:0106030017DF
:0106040007EE
:0106050016DE
:0106060006ED
:0106070015DD
:0106080004ED
:0106090014DC
:01060A0003EC
:01060B0013DB
:01060C0002EB
:01060D0011DB
:01060E0001EA
:01060F0010DA
:010610001FCA
:010611000EDA
:010612001EC9
:010613000DD9
:010614001CC9
:010615000BD9
:010616001AC9
:0106170009D9
:0106180019C8
:0106190008D8
:01061A0017C8
:01061B0006D8
:01061C0015C8
:01061D0004D8
:01061E0013C8
:01061F0002D8
:0106200010C9
:010621001FB9
:010622000EC9
:010623001DB9
:010624000CC9
:010625001BB9
:010626000AC9
:0106270018BA
:0106280007CA
:0106290016BA
:01062A0005CA
:01062B0013BB
:01062C0002CB
:01062D0011BB
:01062E001FAC
:01062F000EBC
:010630001DAC
:010631000BBD
:010632001AAD
:0106330008BE
:0106340017AE
:0106350005BF
:0106360014AF
:0106370002C0
:0106380011B0
:010639001FA1
:01063A000DB2
:01063B001CA2
:01063C000AB3
:01063D0019A3
:01063E0007B4
:01063F0015A5
:0106400004B5
:0106410012A6
:0106420000B7
:010643000EA8
:010644001D98
:010645000BA9
:01064600199A
:0106470007AB
:01064800159C
:0106490003AD
:01064A00119E
:01064B001F8F
:01064C000DA0
:01064D001B91
:01064E0009A2
:01064F001793
:0106500005A4
:010651001395
:0106520001A6
:010653000F97
:010654001D88
:010655000B99
:01065600198A
:01065700079B
:01065800158C
:01065900029E
:01065A00108F
:01065B001E80
:01065C000C91
:01065D001983
:01065E000794
:01065F001585
:010660000396
:010661001088
:010662001E79
:010663000C8A
:01066400197C
:01066500078D
:01066600147F
:010667000290
:010668000F82
:010669001D73
:01066A000A85
:01066B001876
:01066C000588
:01066D001379
:01066E00008B
:01066F000D7D
:010670001B6E
:010671000880
:010672001671
:010673000383
:010674001075
:010675001D67
:010676000B78
:01067700186A
:01067800057C
:01067900126E
:01067A00007F
:01067B000D71
:01067C001A63
:01067D000775
:01067E001467
:01067F000179
:010680000F6A
:010681001C5C
:01068200096E
:010683001660
:010684000372
:010685001064
:010686001D56
:010687000A68
:01068800175A
:01068900046C
:01068A00105F
:01068B001D51
:01068C000A63
:01068D001755
:01068E000467
:01068F001159
:010690001E4B
:010691000A5E
:010692001750
:010693000462
:010694001154
:010695001E46
:010696000A59
:01069700174B
:01069800045D
:010699001050
:01069A001D42
:01069B000955
:01069C001647
:01069D000359
:01069E000F4C
:01069F001C3E
:0106A0000851
:0106A1001543
:0106A2000156
:0106A3000E48
:0106A4001A3B
:0106A500074D
:0106A6001340
:0106A7000052
:0106A8000C45
:0106A9001937
:0106AA00054A
:0106AB00113D
:0106AC001E2F
:0106AD000A42
:0106AE001635
:0106AF000347
:0106B0000F3A
:0106B1001B2D
:0106B2000740
:0106B3001432
:0106B4000045
:0106B5000C38
:0106B600182B
:0106B700043E
:0106B8001031
:0106B9001D23
:0106BA000936
:0106BB001529
:0106BC00013C
:0106BD000D2F
:0106BE001922
:0106BF000535
:0106C0001128
:0106C1001D1B
:0106C200092E
:0106C3001521
:0106C4000134
:0106C5000D27
:0106C600191A
:0106C700052D
:0106C8001120
:0106C9001D13
:0106CA000926
:0106CB00141A
:0106CC00002D
:0106CD000C20
:0106CE001813
:0106CF000426
:0106D0000F1A
:0106D1001B0D
:0106D2000720
:0106D3001313
:0106D4001E07
:0106D5000A1A
:0106D600160D
:0106D7000121
:0106D8000D14
:0106D9001907
:0106DA00041B
:0106DB00100E
:0106DC001B02
:0106DD000715
:0106DE001308
:0106DF001EFC
:0106E0000A0F
:0106E1001503
:0106E2000116
:0106E3000C0A
:0106E40018FD
:0106E5000311
:0106E6000E05
:0106E7001AF8
:0106E800050C
:0106E90011FF
:0106EA001CF3
:0106EB000707
:0106EC0013FA
:0106ED001EEE
:0106EE000902
:0106EF0015F5
:0106F0000009
:0106F1000BFD
:0106F20017F0
:0106F3000204
:0106F4000DF8
:0106F50018EC
:0106F6000300
:0106F7000FF3
:0106F8001AE7
:0106F90005FB
:0106FA0010EF
:0106FB001BE3
:0106FC0006F7
:0106FD0011EB
:0106FE001CDF
:0106FF0008F2
:0107000013E5
:010701001ED9
:0107020009ED
:0107030014E1
:010704001FD5
:010705000AE9
:0107060015DD
:0107070000F1
:010708000BE5
:0107090015DA
:01070A0000EE
:01070B000BE2
:01070C0016D6
:01070D0001EA
:01070E000CDE
:01070F0017D2
:0107100002E6
:010711000CDB
:0107120017CF
:0107130002E3
:010714000DD7
:0107150017CC
:0107160002E0
:010717000DD4
:0107180018C8
:0107190002DD
:01071A000DD1
:01071B0018C5
:01071C0002DA
:01071D000DCE
:01071E0018C2
:01071F0002D7
:010720000DCB
:0107210018BF
:0107220002D4
:010723000DC8
:0107240017BD
:0107250002D1
:010726000CC6
:0107270017BA
:0107280001CF
:010729000CC3
:01072A0016B8
:01072B0001CC
:01072C000BC1
:01072D0016B5
:01072E0000CA
:01072F000ABF
:0107300015B3
:010731001FA8
:0107320009BD
:0107330014B1
:010734001EA6
:0107350009BA
:0107360013AF
:010737001DA4
:0107380007B9
:0107390012AD
:01073A001CA2
:01073B0006B7
:01073C0010AC
:01073D001BA0
:01073E0005B5
:01073F000FAA
:01074000199F
:0107410003B4
:010742000DA9
:01074300189D
:0107440002B2
:010745000CA7
:01074600169C
:0107470000B1
:010748000AA6
:01074900149B
:01074A001E90
:01074B0008A5
:01074C00129A
:01074D001C8F
:01074E0006A4
:01074F001099
:010750001A8E
:0107510004A3
:010752000E98
:01075300188D
:0107540002A2
:010755000C97
:01075600168C
:0107570000A1
:010758000A96
:01075900138C
:01075A001D81
:01075B000796
:01075C00118B
:01075D001B80
:01075E000496
:01075F000E8B
:010760001880
:010761000295
:010762000C8A
:010763001580
:010764001F75
:01076500098A
:010766001280
:010767001C75
:01076800068A
:010769000F80
:01076A001975
:01076B00038A
:01076C000C80
:01076D001675
:01076E001F6B
:01076F000980
:010770001375
:010771001C6B
:010772000680
:010773000F76
:01077400196B
:010775000281
:010776000C76
:01077700156C
:010778001F61
:010779000877
:01077A00126C
:01077B001B62
:01077C000577
:01077D000E6D
:01077E001763
:01077F000178
:010780000A6E
:010781001463
:010782001D59
:01078300066F
:010784001064
:01078500195A
:010786000270
:010787000C65
:01078800155B
:010789001E51
:01078A000767
:01078B00115C
:01078C001A52
:01078D000368
:01078E000C5E
:01078F001554
:010790001F49
:01079100085F
:010792001155
:010793001A4B
:010794000361
:010795000D56
:01079600164C
:010797001F42
:010798000858
:01079900114E
:01079A001A44
:01079B00035A
:01079C000C50
:01079D001546
:01079E001E3C
:01079F000752
:0107A0001048
:0107A100193E
:0107A2000254
:0107A3000B4A
:0107A4001440
:0107A5001D36
:0107A600064C
:0107A7000F42
:0107A8001838
:0107A900014E
:0107AA000A44
:0107AB00133A
:0107AC001C30
:0107AD000447
:0107AE000D3D
:0107AF001633
:0107B0001F29
:0107B100083F
:0107B2001135
:0107B300192C
:0107B4000242
:0107B5000B38
:0107B600142E
:0107B7001C25
:0107B800053B
:0107B9000E31
:0107BA001727
:0107BB001F1E
:0107BC000834
:0107BD00112A
:0107BE001A20
:0107BF000237
:0107C0000B2D
:0107C1001324
:0107C2001C1A
:0107C3000530
:0107C4000D27
:0107C500161D
:0107C6001F13
:0107C700072A
:0107C8001020
:0107C9001817
:0107CA00012D
:0107CB000924
:0107CC00121A
:0107CD001A11
:0107CE000327
:0107CF000C1D
:0107D0001414
:0107D1001C0B
:0107D2000521
:0107D3000D18
:0107D400160E
:0107D5001E05
:0107D600071B
:0107D7000F12
:0107D8001808
:0107D900001F
:0107DA000816
:0107DB00110C
:0107DC001903
:0107DD00011A
:0107DE000A10
:0107DF001207
:0107E0001AFE
:0107E1000314
:0107E2000B0B
:0107E3001302
:0107E4001CF8
:0107E500040F
:0107E6000C06
:0107E70014FD
:0107E8001DF3
:0107E900050A
:0107EA000D01
:0107EB0015F8
:0107EC001EEE
:0107ED000605
:0107EE000EFC
:0107EF0016F3
:0107F0001EEA
:0107F1000601
:0107F2000FF7
:0107F30017EE
:0107F4001FE5
:0107F50007FC
:0107F6000FF3
:0107F70017EA
:0107F8001FE1
:0107F90007F8
:0107FA000FEF
:0107FB0017E6
:0107FC001FDD
:0107FD0007F4
:0107FE0010EA
:0107FF0018E1
:00000001ff
