:020000040000FA
:0100000000FF
:010001001FDF
:010002001EDF
:0100030019E3
:010004000CEF
:010005000FEB
:010006001BDE
:0100070005F3
:0100080001F6
:0100090002F4
:01000A0017DE
:01000B000FE5
:01000C0017DC
:01000D0019D9
:01000E001FD2
:01000F000FE1
:010010000FE0
:0100110003EB
:010012000CE1
:010013000AE2
:010014001CCF
:010015001ECC
:010016000BDE
:010017001CCC
:0100180007E0
:0100190003E3
:01001A0002E3
:01001B0018CC
:01001C0013D0
:01001D0003DF
:01001E0014CD
:01001F0011CF
:0100200004DB
:0100210014CA
:0100220007D6
:0100230000DC
:0100240004D7
:0100250011C9
:0100260008D1
:0100270006D2
:0100280007D0
:0100290003D3
:01002A0015C0
:01002B0012C2
:01002C0010C3
:01002D0002D0
:01002E001AB7
:01002F0007C9
:0100300019B6
:010031001CB2
:010032001BB2
:0100330000CC
:0100340013B8
:010035001AB0
:010036001AAF
:0100370015B3
:010038000EB9
:0100390004C2
:01003A0016AF
:01003B0000C4
:01003C001EA5
:01003D0008BA
:01003E0018A9
:01003F0003BD
:010040001DA2
:010041001BA3
:010042000FAE
:0100430007B5
:0100440013A8
:0100450001B9
:010046001A9F
:010047000AAE
:01004800199E
:010049000DA9
:01004A000CA9
:01004B001B99
:01004C001A99
:01004D000CA6
:01004E000FA2
:01004F0002AE
:0100500000AF
:0100510005A9
:0100520009A4
:0100530005A7
:010054000F9C
:010055001D8D
:0100560000A9
:010057000C9C
:010058001196
:010059001E88
:01005A0000A5
:01005B0004A0
:01005C00148F
:01005D001989
:01005E001C85
:01005F00039D
:01006000128D
:010061000D91
:010062001786
:010063000F8D
:010064001685
:010065000892
:010066000297
:010067000098
:010068001B7C
:010069000A8C
:01006A00068F
:01006B000391
:01006C00167D
:01006D001082
:01006E00048D
:01006F00018F
:010070001679
:01007100107E
:010072001B72
:01007300018B
:010074000C7F
:010075000288
:010076000B7E
:010077000C7C
:01007800087F
:010079000284
:01007A001A6B
:01007B001173
:01007C00047F
:01007D001270
:01007E00156C
:01007F000878
:01008000057A
:01008100037B
:010082001865
:010083001A62
:010084001D5E
:010085001367
:010086000E6B
:010087001E5A
:010088001166
:010089001660
:01008A00185D
:01008B000272
:01008C001E55
:01008D00145E
:01008E000C65
:01008F000B65
:010090001758
:01009100125C
:010092001E4F
:010093001D4F
:010094000F5C
:010095001159
:010096000069
:010097001A4E
:01009800184F
:010099001452
:01009A00075E
:01009B00075D
:01009C000A59
:01009D00055D
:01009E000C55
:01009F001050
:0100A000035C
:0100A1001549
:0100A200134A
:0100A3000D4F
:0100A4000D4E
:0100A5001F3B
:0100A6000E4B
:0100A7000157
:0100A8000057
:0100A9001145
:0100AA001B3A
:0100AB000054
:0100AC00044F
:0100AD000949
:0100AE000F42
:0100AF00153B
:0100B0001A35
:0100B1001B33
:0100B200133A
:0100B3001F2D
:0100B4001734
:0100B5001337
:0100B6000D3C
:0100B700192F
:0100B8000D3A
:0100B9001D29
:0100BA001B2A
:0100BB001B29
:0100BC000C37
:0100BD001E24
:0100BE000041
:0100BF001F21
:0100C0000738
:0100C100043A
:0100C2001F1E
:0100C300023A
:0100C4001427
:0100C5001D1D
:0100C6000138
:0100C7000731
:0100C8001126
:0100C9000234
:0100CA001B1A
:0100CB001C18
:0100CC00062D
:0100CD00161C
:0100CE000A27
:0100CF001D13
:0100D0000B24
:0100D1000D21
:0100D2001D10
:0100D3001319
:0100D4000526
:0100D5000921
:0100D6001415
:0100D7001B0D
:0100D8000F18
:0100D9000224
:0100DA000520
:0100DB00071D
:0100DC00180B
:0100DD00051D
:0100DE001A07
:0100DF00041C
:0100E0000B14
:0100E1001B03
:0100E2001C01
:0100E3001507
:0100E4000D0E
:0100E5000911
:0100E6000E0B
:0100E7001FF9
:0100E8000017
:0100E9001105
:0100EA001401
:0100EB00070D
:0100EC000A09
:0100ED001AF8
:0100EE0013FE
:0100EF0013FD
:0100F00012FD
:0100F1000C02
:0100F20019F4
:0100F30010FC
:0100F4000902
:0100F5001AF0
:0100F60017F2
:0100F70015F3
:0100F8000601
:0100F9001EE8
:0100FA000CF9
:0100FB000202
:0100FC000EF5
:0100FD001FE3
:0100FE0002FF
:0100FF0005FB
:0101000012EC
:0101010014E9
:0101020014E8
:010103001DDE
:0101040015E5
:0101050003F6
:010106000EEA
:010107001BDC
:010108000DE9
:0101090009EC
:01010A0010E4
:01010B0005EE
:01010C0007EB
:01010D0016DB
:01010E0012DE
:01010F0018D7
:0101100006E8
:0101110016D7
:0101120005E7
:010113000DDE
:0101140007E3
:010115000DDC
:0101160015D3
:0101170017D0
:0101180008DE
:010119001EC7
:01011A000DD7
:01011B0008DB
:01011C0002E0
:01011D000CD5
:01011E0017C9
:01011F0014CB
:0101200010CE
:010121001BC2
:0101220002DA
:0101230011CA
:0101240013C7
:0101250015C4
:010126001FB9
:010127001BBC
:0101280011C5
:0101290008CD
:01012A0008CC
:01012B0016BD
:01012C0016BC
:01012D000EC3
:01012E0000D0
:01012F000FC0
:010130001DB1
:010131000AC3
:0101320016B6
:0101330001CA
:0101340009C1
:010135000CBD
:0101360006C2
:0101370013B4
:010138000FB7
:0101390014B1
:01013A001BA9
:01013B001EA5
:01013C0013AF
:01013D0013AE
:01013E0014AC
:01013F000BB4
:010140000EB0
:010141000FAE
:0101420003B9
:010143001C9F
:010144000BAF
:0101450002B7
:0101460010A8
:0101470005B2
:0101480010A6
:010149001D98
:01014A001B99
:01014B00159E
:01014C00189A
:01014D000DA4
:01014E001F91
:01014F001699
:010150001C92
:010151001895
:01015200119B
:010153000E9D
:010154001298
:0101550005A4
:0101560008A0
:0101570000A7
:010158000E98
:01015900168F
:01015A00178D
:01015B001291
:01015C00069C
:01015D00128F
:01015E00158B
:01015F000B94
:01016000118D
:01016100039A
:010162001C80
:010163001784
:010164000D8D
:010165001782
:010166000D8B
:01016700088F
:010168001D79
:010169000491
:01016A001084
:01016B00187B
:01016C000F83
:01016D000889
:01016E00167A
:01016F000B84
:010170001876
:010171000D80
:010172001B71
:01017300107B
:010174001B6F
:010175000980
:01017600097F
:010177000582
:01017800097D
:010179000184
:01017A00176D
:01017B00156E
:01017C00037F
:01017D000978
:01017E001070
:01017F001E61
:010180001965
:010181000875
:010182000E6E
:01018300106B
:010184001268
:010185001663
:010186001F59
:010187000F68
:010188000670
:010189000471
:01018A000A6A
:01018B00155E
:01018C00056D
:01018D001859
:01018E000967
:01018F00155A
:010190001955
:010191000F5E
:01019200125A
:010193001B50
:010194000367
:010195000465
:010196001454
:010197000C5B
:010198000165
:010199000A5B
:01019A001C48
:01019B000B58
:01019C000D55
:01019D00144D
:01019E00124E
:01019F001C43
:0101A000015D
:0101A100124B
:0101A200015B
:0101A3001D3E
:0101A4001545
:0101A5001841
:0101A6001246
:0101A7001344
:0101A8000650
:0101A900173E
:0101AA001242
:0101AB000251
:0101AC001141
:0101AD000948
:0101AE00123E
:0101AF00153A
:0101B0001A34
:0101B1000944
:0101B2000745
:0101B3001B30
:0101B4000A40
:0101B5001A2F
:0101B6000E3A
:0101B7000B3C
:0101B8001333
:0101B900093C
:0101BA000E36
:0101BB00053E
:0101BC000E34
:0101BD000938
:0101BE00162A
:0101BF00142B
:0101C000023C
:0101C1001C21
:0101C200023A
:0101C3000E2D
:0101C4001E1C
:0101C5000E2B
:0101C6001820
:0101C7001621
:0101C8000333
:0101C900181D
:0101CA000E26
:0101CB001E15
:0101CC001E14
:0101CD00052C
:0101CE000C24
:0101CF000728
:0101D0000C22
:0101D1000F1E
:0101D2000725
:0101D3000526
:0101D4001D0D
:0101D5000326
:0101D6000820
:0101D7001D0A
:0101D8001511
:0101D9001F06
:0101DA000C18
:0101DB000A19
:0101DC000A18
:0101DD001908
:0101DE00051B
:0101DF001B04
:0101E0000915
:0101E1001A03
:0101E2001B01
:0101E3001605
:0101E4001604
:0101E5000514
:0101E6000D0B
:0101E70018FF
:0101E8000D09
:0101E9001401
:0101EA0016FE
:0101EB0019FA
:0101EC00030F
:0101ED001BF6
:0101EE000709
:0101EF000A05
:0101F0000A04
:0101F1000A03
:0101F2000EFE
:0101F30019F2
:0101F4000DFD
:0101F5000DFC
:0101F60018F0
:0101F70011F6
:0101F80018EE
:0101F9000CF9
:0101FA000DF7
:0101FB001AE9
:0101FC0012F0
:0101FD0011F0
:0101FE0016EA
:0101FF001DE2
:0102000003FA
:0102010004F8
:010202001BE0
:0102030003F7
:0102040016E3
:010205000FE9
:0102060006F1
:0102070016E0
:0102080016DF
:010209001ED6
:01020A0006ED
:01020B0004EE
:01020C0011E0
:01020D0000F0
:01020E0009E6
:01020F0000EE
:010210001AD3
:010211000CE0
:0102120007E4
:0102130001E9
:010214000CDD
:010215001ACE
:010216001CCB
:0102170005E1
:0102180005E0
:010219000DD7
:01021A000CD7
:01021B0012D0
:01021C000ED3
:01021D000FD1
:01021E0002DD
:01021F0015C9
:0102200017C6
:0102210012CA
:0102220014C7
:0102230008D2
:010224001ABF
:0102250015C3
:0102260002D5
:010227000DC9
:010228001FB6
:0102290000D4
:01022A0019BA
:01022B0014BE
:01022C0016BB
:01022D0009C7
:01022E0012BD
:01022F0018B6
:0102300001CC
:0102310013B9
:0102320012B9
:0102330004C6
:010234000CBD
:010235000FB9
:0102360010B7
:0102370012B4
:0102380017AE
:0102390001C3
:01023A0012B1
:01023B000BB7
:01023C000DB4
:01023D0019A7
:01023E000DB2
:01023F000BB3
:0102400010AD
:010241001BA1
:010242000BB0
:010243001E9C
:0102440010A9
:010245001F99
:0102460008AF
:0102470005B1
:0102480014A1
:010249000FA5
:01024A0012A1
:01024B00169C
:01024C00159C
:01024D000AA6
:01024E000EA1
:01024F001995
:0102500003AA
:0102510005A7
:010252001794
:010253000F9B
:0102540004A5
:010255000C9C
:010256001E89
:010257000F97
:010258001491
:0102590002A2
:01025A000D96
:01025B000999
:01025C000A97
:01025D00029E
:01025E00059A
:01025F000599
:010260001489
:010261000399
:010262000398
:010263000595
:010264001B7E
:010265001286
:010266001C7B
:01026700088E
:010268000392
:010269001D77
:01026A000390
:01026B00048E
:01026C000D84
:01026D000987
:01026E000788
:01026F00117D
:010270001578
:010271001C70
:010272001279
:010273000288
:010274001673
:010275001771
:010276001077
:01027700097D
:010278000A7B
:010279001D67
:01027A00097A
:01027B00166C
:01027C000A77
:01027D000E72
:01027E000679
:01027F001A64
:010280000F6E
:010281000B71
:010282001269
:010283000971
:010284001564
:01028500195F
:01028600185F
:01028700175F
:01028800175E
:010289001C58
:01028A00066D
:01028B001959
:01028C00165B
:01028D001D53
:01028E000F60
:01028F000C62
:010290001558
:010291000963
:010292000764
:010293000E5C
:010294001C4D
:010295001157
:01029600095E
:010297000264
:01029800194C
:010299000C58
:01029A00164D
:01029B00134F
:01029C000061
:01029D001749
:01029E00154A
:01029F00124C
:0102A0000B52
:0102A1001844
:0102A2001447
:0102A3001743
:0102A4001C3D
:0102A5001A3E
:0102A6000A4D
:0102A7000452
:0102A8001F36
:0102A9001341
:0102AA00173C
:0102AB000151
:0102AC00074A
:0102AD00014F
:0102AE00034C
:0102AF00024C
:0102B0001439
:0102B1000E3E
:0102B2000249
:0102B3000743
:0102B4000E3B
:0102B5000D3B
:0102B6001433
:0102B700182E
:0102B8000B3A
:0102B9001E26
:0102BA000340
:0102BB000C36
:0102BC000A37
:0102BD000D33
:0102BE000639
:0102BF000539
:0102C0001A23
:0102C1001428
:0102C2000338
:0102C3001426
:0102C4001821
:0102C5001B1D
:0102C6000B2C
:0102C700181E
:0102C8000C29
:0102C900161E
:0102CA000231
:0102CB001D15
:0102CC001120
:0102CD000C24
:0102CE001817
:0102CF00012D
:0102D000101D
:0102D100121A
:0102D2000F1C
:0102D3001218
:0102D4000326
:0102D5000E1A
:0102D600190E
:0102D7000E18
:0102D8001510
:0102D900170D
:0102DA001A09
:0102DB00071B
:0102DC00041D
:0102DD001808
:0102DE000916
:0102DF001E00
:0102E0001D00
:0102E1000C10
:0102E2000F0C
:0102E3000B0F
:0102E4000613
:0102E5000414
:0102E600080F
:0102E70017FF
:0102E8001401
:0102E9000311
:0102EA00060D
:0102EB000012
:0102EC0013FE
:0102ED00020E
:0102EE000F00
:0102EF0019F5
:0102F0000409
:0102F10010FC
:0102F2001DEE
:0102F3000DFD
:0102F4001EEB
:0102F50010F8
:0102F6000403
:0102F70019ED
:0102F8000CF9
:0102F9001EE6
:0102FA000CF7
:0102FB0014EE
:0102FC0015EC
:0102FD000BF5
:0102FE0014EB
:0102FF000DF1
:0103000012EA
:0103010001FA
:0103020014E6
:0103030009F0
:010304001ADE
:0103050003F4
:010306001ED8
:0103070007EE
:0103080018DC
:010309000CE7
:01030A001BD7
:01030B0001F0
:01030C0015DB
:01030D0012DD
:01030E0010DE
:01030F0007E6
:0103100011DB
:0103110004E7
:0103120019D1
:0103130008E1
:0103140007E1
:010315000DDA
:0103160012D4
:010317000BDA
:010318000FD5
:0103190013D0
:01031A000ED4
:01031B0015CC
:01031C001CC4
:01031D0019C6
:01031E0000DE
:01031F0005D8
:010320001DBF
:010321001CBF
:0103220014C6
:010323001ABF
:0103240000D8
:0103250019BE
:0103260017BF
:010327000EC7
:010328000EC6
:0103290009CA
:01032A0012C0
:01032B0019B8
:01032C000FC1
:01032D0006C9
:01032E000CC2
:01032F0014B9
:010330000CC0
:0103310004C7
:010332000DBD
:0103330014B5
:010334000ABE
:010335001CAB
:010336001AAC
:0103370011B4
:010338000FB5
:0103390003C0
:01033A0019A9
:01033B0000C1
:01033C0003BD
:01033D0010AF
:01033E0013AB
:01033F0018A5
:010340000CB0
:010341001BA0
:010342000FAB
:0103430013A6
:0103440015A3
:010345001C9B
:0103460016A0
:010347000BAA
:0103480006AE
:0103490011A2
:01034A00159D
:01034B001C95
:01034C000FA1
:01034D001699
:01034E001B93
:01034F0006A7
:010350001E8E
:010351000D9E
:010352001991
:010353000B9E
:0103540008A0
:010355001A8D
:0103560005A1
:010357001293
:01035800059F
:01035900069D
:01035A001A88
:01035B00069B
:01035C00118F
:01035D001E81
:01035E00148A
:01035F001786
:010360000C90
:010361001685
:010362001981
:010363001A7F
:010364001D7B
:010365000493
:010366001284
:010367000B8A
:010368001183
:01036900068D
:01036A000E84
:01036B000988
:01036C001A76
:01036D00028D
:01036E00038B
:01036F001D70
:01037000127A
:010371000289
:010372000E7C
:010373001673
:010374001A6E
:010375001A6D
:010376001670
:010377000C79
:010378001C68
:01037900057E
:01037A00057D
:01037B001C65
:01037C000779
:01037D00047B
:01037E00126C
:01037F000E6F
:010380001666
:010381000675
:010382001B5F
:010383001465
:010384000B6D
:010385001E59
:01038600086E
:01038700066F
:010388001361
:010389000C67
:01038A000A68
:01038B000A67
:01038C00066A
:01038D001857
:01038E001D51
:01038F000D60
:01039000026A
:010391001853
:010392000664
:010393000861
:010394001652
:01039500085F
:01039600194D
:010397000065
:01039800174D
:01039900144F
:01039A001151
:01039B00065B
:01039C000957
:01039D00124D
:01039E001945
:01039F001449
:0103A0001B41
:0103A1000457
:0103A2000555
:0103A3001544
:0103A400094F
:0103A500183F
:0103A600173F
:0103A7001C39
:0103A8001C38
:0103A9000C47
:0103AA000052
:0103AB000E43
:0103AC000A46
:0103AD000847
:0103AE001C32
:0103AF001B32
:0103B0001735
:0103B1000546
:0103B2001733
:0103B3000148
:0103B4001632
:0103B500083F
:0103B6000A3C
:0103B7000E37
:0103B800073D
:0103B900063D
:0103BA001D25
:0103BB001E23
:0103BC001A26
:0103BD00033C
:0103BE000935
:0103BF001D20
:0103C000102C
:0103C1001229
:0103C2001426
:0103C3000534
:0103C4001622
:0103C5001720
:0103C6001620
:0103C7000332
:0103C8000D27
:0103C900042F
:0103CA00161C
:0103CB001120
:0103CC00052B
:0103CD001F10
:0103CE000D21
:0103CF001D10
:0103D0001D0F
:0103D1001B10
:0103D2000426
:0103D3000425
:0103D4000A1E
:0103D5000126
:0103D6001610
:0103D700160F
:0103D8000E16
:0103D900081B
:0103DA001111
:0103DB00150C
:0103DC001F01
:0103DD001A05
:0103DE00130B
:0103DF00130A
:0103E0000616
:0103E1001605
:0103E2000E0C
:0103E3001801
:0103E4001EFA
:0103E5000A0D
:0103E6000610
:0103E7001CF9
:0103E80015FF
:0103E9001AF9
:0103EA0014FE
:0103EB000D04
:0103EC000D03
:0103ED001CF3
:0103EE00030B
:0103EF000B02
:0103F0001BF1
:0103F1001BF0
:0103F20013F7
:0103F3000BFE
:0103F40009FF
:0103F50016F1
:0103F60018EE
:0103F70016EF
:0103F80017ED
:0103F9000102
:0103FA001AE8
:0103FB000AF7
:0103FC0015EB
:0103FD0003FC
:0103FE0017E7
:0103FF0019E4
:010400000EED
:010401001AE0
:0104020003F6
:010403000DEB
:010404001ED9
:010405001ADC
:0104060005F0
:0104070003F1
:010408001AD9
:010409000CE6
:01040A001DD4
:01040B0011DF
:01040C000BE4
:01040D000FDF
:01040E001FCE
:01040F001FCD
:0104100012D9
:0104110019D1
:0104120018D1
:0104130011D7
:0104140005E2
:0104150018CE
:010416000ADB
:010417001EC6
:0104180015CE
:0104190010D2
:01041A0010D1
:01041B0017C9
:01041C0005DA
:01041D001BC3
:01041E001BC2
:01041F0003D9
:0104200014C7
:010421000FCB
:0104220014C5
:0104230002D6
:0104240018BF
:0104250017BF
:010426001EB7
:010427000BC9
:010428001FB4
:0104290017BB
:01042A0013BE
:01042B0011BF
:01042C000FC0
:01042D000CC2
:01042E0006C7
:01042F001BB1
:0104300009C2
:010431000DBD
:0104320004C5
:010433000DBB
:0104340005C2
:0104350008BE
:0104360013B2
:0104370004C0
:0104380016AD
:0104390007BB
:01043A0012AF
:01043B0015AB
:01043C000AB5
:01043D000EB0
:01043E001CA1
:01043F0010AC
:0104400006B5
:0104410019A1
:0104420003B6
:0104430001B7
:010444000CAB
:0104450000B6
:01044600189D
:010447000CA8
:01044800199A
:01044900189A
:01044A0002AF
:01044B00139D
:01044C0003AC
:01044D000CA2
:01044E0008A5
:01044F00109C
:010450001D8E
:0104510008A2
:0104520009A0
:010453001B8D
:010454001493
:010455000E98
:0104560002A3
:01045700069E
:01045800148F
:0104590002A0
:01045A000998
:01045B00019F
:01045C00019E
:01045D00009E
:01045E001588
:01045F001884
:010460001F7C
:010461000199
:010462001584
:010463001187
:010464000C8B
:010465001C7A
:01046600177E
:010467001282
:01046800058E
:01046900048E
:01046A00058C
:01046B001E72
:01046C00048B
:01046D000B83
:01046E000984
:01046F001379
:010470001E6D
:010471001E6C
:010472000881
:010473001078
:010474000A7D
:010475000A7C
:010476000580
:010477000E76
:01047800196A
:010479001969
:01047A00027F
:01047B000779
:01047C001C63
:01047D00136B
:01047E001F5E
:01047F001468
:010480000378
:01048100007A
:010482001C5D
:010483000A6E
:010484001D5A
:010485000571
:010486001560
:010487000074
:01048800155E
:01048900086A
:01048A000968
:01048B000967
:01048C001A55
:01048D000C62
:01048E00115C
:01048F001A52
:010490001655
:010491001753
:010492000C5D
:010493000662
:010494001651
:010495000A5C
:010496001451
:010497000262
:01049800055E
:010499000B57
:01049A00055C
:01049B00015F
:01049C000F50
:01049D001E40
:01049E001C41
:01049F001844
:0104A000015A
:0104A1000654
:0104A2001445
:0104A3001B3D
:0104A400084F
:0104A500094D
:0104A6000C49
:0104A7000054
:0104A8001142
:0104A9000D45
:0104AA00024F
:0104AB001E32
:0104AC000C43
:0104AD001B33
:0104AE001736
:0104AF000D3F
:0104B0000A41
:0104B1001A30
:0104B2000A3F
:0104B3000741
:0104B4001C2B
:0104B5001630
:0104B6000144
:0104B700083C
:0104B800172C
:0104B9001B27
:0104BA001E23
:0104BB000C34
:0104BC00112E
:0104BD001727
:0104BE000A33
:0104BF001527
:0104C0000239
:0104C1001C1E
:0104C2000F2A
:0104C3000335
:0104C4000532
:0104C5001D19
:0104C600171E
:0104C7001C18
:0104C800171C
:0104C9001121
:0104CA00131E
:0104CB000828
:0104CC001916
:0104CD00101E
:0104CE001518
:0104CF00111B
:0104D0000F1C
:0104D1001614
:0104D2001118
:0104D3000622
:0104D4001F08
:0104D5000521
:0104D6000025
:0104D700170D
:0104D800150E
:0104D9001F03
:0104DA001F02
:0104DB001B05
:0104DC001D02
:0104DD000B13
:0104DE000D10
:0104DF000B11
:0104E0000B10
:0104E1001505
:0104E2001009
:0104E3000315
:0104E4001502
:0104E5000C0A
:0104E6001005
:0104E700060E
:0104E80016FD
:0104E900050D
:0104EA001AF7
:0104EB001AF6
:0104EC000D02
:0104ED0017F7
:0104EE001FEE
:0104EF000A02
:0104F0001EED
:0104F100000A
:0104F20016F3
:0104F3000503
:0104F40012F5
:0104F5000204
:0104F6001BEA
:0104F7000004
:0104F80018EB
:0104F90006FC
:0104FA000FF2
:0104FB0017E9
:0104FC0003FC
:0104FD0017E7
:0104FE0018E5
:0104FF0008F4
:010500000DED
:0105010009F0
:0105020002F6
:0105030019DE
:0105040014E2
:0105050015E0
:010506001FD5
:0105070016DD
:010508001DD5
:0105090017DA
:01050A0007E9
:01050B000FE0
:01050C0013DB
:01050D0015D8
:01050E0018D4
:01050F001ECD
:0105100008E2
:010511001BCE
:0105120017D1
:010513001EC9
:0105140014D2
:0105150018CD
:010516000ED6
:0105170017CC
:0105180013CF
:0105190006DB
:01051A0010D0
:01051B0012CD
:01051C000DD1
:01051D0003DA
:01051E0015C7
:01051F0003D8
:010520000ECC
:0105210016C3
:010522001DBB
:0105230003D4
:0105240008CE
:010525000CC9
:0105260010C4
:0105270013C0
:0105280016BC
:0105290019B8
:01052A001BB5
:01052B001DB2
:01052C001CB2
:01052D001BB2
:01052E0016B6
:01052F000FBC
:0105300004C6
:0105310014B5
:010532001FA9
:0105330003C4
:010534001FA7
:0105350012B3
:010536001BA9
:0105370018AB
:0105380008BA
:0105390009B8
:01053A0019A7
:01053B0017A8
:01053C0001BD
:01053D0015A8
:01053E0010AC
:01053F0011AA
:0105400015A5
:010541001B9E
:010542001E9A
:010543001E99
:01054400189E
:0105450008AD
:010546000CA8
:0105470002B1
:0105480005AD
:01054900149D
:01054A000BA5
:01054B0006A9
:01054C0003AB
:01054D001D90
:01054E00129A
:01054F001E8D
:010550001E8C
:010551000C9D
:0105520007A1
:01055300099E
:010554000E98
:010555001392
:010556001490
:010557000B98
:01055800158D
:010559000D94
:01055A000F91
:01055B00158A
:01055C001C82
:01055D001E7F
:01055E001785
:01055F00019A
:010560001882
:010561001683
:010562001682
:010563001285
:010564000690
:010565000C89
:010566001E76
:01056700167D
:010568000F83
:01056900038E
:01056A000C84
:01056B00048B
:01056C00048A
:01056D000885
:01056E000785
:01056F001D6E
:010570000387
:010571001178
:010572000286
:010573000F78
:010574001175
:010575000184
:01057600186C
:010577001073
:010578000082
:01057900037E
:01057A00116F
:01057B00017E
:01057C000E70
:01057D000F6E
:01057E001D5F
:01057F00106B
:01058000007A
:010581000673
:010582001A5E
:010583001364
:010584000A6C
:01058500175E
:010586001064
:010587000E65
:010588000969
:010589001859
:01058A00125E
:01058B000F60
:01058C000668
:01058D000E5F
:01058E001E4E
:01058F000E5D
:010590001456
:010591000861
:010592001F49
:010593001156
:010594001551
:010595000164
:010596000B59
:010597000A59
:01059800144E
:010599000061
:01059A00035D
:01059B00144B
:01059C000856
:01059D001746
:01059E001547
:01059F001843
:0105A0001644
:0105A1000653
:0105A2001B3D
:0105A3000C4B
:0105A4000E48
:0105A500173E
:0105A6001B39
:0105A7001043
:0105A8000B47
:0105A9000150
:0105AA000848
:0105AB00133C
:0105AC001737
:0105AD000A43
:0105AE00004C
:0105AF000D3E
:0105B0000743
:0105B1000148
:0105B2001038
:0105B300083F
:0105B4001D29
:0105B5000342
:0105B6000F35
:0105B700152E
:0105B800083A
:0105B9001C25
:0105BA00043C
:0105BB001629
:0105BC00043A
:0105BD00013C
:0105BE00013B
:0105BF001922
:0105C0001A20
:0105C1001821
:0105C2000632
:0105C300181F
:0105C4000036
:0105C5001223
:0105C6001F15
:0105C7001C17
:0105C8001B17
:0105C9000E23
:0105CA000828
:0105CB001B14
:0105CC001B13
:0105CD001914
:0105CE000725
:0105CF001912
:0105D0001F0B
:0105D1000D1C
:0105D2001414
:0105D3000621
:0105D4001511
:0105D5001213
:0105D6001113
:0105D7000122
:0105D800150D
:0105D9001F02
:0105DA000F11
:0105DB001807
:0105DC000A14
:0105DD001706
:0105DE00100C
:0105DF000615
:0105E0000911
:0105E1000C0D
:0105E2001FF9
:0105E3001304
:0105E40018FE
:0105E5000015
:0105E6001AFA
:0105E70018FB
:0105E8000A08
:0105E9000011
:0105EA000B05
:0105EB001AF5
:0105EC00000E
:0105ED000A03
:0105EE000A02
:0105EF000FFC
:0105F0000A00
:0105F1000AFF
:0105F2000008
:0105F3001AED
:0105F40009FD
:0105F5001CE9
:0105F6000202
:0105F7000CF7
:0105F80009F9
:0105F90007FA
:0105FA0017E9
:0105FB0007F8
:0105FC0007F7
:0105FD0006F7
:0105FE0013E9
:0105FF001CDF
:0106000010E9
:0106010000F8
:0106020018DF
:0106030008EE
:010604001FD6
:010605000BE9
:010606001AD9
:010607001CD6
:010608001DD4
:010609000EE2
:01060A001BD4
:01060B0014DA
:01060C0005E8
:01060D001ECE
:01060E000CDF
:01060F001ECC
:0106100000E9
:0106110001E7
:010612000FD8
:0106130017CF
:0106140007DE
:010615000CD8
:0106160014CF
:010617000CD6
:0106180001E0
:0106190002DE
:01061A001BC4
:01061B0019C5
:01061C0009D4
:01061D0019C3
:01061E0015C6
:01061F000AD0
:0106200006D3
:0106210015C3
:0106220003D4
:010623001DB9
:0106240011C4
:0106250009CB
:0106260014BF
:010627001DB5
:0106280011C0
:010629001CB4
:01062A000AC5
:01062B0008C6
:01062C0001CC
:01062D0002CA
:01062E0016B5
:01062F000AC0
:010630000ABF
:0106310000C8
:0106320019AE
:0106330001C5
:0106340004C1
:010635000CB8
:0106360006BD
:010637001CA6
:010638001AA7
:010639000DB3
:01063A001DA2
:01063B0018A6
:01063C0008B5
:01063D0019A3
:01063E0014A7
:01063F0006B4
:0106400019A0
:0106410018A0
:010642000EA9
:0106430006B0
:010644000AAB
:0106450004B0
:0106460000B3
:0106470009A9
:0106480007AA
:0106490007A9
:01064A00119E
:01064B00119D
:01064C00109D
:01064D001A92
:01064E001794
:01064F001298
:010650001594
:010651000A9E
:010652001B8C
:010653001195
:01065400178E
:01065500158F
:01065600178C
:01065700049E
:01065800079A
:010659000A96
:01065A00158A
:01065B00128C
:01065C000B92
:01065D000894
:01065E001388
:01065F001585
:010660001782
:010661000197
:010662001E79
:010663001680
:010664001283
:010665001A7A
:01066600187B
:01066700137F
:01066800157C
:010669000789
:01066A00107F
:01066B001A74
:01066C000C81
:01066D000F7D
:01066E000C7F
:01066F000A80
:010670001277
:010671000C7C
:010672000087
:010673001670
:01067400166F
:01067500087C
:01067600146F
:010677000181
:010678001968
:01067900017F
:01067A00027D
:01067B00037B
:01067C000D70
:01067D000676
:01067E001665
:01067F000476
:010680001861
:01068100195F
:010682000E69
:010683001F57
:010684001263
:010685000F65
:010686001C57
:010687000171
:01068800046D
:010689000D63
:01068A00026D
:01068B000A64
:01068C000B62
:01068D000D5F
:01068E001655
:01068F000C5E
:010690001752
:010691001B4D
:010692000166
:010693000E58
:01069400085D
:01069500164E
:010696001E45
:01069700065C
:01069800144D
:010699000F51
:01069A001B44
:01069B00005E
:01069C00035A
:01069D000A52
:01069E001A41
:01069F001A40
:0106A0000F4A
:0106A1001E3A
:0106A2000E49
:0106A3000452
:0106A4000550
:0106A500173D
:0106A6001F34
:0106A700034F
:0106A800074A
:0106A900113F
:0106AA000748
:0106AB000D41
:0106AC000845
:0106AD001E2E
:0106AE001338
:0106AF000D3D
:0106B0001039
:0106B1000246
:0106B2000641
:0106B3000244
:0106B4001A2B
:0106B5001331
:0106B6001231
:0106B7001B27
:0106B800132E
:0106B9001E22
:0106BA00013E
:0106BB001F1F
:0106BC001E1F
:0106BD00013B
:0106BE000D2E
:0106BF000535
:0106C0000F2A
:0106C1000E2A
:0106C2000631
:0106C3001A1C
:0106C4001025
:0106C5000B29
:0106C6000E25
:0106C7001E14
:0106C8001E13
:0106C900121E
:0106CA001D12
:0106CB00042A
:0106CC000924
:0106CD00101C
:0106CE001D0E
:0106CF001317
:0106D0001514
:0106D1000820
:0106D2000D1A
:0106D300081E
:0106D4001D08
:0106D5000E16
:0106D6001F04
:0106D7001210
:0106D8000B16
:0106D9000D13
:0106DA001A05
:0106DB001509
:0106DC00021B
:0106DD00021A
:0106DE001902
:0106DF000911
:0106E0001603
:0106E1000018
:0106E2000C0B
:0106E3001BFB
:0106E4001005
:0106E5000D07
:0106E60015FE
:0106E7000A08
:0106E8000F02
:0106E900050B
:0106EA000E01
:0106EB000D01
:0106EC000409
:0106ED0015F7
:0106EE000209
:0106EF000DFD
:0106F00017F2
:0106F1000305
:0106F20013F4
:0106F30008FE
:0106F4000302
:0106F50007FD
:0106F60016ED
:0106F70010F2
:0106F80018E9
:0106F9000FF1
:0106FA0016E9
:0106FB000FEF
:0106FC001BE2
:0106FD001BE1
:0106FE0012E9
:0106FF001FDB
:0107000005F3
:0107010004F3
:010702001ED8
:0107030013E2
:0107040005EF
:0107050014DF
:0107060002F0
:0107070010E1
:010708001ED2
:010709000DE2
:01070A001ED0
:01070B0012DB
:01070C0009E3
:01070D0005E6
:01070E0004E6
:01070F0009E0
:0107100014D4
:0107110005E2
:010712001CCA
:010713001BCA
:0107140001E3
:010715000ED5
:0107160004DE
:0107170002DF
:0107180008D8
:0107190017C8
:01071A000ED0
:01071B000ECF
:01071C0016C6
:01071D0008D3
:01071E0002D8
:01071F0004D5
:010720000FC9
:0107210002D5
:010722001DB9
:010723001FB6
:0107240009CB
:010725001AB9
:0107260012C0
:0107270010C1
:0107280013BD
:010729001CB3
:01072A0009C5
:01072B001BB2
:01072C0010BC
:01072D0008C3
:01072E0001C9
:01072F001CAD
:0107300018B0
:0107310013B4
:010732000DB9
:0107330005C0
:010734001AAA
:010735000AB9
:0107360016AC
:010737001BA6
:0107380019A7
:010739000FB0
:01073A001BA3
:01073B001CA1
:01073C0011AB
:01073D0018A3
:01073E0011A9
:01073F0019A0
:0107400010A8
:0107410014A3
:0107420002B4
:010743001B9A
:010744001C98
:0107450004AF
:0107460011A1
:0107470001B0
:01074800129E
:0107490003AC
:01074A00129C
:01074B001D90
:01074C0002AA
:01074D0000AB
:01074E001397
:01074F001B8E
:010750001692
:0107510000A7
:01075200188E
:010753001C89
:010754000A9A
:010755001F84
:010756001989
:01075700168B
:01075800138D
:010759000F90
:01075A000698
:01075B001687
:01075C001D7F
:01075D001784
:01075E000496
:01075F001F7A
:010760000791
:01076100187F
:010762001086
:010763000C89
:01076400098B
:01076500058E
:010766001C76
:010767000C85
:01076800127E
:010769000A85
:01076A00127C
:01076B000786
:01076C000587
:01076D000A81
:01076E001179
:01076F001970
:010770001E6A
:010771001C6B
:010772001076
:01077300176E
:010774000E76
:010775001172
:010776001C66
:010777000C75
:010778001E62
:010779000D72
:01077A001767
:01077B001865
:01077C000C70
:01077D000F6C
:01077E001E5C
:01077F001465
:010780000F69
:010781000A6D
:010782000076
:010783001065
:010784001361
:01078500076C
:01078600086A
:010787001061
:010788001D53
:010789000A65
:01078A00125C
:01078B00135A
:01078C000666
:01078D000962
:01078E001753
:01078F000B5E
:010790000167
:010791001552
:010792000363
:010793000560
:01079400174D
:01079500154E
:010796001A48
:010797000160
:010798000759
:01079900055A
:01079A001846
:01079B001B42
:01079C000854
:01079D001C3F
:01079E00104A
:01079F000158
:0107A0000A4E
:0107A1000453
:0107A2000C4A
:0107A3001D38
:0107A4001143
:0107A5000350
:0107A6000E44
:0107A7000D44
:0107A8001B35
:0107A900123D
:0107AA000D41
:0107AB000845
:0107AC001C30
:0107AD000447
:0107AE001B2F
:0107AF001C2D
:0107B0000048
:0107B1000344
:0107B2001F27
:0107B3000E37
:0107B4000B39
:0107B5001132
:0107B600182A
:0107B7001D24
:0107B8001828
:0107B900053A
:0107BA001D21
:0107BB001B22
:0107BC001923
:0107BD00112A
:0107BE001D1D
:0107BF001623
:0107C0001820
:0107C1001C1B
:0107C2001C1A
:0107C3001223
:0107C400181C
:0107C500082B
:0107C6001B17
:0107C7000B26
:0107C800121E
:0107C9000A25
:0107CA000D21
:0107CB001419
:0107CC001814
:0107CD001417
:0107CE000129
:0107CF001811
:0107D0001315
:0107D1000C1B
:0107D2001B0B
:0107D3001B0A
:0107D4000420
:0107D5001112
:0107D6001A08
:0107D7001809
:0107D800051B
:0107D9001B04
:0107DA00120C
:0107DB00031A
:0107DC000715
:0107DD001902
:0107DE00100A
:0107DF000613
:0107E0001305
:0107E1001205
:0107E2001AFC
:0107E3000510
:0107E4000B09
:0107E500060D
:0107E6000D05
:0107E7001BF6
:0107E8000808
:0107E9000C03
:0107EA00000E
:0107EB001DF0
:0107EC001BF1
:0107ED0014F7
:0107EE001FEB
:0107EF0015F4
:0107F0000FF9
:0107F1000502
:0107F20010F6
:0107F30008FD
:0107F40006FE
:0107F5000201
:0107F60013EF
:0107F70013EE
:0107F8001AE6
:0107F90001FE
:0107FA001EE0
:0107FB000BF2
:0107FC001FDD
:0107FD0013E8
:0107FE001FDB
:0107FF001CDD
:00000001ff
