:020000040000FA
:010000001FE0
:010001001AE4
:0100020014E9
:010003000EEE
:0100040008F3
:0100050002F8
:010006001CDD
:0100070016E2
:0100080010E7
:010009000AEC
:01000A0004F1
:01000B001ED6
:01000C0018DB
:01000D0012E0
:01000E000DE4
:01000F0007E9
:0100100001EE
:010011001BD3
:0100120015D8
:0100130010DC
:010014000AE1
:0100150004E6
:010016001ECB
:0100170019CF
:0100180013D4
:010019000DD9
:01001A0007DE
:01001B0002E2
:01001C001CC7
:01001D0016CC
:01001E0011D0
:01001F000BD5
:0100200005DA
:0100210000DE
:010022001AC3
:0100230014C8
:010024000FCC
:0100250009D1
:0100260004D5
:010027001EBA
:0100280019BE
:0100290013C3
:01002A000DC8
:01002B0008CC
:01002C0002D1
:01002D001DB5
:01002E0017BA
:01002F0012BE
:010030000CC3
:0100310007C7
:0100320002CB
:010033001CB0
:0100340017B4
:0100350011B9
:010036000CBD
:0100370006C2
:0100380001C6
:010039001CAA
:01003A0016AF
:01003B0011B3
:01003C000CB7
:01003D0006BC
:01003E0001C0
:01003F001CA4
:0100400016A9
:0100410011AD
:010042000CB1
:0100430006B6
:0100440001BA
:010045001C9E
:0100460017A2
:0100470011A7
:010048000CAB
:0100490007AF
:01004A0002B3
:01004B001D97
:01004C00179C
:01004D0012A0
:01004E000DA4
:01004F0008A8
:0100500003AC
:010051001E90
:010052001895
:010053001399
:010054000E9D
:0100550009A1
:0100560004A5
:010057001F89
:010058001A8D
:010059001591
:01005A001095
:01005B000B99
:01005C00069D
:01005D0001A1
:01005E001C85
:01005F001789
:01006000128D
:010061000D91
:010062000895
:010063000399
:010064001E7D
:010065001981
:010066001485
:010067000F89
:010068000A8D
:010069000591
:01006A000095
:01006B001B79
:01006C00167D
:01006D001181
:01006E000D84
:01006F000888
:01007000038C
:010071001E70
:010072001974
:010073001478
:010074000F7C
:010075000B7F
:010076000683
:010077000187
:010078001C6B
:01007900186E
:01007A001372
:01007B000E76
:01007C00097A
:01007D00057D
:01007E000081
:01007F001B65
:010080001669
:01008100126C
:010082000D70
:010083000874
:010084000477
:010085001F5B
:010086001A5F
:010087001662
:010088001166
:010089000C6A
:01008A00086D
:01008B000371
:01008C001E55
:01008D001A58
:01008E00155C
:01008F00115F
:010090000C63
:010091000866
:01009200036A
:010093001E4E
:010094001A51
:010095001555
:010096001158
:010097000C5C
:01009800085F
:010099000363
:01009A001F46
:01009B001A4A
:01009C00164D
:01009D001151
:01009E000D54
:01009F000858
:0100A000045B
:0100A100005E
:0100A2001B42
:0100A3001745
:0100A4001249
:0100A5000E4C
:0100A6000A4F
:0100A7000553
:0100A8000156
:0100A9001C3A
:0100AA00183D
:0100AB001440
:0100AC000F44
:0100AD000B47
:0100AE00074A
:0100AF00024E
:0100B0001E31
:0100B1001A34
:0100B2001538
:0100B300113B
:0100B4000D3E
:0100B5000941
:0100B6000445
:0100B7000048
:0100B8001C2B
:0100B900172F
:0100BA001332
:0100BB000F35
:0100BC000B38
:0100BD00073B
:0100BE00023F
:0100BF001E22
:0100C0001A25
:0100C1001628
:0100C200122B
:0100C3000D2F
:0100C4000932
:0100C5000535
:0100C6000138
:0100C7001D1B
:0100C800191E
:0100C9001521
:0100CA001025
:0100CB000C28
:0100CC00082B
:0100CD00042E
:0100CE000031
:0100CF001C14
:0100D0001817
:0100D100141A
:0100D200101D
:0100D3000C20
:0100D4000823
:0100D5000426
:0100D6001F0A
:0100D7001B0D
:0100D8001710
:0100D9001313
:0100DA000F16
:0100DB000B19
:0100DC00071C
:0100DD00031F
:0100DE001F02
:0100DF001B05
:0100E0001807
:0100E100140A
:0100E200100D
:0100E3000C10
:0100E4000813
:0100E5000416
:0100E6000019
:0100E7001CFC
:0100E80018FF
:0100E9001402
:0100EA001005
:0100EB000C08
:0100EC00080B
:0100ED00050D
:0100EE000110
:0100EF001DF3
:0100F00019F6
:0100F10015F9
:0100F20011FC
:0100F3000EFE
:0100F4000A01
:0100F5000604
:0100F6000207
:0100F7001EEA
:0100F8001AED
:0100F90017EF
:0100FA0013F2
:0100FB000FF5
:0100FC000BF8
:0100FD0008FA
:0100FE0004FD
:0100FF000000
:010100001CE2
:0101010019E4
:0101020015E7
:0101030011EA
:010104000DED
:010105000AEF
:0101060006F2
:0101070002F5
:010108001ED8
:010109001BDA
:01010A0017DD
:01010B0013E0
:01010C0010E2
:01010D000CE5
:01010E0008E8
:01010F0005EA
:0101100001ED
:010111001ECF
:010112001AD2
:0101130016D5
:0101140013D7
:010115000FDA
:010116000BDD
:0101170008DF
:0101180004E2
:0101190001E4
:01011A001DC7
:01011B0019CA
:01011C0016CC
:01011D0012CF
:01011E000FD1
:01011F000BD4
:0101200008D6
:0101210004D9
:0101220001DB
:010123001DBE
:010124001AC0
:0101250016C3
:0101260012C6
:010127000FC8
:010128000BCB
:0101290008CD
:01012A0004D0
:01012B0001D2
:01012C001EB4
:01012D001AB7
:01012E0017B9
:01012F0013BC
:0101300010BE
:010131000CC1
:0101320009C3
:0101330005C6
:0101340002C8
:010135001FAA
:010136001BAD
:0101370018AF
:0101380014B2
:0101390011B4
:01013A000DB7
:01013B000AB9
:01013C0007BB
:01013D0003BE
:01013E0000C0
:01013F001DA2
:0101400019A5
:0101410016A7
:0101420013A9
:010143000FAC
:010144000CAE
:0101450009B0
:0101460005B3
:0101470002B5
:010148001F97
:010149001B9A
:01014A00189C
:01014B00159E
:01014C0011A1
:01014D000EA3
:01014E000BA5
:01014F0008A7
:0101500004AA
:0101510001AC
:010152001E8E
:010153001A91
:010154001793
:010155001495
:010156001197
:010157000E99
:010158000A9C
:01015900079E
:01015A0004A0
:01015B0001A2
:01015C001D85
:01015D001A87
:01015E001789
:01015F00148B
:01016000118D
:010161000D90
:010162000A92
:010163000794
:010164000496
:010165000198
:010166001E7A
:010167001B7C
:01016800177F
:010169001481
:01016A001183
:01016B000E85
:01016C000B87
:01016D000889
:01016E00058B
:01016F00028D
:010170001E70
:010171001B72
:010172001874
:010173001576
:010174001278
:010175000F7A
:010176000C7C
:01017700097E
:010178000680
:010179000382
:01017A000084
:01017B001D66
:01017C001A68
:01017D00176A
:01017E00146C
:01017F00116E
:010180000E70
:010181000B72
:010182000775
:010183000477
:010184000179
:010185001E5B
:010186001C5C
:01018700195E
:010188001660
:010189001362
:01018A001064
:01018B000D66
:01018C000A68
:01018D00076A
:01018E00046C
:01018F00016E
:010190001E50
:010191001B52
:010192001854
:010193001556
:010194001258
:010195000F5A
:010196000C5C
:01019700095E
:01019800075F
:010199000461
:01019A000163
:01019B001E45
:01019C001B47
:01019D001849
:01019E00154B
:01019F00124D
:0101A0000F4F
:0101A1000D50
:0101A2000A52
:0101A3000754
:0101A4000456
:0101A5000158
:0101A6001E3A
:0101A7001C3B
:0101A800193D
:0101A900163F
:0101AA001341
:0101AB001043
:0101AC000D45
:0101AD000B46
:0101AE000848
:0101AF00054A
:0101B000024C
:0101B1001F2E
:0101B2001D2F
:0101B3001A31
:0101B4001733
:0101B5001435
:0101B6001236
:0101B7000F38
:0101B8000C3A
:0101B900093C
:0101BA00073D
:0101BB00043F
:0101BC000141
:0101BD001E23
:0101BE001C24
:0101BF001926
:0101C0001628
:0101C100132A
:0101C200112B
:0101C3000E2D
:0101C4000B2F
:0101C5000930
:0101C6000632
:0101C7000334
:0101C8000135
:0101C9001E17
:0101CA001B19
:0101CB00181B
:0101CC00161C
:0101CD00131E
:0101CE001020
:0101CF000E21
:0101D0000B23
:0101D1000924
:0101D2000626
:0101D3000328
:0101D4000129
:0101D5001E0B
:0101D6001B0D
:0101D700190E
:0101D8001610
:0101D9001312
:0101DA001113
:0101DB000E15
:0101DC000C16
:0101DD000918
:0101DE00061A
:0101DF00041B
:0101E000011D
:0101E1001FFE
:0101E2001C00
:0101E3001A01
:0101E4001703
:0101E5001405
:0101E6001206
:0101E7000F08
:0101E8000D09
:0101E9000A0B
:0101EA00080C
:0101EB00050E
:0101EC00030F
:0101ED000011
:0101EE001EF2
:0101EF001BF4
:0101F00018F6
:0101F10016F7
:0101F20013F9
:0101F30011FA
:0101F4000EFC
:0101F5000CFD
:0101F60009FF
:0101F7000700
:0101F8000402
:0101F9000203
:0101FA001FE5
:0101FB001DE6
:0101FC001BE7
:0101FD0018E9
:0101FE0016EA
:0101FF0013EC
:0102000011EC
:010201000EEE
:010202000CEF
:0102030009F1
:0102040007F2
:0102050004F4
:0102060002F5
:0102070000F6
:010208001DD8
:010209001BD9
:01020A0018DB
:01020B0016DC
:01020C0013DE
:01020D0011DF
:01020E000FE0
:01020F000CE2
:010210000AE3
:0102110007E5
:0102120005E6
:0102130003E7
:0102140000E9
:010215001ECA
:010216001CCB
:0102170019CD
:0102180017CE
:0102190014D0
:01021A0012D1
:01021B0010D2
:01021C000DD4
:01021D000BD5
:01021E0009D6
:01021F0006D8
:0102200004D9
:0102210002DA
:010222001FBC
:010223001DBD
:010224001BBE
:0102250018C0
:0102260016C1
:0102270014C2
:0102280011C4
:010229000FC5
:01022A000DC6
:01022B000AC8
:01022C0008C9
:01022D0006CA
:01022E0004CB
:01022F0001CD
:010230001FAE
:010231001DAF
:010232001AB1
:0102330018B2
:0102340016B3
:0102350014B4
:0102360011B6
:010237000FB7
:010238000DB8
:010239000BB9
:01023A0008BB
:01023B0006BC
:01023C0004BD
:01023D0002BE
:01023E001FA0
:01023F001DA1
:010240001BA2
:0102410019A3
:0102420016A5
:0102430014A6
:0102440012A7
:0102450010A8
:010246000EA9
:010247000BAB
:0102480009AC
:0102490007AD
:01024A0005AE
:01024B0003AF
:01024C0000B1
:01024D001E92
:01024E001C93
:01024F001A94
:010250001895
:010251001696
:010252001398
:010253001199
:010254000F9A
:010255000D9B
:010256000B9C
:01025700099D
:01025800069F
:0102590004A0
:01025A0002A1
:01025B0000A2
:01025C001E83
:01025D001C84
:01025E001A85
:01025F001787
:010260001588
:010261001389
:01026200118A
:010263000F8B
:010264000D8C
:010265000B8D
:01026600098E
:01026700078F
:010268000590
:010269000292
:01026A000093
:01026B001E74
:01026C001C75
:01026D001A76
:01026E001877
:01026F001678
:010270001479
:01027100127A
:01027200107B
:010273000E7C
:010274000C7D
:010275000A7E
:010276000780
:010277000581
:010278000382
:010279000183
:01027A001F64
:01027B001D65
:01027C001B66
:01027D001967
:01027E001768
:01027F001569
:01028000136A
:01028100116B
:010282000F6C
:010283000D6D
:010284000B6E
:01028500096F
:010286000770
:010287000571
:010288000372
:010289000173
:01028A001F54
:01028B001D55
:01028C001B56
:01028D001957
:01028E001758
:01028F001559
:01029000135A
:01029100115B
:010292000F5C
:010293000D5D
:010294000B5E
:01029500095F
:010296000760
:010297000561
:010298000362
:010299000163
:01029A000063
:01029B001E44
:01029C001C45
:01029D001A46
:01029E001847
:01029F001648
:0102A0001449
:0102A100124A
:0102A200104B
:0102A3000E4C
:0102A4000C4D
:0102A5000A4E
:0102A600084F
:0102A7000650
:0102A8000550
:0102A9000351
:0102AA000152
:0102AB001F33
:0102AC001D34
:0102AD001B35
:0102AE001936
:0102AF001737
:0102B0001538
:0102B1001438
:0102B2001239
:0102B300103A
:0102B4000E3B
:0102B5000C3C
:0102B6000A3D
:0102B700083E
:0102B800063F
:0102B900053F
:0102BA000340
:0102BB000141
:0102BC001F22
:0102BD001D23
:0102BE001B24
:0102BF001925
:0102C0001825
:0102C1001626
:0102C2001427
:0102C3001228
:0102C4001029
:0102C5000E2A
:0102C6000D2A
:0102C7000B2B
:0102C800092C
:0102C900072D
:0102CA00052E
:0102CB00042E
:0102CC00022F
:0102CD000030
:0102CE001E11
:0102CF001C12
:0102D0001B12
:0102D1001913
:0102D2001714
:0102D3001515
:0102D4001316
:0102D5001216
:0102D6001017
:0102D7000E18
:0102D8000C19
:0102D9000A1A
:0102DA00091A
:0102DB00071B
:0102DC00051C
:0102DD00031D
:0102DE00021D
:0102DF00001E
:0102E0001EFF
:0102E1001C00
:0102E2001B00
:0102E3001901
:0102E4001702
:0102E5001503
:0102E6001403
:0102E7001204
:0102E8001005
:0102E9000E06
:0102EA000D06
:0102EB000B07
:0102EC000908
:0102ED000709
:0102EE000609
:0102EF00040A
:0102F000020B
:0102F100010B
:0102F2001FEC
:0102F3001DED
:0102F4001BEE
:0102F5001AEE
:0102F60018EF
:0102F70016F0
:0102F80015F0
:0102F90013F1
:0102FA0011F2
:0102FB0010F2
:0102FC000EF3
:0102FD000CF4
:0102FE000AF5
:0102FF0009F5
:0103000007F5
:0103010005F6
:0103020004F6
:0103030002F7
:0103040000F8
:010305001FD8
:010306001DD9
:010307001BDA
:010308001ADA
:0103090018DB
:01030A0016DC
:01030B0015DC
:01030C0013DD
:01030D0011DE
:01030E0010DE
:01030F000EDF
:010310000DDF
:010311000BE0
:0103120009E1
:0103130008E1
:0103140006E2
:0103150004E3
:0103160003E3
:0103170001E4
:0103180000E4
:010319001EC5
:01031A001CC6
:01031B001BC6
:01031C0019C7
:01031D0017C8
:01031E0016C8
:01031F0014C9
:0103200013C9
:0103210011CA
:010322000FCB
:010323000ECB
:010324000CCC
:010325000BCC
:0103260009CD
:0103270007CE
:0103280006CE
:0103290004CF
:01032A0003CF
:01032B0001D0
:01032C0000D0
:01032D001EB1
:01032E001CB2
:01032F001BB2
:0103300019B3
:0103310018B3
:0103320016B4
:0103330015B4
:0103340013B5
:0103350011B6
:0103360010B6
:010337000EB7
:010338000DB7
:010339000BB8
:01033A000AB8
:01033B0008B9
:01033C0007B9
:01033D0005BA
:01033E0003BB
:01033F0002BB
:0103400000BC
:010341001F9C
:010342001D9D
:010343001C9D
:010344001A9E
:01034500199E
:01034600179F
:01034700169F
:0103480014A0
:0103490013A0
:01034A0011A1
:01034B0010A1
:01034C000EA2
:01034D000DA2
:01034E000BA3
:01034F000AA3
:0103500008A4
:0103510007A4
:0103520005A5
:0103530004A5
:0103540002A6
:0103550001A6
:010356001F87
:010357001E87
:010358001C88
:010359001B88
:01035A001989
:01035B001889
:01035C00168A
:01035D00158A
:01035E00138B
:01035F00128B
:01036000108C
:010361000F8C
:010362000D8D
:010363000C8D
:010364000B8D
:01036500098E
:01036600088E
:01036700068F
:01036800058F
:010369000390
:01036A000290
:01036B000091
:01036C001F71
:01036D001D72
:01036E001C72
:01036F001B72
:010370001973
:010371001873
:010372001674
:010373001574
:010374001375
:010375001275
:010376001175
:010377000F76
:010378000E76
:010379000C77
:01037A000B77
:01037B000978
:01037C000878
:01037D000778
:01037E000579
:01037F000479
:01038000027A
:01038100017A
:01038200007A
:010383001E5B
:010384001D5B
:010385001B5C
:010386001A5C
:01038700195C
:01038800175D
:01038900165D
:01038A00145E
:01038B00135E
:01038C00125E
:01038D00105F
:01038E000F5F
:01038F000E5F
:010390000C60
:010391000B60
:010392000961
:010393000861
:010394000761
:010395000562
:010396000462
:010397000362
:010398000163
:010399000063
:01039A001F43
:01039B001D44
:01039C001C44
:01039D001A45
:01039E001945
:01039F001845
:0103A0001646
:0103A1001546
:0103A2001446
:0103A3001247
:0103A4001147
:0103A5001047
:0103A6000E48
:0103A7000D48
:0103A8000C48
:0103A9000A49
:0103AA000949
:0103AB000849
:0103AC00064A
:0103AD00054A
:0103AE00044A
:0103AF00024B
:0103B000014B
:0103B100004B
:0103B2001E2C
:0103B3001D2C
:0103B4001C2C
:0103B5001B2C
:0103B600192D
:0103B700182D
:0103B800172D
:0103B900152E
:0103BA00142E
:0103BB00132E
:0103BC00112F
:0103BD00102F
:0103BE000F2F
:0103BF000E2F
:0103C0000C30
:0103C1000B30
:0103C2000A30
:0103C3000831
:0103C4000731
:0103C5000631
:0103C6000531
:0103C7000332
:0103C8000232
:0103C9000132
:0103CA001F13
:0103CB001E13
:0103CC001D13
:0103CD001C13
:0103CE001A14
:0103CF001914
:0103D0001814
:0103D1001714
:0103D2001515
:0103D3001415
:0103D4001315
:0103D5001215
:0103D6001016
:0103D7000F16
:0103D8000E16
:0103D9000D16
:0103DA000B17
:0103DB000A17
:0103DC000917
:0103DD000817
:0103DE000618
:0103DF000518
:0103E0000418
:0103E1000318
:0103E2000119
:0103E3000019
:0103E4001FF9
:0103E5001EF9
:0103E6001CFA
:0103E7001BFA
:0103E8001AFA
:0103E90019FA
:0103EA0018FA
:0103EB0016FB
:0103EC0015FB
:0103ED0014FB
:0103EE0013FB
:0103EF0012FB
:0103F00010FC
:0103F1000FFC
:0103F2000EFC
:0103F3000DFC
:0103F4000BFD
:0103F5000AFD
:0103F60009FD
:0103F70008FD
:0103F80007FD
:0103F90005FE
:0103FA0004FE
:0103FB0003FE
:0103FC0002FE
:0103FD0001FE
:0103FE0000FE
:0103FF001EDF
:010400001DDE
:010401001CDE
:010402001BDE
:010403001ADE
:0104040018DF
:0104050017DF
:0104060016DF
:0104070015DF
:0104080014DF
:0104090013DF
:01040A0011E0
:01040B0010E0
:01040C000FE0
:01040D000EE0
:01040E000DE0
:01040F000CE0
:010410000AE1
:0104110009E1
:0104120008E1
:0104130007E1
:0104140006E1
:0104150005E1
:0104160003E2
:0104170002E2
:0104180001E2
:0104190000E2
:01041A001FC2
:01041B001EC2
:01041C001DC2
:01041D001BC3
:01041E001AC3
:01041F0019C3
:0104200018C3
:0104210017C3
:0104220016C3
:0104230015C3
:0104240013C4
:0104250012C4
:0104260011C4
:0104270010C4
:010428000FC4
:010429000EC4
:01042A000DC4
:01042B000CC4
:01042C000AC5
:01042D0009C5
:01042E0008C5
:01042F0007C5
:0104300006C5
:0104310005C5
:0104320004C5
:0104330003C5
:0104340002C5
:0104350000C6
:010436001FA6
:010437001EA6
:010438001DA6
:010439001CA6
:01043A001BA6
:01043B001AA6
:01043C0019A6
:01043D0018A6
:01043E0017A6
:01043F0015A7
:0104400014A7
:0104410013A7
:0104420012A7
:0104430011A7
:0104440010A7
:010445000FA7
:010446000EA7
:010447000DA7
:010448000CA7
:010449000BA7
:01044A0009A8
:01044B0008A8
:01044C0007A8
:01044D0006A8
:01044E0005A8
:01044F0004A8
:0104500003A8
:0104510002A8
:0104520001A8
:0104530000A8
:010454001F88
:010455001E88
:010456001D88
:010457001C88
:010458001B88
:010459001989
:01045A001889
:01045B001789
:01045C001689
:01045D001589
:01045E001489
:01045F001389
:010460001289
:010461001189
:010462001089
:010463000F89
:010464000E89
:010465000D89
:010466000C89
:010467000B89
:010468000A89
:010469000989
:01046A000889
:01046B000789
:01046C000689
:01046D000589
:01046E000489
:01046F000389
:010470000289
:01047100008A
:010472001F6A
:010473001E6A
:010474001D6A
:010475001C6A
:010476001B6A
:010477001A6A
:01047800196A
:01047900186A
:01047A00176A
:01047B00166A
:01047C00156A
:01047D00146A
:01047E00136A
:01047F00126A
:01048000116A
:01048100106A
:010482000F6A
:010483000E6A
:010484000D6A
:010485000C6A
:010486000B6A
:010487000A6A
:01048800096A
:01048900086A
:01048A00076A
:01048B00066A
:01048C00056A
:01048D00046A
:01048E00036A
:01048F00026A
:01049000016A
:01049100006A
:010492001F4A
:010493001E4A
:010494001D4A
:010495001C4A
:010496001B4A
:010497001A4A
:01049800194A
:01049900184A
:01049A00174A
:01049B001749
:01049C001649
:01049D001549
:01049E001449
:01049F001349
:0104A0001249
:0104A1001149
:0104A2001049
:0104A3000F49
:0104A4000E49
:0104A5000D49
:0104A6000C49
:0104A7000B49
:0104A8000A49
:0104A9000949
:0104AA000849
:0104AB000749
:0104AC000649
:0104AD000549
:0104AE000449
:0104AF000349
:0104B0000249
:0104B1000149
:0104B2000049
:0104B3001F29
:0104B4001F28
:0104B5001E28
:0104B6001D28
:0104B7001C28
:0104B8001B28
:0104B9001A28
:0104BA001928
:0104BB001828
:0104BC001728
:0104BD001628
:0104BE001528
:0104BF001428
:0104C0001328
:0104C1001228
:0104C2001128
:0104C3001127
:0104C4001027
:0104C5000F27
:0104C6000E27
:0104C7000D27
:0104C8000C27
:0104C9000B27
:0104CA000A27
:0104CB000927
:0104CC000827
:0104CD000727
:0104CE000627
:0104CF000527
:0104D0000526
:0104D1000426
:0104D2000326
:0104D3000226
:0104D4000126
:0104D5000026
:0104D6001F06
:0104D7001E06
:0104D8001D06
:0104D9001C06
:0104DA001C05
:0104DB001B05
:0104DC001A05
:0104DD001905
:0104DE001805
:0104DF001705
:0104E0001605
:0104E1001505
:0104E2001405
:0104E3001305
:0104E4001304
:0104E5001204
:0104E6001104
:0104E7001004
:0104E8000F04
:0104E9000E04
:0104EA000D04
:0104EB000C04
:0104EC000B04
:0104ED000B03
:0104EE000A03
:0104EF000903
:0104F0000803
:0104F1000703
:0104F2000603
:0104F3000503
:0104F4000403
:0104F5000402
:0104F6000302
:0104F7000202
:0104F8000102
:0104F9000002
:0104FA001FE2
:0104FB001EE2
:0104FC001EE1
:0104FD001DE1
:0104FE001CE1
:0104FF001BE1
:010500001AE0
:0105010019E0
:0105020018E0
:0105030017E0
:0105040017DF
:0105050016DF
:0105060015DF
:0105070014DF
:0105080013DF
:0105090012DF
:01050A0011DF
:01050B0011DE
:01050C0010DE
:01050D000FDE
:01050E000EDE
:01050F000DDE
:010510000CDE
:010511000CDD
:010512000BDD
:010513000ADD
:0105140009DD
:0105150008DD
:0105160007DD
:0105170007DC
:0105180006DC
:0105190005DC
:01051A0004DC
:01051B0003DC
:01051C0002DC
:01051D0002DB
:01051E0001DB
:01051F0000DB
:010520001FBB
:010521001EBB
:010522001DBB
:010523001DBA
:010524001CBA
:010525001BBA
:010526001ABA
:0105270019BA
:0105280018BA
:0105290018B9
:01052A0017B9
:01052B0016B9
:01052C0015B9
:01052D0014B9
:01052E0014B8
:01052F0013B8
:0105300012B8
:0105310011B8
:0105320010B8
:010533000FB8
:010534000FB7
:010535000EB7
:010536000DB7
:010537000CB7
:010538000BB7
:010539000BB6
:01053A000AB6
:01053B0009B6
:01053C0008B6
:01053D0007B6
:01053E0007B5
:01053F0006B5
:0105400005B5
:0105410004B5
:0105420003B5
:0105430003B4
:0105440002B4
:0105450001B4
:0105460000B4
:010547001F94
:010548001F93
:010549001E93
:01054A001D93
:01054B001C93
:01054C001C92
:01054D001B92
:01054E001A92
:01054F001992
:010550001892
:010551001891
:010552001791
:010553001691
:010554001591
:010555001491
:010556001490
:010557001390
:010558001290
:010559001190
:01055A00118F
:01055B00108F
:01055C000F8F
:01055D000E8F
:01055E000E8E
:01055F000D8E
:010560000C8E
:010561000B8E
:010562000A8E
:010563000A8D
:01056400098D
:01056500088D
:01056600078D
:01056700078C
:01056800068C
:01056900058C
:01056A00048C
:01056B00048B
:01056C00038B
:01056D00028B
:01056E00018B
:01056F00018A
:01057000008A
:010571001F6A
:010572001E6A
:010573001E69
:010574001D69
:010575001C69
:010576001B69
:010577001B68
:010578001A68
:010579001968
:01057A001868
:01057B001867
:01057C001767
:01057D001667
:01057E001567
:01057F001566
:010580001466
:010581001366
:010582001266
:010583001265
:010584001165
:010585001065
:010586000F65
:010587000F64
:010588000E64
:010589000D64
:01058A000D63
:01058B000C63
:01058C000B63
:01058D000A63
:01058E000A62
:01058F000962
:010590000862
:010591000762
:010592000761
:010593000661
:010594000561
:010595000560
:010596000460
:010597000360
:010598000260
:01059900025F
:01059A00015F
:01059B00005F
:01059C001F3F
:01059D001F3E
:01059E001E3E
:01059F001D3E
:0105A0001D3D
:0105A1001C3D
:0105A2001B3D
:0105A3001A3D
:0105A4001A3C
:0105A500193C
:0105A600183C
:0105A700183B
:0105A800173B
:0105A900163B
:0105AA00163A
:0105AB00153A
:0105AC00143A
:0105AD00133A
:0105AE001339
:0105AF001239
:0105B0001139
:0105B1001138
:0105B2001038
:0105B3000F38
:0105B4000F37
:0105B5000E37
:0105B6000D37
:0105B7000C37
:0105B8000C36
:0105B9000B36
:0105BA000A36
:0105BB000A35
:0105BC000935
:0105BD000835
:0105BE000834
:0105BF000734
:0105C0000634
:0105C1000633
:0105C2000533
:0105C3000433
:0105C4000333
:0105C5000332
:0105C6000232
:0105C7000132
:0105C8000131
:0105C9000031
:0105CA001F11
:0105CB001F10
:0105CC001E10
:0105CD001D10
:0105CE001D0F
:0105CF001C0F
:0105D0001B0F
:0105D1001B0E
:0105D2001A0E
:0105D300190E
:0105D400190D
:0105D500180D
:0105D600170D
:0105D700170C
:0105D800160C
:0105D900150C
:0105DA00150B
:0105DB00140B
:0105DC00130B
:0105DD00130A
:0105DE00120A
:0105DF00110A
:0105E0001109
:0105E1001009
:0105E2000F09
:0105E3000F08
:0105E4000E08
:0105E5000D08
:0105E6000D07
:0105E7000C07
:0105E8000B07
:0105E9000B06
:0105EA000A06
:0105EB000906
:0105EC000905
:0105ED000805
:0105EE000705
:0105EF000704
:0105F0000604
:0105F1000504
:0105F2000503
:0105F3000403
:0105F4000303
:0105F5000302
:0105F6000202
:0105F7000201
:0105F8000101
:0105F9000001
:0105FA000000
:0105FB001FE0
:0105FC001EE0
:0105FD001EDF
:0105FE001DDF
:0105FF001CDF
:010600001CDD
:010601001BDD
:010602001ADD
:010603001ADC
:0106040019DC
:0106050019DB
:0106060018DB
:0106070017DB
:0106080017DA
:0106090016DA
:01060A0015DA
:01060B0015D9
:01060C0014D9
:01060D0014D8
:01060E0013D8
:01060F0012D8
:0106100012D7
:0106110011D7
:0106120010D7
:0106130010D6
:010614000FD6
:010615000ED6
:010616000ED5
:010617000DD5
:010618000DD4
:010619000CD4
:01061A000BD4
:01061B000BD3
:01061C000AD3
:01061D000AD2
:01061E0009D2
:01061F0008D2
:0106200008D1
:0106210007D1
:0106220006D1
:0106230006D0
:0106240005D0
:0106250005CF
:0106260004CF
:0106270003CF
:0106280003CE
:0106290002CE
:01062A0002CD
:01062B0001CD
:01062C0000CD
:01062D0000CC
:01062E001FAC
:01062F001EAC
:010630001EAB
:010631001DAB
:010632001DAA
:010633001CAA
:010634001BAA
:010635001BA9
:010636001AA9
:010637001AA8
:0106380019A8
:0106390018A8
:01063A0018A7
:01063B0017A7
:01063C0017A6
:01063D0016A6
:01063E0015A6
:01063F0015A5
:0106400014A5
:0106410014A4
:0106420013A4
:0106430012A4
:0106440012A3
:0106450011A3
:0106460011A2
:0106470010A2
:010648000FA2
:010649000FA1
:01064A000EA1
:01064B000EA0
:01064C000DA0
:01064D000D9F
:01064E000C9F
:01064F000B9F
:010650000B9E
:010651000A9E
:010652000A9D
:01065300099D
:01065400089D
:01065500089C
:01065600079C
:01065700079B
:01065800069B
:01065900069A
:01065A00059A
:01065B00049A
:01065C000499
:01065D000399
:01065E000398
:01065F000298
:010660000297
:010661000197
:010662000097
:010663000096
:010664001F76
:010665001F75
:010666001E75
:010667001D75
:010668001D74
:010669001C74
:01066A001C73
:01066B001B73
:01066C001B72
:01066D001A72
:01066E001A71
:01066F001971
:010670001871
:010671001870
:010672001770
:01067300176F
:01067400166F
:01067500166E
:01067600156E
:01067700146E
:01067800146D
:01067900136D
:01067A00136C
:01067B00126C
:01067C00126B
:01067D00116B
:01067E00116A
:01067F00106A
:010680000F6A
:010681000F69
:010682000E69
:010683000E68
:010684000D68
:010685000D67
:010686000C67
:010687000C66
:010688000B66
:010689000A66
:01068A000A65
:01068B000965
:01068C000964
:01068D000864
:01068E000863
:01068F000763
:010690000762
:010691000662
:010692000562
:010693000561
:010694000461
:010695000460
:010696000360
:01069700035F
:01069800025F
:01069900025E
:01069A00015E
:01069B00015D
:01069C00005D
:01069D00005C
:01069E001F3C
:01069F001E3C
:0106A0001E3B
:0106A1001D3B
:0106A2001D3A
:0106A3001C3A
:0106A4001C39
:0106A5001B39
:0106A6001B38
:0106A7001A38
:0106A8001A37
:0106A9001937
:0106AA001936
:0106AB001836
:0106AC001835
:0106AD001735
:0106AE001635
:0106AF001634
:0106B0001534
:0106B1001533
:0106B2001433
:0106B3001432
:0106B4001332
:0106B5001331
:0106B6001231
:0106B7001230
:0106B8001130
:0106B900112F
:0106BA00102F
:0106BB00102E
:0106BC000F2E
:0106BD000F2D
:0106BE000E2D
:0106BF000E2C
:0106C0000D2C
:0106C1000C2C
:0106C2000C2B
:0106C3000B2B
:0106C4000B2A
:0106C5000A2A
:0106C6000A29
:0106C7000929
:0106C8000928
:0106C9000828
:0106CA000827
:0106CB000727
:0106CC000726
:0106CD000626
:0106CE000625
:0106CF000525
:0106D0000524
:0106D1000424
:0106D2000423
:0106D3000323
:0106D4000322
:0106D5000222
:0106D6000221
:0106D7000121
:0106D8000120
:0106D9000020
:0106DA00001F
:0106DB001FFF
:0106DC001FFE
:0106DD001EFE
:0106DE001EFD
:0106DF001DFD
:0106E0001DFC
:0106E1001CFC
:0106E2001CFB
:0106E3001BFB
:0106E4001BFA
:0106E5001AFA
:0106E6001AF9
:0106E70019F9
:0106E80019F8
:0106E90018F8
:0106EA0018F7
:0106EB0017F7
:0106EC0017F6
:0106ED0016F6
:0106EE0016F5
:0106EF0015F5
:0106F00015F4
:0106F10014F4
:0106F20014F3
:0106F30013F3
:0106F40013F2
:0106F50012F2
:0106F60012F1
:0106F70011F1
:0106F80011F0
:0106F90010F0
:0106FA0010EF
:0106FB000FEF
:0106FC000FEE
:0106FD000EEE
:0106FE000EED
:0106FF000DED
:010700000DEB
:010701000CEB
:010702000CEA
:010703000BEA
:010704000BE9
:010705000AE9
:010706000AE8
:0107070009E8
:0107080009E7
:0107090009E6
:01070A0008E6
:01070B0008E5
:01070C0007E5
:01070D0007E4
:01070E0006E4
:01070F0006E3
:0107100005E3
:0107110005E2
:0107120004E2
:0107130004E1
:0107140003E1
:0107150003E0
:0107160002E0
:0107170002DF
:0107180001DF
:0107190001DE
:01071A0000DE
:01071B0000DD
:01071C001FBD
:01071D001FBC
:01071E001FBB
:01071F001EBB
:010720001EBA
:010721001DBA
:010722001DB9
:010723001CB9
:010724001CB8
:010725001BB8
:010726001BB7
:010727001AB7
:010728001AB6
:0107290019B6
:01072A0019B5
:01072B0018B5
:01072C0018B4
:01072D0018B3
:01072E0017B3
:01072F0017B2
:0107300016B2
:0107310016B1
:0107320015B1
:0107330015B0
:0107340014B0
:0107350014AF
:0107360013AF
:0107370013AE
:0107380012AE
:0107390012AD
:01073A0012AC
:01073B0011AC
:01073C0011AB
:01073D0010AB
:01073E0010AA
:01073F000FAA
:010740000FA9
:010741000EA9
:010742000EA8
:010743000DA8
:010744000DA7
:010745000DA6
:010746000CA6
:010747000CA5
:010748000BA5
:010749000BA4
:01074A000AA4
:01074B000AA3
:01074C0009A3
:01074D0009A2
:01074E0009A1
:01074F0008A1
:0107500008A0
:0107510007A0
:01075200079F
:01075300069F
:01075400069E
:01075500059E
:01075600059D
:01075700049D
:01075800049C
:01075900049B
:01075A00039B
:01075B00039A
:01075C00029A
:01075D000299
:01075E000199
:01075F000198
:010760000197
:010761000097
:010762000096
:010763001F76
:010764001F75
:010765001E75
:010766001E74
:010767001D74
:010768001D73
:010769001D72
:01076A001C72
:01076B001C71
:01076C001B71
:01076D001B70
:01076E001A70
:01076F001A6F
:010770001A6E
:01077100196E
:01077200196D
:01077300186D
:01077400186C
:01077500176C
:01077600176B
:01077700176A
:01077800166A
:010779001669
:01077A001569
:01077B001568
:01077C001468
:01077D001467
:01077E001466
:01077F001366
:010780001365
:010781001265
:010782001264
:010783001164
:010784001163
:010785001162
:010786001062
:010787001061
:010788000F61
:010789000F60
:01078A000E60
:01078B000E5F
:01078C000E5E
:01078D000D5E
:01078E000D5D
:01078F000C5D
:010790000C5C
:010791000B5C
:010792000B5B
:010793000B5A
:010794000A5A
:010795000A59
:010796000959
:010797000958
:010798000957
:010799000857
:01079A000856
:01079B000756
:01079C000755
:01079D000655
:01079E000654
:01079F000653
:0107A0000553
:0107A1000552
:0107A2000452
:0107A3000451
:0107A4000450
:0107A5000350
:0107A600034F
:0107A700024F
:0107A800024E
:0107A900024D
:0107AA00014D
:0107AB00014C
:0107AC00004C
:0107AD00004B
:0107AE00004A
:0107AF001F2A
:0107B0001F29
:0107B1001E29
:0107B2001E28
:0107B3001D28
:0107B4001D27
:0107B5001D26
:0107B6001C26
:0107B7001C25
:0107B8001B25
:0107B9001B24
:0107BA001B23
:0107BB001A23
:0107BC001A22
:0107BD001922
:0107BE001921
:0107BF001920
:0107C0001820
:0107C100181F
:0107C200171F
:0107C300171E
:0107C400171D
:0107C500161D
:0107C600161C
:0107C700151C
:0107C800151B
:0107C900151A
:0107CA00141A
:0107CB001419
:0107CC001418
:0107CD001318
:0107CE001317
:0107CF001217
:0107D0001216
:0107D1001215
:0107D2001115
:0107D3001114
:0107D4001014
:0107D5001013
:0107D6001012
:0107D7000F12
:0107D8000F11
:0107D9000E11
:0107DA000E10
:0107DB000E0F
:0107DC000D0F
:0107DD000D0E
:0107DE000C0E
:0107DF000C0D
:0107E0000C0C
:0107E1000B0C
:0107E2000B0B
:0107E3000B0A
:0107E4000A0A
:0107E5000A09
:0107E6000909
:0107E7000908
:0107E8000907
:0107E9000807
:0107EA000806
:0107EB000706
:0107EC000705
:0107ED000704
:0107EE000604
:0107EF000603
:0107F0000602
:0107F1000502
:0107F2000501
:0107F3000401
:0107F4000400
:0107F50004FF
:0107F60003FF
:0107F70003FE
:0107F80003FD
:0107F90002FD
:0107FA0002FC
:0107FB0001FC
:0107FC0001FB
:0107FD0001FA
:0107FE0000FA
:0107FF0000F9
:00000001ff
