:020000040000FA
:020000000000FE
:020001000300FA
:020002000200FA
:020003000102F8
:020004000003F7
:020005000306F0
:020006000208EE
:02000700010CEA
:02000800000FE7
:020009000314DE
:02000A000218DA
:02000B00011DD5
:02000C000023CF
:02000D000329C5
:02000E000230BE
:02000F000137B7
:02001000003FAF
:020011000347A3
:02001200024F9B
:02001300015892
:02001400006288
:02001500036C7A
:02001600027670
:02001700018165
:02001800008C5A
:0200190003984A
:02001A0002A43E
:02001B0001B131
:02001C0000BE24
:02001D0003CC12
:02001E0002DA04
:02001F0001E9F5
:0200200000F8E6
:020021000007D6
:020022000317C2
:020023000228B1
:020024000138A1
:02002500004A8F
:02002600035C79
:02002700026E67
:02002800018055
:02002900009441
:02002A0003A72A
:02002B0002BB16
:02002C0001D001
:02002D0000E4ED
:02002E0003FAD3
:02002F000310BC
:020030000226A6
:02003100013C90
:02003200005379
:02003300036B5D
:02003400028345
:02003500019B2D
:0200360000B414
:0200370003CDF7
:0200380002E7DD
:020039000201C2
:02003A00011BA8
:02003B0000368D
:02003C0003526D
:02003D00026D52
:02003E00018A35
:02003F0000A619
:0200400003C3F8
:0200410002E1DA
:0200420001FFBC
:02004300011D9D
:02004400003C7E
:02004500035B5B
:02004600027A3C
:02004700019A1C
:0200480000BAFC
:0200490003DBD7
:02004A0002FCB6
:02004B00021E93
:02004C00014071
:02004D0000624F
:02004E00038528
:02004F0002A805
:0200500001CCE1
:0200510000F0BD
:02005200001498
:0200530003396F
:02005400025E4A
:02005500018325
:0200560000A9FF
:0200570003D0D4
:0200580002F6AE
:02005900021D86
:02005A0001455E
:02005B00006D36
:02005C0003950A
:02005D0002BEE1
:02005E0001E7B8
:02005F0001108E
:02006000003A64
:02006100036436
:02006200028F0B
:0200630001BAE0
:0200640000E5B5
:02006500001188
:02006600033D58
:0200670002692C
:020068000196FF
:0200690000C3D2
:02006A0003F1A0
:02006B00031F71
:02006C00024D43
:02006D00017C14
:02006E0000ABE5
:02006F0003DBB1
:02007000030A81
:02007100023A51
:02007200016B20
:02007300009CEF
:0200740003CDBA
:0200750002FF88
:02007600023155
:02007700016323
:020078000096F0
:0200790003C9B9
:02007A0002FC86
:02007B00023051
:02007C0001641D
:02007D000099E8
:02007E0003CEAF
:02007F00030379
:02008000023844
:02008100016E0E
:0200820000A5D7
:0200830003DB9D
:02008400031265
:0200850002492E
:020086000181F6
:0200870000B9BE
:0200880003F182
:02008900032A48
:02008A0002630F
:02008B00019CD6
:02008C0000D69C
:02008D00001061
:02008E00034B22
:02008F000285E8
:0200900001C0AD
:0200910000FC71
:02009200003834
:020093000374F4
:0200940002B0B8
:0200950001ED7B
:02009600012A3D
:02009700006700
:0200980003A5BE
:0200990002E380
:02009A00022141
:02009B00016002
:02009C00009FC3
:02009D0003DF7F
:02009E00031E3F
:02009F00025EFF
:0200A000019FBE
:0200A10000DF7E
:0200A20000203C
:0200A3000362F6
:0200A40002A3B5
:0200A50001E573
:0200A60001282F
:0200A700006AED
:0200A80003ADA6
:0200A90002F063
:0200AA0002341E
:0200AB000178DA
:0200AC0000BC96
:0200AD00000051
:0200AE00034508
:0200AF00028AC3
:0200B00001D07D
:0200B100011537
:0200B200005CF0
:0200B30003A2A6
:0200B40002E95F
:0200B500023017
:0200B6000177D0
:0200B70000BE89
:0200B800000640
:0200B900034EF4
:0200BA000297AB
:0200BB0001E062
:0200BC00012918
:0200BD000072CF
:0200BE0003BC81
:0200BF00030636
:0200C0000250EC
:0200C100019BA1
:0200C20000E656
:0200C30000310A
:0200C400037DBA
:0200C50002C86F
:0200C600021422
:0200C7000161D5
:0200C80000AE88
:0200C90003FA38
:0200CA000348E9
:0200CB0002959C
:0200CC0001E34E
:0200CD000131FF
:0200CE000080B0
:0200CF0003CE5E
:0200D000031D0E
:0200D100026DBE
:0200D20001BC6F
:0200D300010C1E
:0200D400005CCE
:0200D50003AD79
:0200D60002FD29
:0200D700024ED7
:0200D80001A085
:0200D90000F134
:0200DA000043E1
:0200DB0003958B
:0200DC0002E838
:0200DD00023AE5
:0200DE00018D92
:0200DF0000E13E
:0200E0000034EA
:0200E100038892
:0200E20002DC3E
:0200E3000230E9
:0200E400018594
:0200E50000DA3F
:0200E600002FE9
:0200E700038490
:0200E80002DA3A
:0200E9000230E3
:0200EA0001868D
:0200EB0000DD36
:0200EC000034DE
:0200ED00038B83
:0200EE0002E22C
:0200EF000239D4
:0200F00001917C
:0200F10000E924
:0200F2000042CA
:0200F300039A6E
:0200F40002F315
:0200F500024DBA
:0200F60001A661
:0200F700010006
:0200F800005AAC
:0200F90003B44E
:0200FA00030EF3
:0200FB00026998
:0200FC0001C43D
:0200FD00011FE1
:0200FE00007B85
:0200FF0003D725
:020100000333C7
:02010100028F6B
:0201020001EC0E
:020103000148B1
:0201040000A554
:020105000003F5
:02010600036094
:0201070002BE36
:02010800021CD7
:02010900017A79
:02010A0000D91A
:02010B000038BA
:02010C00039757
:02010D0002F6F8
:02010E00025697
:02010F0001B637
:020110000116D6
:02011100007676
:0201120003D612
:020113000337B0
:0201140002984F
:0201150001FAED
:02011600015B8B
:0201170000BD29
:02011800001FC6
:02011900038160
:02011A0002E4FD
:02011B0002469A
:02011C0001A937
:02011D00010DD2
:02011E0000706F
:02011F0003D407
:020120000338A2
:02012100029C3E
:020122000200D9
:02012300016574
:0201240000CA0F
:02012500002FA9
:02012600039440
:0201270002FADA
:02012800026073
:0201290001C60D
:02012A00012CA6
:02012B0000933F
:02012C0003F9D5
:02012D0003606D
:02012E0002C805
:02012F00022F9D
:02013000019735
:0201310000FFCD
:02013200006764
:0201330003CFF8
:0201340003388E
:0201350002A026
:020136000209BC
:02013700017352
:0201380000DCE9
:0201390000467E
:02013A0003B010
:02013B00031AA5
:02013C0002843B
:02013D0001EFD0
:02013E00015A64
:02013F0000C5F9
:0201400000308D
:02014100039C1D
:020142000307B1
:02014300027345
:0201440001E0D8
:02014500014C6B
:0201460000B9FE
:02014700002591
:02014800039220
:020149000300B1
:02014A00026D44
:02014B0001DBD6
:02014C00014967
:02014D0000B7F9
:02014E0000258A
:02014F00039417
:020150000303A7
:02015100027139
:0201520001E1C9
:02015300015059
:0201540000C0E9
:02015500003078
:0201560003A004
:02015700031093
:02015800028023
:0201590001F1B2
:02015A00016240
:02015B0000D3CF
:02015C0000445D
:02015D0003B6E7
:02015E00032775
:02015F00029903
:02016000020B90
:02016100017E1D
:0201620000F0AB
:02016300006337
:0201640003D6C0
:0201650003494C
:0201660002BCD9
:02016700023064
:0201680001A4F0
:0201690001187B
:02016A00008C07
:02016B00000092
:02016C00037519
:02016D0002EAA4
:02016E00025F2E
:02016F0001D4B9
:02017000014943
:0201710000BFCD
:02017200003457
:0201730003AADD
:02017400032165
:020175000297EF
:02017600020D78
:02017700018401
:0201780000FB8A
:02017900007212
:02017A0003EA96
:02017B0003611E
:02017C0002D9A6
:02017D0002512D
:02017E0001C9B5
:02017F0001413C
:0201800000BAC3
:0201810000324A
:0201820003ABCD
:02018300032453
:02018400029ED9
:0201850002175F
:020186000191E5
:02018700010B6A
:020188000085F0
:0201890003FF72
:02018A000379F7
:02018B0002F47C
:02018C00026F00
:02018D0001EA85
:02018E00016509
:02018F0000E08E
:02019000005C11
:0201910003D792
:02019200035315
:0201930002CF99
:02019400024C1B
:0201950001C89F
:02019600014521
:0201970000C1A5
:02019800003E27
:0201990003BCA5
:02019A00033927
:02019B0002B7A9
:02019C0002342B
:02019D0001B2AD
:02019E0001302E
:02019F0000AFAF
:0201A000002D30
:0201A10003ACAD
:0201A200032A2E
:0201A30002A9AF
:0201A40002292E
:0201A50001A8AF
:0201A60001282E
:0201A70000A7AF
:0201A80000272E
:0201A90003A7AA
:0201AA00032729
:0201AB0002A8A8
:0201AC00022827
:0201AD0001A9A6
:0201AE00012A24
:0201AF0000ABA3
:0201B000002D20
:0201B10003AE9B
:0201B200033018
:0201B30002B197
:0201B400023314
:0201B50001B691
:0201B60001380E
:0201B70000BA8C
:0201B800003D08
:0201B90003C081
:0201BA000343FD
:0201BB0002C67A
:0201BC000249F6
:0201BD0001CD72
:0201BE000151ED
:0201BF0000D569
:0201C0000059E4
:0201C10003DD5C
:0201C2000361D7
:0201C30002E652
:0201C400026ACD
:0201C50001EF48
:0201C6000174C2
:0201C70000F93D
:0201C800007FB6
:0201C900000430
:0201CA00038AA6
:0201CB0003101F
:0201CC00029699
:0201CD00021C12
:0201CE0001A28C
:0201CF00012904
:0201D00000B07D
:0201D1000037F5
:0201D20003BE6A
:0201D3000345E2
:0201D40002CC5B
:0201D5000254D2
:0201D60001DB4B
:0201D7000163C2
:0201D80000EB3A
:0201D9000073B1
:0201DA0003FB25
:0201DB0003849B
:0201DC00030C12
:0201DD00029589
:0201DE00021EFF
:0201DF0001A776
:0201E0000131EB
:0201E10000BA62
:0201E2000043D8
:0201E30003CD4A
:0201E4000357BF
:0201E50002E135
:0201E600026BAA
:0201E70001F61F
:0201E800018094
:0201E900010B08
:0201EA0000967D
:0201EB000021F1
:0201EC0003AC62
:0201ED000337D6
:0201EE0002C24B
:0201EF00024EBE
:0201F00001DA32
:0201F1000166A5
:0201F20000F219
:0201F300007E8C
:0201F400000AFF
:0201F50003976E
:0201F6000323E1
:0201F70002B054
:0201F800023DC6
:0201F90001CA39
:0201FA000158AA
:0201FB0000E51D
:0201FC0000728F
:0201FD00000000
:0201FE00038E6E
:0201FF00031CDF
:0202000002AA50
:020201000238C1
:0202020001C732
:020203000155A3
:0202040000E414
:02020500007384
:020206000002F4
:02020700039161
:020208000321D0
:0202090002B041
:02020A000240B0
:02020B0001D020
:02020C00015F90
:02020D0000EF00
:02020E0000806E
:02020F000010DD
:0202100003A049
:020211000331B7
:0202120002C226
:02021300025394
:0202140001E403
:02021500017571
:020216000106DF
:0202170000984D
:02021800002ABA
:0202190003BB25
:02021A00034D92
:02021B0002DF00
:02021C0002716D
:02021D000204D9
:02021E00019647
:02021F000129B3
:0202200000BC20
:02022100004E8D
:0202220003E1F6
:02022300037561
:020224000308CD
:02022500029B3A
:02022600022FA5
:0202270001C311
:0202280001577C
:0202290000EBE8
:02022A00007F53
:02022B000013BE
:02022C0003A726
:02022D00033C90
:02022E0002D1FB
:02022F00026566
:0202300001FAD1
:02023100018F3B
:020232000125A4
:0202330000BA0F
:02023400004F79
:0202350003E5DF
:02023600037B48
:020237000311B1
:0202380002A71B
:02023900023D84
:02023A0001D3EE
:02023B00016A56
:02023C000100BF
:02023D00009728
:02023E00002E90
:02023F0003C5F5
:02024000035C5D
:0202410002F3C6
:02024200028A2E
:02024300022295
:0202440001B9FE
:02024500015165
:0202460000E9CD
:02024700008134
:0202480000199B
:0202490003B1FF
:02024A00034A65
:02024B0002E2CD
:02024C00027B33
:02024D0002139A
:02024E0001AC01
:02024F00014567
:0202500000DFCD
:02025100007833
:02025200001199
:0202530003ABFB
:02025400034461
:0202550002DEC7
:0202560002782C
:02025700021291
:0202580001ACF7
:0202590001475B
:02025A0000E1C1
:02025B00007B26
:02025C0000168A
:02025D0003B1EB
:02025E00034C4F
:02025F0002E7B4
:02026000028218
:02026100021D7C
:0202620001B9E0
:02026300015444
:0202640000F0A8
:02026500008C0B
:0202660000286E
:0202670003C4CE
:02026800036031
:0202690002FC95
:02026A000298F8
:02026B0002355A
:02026C0001D1BE
:02026D00016E20
:02026E00010B82
:02026F0000A8E5
:02027000004547
:0202710003E2A6
:02027200038007
:02027300031D69
:0202740002BBCB
:0202750002582D
:0202760001F68F
:020277000194F0
:02027800013251
:0202790000D0B3
:02027A00006F13
:02027B00000D74
:02027C0003ACD1
:02027D00034A32
:02027E0002E993
:02027F000288F3
:02028000022753
:0202810001C6B4
:02028200016514
:02028300010573
:0202840000A4D4
:02028500004433
:0202860003E390
:020287000383EF
:0202880003234E
:0202890002C3AE
:02028A0002630D
:02028B0002036C
:02028C0001A4CB
:02028D0001442A
:02028E0000E589
:02028F000086E7
:02029000002745
:0202910003C7A1
:020292000369FE
:02029300030A5C
:0202940002ABBB
:02029500024C19
:0202960001EE77
:020297000190D4
:02029800013132
:0202990000D390
:02029A000075ED
:02029B0000174A
:02029C0003B9A4
:02029D00035C00
:02029E0002FE5E
:02029F0002A1BA
:0202A000024317
:0202A10001E674
:0202A2000189D0
:0202A300012C2C
:0202A40000CF89
:0202A5000072E5
:0202A600001541
:0202A70003B999
:0202A800035CF5
:0202A900030050
:0202AA0002A3AD
:0202AB00024708
:0202AC0001EB64
:0202AD00018FBF
:0202AE0001331A
:0202AF0000D875
:0202B000007CD0
:0202B10000202B
:0202B20003C582
:0202B300036ADC
:0202B400030E37
:0202B50002B392
:0202B6000258EC
:0202B70001FD47
:0202B80001A3A0
:0202B9000148FA
:0202BA0000ED55
:0202BB000093AE
:0202BC00003907
:0202BD0003DE5E
:0202BE000384B7
:0202BF00032A10
:0202C00002D06A
:0202C1000276C3
:0202C200021D1B
:0202C30001C375
:0202C4000169CE
:0202C500011026
:0202C60000B77F
:0202C700005DD8
:0202C800000430
:0202C90003AB85
:0202CA000352DD
:0202CB0002F936
:0202CC0002A18D
:0202CD000248E5
:0202CE0001F03D
:0202CF00019795
:0202D000013FEC
:0202D10000E744
:0202D200008F9B
:0202D3000037F2
:0202D40003DF46
:0202D50003879D
:0202D600032FF4
:0202D70002D84B
:0202D8000280A2
:0202D9000229F8
:0202DA0001D150
:0202DB00017AA6
:0202DC000123FC
:0202DD0000CC53
:0202DE000075A9
:0202DF00001EFF
:0202E00003C851
:0202E1000371A7
:0202E200031BFC
:0202E30002C453
:0202E400026EA8
:0202E5000218FD
:0202E60001C154
:0202E700016BA9
:0202E8000116FD
:0202E90000C053
:0202EA00006AA8
:0202EB000014FD
:0202EC0003BF4E
:0202ED000369A3
:0202EE000314F7
:0202EF0002BF4C
:0202F000026AA0
:0202F1000215F4
:0202F20001C049
:0202F300016B9D
:0202F4000116F1
:0202F50000C146
:0202F600006D99
:0202F7000018ED
:0202F80003C43D
:0202F900037090
:0202FA00031BE4
:0202FB0002C738
:0202FC0002738B
:0202FD00021FDE
:0202FE0001CB32
:0202FF00017884
:020300000124D6
:0203010000D129
:02030200007D7C
:02030300002ACE
:0203040003D61E
:02030500038370
:020306000330C2
:0203070002DD15
:02030800028A67
:020309000238B8
:02030A0001E50B
:02030B0001925D
:02030C000140AE
:02030D0000ED01
:02030E00009B52
:02030F000049A3
:0203100003F6F2
:0203110003A443
:02031200035294
:020313000300E5
:0203140002AF36
:02031500025D87
:02031600020BD8
:0203170001BA29
:0203180001687A
:020319000117CA
:02031A0000C61B
:02031B0000756B
:02031C000024BB
:02031D0003D308
:02031E00038258
:02031F000331A8
:0203200002E0F9
:02032100028F49
:02032200023F98
:0203230001EEE9
:02032400019E38
:02032500014E87
:0203260000FED7
:0203270000AD27
:02032800005D76
:02032900000DC5
:02032A0003BE10
:02032B00036E5F
:02032C00031EAE
:02032D0002CFFD
:02032E00027F4C
:02032F0002309A
:0203300001E0EA
:02033100019138
:02033200014286
:0203330000F3D5
:0203340000A423
:02033500005571
:020336000006BF
:0203370003B70A
:02033800036957
:02033900031AA5
:02033A0002CCF3
:02033B00027D41
:02033C00022F8E
:02033D0001E1DC
:02033E00019329
:02033F00014576
:0203400000F7C4
:0203410000A911
:02034200005B5E
:02034300000DAB
:0203440003C0F4
:02034500037241
:0203460003258D
:0203470002D7DB
:02034800028A27
:02034900023D73
:02034A0001F0C0
:02034B0001A30C
:02034C00015658
:02034D000109A4
:02034E0000BCF1
:02034F00006F3D
:02035000002388
:0203510003D6D1
:0203520003891D
:02035300033D68
:0203540002F1B4
:0203550002A5FF
:0203560002584B
:02035700020C96
:0203580001C0E2
:0203590001742D
:02035A00012977
:02035B0000DDC3
:02035C0000910E
:02035D00004658
:02035E0003FAA0
:02035F0003AFEA
:02036000036335
:0203610003187F
:0203620002CDCA
:02036300028214
:0203640002375E
:0203650001ECA9
:0203660001A1F3
:0203670001563D
:02036800010B87
:0203690000C1D1
:02036A0000761B
:02036B00002C64
:02036C0003E1AB
:02036D000397F4
:02036E00034D3D
:02036F00030386
:0203700002B9D0
:02037100026F19
:02037200022562
:0203730001DBAC
:020374000191F5
:0203750001473E
:0203760000FE87
:0203770000B4D0
:02037800006B18
:02037900002161
:02037A0003D8A6
:02037B00038FEE
:02037C00034636
:02037D0002FC80
:02037E0002B3C8
:02037F00026A10
:02038000022257
:0203810001D9A0
:020382000190E8
:0203830001482F
:0203840000FF78
:0203850000B6C0
:02038600006E07
:0203870000264E
:0203880003DE92
:020389000395DA
:02038A00034D21
:02038B00030568
:02038C0002BDB0
:02038D000275F7
:02038E00022E3D
:02038F0001E685
:02039000019ECC
:02039100015712
:02039200010F59
:0203930000C8A0
:020394000080E7
:0203950000392D
:0203960003F270
:0203970003ABB6
:020398000364FC
:02039900031D42
:02039A0002D689
:02039B00028FCF
:02039C00024815
:02039D0002015B
:02039E0001BBA1
:02039F000174E7
:0203A000012E2C
:0203A10000E773
:0203A20000A1B8
:0203A300005BFD
:0203A400001443
:0203A50003CE85
:0203A6000388CA
:0203A70003420F
:0203A80002FC55
:0203A90002B799
:0203AA000271DE
:0203AB00022B23
:0203AC0001E569
:0203AD0001A0AD
:0203AE00015AF2
:0203AF00011536
:0203B00000D07B
:0203B100008AC0
:0203B200004504
:0203B300000048
:0203B40003BB89
:0203B5000376CD
:0203B600033111
:0203B70002EC56
:0203B80002A79A
:0203B9000263DD
:0203BA00021E21
:0203BB0001D966
:0203BC000195A9
:0203BD000151EC
:0203BE00010C30
:0203BF0000C874
:0203C0000084B7
:0203C100003FFB
:0203C20003FB3B
:0203C30003B77E
:0203C4000373C1
:0203C500033003
:0203C60002EC47
:0203C70002A88A
:0203C8000264CD
:0203C90002210F
:0203CA0001DD53
:0203CB00019A95
:0203CC000156D8
:0203CD0001131A
:0203CE0000D05D
:0203CF00008CA0
:0203D0000049E2
:0203D100000624
:0203D20003C363
:0203D3000380A5
:0203D400033DE7
:0203D50002FB29
:0203D60002B86B
:0203D7000275AD
:0203D8000232EF
:0203D90001F031
:0203DA0001AD73
:0203DB00016BB4
:0203DC000129F5
:0203DD0000E638
:0203DE0000A479
:0203DF000062BA
:0203E0000020FB
:0203E10003DE39
:0203E200039C7A
:0203E300035ABB
:0203E4000318FC
:0203E50002D73D
:0203E60002957E
:0203E7000253BF
:0203E8000212FF
:0203E90001D041
:0203EA00018F81
:0203EB00014DC2
:0203EC00010C02
:0203ED0000CB43
:0203EE00008A83
:0203EF000049C3
:0203F000000803
:0203F10003C740
:0203F200038680
:0203F3000345C0
:0203F400030400
:0203F50002C341
:0203F600028380
:0203F7000242C0
:0203F8000202FF
:0203F90001C140
:0203FA0001817F
:0203FB000140BF
:0203FC000100FE
:0203FD0000C03E
:0203FE0000807D
:0203FF000040BC
:00000001ff
